{"abi":[{"inputs":[{"internalType":"uint256","name":"minimum","type":"uint256"},{"internalType":"address","name":"creator","type":"address"}],"stateMutability":"nonpayable","type":"constructor"},{"inputs":[{"internalType":"address","name":"","type":"address"}],"name":"approvers","outputs":[{"internalType":"bool","name":"","type":"bool"}],"stateMutability":"view","type":"function"},{"inputs":[{"internalType":"string","name":"billOfLanding","type":"string"},{"internalType":"uint256","name":"index","type":"uint256"}],"name":"createLogisticsBill","outputs":[],"stateMutability":"nonpayable","type":"function"},{"inputs":[{"internalType":"string","name":"deliveryRecipt","type":"string"},{"internalType":"uint256","name":"index","type":"uint256"}],"name":"createManufacturerDelivery","outputs":[],"stateMutability":"nonpayable","type":"function"},{"inputs":[{"internalType":"string","name":"orderId","type":"string"},{"internalType":"string","name":"manufacturerName","type":"string"},{"internalType":"string","name":"supplierName","type":"string"},{"internalType":"string","name":"invoiceReport","type":"string"}],"name":"createManufacturerInvoice","outputs":[],"stateMutability":"nonpayable","type":"function"},{"inputs":[{"internalType":"string","name":"rmReport","type":"string"},{"internalType":"string","name":"qualityReport","type":"string"},{"internalType":"string","name":"insuranceReport","type":"string"},{"internalType":"uint256","name":"index","type":"uint256"}],"name":"createSupplierReports","outputs":[],"stateMutability":"nonpayable","type":"function"},{"inputs":[{"internalType":"string","name":"logisticsName","type":"string"},{"internalType":"string","name":"shipmentDetailsReport","type":"string"},{"internalType":"uint256","name":"index","type":"uint256"}],"name":"createSupplierShipment","outputs":[],"stateMutability":"nonpayable","type":"function"},{"inputs":[],"name":"getSupplyChainDataCount","outputs":[{"internalType":"uint256","name":"","type":"uint256"}],"stateMutability":"view","type":"function"},{"inputs":[],"name":"manager","outputs":[{"internalType":"address","name":"","type":"address"}],"stateMutability":"view","type":"function"},{"inputs":[],"name":"minimumContribution","outputs":[{"internalType":"uint256","name":"","type":"uint256"}],"stateMutability":"view","type":"function"},{"inputs":[{"internalType":"uint256","name":"","type":"uint256"}],"name":"supplyChainDatas","outputs":[{"internalType":"string","name":"orderID","type":"string"},{"internalType":"string","name":"manufacturerName","type":"string"},{"internalType":"string","name":"supplierName","type":"string"},{"internalType":"string","name":"invoiceReport","type":"string"},{"internalType":"string","name":"deliveryRecipt","type":"string"},{"internalType":"string","name":"logisticsName","type":"string"},{"internalType":"string","name":"rmReport","type":"string"},{"internalType":"string","name":"qualityReport","type":"string"},{"internalType":"string","name":"insuranceReport","type":"string"},{"internalType":"string","name":"shipmentDetailsReport","type":"string"},{"internalType":"string","name":"billOfLanding","type":"string"},{"internalType":"bool","name":"status","type":"bool"}],"stateMutability":"view","type":"function"}],"devdoc":{"kind":"dev","methods":{},"version":1},"evm":{"assembly":"    /* \"Campaign.sol\":465:6882  contract Campaign {... */\n  mstore(0x40, 0x80)\n    /* \"Campaign.sol\":1940:2060  constructor (uint minimum, address creator) {... */\n  callvalue\n  dup1\n  iszero\n  tag_1\n  jumpi\n  0x00\n  dup1\n  revert\ntag_1:\n  pop\n  mload(0x40)\n  sub(codesize, bytecodeSize)\n  dup1\n  bytecodeSize\n  dup4\n  codecopy\n  dup2\n  dup2\n  add\n  0x40\n  mstore\n  dup2\n  add\n  swap1\n  tag_2\n  swap2\n  swap1\n  tag_3\n  jump\t// in\ntag_2:\n    /* \"Campaign.sol\":2005:2012  creator */\n  dup1\n    /* \"Campaign.sol\":1995:2002  manager */\n  0x01\n  0x00\n    /* \"Campaign.sol\":1995:2012  manager = creator */\n  0x0100\n  exp\n  dup2\n  sload\n  dup2\n  0xffffffffffffffffffffffffffffffffffffffff\n  mul\n  not\n  and\n  swap1\n  dup4\n  0xffffffffffffffffffffffffffffffffffffffff\n  and\n  mul\n  or\n  swap1\n  sstore\n  pop\n    /* \"Campaign.sol\":2045:2052  minimum */\n  dup2\n    /* \"Campaign.sol\":2023:2042  minimumContribution */\n  0x02\n    /* \"Campaign.sol\":2023:2052  minimumContribution = minimum */\n  dup2\n  swap1\n  sstore\n  pop\n    /* \"Campaign.sol\":1940:2060  constructor (uint minimum, address creator) {... */\n  pop\n  pop\n    /* \"Campaign.sol\":465:6882  contract Campaign {... */\n  jump(tag_6)\n    /* \"#utility.yul\":88:205   */\ntag_8:\n    /* \"#utility.yul\":197:198   */\n  0x00\n    /* \"#utility.yul\":194:195   */\n  dup1\n    /* \"#utility.yul\":187:199   */\n  revert\n    /* \"#utility.yul\":334:411   */\ntag_10:\n    /* \"#utility.yul\":371:378   */\n  0x00\n    /* \"#utility.yul\":400:405   */\n  dup2\n    /* \"#utility.yul\":389:405   */\n  swap1\n  pop\n    /* \"#utility.yul\":334:411   */\n  swap2\n  swap1\n  pop\n  jump\t// out\n    /* \"#utility.yul\":417:539   */\ntag_11:\n    /* \"#utility.yul\":490:514   */\n  tag_23\n    /* \"#utility.yul\":508:513   */\n  dup2\n    /* \"#utility.yul\":490:514   */\n  tag_10\n  jump\t// in\ntag_23:\n    /* \"#utility.yul\":483:488   */\n  dup2\n    /* \"#utility.yul\":480:515   */\n  eq\n    /* \"#utility.yul\":470:533   */\n  tag_24\n  jumpi\n    /* \"#utility.yul\":529:530   */\n  0x00\n    /* \"#utility.yul\":526:527   */\n  dup1\n    /* \"#utility.yul\":519:531   */\n  revert\n    /* \"#utility.yul\":470:533   */\ntag_24:\n    /* \"#utility.yul\":417:539   */\n  pop\n  jump\t// out\n    /* \"#utility.yul\":545:688   */\ntag_12:\n    /* \"#utility.yul\":602:607   */\n  0x00\n    /* \"#utility.yul\":633:639   */\n  dup2\n    /* \"#utility.yul\":627:640   */\n  mload\n    /* \"#utility.yul\":618:640   */\n  swap1\n  pop\n    /* \"#utility.yul\":649:682   */\n  tag_26\n    /* \"#utility.yul\":676:681   */\n  dup2\n    /* \"#utility.yul\":649:682   */\n  tag_11\n  jump\t// in\ntag_26:\n    /* \"#utility.yul\":545:688   */\n  swap3\n  swap2\n  pop\n  pop\n  jump\t// out\n    /* \"#utility.yul\":694:820   */\ntag_13:\n    /* \"#utility.yul\":731:738   */\n  0x00\n    /* \"#utility.yul\":771:813   */\n  0xffffffffffffffffffffffffffffffffffffffff\n    /* \"#utility.yul\":764:769   */\n  dup3\n    /* \"#utility.yul\":760:814   */\n  and\n    /* \"#utility.yul\":749:814   */\n  swap1\n  pop\n    /* \"#utility.yul\":694:820   */\n  swap2\n  swap1\n  pop\n  jump\t// out\n    /* \"#utility.yul\":826:922   */\ntag_14:\n    /* \"#utility.yul\":863:870   */\n  0x00\n    /* \"#utility.yul\":892:916   */\n  tag_29\n    /* \"#utility.yul\":910:915   */\n  dup3\n    /* \"#utility.yul\":892:916   */\n  tag_13\n  jump\t// in\ntag_29:\n    /* \"#utility.yul\":881:916   */\n  swap1\n  pop\n    /* \"#utility.yul\":826:922   */\n  swap2\n  swap1\n  pop\n  jump\t// out\n    /* \"#utility.yul\":928:1050   */\ntag_15:\n    /* \"#utility.yul\":1001:1025   */\n  tag_31\n    /* \"#utility.yul\":1019:1024   */\n  dup2\n    /* \"#utility.yul\":1001:1025   */\n  tag_14\n  jump\t// in\ntag_31:\n    /* \"#utility.yul\":994:999   */\n  dup2\n    /* \"#utility.yul\":991:1026   */\n  eq\n    /* \"#utility.yul\":981:1044   */\n  tag_32\n  jumpi\n    /* \"#utility.yul\":1040:1041   */\n  0x00\n    /* \"#utility.yul\":1037:1038   */\n  dup1\n    /* \"#utility.yul\":1030:1042   */\n  revert\n    /* \"#utility.yul\":981:1044   */\ntag_32:\n    /* \"#utility.yul\":928:1050   */\n  pop\n  jump\t// out\n    /* \"#utility.yul\":1056:1199   */\ntag_16:\n    /* \"#utility.yul\":1113:1118   */\n  0x00\n    /* \"#utility.yul\":1144:1150   */\n  dup2\n    /* \"#utility.yul\":1138:1151   */\n  mload\n    /* \"#utility.yul\":1129:1151   */\n  swap1\n  pop\n    /* \"#utility.yul\":1160:1193   */\n  tag_34\n    /* \"#utility.yul\":1187:1192   */\n  dup2\n    /* \"#utility.yul\":1160:1193   */\n  tag_15\n  jump\t// in\ntag_34:\n    /* \"#utility.yul\":1056:1199   */\n  swap3\n  swap2\n  pop\n  pop\n  jump\t// out\n    /* \"#utility.yul\":1205:1712   */\ntag_3:\n    /* \"#utility.yul\":1284:1290   */\n  0x00\n    /* \"#utility.yul\":1292:1298   */\n  dup1\n    /* \"#utility.yul\":1341:1343   */\n  0x40\n    /* \"#utility.yul\":1329:1338   */\n  dup4\n    /* \"#utility.yul\":1320:1327   */\n  dup6\n    /* \"#utility.yul\":1316:1339   */\n  sub\n    /* \"#utility.yul\":1312:1344   */\n  slt\n    /* \"#utility.yul\":1309:1428   */\n  iszero\n  tag_36\n  jumpi\n    /* \"#utility.yul\":1347:1426   */\n  tag_37\n  tag_8\n  jump\t// in\ntag_37:\n    /* \"#utility.yul\":1309:1428   */\ntag_36:\n    /* \"#utility.yul\":1467:1468   */\n  0x00\n    /* \"#utility.yul\":1492:1556   */\n  tag_38\n    /* \"#utility.yul\":1548:1555   */\n  dup6\n    /* \"#utility.yul\":1539:1545   */\n  dup3\n    /* \"#utility.yul\":1528:1537   */\n  dup7\n    /* \"#utility.yul\":1524:1546   */\n  add\n    /* \"#utility.yul\":1492:1556   */\n  tag_12\n  jump\t// in\ntag_38:\n    /* \"#utility.yul\":1482:1556   */\n  swap3\n  pop\n    /* \"#utility.yul\":1438:1566   */\n  pop\n    /* \"#utility.yul\":1605:1607   */\n  0x20\n    /* \"#utility.yul\":1631:1695   */\n  tag_39\n    /* \"#utility.yul\":1687:1694   */\n  dup6\n    /* \"#utility.yul\":1678:1684   */\n  dup3\n    /* \"#utility.yul\":1667:1676   */\n  dup7\n    /* \"#utility.yul\":1663:1685   */\n  add\n    /* \"#utility.yul\":1631:1695   */\n  tag_16\n  jump\t// in\ntag_39:\n    /* \"#utility.yul\":1621:1695   */\n  swap2\n  pop\n    /* \"#utility.yul\":1576:1705   */\n  pop\n    /* \"#utility.yul\":1205:1712   */\n  swap3\n  pop\n  swap3\n  swap1\n  pop\n  jump\t// out\n    /* \"Campaign.sol\":465:6882  contract Campaign {... */\ntag_6:\n  dataSize(sub_0)\n  dup1\n  dataOffset(sub_0)\n  0x00\n  codecopy\n  0x00\n  return\nstop\n\nsub_0: assembly {\n        /* \"Campaign.sol\":465:6882  contract Campaign {... */\n      mstore(0x40, 0x80)\n      callvalue\n      dup1\n      iszero\n      tag_1\n      jumpi\n      0x00\n      dup1\n      revert\n    tag_1:\n      pop\n      jumpi(tag_2, lt(calldatasize, 0x04))\n      shr(0xe0, calldataload(0x00))\n      dup1\n      0x8001bd7c\n      gt\n      tag_13\n      jumpi\n      dup1\n      0x8001bd7c\n      eq\n      tag_8\n      jumpi\n      dup1\n      0x937e09b1\n      eq\n      tag_9\n      jumpi\n      dup1\n      0xabf689f0\n      eq\n      tag_10\n      jumpi\n      dup1\n      0xee532422\n      eq\n      tag_11\n      jumpi\n      dup1\n      0xf7580f9a\n      eq\n      tag_12\n      jumpi\n      jump(tag_2)\n    tag_13:\n      dup1\n      0x0a144391\n      eq\n      tag_3\n      jumpi\n      dup1\n      0x144fbfb5\n      eq\n      tag_4\n      jumpi\n      dup1\n      0x194fc7e5\n      eq\n      tag_5\n      jumpi\n      dup1\n      0x481c6a75\n      eq\n      tag_6\n      jumpi\n      dup1\n      0x5ba2271e\n      eq\n      tag_7\n      jumpi\n    tag_2:\n      0x00\n      dup1\n      revert\n        /* \"Campaign.sol\":1763:1804  mapping(address => bool) public approvers */\n    tag_3:\n      tag_14\n      0x04\n      dup1\n      calldatasize\n      sub\n      dup2\n      add\n      swap1\n      tag_15\n      swap2\n      swap1\n      tag_16\n      jump\t// in\n    tag_15:\n      tag_17\n      jump\t// in\n    tag_14:\n      mload(0x40)\n      tag_18\n      swap2\n      swap1\n      tag_19\n      jump\t// in\n    tag_18:\n      mload(0x40)\n      dup1\n      swap2\n      sub\n      swap1\n      return\n        /* \"Campaign.sol\":4963:5297  function createSupplierShipment(string memory logisticsName, string memory shipmentDetailsReport, uint index) public  {... */\n    tag_4:\n      tag_20\n      0x04\n      dup1\n      calldatasize\n      sub\n      dup2\n      add\n      swap1\n      tag_21\n      swap2\n      swap1\n      tag_22\n      jump\t// in\n    tag_21:\n      tag_23\n      jump\t// in\n    tag_20:\n      stop\n        /* \"Campaign.sol\":4078:4457  function createManufacturerDelivery(string memory deliveryRecipt, uint index ) public {... */\n    tag_5:\n      tag_24\n      0x04\n      dup1\n      calldatasize\n      sub\n      dup2\n      add\n      swap1\n      tag_25\n      swap2\n      swap1\n      tag_26\n      jump\t// in\n    tag_25:\n      tag_27\n      jump\t// in\n    tag_24:\n      stop\n        /* \"Campaign.sol\":1696:1718  address public manager */\n    tag_6:\n      tag_28\n      tag_29\n      jump\t// in\n    tag_28:\n      mload(0x40)\n      tag_30\n      swap2\n      swap1\n      tag_31\n      jump\t// in\n    tag_30:\n      mload(0x40)\n      dup1\n      swap2\n      sub\n      swap1\n      return\n        /* \"Campaign.sol\":6769:6879  function getSupplyChainDataCount() public view returns (uint){... */\n    tag_7:\n      tag_32\n      tag_33\n      jump\t// in\n    tag_32:\n      mload(0x40)\n      tag_34\n      swap2\n      swap1\n      tag_35\n      jump\t// in\n    tag_34:\n      mload(0x40)\n      dup1\n      swap2\n      sub\n      swap1\n      return\n        /* \"Campaign.sol\":1611:1652  SupplyChainData[] public supplyChainDatas */\n    tag_8:\n      tag_36\n      0x04\n      dup1\n      calldatasize\n      sub\n      dup2\n      add\n      swap1\n      tag_37\n      swap2\n      swap1\n      tag_38\n      jump\t// in\n    tag_37:\n      tag_39\n      jump\t// in\n    tag_36:\n      mload(0x40)\n      tag_40\n      swap13\n      swap12\n      swap11\n      swap10\n      swap9\n      swap8\n      swap7\n      swap6\n      swap5\n      swap4\n      swap3\n      swap2\n      swap1\n      tag_41\n      jump\t// in\n    tag_40:\n      mload(0x40)\n      dup1\n      swap2\n      sub\n      swap1\n      return\n        /* \"Campaign.sol\":1725:1756  uint public minimumContribution */\n    tag_9:\n      tag_42\n      tag_43\n      jump\t// in\n    tag_42:\n      mload(0x40)\n      tag_44\n      swap2\n      swap1\n      tag_35\n      jump\t// in\n    tag_44:\n      mload(0x40)\n      dup1\n      swap2\n      sub\n      swap1\n      return\n        /* \"Campaign.sol\":4465:4955  function createSupplierReports(string memory rmReport,string memory qualityReport, string memory insuranceReport, uint index) public {... */\n    tag_10:\n      tag_45\n      0x04\n      dup1\n      calldatasize\n      sub\n      dup2\n      add\n      swap1\n      tag_46\n      swap2\n      swap1\n      tag_47\n      jump\t// in\n    tag_46:\n      tag_48\n      jump\t// in\n    tag_45:\n      stop\n        /* \"Campaign.sol\":3557:4068  function createManufacturerInvoice(string memory orderId, string memory manufacturerName,string memory supplierName,string memory invoiceReport) public {... */\n    tag_11:\n      tag_49\n      0x04\n      dup1\n      calldatasize\n      sub\n      dup2\n      add\n      swap1\n      tag_50\n      swap2\n      swap1\n      tag_51\n      jump\t// in\n    tag_50:\n      tag_52\n      jump\t// in\n    tag_49:\n      stop\n        /* \"Campaign.sol\":5305:5534  function createLogisticsBill( string memory billOfLanding, uint index) public  {... */\n    tag_12:\n      tag_53\n      0x04\n      dup1\n      calldatasize\n      sub\n      dup2\n      add\n      swap1\n      tag_54\n      swap2\n      swap1\n      tag_26\n      jump\t// in\n    tag_54:\n      tag_55\n      jump\t// in\n    tag_53:\n      stop\n        /* \"Campaign.sol\":1763:1804  mapping(address => bool) public approvers */\n    tag_17:\n      mstore(0x20, 0x03)\n      dup1\n      0x00\n      mstore\n      keccak256(0x00, 0x40)\n      0x00\n      swap2\n      pop\n      sload\n      swap1\n      0x0100\n      exp\n      swap1\n      div\n      0xff\n      and\n      dup2\n      jump\t// out\n        /* \"Campaign.sol\":4963:5297  function createSupplierShipment(string memory logisticsName, string memory shipmentDetailsReport, uint index) public  {... */\n    tag_23:\n        /* \"Campaign.sol\":5092:5131  SupplyChainData storage supplyChainData */\n      0x00\n        /* \"Campaign.sol\":5134:5150  supplyChainDatas */\n      dup1\n        /* \"Campaign.sol\":5151:5156  index */\n      dup3\n        /* \"Campaign.sol\":5134:5157  supplyChainDatas[index] */\n      dup2\n      sload\n      dup2\n      lt\n      tag_57\n      jumpi\n      tag_58\n      tag_59\n      jump\t// in\n    tag_58:\n    tag_57:\n      swap1\n      0x00\n      mstore\n      keccak256(0x00, 0x20)\n      swap1\n      0x0c\n      mul\n      add\n        /* \"Campaign.sol\":5092:5157  SupplyChainData storage supplyChainData = supplyChainDatas[index] */\n      swap1\n      pop\n        /* \"Campaign.sol\":5202:5215  logisticsName */\n      dup4\n        /* \"Campaign.sol\":5170:5185  supplyChainData */\n      dup2\n        /* \"Campaign.sol\":5170:5199  supplyChainData.logisticsName */\n      0x05\n      add\n        /* \"Campaign.sol\":5170:5215  supplyChainData.logisticsName = logisticsName */\n      swap1\n      dup2\n      tag_61\n      swap2\n      swap1\n      tag_62\n      jump\t// in\n    tag_61:\n      pop\n        /* \"Campaign.sol\":5266:5287  shipmentDetailsReport */\n      dup3\n        /* \"Campaign.sol\":5226:5241  supplyChainData */\n      dup2\n        /* \"Campaign.sol\":5226:5263  supplyChainData.shipmentDetailsReport */\n      0x09\n      add\n        /* \"Campaign.sol\":5226:5287  supplyChainData.shipmentDetailsReport = shipmentDetailsReport */\n      swap1\n      dup2\n      tag_63\n      swap2\n      swap1\n      tag_62\n      jump\t// in\n    tag_63:\n      pop\n        /* \"Campaign.sol\":5081:5297  {... */\n      pop\n        /* \"Campaign.sol\":4963:5297  function createSupplierShipment(string memory logisticsName, string memory shipmentDetailsReport, uint index) public  {... */\n      pop\n      pop\n      pop\n      jump\t// out\n        /* \"Campaign.sol\":4078:4457  function createManufacturerDelivery(string memory deliveryRecipt, uint index ) public {... */\n    tag_27:\n        /* \"Campaign.sol\":4274:4313  SupplyChainData storage supplyChainData */\n      0x00\n        /* \"Campaign.sol\":4316:4332  supplyChainDatas */\n      dup1\n        /* \"Campaign.sol\":4333:4338  index */\n      dup3\n        /* \"Campaign.sol\":4316:4339  supplyChainDatas[index] */\n      dup2\n      sload\n      dup2\n      lt\n      tag_65\n      jumpi\n      tag_66\n      tag_59\n      jump\t// in\n    tag_66:\n    tag_65:\n      swap1\n      0x00\n      mstore\n      keccak256(0x00, 0x20)\n      swap1\n      0x0c\n      mul\n      add\n        /* \"Campaign.sol\":4274:4339  SupplyChainData storage supplyChainData = supplyChainDatas[index] */\n      swap1\n      pop\n        /* \"Campaign.sol\":4385:4399  deliveryRecipt */\n      dup3\n        /* \"Campaign.sol\":4352:4367  supplyChainData */\n      dup2\n        /* \"Campaign.sol\":4352:4382  supplyChainData.deliveryRecipt */\n      0x04\n      add\n        /* \"Campaign.sol\":4352:4399  supplyChainData.deliveryRecipt = deliveryRecipt */\n      swap1\n      dup2\n      tag_68\n      swap2\n      swap1\n      tag_62\n      jump\t// in\n    tag_68:\n      pop\n        /* \"Campaign.sol\":4435:4439  true */\n      0x01\n        /* \"Campaign.sol\":4410:4425  supplyChainData */\n      dup2\n        /* \"Campaign.sol\":4410:4432  supplyChainData.status */\n      0x0b\n      add\n      0x00\n        /* \"Campaign.sol\":4410:4439  supplyChainData.status = true */\n      0x0100\n      exp\n      dup2\n      sload\n      dup2\n      0xff\n      mul\n      not\n      and\n      swap1\n      dup4\n      iszero\n      iszero\n      mul\n      or\n      swap1\n      sstore\n      pop\n        /* \"Campaign.sol\":4164:4457  {... */\n      pop\n        /* \"Campaign.sol\":4078:4457  function createManufacturerDelivery(string memory deliveryRecipt, uint index ) public {... */\n      pop\n      pop\n      jump\t// out\n        /* \"Campaign.sol\":1696:1718  address public manager */\n    tag_29:\n      0x01\n      0x00\n      swap1\n      sload\n      swap1\n      0x0100\n      exp\n      swap1\n      div\n      0xffffffffffffffffffffffffffffffffffffffff\n      and\n      dup2\n      jump\t// out\n        /* \"Campaign.sol\":6769:6879  function getSupplyChainDataCount() public view returns (uint){... */\n    tag_33:\n        /* \"Campaign.sol\":6825:6829  uint */\n      0x00\n        /* \"Campaign.sol\":6848:6864  supplyChainDatas */\n      dup1\n        /* \"Campaign.sol\":6848:6871  supplyChainDatas.length */\n      dup1\n      sload\n      swap1\n      pop\n        /* \"Campaign.sol\":6841:6871  return supplyChainDatas.length */\n      swap1\n      pop\n        /* \"Campaign.sol\":6769:6879  function getSupplyChainDataCount() public view returns (uint){... */\n      swap1\n      jump\t// out\n        /* \"Campaign.sol\":1611:1652  SupplyChainData[] public supplyChainDatas */\n    tag_39:\n      0x00\n      dup2\n      dup2\n      sload\n      dup2\n      lt\n      tag_70\n      jumpi\n      0x00\n      dup1\n      revert\n    tag_70:\n      swap1\n      0x00\n      mstore\n      keccak256(0x00, 0x20)\n      swap1\n      0x0c\n      mul\n      add\n      0x00\n      swap2\n      pop\n      swap1\n      pop\n      dup1\n      0x00\n      add\n      dup1\n      sload\n      tag_72\n      swap1\n      tag_73\n      jump\t// in\n    tag_72:\n      dup1\n      0x1f\n      add\n      0x20\n      dup1\n      swap2\n      div\n      mul\n      0x20\n      add\n      mload(0x40)\n      swap1\n      dup2\n      add\n      0x40\n      mstore\n      dup1\n      swap3\n      swap2\n      swap1\n      dup2\n      dup2\n      mstore\n      0x20\n      add\n      dup3\n      dup1\n      sload\n      tag_74\n      swap1\n      tag_73\n      jump\t// in\n    tag_74:\n      dup1\n      iszero\n      tag_75\n      jumpi\n      dup1\n      0x1f\n      lt\n      tag_76\n      jumpi\n      0x0100\n      dup1\n      dup4\n      sload\n      div\n      mul\n      dup4\n      mstore\n      swap2\n      0x20\n      add\n      swap2\n      jump(tag_75)\n    tag_76:\n      dup3\n      add\n      swap2\n      swap1\n      0x00\n      mstore\n      keccak256(0x00, 0x20)\n      swap1\n    tag_77:\n      dup2\n      sload\n      dup2\n      mstore\n      swap1\n      0x01\n      add\n      swap1\n      0x20\n      add\n      dup1\n      dup4\n      gt\n      tag_77\n      jumpi\n      dup3\n      swap1\n      sub\n      0x1f\n      and\n      dup3\n      add\n      swap2\n    tag_75:\n      pop\n      pop\n      pop\n      pop\n      pop\n      swap1\n      dup1\n      0x01\n      add\n      dup1\n      sload\n      tag_78\n      swap1\n      tag_73\n      jump\t// in\n    tag_78:\n      dup1\n      0x1f\n      add\n      0x20\n      dup1\n      swap2\n      div\n      mul\n      0x20\n      add\n      mload(0x40)\n      swap1\n      dup2\n      add\n      0x40\n      mstore\n      dup1\n      swap3\n      swap2\n      swap1\n      dup2\n      dup2\n      mstore\n      0x20\n      add\n      dup3\n      dup1\n      sload\n      tag_79\n      swap1\n      tag_73\n      jump\t// in\n    tag_79:\n      dup1\n      iszero\n      tag_80\n      jumpi\n      dup1\n      0x1f\n      lt\n      tag_81\n      jumpi\n      0x0100\n      dup1\n      dup4\n      sload\n      div\n      mul\n      dup4\n      mstore\n      swap2\n      0x20\n      add\n      swap2\n      jump(tag_80)\n    tag_81:\n      dup3\n      add\n      swap2\n      swap1\n      0x00\n      mstore\n      keccak256(0x00, 0x20)\n      swap1\n    tag_82:\n      dup2\n      sload\n      dup2\n      mstore\n      swap1\n      0x01\n      add\n      swap1\n      0x20\n      add\n      dup1\n      dup4\n      gt\n      tag_82\n      jumpi\n      dup3\n      swap1\n      sub\n      0x1f\n      and\n      dup3\n      add\n      swap2\n    tag_80:\n      pop\n      pop\n      pop\n      pop\n      pop\n      swap1\n      dup1\n      0x02\n      add\n      dup1\n      sload\n      tag_83\n      swap1\n      tag_73\n      jump\t// in\n    tag_83:\n      dup1\n      0x1f\n      add\n      0x20\n      dup1\n      swap2\n      div\n      mul\n      0x20\n      add\n      mload(0x40)\n      swap1\n      dup2\n      add\n      0x40\n      mstore\n      dup1\n      swap3\n      swap2\n      swap1\n      dup2\n      dup2\n      mstore\n      0x20\n      add\n      dup3\n      dup1\n      sload\n      tag_84\n      swap1\n      tag_73\n      jump\t// in\n    tag_84:\n      dup1\n      iszero\n      tag_85\n      jumpi\n      dup1\n      0x1f\n      lt\n      tag_86\n      jumpi\n      0x0100\n      dup1\n      dup4\n      sload\n      div\n      mul\n      dup4\n      mstore\n      swap2\n      0x20\n      add\n      swap2\n      jump(tag_85)\n    tag_86:\n      dup3\n      add\n      swap2\n      swap1\n      0x00\n      mstore\n      keccak256(0x00, 0x20)\n      swap1\n    tag_87:\n      dup2\n      sload\n      dup2\n      mstore\n      swap1\n      0x01\n      add\n      swap1\n      0x20\n      add\n      dup1\n      dup4\n      gt\n      tag_87\n      jumpi\n      dup3\n      swap1\n      sub\n      0x1f\n      and\n      dup3\n      add\n      swap2\n    tag_85:\n      pop\n      pop\n      pop\n      pop\n      pop\n      swap1\n      dup1\n      0x03\n      add\n      dup1\n      sload\n      tag_88\n      swap1\n      tag_73\n      jump\t// in\n    tag_88:\n      dup1\n      0x1f\n      add\n      0x20\n      dup1\n      swap2\n      div\n      mul\n      0x20\n      add\n      mload(0x40)\n      swap1\n      dup2\n      add\n      0x40\n      mstore\n      dup1\n      swap3\n      swap2\n      swap1\n      dup2\n      dup2\n      mstore\n      0x20\n      add\n      dup3\n      dup1\n      sload\n      tag_89\n      swap1\n      tag_73\n      jump\t// in\n    tag_89:\n      dup1\n      iszero\n      tag_90\n      jumpi\n      dup1\n      0x1f\n      lt\n      tag_91\n      jumpi\n      0x0100\n      dup1\n      dup4\n      sload\n      div\n      mul\n      dup4\n      mstore\n      swap2\n      0x20\n      add\n      swap2\n      jump(tag_90)\n    tag_91:\n      dup3\n      add\n      swap2\n      swap1\n      0x00\n      mstore\n      keccak256(0x00, 0x20)\n      swap1\n    tag_92:\n      dup2\n      sload\n      dup2\n      mstore\n      swap1\n      0x01\n      add\n      swap1\n      0x20\n      add\n      dup1\n      dup4\n      gt\n      tag_92\n      jumpi\n      dup3\n      swap1\n      sub\n      0x1f\n      and\n      dup3\n      add\n      swap2\n    tag_90:\n      pop\n      pop\n      pop\n      pop\n      pop\n      swap1\n      dup1\n      0x04\n      add\n      dup1\n      sload\n      tag_93\n      swap1\n      tag_73\n      jump\t// in\n    tag_93:\n      dup1\n      0x1f\n      add\n      0x20\n      dup1\n      swap2\n      div\n      mul\n      0x20\n      add\n      mload(0x40)\n      swap1\n      dup2\n      add\n      0x40\n      mstore\n      dup1\n      swap3\n      swap2\n      swap1\n      dup2\n      dup2\n      mstore\n      0x20\n      add\n      dup3\n      dup1\n      sload\n      tag_94\n      swap1\n      tag_73\n      jump\t// in\n    tag_94:\n      dup1\n      iszero\n      tag_95\n      jumpi\n      dup1\n      0x1f\n      lt\n      tag_96\n      jumpi\n      0x0100\n      dup1\n      dup4\n      sload\n      div\n      mul\n      dup4\n      mstore\n      swap2\n      0x20\n      add\n      swap2\n      jump(tag_95)\n    tag_96:\n      dup3\n      add\n      swap2\n      swap1\n      0x00\n      mstore\n      keccak256(0x00, 0x20)\n      swap1\n    tag_97:\n      dup2\n      sload\n      dup2\n      mstore\n      swap1\n      0x01\n      add\n      swap1\n      0x20\n      add\n      dup1\n      dup4\n      gt\n      tag_97\n      jumpi\n      dup3\n      swap1\n      sub\n      0x1f\n      and\n      dup3\n      add\n      swap2\n    tag_95:\n      pop\n      pop\n      pop\n      pop\n      pop\n      swap1\n      dup1\n      0x05\n      add\n      dup1\n      sload\n      tag_98\n      swap1\n      tag_73\n      jump\t// in\n    tag_98:\n      dup1\n      0x1f\n      add\n      0x20\n      dup1\n      swap2\n      div\n      mul\n      0x20\n      add\n      mload(0x40)\n      swap1\n      dup2\n      add\n      0x40\n      mstore\n      dup1\n      swap3\n      swap2\n      swap1\n      dup2\n      dup2\n      mstore\n      0x20\n      add\n      dup3\n      dup1\n      sload\n      tag_99\n      swap1\n      tag_73\n      jump\t// in\n    tag_99:\n      dup1\n      iszero\n      tag_100\n      jumpi\n      dup1\n      0x1f\n      lt\n      tag_101\n      jumpi\n      0x0100\n      dup1\n      dup4\n      sload\n      div\n      mul\n      dup4\n      mstore\n      swap2\n      0x20\n      add\n      swap2\n      jump(tag_100)\n    tag_101:\n      dup3\n      add\n      swap2\n      swap1\n      0x00\n      mstore\n      keccak256(0x00, 0x20)\n      swap1\n    tag_102:\n      dup2\n      sload\n      dup2\n      mstore\n      swap1\n      0x01\n      add\n      swap1\n      0x20\n      add\n      dup1\n      dup4\n      gt\n      tag_102\n      jumpi\n      dup3\n      swap1\n      sub\n      0x1f\n      and\n      dup3\n      add\n      swap2\n    tag_100:\n      pop\n      pop\n      pop\n      pop\n      pop\n      swap1\n      dup1\n      0x06\n      add\n      dup1\n      sload\n      tag_103\n      swap1\n      tag_73\n      jump\t// in\n    tag_103:\n      dup1\n      0x1f\n      add\n      0x20\n      dup1\n      swap2\n      div\n      mul\n      0x20\n      add\n      mload(0x40)\n      swap1\n      dup2\n      add\n      0x40\n      mstore\n      dup1\n      swap3\n      swap2\n      swap1\n      dup2\n      dup2\n      mstore\n      0x20\n      add\n      dup3\n      dup1\n      sload\n      tag_104\n      swap1\n      tag_73\n      jump\t// in\n    tag_104:\n      dup1\n      iszero\n      tag_105\n      jumpi\n      dup1\n      0x1f\n      lt\n      tag_106\n      jumpi\n      0x0100\n      dup1\n      dup4\n      sload\n      div\n      mul\n      dup4\n      mstore\n      swap2\n      0x20\n      add\n      swap2\n      jump(tag_105)\n    tag_106:\n      dup3\n      add\n      swap2\n      swap1\n      0x00\n      mstore\n      keccak256(0x00, 0x20)\n      swap1\n    tag_107:\n      dup2\n      sload\n      dup2\n      mstore\n      swap1\n      0x01\n      add\n      swap1\n      0x20\n      add\n      dup1\n      dup4\n      gt\n      tag_107\n      jumpi\n      dup3\n      swap1\n      sub\n      0x1f\n      and\n      dup3\n      add\n      swap2\n    tag_105:\n      pop\n      pop\n      pop\n      pop\n      pop\n      swap1\n      dup1\n      0x07\n      add\n      dup1\n      sload\n      tag_108\n      swap1\n      tag_73\n      jump\t// in\n    tag_108:\n      dup1\n      0x1f\n      add\n      0x20\n      dup1\n      swap2\n      div\n      mul\n      0x20\n      add\n      mload(0x40)\n      swap1\n      dup2\n      add\n      0x40\n      mstore\n      dup1\n      swap3\n      swap2\n      swap1\n      dup2\n      dup2\n      mstore\n      0x20\n      add\n      dup3\n      dup1\n      sload\n      tag_109\n      swap1\n      tag_73\n      jump\t// in\n    tag_109:\n      dup1\n      iszero\n      tag_110\n      jumpi\n      dup1\n      0x1f\n      lt\n      tag_111\n      jumpi\n      0x0100\n      dup1\n      dup4\n      sload\n      div\n      mul\n      dup4\n      mstore\n      swap2\n      0x20\n      add\n      swap2\n      jump(tag_110)\n    tag_111:\n      dup3\n      add\n      swap2\n      swap1\n      0x00\n      mstore\n      keccak256(0x00, 0x20)\n      swap1\n    tag_112:\n      dup2\n      sload\n      dup2\n      mstore\n      swap1\n      0x01\n      add\n      swap1\n      0x20\n      add\n      dup1\n      dup4\n      gt\n      tag_112\n      jumpi\n      dup3\n      swap1\n      sub\n      0x1f\n      and\n      dup3\n      add\n      swap2\n    tag_110:\n      pop\n      pop\n      pop\n      pop\n      pop\n      swap1\n      dup1\n      0x08\n      add\n      dup1\n      sload\n      tag_113\n      swap1\n      tag_73\n      jump\t// in\n    tag_113:\n      dup1\n      0x1f\n      add\n      0x20\n      dup1\n      swap2\n      div\n      mul\n      0x20\n      add\n      mload(0x40)\n      swap1\n      dup2\n      add\n      0x40\n      mstore\n      dup1\n      swap3\n      swap2\n      swap1\n      dup2\n      dup2\n      mstore\n      0x20\n      add\n      dup3\n      dup1\n      sload\n      tag_114\n      swap1\n      tag_73\n      jump\t// in\n    tag_114:\n      dup1\n      iszero\n      tag_115\n      jumpi\n      dup1\n      0x1f\n      lt\n      tag_116\n      jumpi\n      0x0100\n      dup1\n      dup4\n      sload\n      div\n      mul\n      dup4\n      mstore\n      swap2\n      0x20\n      add\n      swap2\n      jump(tag_115)\n    tag_116:\n      dup3\n      add\n      swap2\n      swap1\n      0x00\n      mstore\n      keccak256(0x00, 0x20)\n      swap1\n    tag_117:\n      dup2\n      sload\n      dup2\n      mstore\n      swap1\n      0x01\n      add\n      swap1\n      0x20\n      add\n      dup1\n      dup4\n      gt\n      tag_117\n      jumpi\n      dup3\n      swap1\n      sub\n      0x1f\n      and\n      dup3\n      add\n      swap2\n    tag_115:\n      pop\n      pop\n      pop\n      pop\n      pop\n      swap1\n      dup1\n      0x09\n      add\n      dup1\n      sload\n      tag_118\n      swap1\n      tag_73\n      jump\t// in\n    tag_118:\n      dup1\n      0x1f\n      add\n      0x20\n      dup1\n      swap2\n      div\n      mul\n      0x20\n      add\n      mload(0x40)\n      swap1\n      dup2\n      add\n      0x40\n      mstore\n      dup1\n      swap3\n      swap2\n      swap1\n      dup2\n      dup2\n      mstore\n      0x20\n      add\n      dup3\n      dup1\n      sload\n      tag_119\n      swap1\n      tag_73\n      jump\t// in\n    tag_119:\n      dup1\n      iszero\n      tag_120\n      jumpi\n      dup1\n      0x1f\n      lt\n      tag_121\n      jumpi\n      0x0100\n      dup1\n      dup4\n      sload\n      div\n      mul\n      dup4\n      mstore\n      swap2\n      0x20\n      add\n      swap2\n      jump(tag_120)\n    tag_121:\n      dup3\n      add\n      swap2\n      swap1\n      0x00\n      mstore\n      keccak256(0x00, 0x20)\n      swap1\n    tag_122:\n      dup2\n      sload\n      dup2\n      mstore\n      swap1\n      0x01\n      add\n      swap1\n      0x20\n      add\n      dup1\n      dup4\n      gt\n      tag_122\n      jumpi\n      dup3\n      swap1\n      sub\n      0x1f\n      and\n      dup3\n      add\n      swap2\n    tag_120:\n      pop\n      pop\n      pop\n      pop\n      pop\n      swap1\n      dup1\n      0x0a\n      add\n      dup1\n      sload\n      tag_123\n      swap1\n      tag_73\n      jump\t// in\n    tag_123:\n      dup1\n      0x1f\n      add\n      0x20\n      dup1\n      swap2\n      div\n      mul\n      0x20\n      add\n      mload(0x40)\n      swap1\n      dup2\n      add\n      0x40\n      mstore\n      dup1\n      swap3\n      swap2\n      swap1\n      dup2\n      dup2\n      mstore\n      0x20\n      add\n      dup3\n      dup1\n      sload\n      tag_124\n      swap1\n      tag_73\n      jump\t// in\n    tag_124:\n      dup1\n      iszero\n      tag_125\n      jumpi\n      dup1\n      0x1f\n      lt\n      tag_126\n      jumpi\n      0x0100\n      dup1\n      dup4\n      sload\n      div\n      mul\n      dup4\n      mstore\n      swap2\n      0x20\n      add\n      swap2\n      jump(tag_125)\n    tag_126:\n      dup3\n      add\n      swap2\n      swap1\n      0x00\n      mstore\n      keccak256(0x00, 0x20)\n      swap1\n    tag_127:\n      dup2\n      sload\n      dup2\n      mstore\n      swap1\n      0x01\n      add\n      swap1\n      0x20\n      add\n      dup1\n      dup4\n      gt\n      tag_127\n      jumpi\n      dup3\n      swap1\n      sub\n      0x1f\n      and\n      dup3\n      add\n      swap2\n    tag_125:\n      pop\n      pop\n      pop\n      pop\n      pop\n      swap1\n      dup1\n      0x0b\n      add\n      0x00\n      swap1\n      sload\n      swap1\n      0x0100\n      exp\n      swap1\n      div\n      0xff\n      and\n      swap1\n      pop\n      dup13\n      jump\t// out\n        /* \"Campaign.sol\":1725:1756  uint public minimumContribution */\n    tag_43:\n      sload(0x02)\n      dup2\n      jump\t// out\n        /* \"Campaign.sol\":4465:4955  function createSupplierReports(string memory rmReport,string memory qualityReport, string memory insuranceReport, uint index) public {... */\n    tag_48:\n        /* \"Campaign.sol\":4609:4648  SupplyChainData storage supplyChainData */\n      0x00\n        /* \"Campaign.sol\":4651:4667  supplyChainDatas */\n      dup1\n        /* \"Campaign.sol\":4668:4673  index */\n      dup3\n        /* \"Campaign.sol\":4651:4674  supplyChainDatas[index] */\n      dup2\n      sload\n      dup2\n      lt\n      tag_129\n      jumpi\n      tag_130\n      tag_59\n      jump\t// in\n    tag_130:\n    tag_129:\n      swap1\n      0x00\n      mstore\n      keccak256(0x00, 0x20)\n      swap1\n      0x0c\n      mul\n      add\n        /* \"Campaign.sol\":4609:4674  SupplyChainData storage supplyChainData = supplyChainDatas[index] */\n      swap1\n      pop\n        /* \"Campaign.sol\":4714:4722  rmReport */\n      dup5\n        /* \"Campaign.sol\":4687:4702  supplyChainData */\n      dup2\n        /* \"Campaign.sol\":4687:4711  supplyChainData.rmReport */\n      0x06\n      add\n        /* \"Campaign.sol\":4687:4722  supplyChainData.rmReport = rmReport */\n      swap1\n      dup2\n      tag_132\n      swap2\n      swap1\n      tag_62\n      jump\t// in\n    tag_132:\n      pop\n        /* \"Campaign.sol\":4765:4778  qualityReport */\n      dup4\n        /* \"Campaign.sol\":4733:4748  supplyChainData */\n      dup2\n        /* \"Campaign.sol\":4733:4762  supplyChainData.qualityReport */\n      0x07\n      add\n        /* \"Campaign.sol\":4733:4778  supplyChainData.qualityReport = qualityReport */\n      swap1\n      dup2\n      tag_133\n      swap2\n      swap1\n      tag_62\n      jump\t// in\n    tag_133:\n      pop\n        /* \"Campaign.sol\":4823:4838  insuranceReport */\n      dup3\n        /* \"Campaign.sol\":4789:4804  supplyChainData */\n      dup2\n        /* \"Campaign.sol\":4789:4820  supplyChainData.insuranceReport */\n      0x08\n      add\n        /* \"Campaign.sol\":4789:4838  supplyChainData.insuranceReport = insuranceReport */\n      swap1\n      dup2\n      tag_134\n      swap2\n      swap1\n      tag_62\n      jump\t// in\n    tag_134:\n      pop\n        /* \"Campaign.sol\":4598:4955  {... */\n      pop\n        /* \"Campaign.sol\":4465:4955  function createSupplierReports(string memory rmReport,string memory qualityReport, string memory insuranceReport, uint index) public {... */\n      pop\n      pop\n      pop\n      pop\n      jump\t// out\n        /* \"Campaign.sol\":3557:4068  function createManufacturerInvoice(string memory orderId, string memory manufacturerName,string memory supplierName,string memory invoiceReport) public {... */\n    tag_52:\n        /* \"Campaign.sol\":3720:3762  SupplyChainData storage newSupplyChainData */\n      0x00\n        /* \"Campaign.sol\":3765:3781  supplyChainDatas */\n      dup1\n        /* \"Campaign.sol\":3765:3788  supplyChainDatas.push() */\n      0x01\n      dup2\n      0x01\n      dup2\n      sload\n      add\n      dup1\n      dup3\n      sstore\n      dup1\n      swap2\n      pop\n      pop\n      sub\n      swap1\n      0x00\n      mstore\n      keccak256(0x00, 0x20)\n      swap1\n      0x0c\n      mul\n      add\n        /* \"Campaign.sol\":3720:3788  SupplyChainData storage newSupplyChainData = supplyChainDatas.push() */\n      swap1\n      pop\n        /* \"Campaign.sol\":3828:3835  orderId */\n      dup5\n        /* \"Campaign.sol\":3799:3817  newSupplyChainData */\n      dup2\n        /* \"Campaign.sol\":3799:3825  newSupplyChainData.orderID */\n      0x00\n      add\n        /* \"Campaign.sol\":3799:3835  newSupplyChainData.orderID = orderId */\n      swap1\n      dup2\n      tag_137\n      swap2\n      swap1\n      tag_62\n      jump\t// in\n    tag_137:\n      pop\n        /* \"Campaign.sol\":3884:3900  manufacturerName */\n      dup4\n        /* \"Campaign.sol\":3846:3864  newSupplyChainData */\n      dup2\n        /* \"Campaign.sol\":3846:3881  newSupplyChainData.manufacturerName */\n      0x01\n      add\n        /* \"Campaign.sol\":3846:3900  newSupplyChainData.manufacturerName = manufacturerName */\n      swap1\n      dup2\n      tag_138\n      swap2\n      swap1\n      tag_62\n      jump\t// in\n    tag_138:\n      pop\n        /* \"Campaign.sol\":3945:3957  supplierName */\n      dup3\n        /* \"Campaign.sol\":3911:3929  newSupplyChainData */\n      dup2\n        /* \"Campaign.sol\":3911:3942  newSupplyChainData.supplierName */\n      0x02\n      add\n        /* \"Campaign.sol\":3911:3957  newSupplyChainData.supplierName = supplierName */\n      swap1\n      dup2\n      tag_139\n      swap2\n      swap1\n      tag_62\n      jump\t// in\n    tag_139:\n      pop\n        /* \"Campaign.sol\":4003:4016  invoiceReport */\n      dup2\n        /* \"Campaign.sol\":3968:3986  newSupplyChainData */\n      dup2\n        /* \"Campaign.sol\":3968:4000  newSupplyChainData.invoiceReport */\n      0x03\n      add\n        /* \"Campaign.sol\":3968:4016  newSupplyChainData.invoiceReport = invoiceReport */\n      swap1\n      dup2\n      tag_140\n      swap2\n      swap1\n      tag_62\n      jump\t// in\n    tag_140:\n      pop\n        /* \"Campaign.sol\":4055:4060  false */\n      0x00\n        /* \"Campaign.sol\":4027:4045  newSupplyChainData */\n      dup2\n        /* \"Campaign.sol\":4027:4052  newSupplyChainData.status */\n      0x0b\n      add\n      0x00\n        /* \"Campaign.sol\":4027:4060  newSupplyChainData.status = false */\n      0x0100\n      exp\n      dup2\n      sload\n      dup2\n      0xff\n      mul\n      not\n      and\n      swap1\n      dup4\n      iszero\n      iszero\n      mul\n      or\n      swap1\n      sstore\n      pop\n        /* \"Campaign.sol\":3709:4068  {... */\n      pop\n        /* \"Campaign.sol\":3557:4068  function createManufacturerInvoice(string memory orderId, string memory manufacturerName,string memory supplierName,string memory invoiceReport) public {... */\n      pop\n      pop\n      pop\n      pop\n      jump\t// out\n        /* \"Campaign.sol\":5305:5534  function createLogisticsBill( string memory billOfLanding, uint index) public  {... */\n    tag_55:\n        /* \"Campaign.sol\":5395:5434  SupplyChainData storage supplyChainData */\n      0x00\n        /* \"Campaign.sol\":5437:5453  supplyChainDatas */\n      dup1\n        /* \"Campaign.sol\":5454:5459  index */\n      dup3\n        /* \"Campaign.sol\":5437:5460  supplyChainDatas[index] */\n      dup2\n      sload\n      dup2\n      lt\n      tag_142\n      jumpi\n      tag_143\n      tag_59\n      jump\t// in\n    tag_143:\n    tag_142:\n      swap1\n      0x00\n      mstore\n      keccak256(0x00, 0x20)\n      swap1\n      0x0c\n      mul\n      add\n        /* \"Campaign.sol\":5395:5460  SupplyChainData storage supplyChainData = supplyChainDatas[index] */\n      swap1\n      pop\n        /* \"Campaign.sol\":5511:5524  billOfLanding */\n      dup3\n        /* \"Campaign.sol\":5479:5494  supplyChainData */\n      dup2\n        /* \"Campaign.sol\":5479:5508  supplyChainData.billOfLanding */\n      0x0a\n      add\n        /* \"Campaign.sol\":5479:5524  supplyChainData.billOfLanding = billOfLanding */\n      swap1\n      dup2\n      tag_145\n      swap2\n      swap1\n      tag_62\n      jump\t// in\n    tag_145:\n      pop\n        /* \"Campaign.sol\":5384:5534  {... */\n      pop\n        /* \"Campaign.sol\":5305:5534  function createLogisticsBill( string memory billOfLanding, uint index) public  {... */\n      pop\n      pop\n      jump\t// out\n        /* \"#utility.yul\":7:82   */\n    tag_146:\n        /* \"#utility.yul\":40:46   */\n      0x00\n        /* \"#utility.yul\":73:75   */\n      0x40\n        /* \"#utility.yul\":67:76   */\n      mload\n        /* \"#utility.yul\":57:76   */\n      swap1\n      pop\n        /* \"#utility.yul\":7:82   */\n      swap1\n      jump\t// out\n        /* \"#utility.yul\":88:205   */\n    tag_147:\n        /* \"#utility.yul\":197:198   */\n      0x00\n        /* \"#utility.yul\":194:195   */\n      dup1\n        /* \"#utility.yul\":187:199   */\n      revert\n        /* \"#utility.yul\":211:328   */\n    tag_148:\n        /* \"#utility.yul\":320:321   */\n      0x00\n        /* \"#utility.yul\":317:318   */\n      dup1\n        /* \"#utility.yul\":310:322   */\n      revert\n        /* \"#utility.yul\":334:460   */\n    tag_149:\n        /* \"#utility.yul\":371:378   */\n      0x00\n        /* \"#utility.yul\":411:453   */\n      0xffffffffffffffffffffffffffffffffffffffff\n        /* \"#utility.yul\":404:409   */\n      dup3\n        /* \"#utility.yul\":400:454   */\n      and\n        /* \"#utility.yul\":389:454   */\n      swap1\n      pop\n        /* \"#utility.yul\":334:460   */\n      swap2\n      swap1\n      pop\n      jump\t// out\n        /* \"#utility.yul\":466:562   */\n    tag_150:\n        /* \"#utility.yul\":503:510   */\n      0x00\n        /* \"#utility.yul\":532:556   */\n      tag_196\n        /* \"#utility.yul\":550:555   */\n      dup3\n        /* \"#utility.yul\":532:556   */\n      tag_149\n      jump\t// in\n    tag_196:\n        /* \"#utility.yul\":521:556   */\n      swap1\n      pop\n        /* \"#utility.yul\":466:562   */\n      swap2\n      swap1\n      pop\n      jump\t// out\n        /* \"#utility.yul\":568:690   */\n    tag_151:\n        /* \"#utility.yul\":641:665   */\n      tag_198\n        /* \"#utility.yul\":659:664   */\n      dup2\n        /* \"#utility.yul\":641:665   */\n      tag_150\n      jump\t// in\n    tag_198:\n        /* \"#utility.yul\":634:639   */\n      dup2\n        /* \"#utility.yul\":631:666   */\n      eq\n        /* \"#utility.yul\":621:684   */\n      tag_199\n      jumpi\n        /* \"#utility.yul\":680:681   */\n      0x00\n        /* \"#utility.yul\":677:678   */\n      dup1\n        /* \"#utility.yul\":670:682   */\n      revert\n        /* \"#utility.yul\":621:684   */\n    tag_199:\n        /* \"#utility.yul\":568:690   */\n      pop\n      jump\t// out\n        /* \"#utility.yul\":696:835   */\n    tag_152:\n        /* \"#utility.yul\":742:747   */\n      0x00\n        /* \"#utility.yul\":780:786   */\n      dup2\n        /* \"#utility.yul\":767:787   */\n      calldataload\n        /* \"#utility.yul\":758:787   */\n      swap1\n      pop\n        /* \"#utility.yul\":796:829   */\n      tag_201\n        /* \"#utility.yul\":823:828   */\n      dup2\n        /* \"#utility.yul\":796:829   */\n      tag_151\n      jump\t// in\n    tag_201:\n        /* \"#utility.yul\":696:835   */\n      swap3\n      swap2\n      pop\n      pop\n      jump\t// out\n        /* \"#utility.yul\":841:1170   */\n    tag_16:\n        /* \"#utility.yul\":900:906   */\n      0x00\n        /* \"#utility.yul\":949:951   */\n      0x20\n        /* \"#utility.yul\":937:946   */\n      dup3\n        /* \"#utility.yul\":928:935   */\n      dup5\n        /* \"#utility.yul\":924:947   */\n      sub\n        /* \"#utility.yul\":920:952   */\n      slt\n        /* \"#utility.yul\":917:1036   */\n      iszero\n      tag_203\n      jumpi\n        /* \"#utility.yul\":955:1034   */\n      tag_204\n      tag_147\n      jump\t// in\n    tag_204:\n        /* \"#utility.yul\":917:1036   */\n    tag_203:\n        /* \"#utility.yul\":1075:1076   */\n      0x00\n        /* \"#utility.yul\":1100:1153   */\n      tag_205\n        /* \"#utility.yul\":1145:1152   */\n      dup5\n        /* \"#utility.yul\":1136:1142   */\n      dup3\n        /* \"#utility.yul\":1125:1134   */\n      dup6\n        /* \"#utility.yul\":1121:1143   */\n      add\n        /* \"#utility.yul\":1100:1153   */\n      tag_152\n      jump\t// in\n    tag_205:\n        /* \"#utility.yul\":1090:1153   */\n      swap2\n      pop\n        /* \"#utility.yul\":1046:1163   */\n      pop\n        /* \"#utility.yul\":841:1170   */\n      swap3\n      swap2\n      pop\n      pop\n      jump\t// out\n        /* \"#utility.yul\":1176:1266   */\n    tag_153:\n        /* \"#utility.yul\":1210:1217   */\n      0x00\n        /* \"#utility.yul\":1253:1258   */\n      dup2\n        /* \"#utility.yul\":1246:1259   */\n      iszero\n        /* \"#utility.yul\":1239:1260   */\n      iszero\n        /* \"#utility.yul\":1228:1260   */\n      swap1\n      pop\n        /* \"#utility.yul\":1176:1266   */\n      swap2\n      swap1\n      pop\n      jump\t// out\n        /* \"#utility.yul\":1272:1381   */\n    tag_154:\n        /* \"#utility.yul\":1353:1374   */\n      tag_208\n        /* \"#utility.yul\":1368:1373   */\n      dup2\n        /* \"#utility.yul\":1353:1374   */\n      tag_153\n      jump\t// in\n    tag_208:\n        /* \"#utility.yul\":1348:1351   */\n      dup3\n        /* \"#utility.yul\":1341:1375   */\n      mstore\n        /* \"#utility.yul\":1272:1381   */\n      pop\n      pop\n      jump\t// out\n        /* \"#utility.yul\":1387:1597   */\n    tag_19:\n        /* \"#utility.yul\":1474:1478   */\n      0x00\n        /* \"#utility.yul\":1512:1514   */\n      0x20\n        /* \"#utility.yul\":1501:1510   */\n      dup3\n        /* \"#utility.yul\":1497:1515   */\n      add\n        /* \"#utility.yul\":1489:1515   */\n      swap1\n      pop\n        /* \"#utility.yul\":1525:1590   */\n      tag_210\n        /* \"#utility.yul\":1587:1588   */\n      0x00\n        /* \"#utility.yul\":1576:1585   */\n      dup4\n        /* \"#utility.yul\":1572:1589   */\n      add\n        /* \"#utility.yul\":1563:1569   */\n      dup5\n        /* \"#utility.yul\":1525:1590   */\n      tag_154\n      jump\t// in\n    tag_210:\n        /* \"#utility.yul\":1387:1597   */\n      swap3\n      swap2\n      pop\n      pop\n      jump\t// out\n        /* \"#utility.yul\":1603:1720   */\n    tag_155:\n        /* \"#utility.yul\":1712:1713   */\n      0x00\n        /* \"#utility.yul\":1709:1710   */\n      dup1\n        /* \"#utility.yul\":1702:1714   */\n      revert\n        /* \"#utility.yul\":1726:1843   */\n    tag_156:\n        /* \"#utility.yul\":1835:1836   */\n      0x00\n        /* \"#utility.yul\":1832:1833   */\n      dup1\n        /* \"#utility.yul\":1825:1837   */\n      revert\n        /* \"#utility.yul\":1849:1951   */\n    tag_157:\n        /* \"#utility.yul\":1890:1896   */\n      0x00\n        /* \"#utility.yul\":1941:1943   */\n      0x1f\n        /* \"#utility.yul\":1937:1944   */\n      not\n        /* \"#utility.yul\":1932:1934   */\n      0x1f\n        /* \"#utility.yul\":1925:1930   */\n      dup4\n        /* \"#utility.yul\":1921:1935   */\n      add\n        /* \"#utility.yul\":1917:1945   */\n      and\n        /* \"#utility.yul\":1907:1945   */\n      swap1\n      pop\n        /* \"#utility.yul\":1849:1951   */\n      swap2\n      swap1\n      pop\n      jump\t// out\n        /* \"#utility.yul\":1957:2137   */\n    tag_158:\n        /* \"#utility.yul\":2005:2082   */\n      0x4e487b7100000000000000000000000000000000000000000000000000000000\n        /* \"#utility.yul\":2002:2003   */\n      0x00\n        /* \"#utility.yul\":1995:2083   */\n      mstore\n        /* \"#utility.yul\":2102:2106   */\n      0x41\n        /* \"#utility.yul\":2099:2100   */\n      0x04\n        /* \"#utility.yul\":2092:2107   */\n      mstore\n        /* \"#utility.yul\":2126:2130   */\n      0x24\n        /* \"#utility.yul\":2123:2124   */\n      0x00\n        /* \"#utility.yul\":2116:2131   */\n      revert\n        /* \"#utility.yul\":2143:2424   */\n    tag_159:\n        /* \"#utility.yul\":2226:2253   */\n      tag_216\n        /* \"#utility.yul\":2248:2252   */\n      dup3\n        /* \"#utility.yul\":2226:2253   */\n      tag_157\n      jump\t// in\n    tag_216:\n        /* \"#utility.yul\":2218:2224   */\n      dup2\n        /* \"#utility.yul\":2214:2254   */\n      add\n        /* \"#utility.yul\":2356:2362   */\n      dup2\n        /* \"#utility.yul\":2344:2354   */\n      dup2\n        /* \"#utility.yul\":2341:2363   */\n      lt\n        /* \"#utility.yul\":2320:2338   */\n      0xffffffffffffffff\n        /* \"#utility.yul\":2308:2318   */\n      dup3\n        /* \"#utility.yul\":2305:2339   */\n      gt\n        /* \"#utility.yul\":2302:2364   */\n      or\n        /* \"#utility.yul\":2299:2387   */\n      iszero\n      tag_217\n      jumpi\n        /* \"#utility.yul\":2367:2385   */\n      tag_218\n      tag_158\n      jump\t// in\n    tag_218:\n        /* \"#utility.yul\":2299:2387   */\n    tag_217:\n        /* \"#utility.yul\":2407:2417   */\n      dup1\n        /* \"#utility.yul\":2403:2405   */\n      0x40\n        /* \"#utility.yul\":2396:2418   */\n      mstore\n        /* \"#utility.yul\":2186:2424   */\n      pop\n        /* \"#utility.yul\":2143:2424   */\n      pop\n      pop\n      jump\t// out\n        /* \"#utility.yul\":2430:2559   */\n    tag_160:\n        /* \"#utility.yul\":2464:2470   */\n      0x00\n        /* \"#utility.yul\":2491:2511   */\n      tag_220\n      tag_146\n      jump\t// in\n    tag_220:\n        /* \"#utility.yul\":2481:2511   */\n      swap1\n      pop\n        /* \"#utility.yul\":2520:2553   */\n      tag_221\n        /* \"#utility.yul\":2548:2552   */\n      dup3\n        /* \"#utility.yul\":2540:2546   */\n      dup3\n        /* \"#utility.yul\":2520:2553   */\n      tag_159\n      jump\t// in\n    tag_221:\n        /* \"#utility.yul\":2430:2559   */\n      swap2\n      swap1\n      pop\n      jump\t// out\n        /* \"#utility.yul\":2565:2873   */\n    tag_161:\n        /* \"#utility.yul\":2627:2631   */\n      0x00\n        /* \"#utility.yul\":2717:2735   */\n      0xffffffffffffffff\n        /* \"#utility.yul\":2709:2715   */\n      dup3\n        /* \"#utility.yul\":2706:2736   */\n      gt\n        /* \"#utility.yul\":2703:2759   */\n      iszero\n      tag_223\n      jumpi\n        /* \"#utility.yul\":2739:2757   */\n      tag_224\n      tag_158\n      jump\t// in\n    tag_224:\n        /* \"#utility.yul\":2703:2759   */\n    tag_223:\n        /* \"#utility.yul\":2777:2806   */\n      tag_225\n        /* \"#utility.yul\":2799:2805   */\n      dup3\n        /* \"#utility.yul\":2777:2806   */\n      tag_157\n      jump\t// in\n    tag_225:\n        /* \"#utility.yul\":2769:2806   */\n      swap1\n      pop\n        /* \"#utility.yul\":2861:2865   */\n      0x20\n        /* \"#utility.yul\":2855:2859   */\n      dup2\n        /* \"#utility.yul\":2851:2866   */\n      add\n        /* \"#utility.yul\":2843:2866   */\n      swap1\n      pop\n        /* \"#utility.yul\":2565:2873   */\n      swap2\n      swap1\n      pop\n      jump\t// out\n        /* \"#utility.yul\":2879:3025   */\n    tag_162:\n        /* \"#utility.yul\":2976:2982   */\n      dup3\n        /* \"#utility.yul\":2971:2974   */\n      dup2\n        /* \"#utility.yul\":2966:2969   */\n      dup4\n        /* \"#utility.yul\":2953:2983   */\n      calldatacopy\n        /* \"#utility.yul\":3017:3018   */\n      0x00\n        /* \"#utility.yul\":3008:3014   */\n      dup4\n        /* \"#utility.yul\":3003:3006   */\n      dup4\n        /* \"#utility.yul\":2999:3015   */\n      add\n        /* \"#utility.yul\":2992:3019   */\n      mstore\n        /* \"#utility.yul\":2879:3025   */\n      pop\n      pop\n      pop\n      jump\t// out\n        /* \"#utility.yul\":3031:3456   */\n    tag_163:\n        /* \"#utility.yul\":3109:3114   */\n      0x00\n        /* \"#utility.yul\":3134:3200   */\n      tag_228\n        /* \"#utility.yul\":3150:3199   */\n      tag_229\n        /* \"#utility.yul\":3192:3198   */\n      dup5\n        /* \"#utility.yul\":3150:3199   */\n      tag_161\n      jump\t// in\n    tag_229:\n        /* \"#utility.yul\":3134:3200   */\n      tag_160\n      jump\t// in\n    tag_228:\n        /* \"#utility.yul\":3125:3200   */\n      swap1\n      pop\n        /* \"#utility.yul\":3223:3229   */\n      dup3\n        /* \"#utility.yul\":3216:3221   */\n      dup2\n        /* \"#utility.yul\":3209:3230   */\n      mstore\n        /* \"#utility.yul\":3261:3265   */\n      0x20\n        /* \"#utility.yul\":3254:3259   */\n      dup2\n        /* \"#utility.yul\":3250:3266   */\n      add\n        /* \"#utility.yul\":3299:3302   */\n      dup5\n        /* \"#utility.yul\":3290:3296   */\n      dup5\n        /* \"#utility.yul\":3285:3288   */\n      dup5\n        /* \"#utility.yul\":3281:3297   */\n      add\n        /* \"#utility.yul\":3278:3303   */\n      gt\n        /* \"#utility.yul\":3275:3387   */\n      iszero\n      tag_230\n      jumpi\n        /* \"#utility.yul\":3306:3385   */\n      tag_231\n      tag_156\n      jump\t// in\n    tag_231:\n        /* \"#utility.yul\":3275:3387   */\n    tag_230:\n        /* \"#utility.yul\":3396:3450   */\n      tag_232\n        /* \"#utility.yul\":3443:3449   */\n      dup5\n        /* \"#utility.yul\":3438:3441   */\n      dup3\n        /* \"#utility.yul\":3433:3436   */\n      dup6\n        /* \"#utility.yul\":3396:3450   */\n      tag_162\n      jump\t// in\n    tag_232:\n        /* \"#utility.yul\":3115:3456   */\n      pop\n        /* \"#utility.yul\":3031:3456   */\n      swap4\n      swap3\n      pop\n      pop\n      pop\n      jump\t// out\n        /* \"#utility.yul\":3476:3816   */\n    tag_164:\n        /* \"#utility.yul\":3532:3537   */\n      0x00\n        /* \"#utility.yul\":3581:3584   */\n      dup3\n        /* \"#utility.yul\":3574:3578   */\n      0x1f\n        /* \"#utility.yul\":3566:3572   */\n      dup4\n        /* \"#utility.yul\":3562:3579   */\n      add\n        /* \"#utility.yul\":3558:3585   */\n      slt\n        /* \"#utility.yul\":3548:3670   */\n      tag_234\n      jumpi\n        /* \"#utility.yul\":3589:3668   */\n      tag_235\n      tag_155\n      jump\t// in\n    tag_235:\n        /* \"#utility.yul\":3548:3670   */\n    tag_234:\n        /* \"#utility.yul\":3706:3712   */\n      dup2\n        /* \"#utility.yul\":3693:3713   */\n      calldataload\n        /* \"#utility.yul\":3731:3810   */\n      tag_236\n        /* \"#utility.yul\":3806:3809   */\n      dup5\n        /* \"#utility.yul\":3798:3804   */\n      dup3\n        /* \"#utility.yul\":3791:3795   */\n      0x20\n        /* \"#utility.yul\":3783:3789   */\n      dup7\n        /* \"#utility.yul\":3779:3796   */\n      add\n        /* \"#utility.yul\":3731:3810   */\n      tag_163\n      jump\t// in\n    tag_236:\n        /* \"#utility.yul\":3722:3810   */\n      swap2\n      pop\n        /* \"#utility.yul\":3538:3816   */\n      pop\n        /* \"#utility.yul\":3476:3816   */\n      swap3\n      swap2\n      pop\n      pop\n      jump\t// out\n        /* \"#utility.yul\":3822:3899   */\n    tag_165:\n        /* \"#utility.yul\":3859:3866   */\n      0x00\n        /* \"#utility.yul\":3888:3893   */\n      dup2\n        /* \"#utility.yul\":3877:3893   */\n      swap1\n      pop\n        /* \"#utility.yul\":3822:3899   */\n      swap2\n      swap1\n      pop\n      jump\t// out\n        /* \"#utility.yul\":3905:4027   */\n    tag_166:\n        /* \"#utility.yul\":3978:4002   */\n      tag_239\n        /* \"#utility.yul\":3996:4001   */\n      dup2\n        /* \"#utility.yul\":3978:4002   */\n      tag_165\n      jump\t// in\n    tag_239:\n        /* \"#utility.yul\":3971:3976   */\n      dup2\n        /* \"#utility.yul\":3968:4003   */\n      eq\n        /* \"#utility.yul\":3958:4021   */\n      tag_240\n      jumpi\n        /* \"#utility.yul\":4017:4018   */\n      0x00\n        /* \"#utility.yul\":4014:4015   */\n      dup1\n        /* \"#utility.yul\":4007:4019   */\n      revert\n        /* \"#utility.yul\":3958:4021   */\n    tag_240:\n        /* \"#utility.yul\":3905:4027   */\n      pop\n      jump\t// out\n        /* \"#utility.yul\":4033:4172   */\n    tag_167:\n        /* \"#utility.yul\":4079:4084   */\n      0x00\n        /* \"#utility.yul\":4117:4123   */\n      dup2\n        /* \"#utility.yul\":4104:4124   */\n      calldataload\n        /* \"#utility.yul\":4095:4124   */\n      swap1\n      pop\n        /* \"#utility.yul\":4133:4166   */\n      tag_242\n        /* \"#utility.yul\":4160:4165   */\n      dup2\n        /* \"#utility.yul\":4133:4166   */\n      tag_166\n      jump\t// in\n    tag_242:\n        /* \"#utility.yul\":4033:4172   */\n      swap3\n      swap2\n      pop\n      pop\n      jump\t// out\n        /* \"#utility.yul\":4178:5157   */\n    tag_22:\n        /* \"#utility.yul\":4275:4281   */\n      0x00\n        /* \"#utility.yul\":4283:4289   */\n      dup1\n        /* \"#utility.yul\":4291:4297   */\n      0x00\n        /* \"#utility.yul\":4340:4342   */\n      0x60\n        /* \"#utility.yul\":4328:4337   */\n      dup5\n        /* \"#utility.yul\":4319:4326   */\n      dup7\n        /* \"#utility.yul\":4315:4338   */\n      sub\n        /* \"#utility.yul\":4311:4343   */\n      slt\n        /* \"#utility.yul\":4308:4427   */\n      iszero\n      tag_244\n      jumpi\n        /* \"#utility.yul\":4346:4425   */\n      tag_245\n      tag_147\n      jump\t// in\n    tag_245:\n        /* \"#utility.yul\":4308:4427   */\n    tag_244:\n        /* \"#utility.yul\":4494:4495   */\n      0x00\n        /* \"#utility.yul\":4483:4492   */\n      dup5\n        /* \"#utility.yul\":4479:4496   */\n      add\n        /* \"#utility.yul\":4466:4497   */\n      calldataload\n        /* \"#utility.yul\":4524:4542   */\n      0xffffffffffffffff\n        /* \"#utility.yul\":4516:4522   */\n      dup2\n        /* \"#utility.yul\":4513:4543   */\n      gt\n        /* \"#utility.yul\":4510:4627   */\n      iszero\n      tag_246\n      jumpi\n        /* \"#utility.yul\":4546:4625   */\n      tag_247\n      tag_148\n      jump\t// in\n    tag_247:\n        /* \"#utility.yul\":4510:4627   */\n    tag_246:\n        /* \"#utility.yul\":4651:4714   */\n      tag_248\n        /* \"#utility.yul\":4706:4713   */\n      dup7\n        /* \"#utility.yul\":4697:4703   */\n      dup3\n        /* \"#utility.yul\":4686:4695   */\n      dup8\n        /* \"#utility.yul\":4682:4704   */\n      add\n        /* \"#utility.yul\":4651:4714   */\n      tag_164\n      jump\t// in\n    tag_248:\n        /* \"#utility.yul\":4641:4714   */\n      swap4\n      pop\n        /* \"#utility.yul\":4437:4724   */\n      pop\n        /* \"#utility.yul\":4791:4793   */\n      0x20\n        /* \"#utility.yul\":4780:4789   */\n      dup5\n        /* \"#utility.yul\":4776:4794   */\n      add\n        /* \"#utility.yul\":4763:4795   */\n      calldataload\n        /* \"#utility.yul\":4822:4840   */\n      0xffffffffffffffff\n        /* \"#utility.yul\":4814:4820   */\n      dup2\n        /* \"#utility.yul\":4811:4841   */\n      gt\n        /* \"#utility.yul\":4808:4925   */\n      iszero\n      tag_249\n      jumpi\n        /* \"#utility.yul\":4844:4923   */\n      tag_250\n      tag_148\n      jump\t// in\n    tag_250:\n        /* \"#utility.yul\":4808:4925   */\n    tag_249:\n        /* \"#utility.yul\":4949:5012   */\n      tag_251\n        /* \"#utility.yul\":5004:5011   */\n      dup7\n        /* \"#utility.yul\":4995:5001   */\n      dup3\n        /* \"#utility.yul\":4984:4993   */\n      dup8\n        /* \"#utility.yul\":4980:5002   */\n      add\n        /* \"#utility.yul\":4949:5012   */\n      tag_164\n      jump\t// in\n    tag_251:\n        /* \"#utility.yul\":4939:5012   */\n      swap3\n      pop\n        /* \"#utility.yul\":4734:5022   */\n      pop\n        /* \"#utility.yul\":5061:5063   */\n      0x40\n        /* \"#utility.yul\":5087:5140   */\n      tag_252\n        /* \"#utility.yul\":5132:5139   */\n      dup7\n        /* \"#utility.yul\":5123:5129   */\n      dup3\n        /* \"#utility.yul\":5112:5121   */\n      dup8\n        /* \"#utility.yul\":5108:5130   */\n      add\n        /* \"#utility.yul\":5087:5140   */\n      tag_167\n      jump\t// in\n    tag_252:\n        /* \"#utility.yul\":5077:5140   */\n      swap2\n      pop\n        /* \"#utility.yul\":5032:5150   */\n      pop\n        /* \"#utility.yul\":4178:5157   */\n      swap3\n      pop\n      swap3\n      pop\n      swap3\n      jump\t// out\n        /* \"#utility.yul\":5163:5817   */\n    tag_26:\n        /* \"#utility.yul\":5241:5247   */\n      0x00\n        /* \"#utility.yul\":5249:5255   */\n      dup1\n        /* \"#utility.yul\":5298:5300   */\n      0x40\n        /* \"#utility.yul\":5286:5295   */\n      dup4\n        /* \"#utility.yul\":5277:5284   */\n      dup6\n        /* \"#utility.yul\":5273:5296   */\n      sub\n        /* \"#utility.yul\":5269:5301   */\n      slt\n        /* \"#utility.yul\":5266:5385   */\n      iszero\n      tag_254\n      jumpi\n        /* \"#utility.yul\":5304:5383   */\n      tag_255\n      tag_147\n      jump\t// in\n    tag_255:\n        /* \"#utility.yul\":5266:5385   */\n    tag_254:\n        /* \"#utility.yul\":5452:5453   */\n      0x00\n        /* \"#utility.yul\":5441:5450   */\n      dup4\n        /* \"#utility.yul\":5437:5454   */\n      add\n        /* \"#utility.yul\":5424:5455   */\n      calldataload\n        /* \"#utility.yul\":5482:5500   */\n      0xffffffffffffffff\n        /* \"#utility.yul\":5474:5480   */\n      dup2\n        /* \"#utility.yul\":5471:5501   */\n      gt\n        /* \"#utility.yul\":5468:5585   */\n      iszero\n      tag_256\n      jumpi\n        /* \"#utility.yul\":5504:5583   */\n      tag_257\n      tag_148\n      jump\t// in\n    tag_257:\n        /* \"#utility.yul\":5468:5585   */\n    tag_256:\n        /* \"#utility.yul\":5609:5672   */\n      tag_258\n        /* \"#utility.yul\":5664:5671   */\n      dup6\n        /* \"#utility.yul\":5655:5661   */\n      dup3\n        /* \"#utility.yul\":5644:5653   */\n      dup7\n        /* \"#utility.yul\":5640:5662   */\n      add\n        /* \"#utility.yul\":5609:5672   */\n      tag_164\n      jump\t// in\n    tag_258:\n        /* \"#utility.yul\":5599:5672   */\n      swap3\n      pop\n        /* \"#utility.yul\":5395:5682   */\n      pop\n        /* \"#utility.yul\":5721:5723   */\n      0x20\n        /* \"#utility.yul\":5747:5800   */\n      tag_259\n        /* \"#utility.yul\":5792:5799   */\n      dup6\n        /* \"#utility.yul\":5783:5789   */\n      dup3\n        /* \"#utility.yul\":5772:5781   */\n      dup7\n        /* \"#utility.yul\":5768:5790   */\n      add\n        /* \"#utility.yul\":5747:5800   */\n      tag_167\n      jump\t// in\n    tag_259:\n        /* \"#utility.yul\":5737:5800   */\n      swap2\n      pop\n        /* \"#utility.yul\":5692:5810   */\n      pop\n        /* \"#utility.yul\":5163:5817   */\n      swap3\n      pop\n      swap3\n      swap1\n      pop\n      jump\t// out\n        /* \"#utility.yul\":5823:5941   */\n    tag_168:\n        /* \"#utility.yul\":5910:5934   */\n      tag_261\n        /* \"#utility.yul\":5928:5933   */\n      dup2\n        /* \"#utility.yul\":5910:5934   */\n      tag_150\n      jump\t// in\n    tag_261:\n        /* \"#utility.yul\":5905:5908   */\n      dup3\n        /* \"#utility.yul\":5898:5935   */\n      mstore\n        /* \"#utility.yul\":5823:5941   */\n      pop\n      pop\n      jump\t// out\n        /* \"#utility.yul\":5947:6169   */\n    tag_31:\n        /* \"#utility.yul\":6040:6044   */\n      0x00\n        /* \"#utility.yul\":6078:6080   */\n      0x20\n        /* \"#utility.yul\":6067:6076   */\n      dup3\n        /* \"#utility.yul\":6063:6081   */\n      add\n        /* \"#utility.yul\":6055:6081   */\n      swap1\n      pop\n        /* \"#utility.yul\":6091:6162   */\n      tag_263\n        /* \"#utility.yul\":6159:6160   */\n      0x00\n        /* \"#utility.yul\":6148:6157   */\n      dup4\n        /* \"#utility.yul\":6144:6161   */\n      add\n        /* \"#utility.yul\":6135:6141   */\n      dup5\n        /* \"#utility.yul\":6091:6162   */\n      tag_168\n      jump\t// in\n    tag_263:\n        /* \"#utility.yul\":5947:6169   */\n      swap3\n      swap2\n      pop\n      pop\n      jump\t// out\n        /* \"#utility.yul\":6175:6293   */\n    tag_169:\n        /* \"#utility.yul\":6262:6286   */\n      tag_265\n        /* \"#utility.yul\":6280:6285   */\n      dup2\n        /* \"#utility.yul\":6262:6286   */\n      tag_165\n      jump\t// in\n    tag_265:\n        /* \"#utility.yul\":6257:6260   */\n      dup3\n        /* \"#utility.yul\":6250:6287   */\n      mstore\n        /* \"#utility.yul\":6175:6293   */\n      pop\n      pop\n      jump\t// out\n        /* \"#utility.yul\":6299:6521   */\n    tag_35:\n        /* \"#utility.yul\":6392:6396   */\n      0x00\n        /* \"#utility.yul\":6430:6432   */\n      0x20\n        /* \"#utility.yul\":6419:6428   */\n      dup3\n        /* \"#utility.yul\":6415:6433   */\n      add\n        /* \"#utility.yul\":6407:6433   */\n      swap1\n      pop\n        /* \"#utility.yul\":6443:6514   */\n      tag_267\n        /* \"#utility.yul\":6511:6512   */\n      0x00\n        /* \"#utility.yul\":6500:6509   */\n      dup4\n        /* \"#utility.yul\":6496:6513   */\n      add\n        /* \"#utility.yul\":6487:6493   */\n      dup5\n        /* \"#utility.yul\":6443:6514   */\n      tag_169\n      jump\t// in\n    tag_267:\n        /* \"#utility.yul\":6299:6521   */\n      swap3\n      swap2\n      pop\n      pop\n      jump\t// out\n        /* \"#utility.yul\":6527:6856   */\n    tag_38:\n        /* \"#utility.yul\":6586:6592   */\n      0x00\n        /* \"#utility.yul\":6635:6637   */\n      0x20\n        /* \"#utility.yul\":6623:6632   */\n      dup3\n        /* \"#utility.yul\":6614:6621   */\n      dup5\n        /* \"#utility.yul\":6610:6633   */\n      sub\n        /* \"#utility.yul\":6606:6638   */\n      slt\n        /* \"#utility.yul\":6603:6722   */\n      iszero\n      tag_269\n      jumpi\n        /* \"#utility.yul\":6641:6720   */\n      tag_270\n      tag_147\n      jump\t// in\n    tag_270:\n        /* \"#utility.yul\":6603:6722   */\n    tag_269:\n        /* \"#utility.yul\":6761:6762   */\n      0x00\n        /* \"#utility.yul\":6786:6839   */\n      tag_271\n        /* \"#utility.yul\":6831:6838   */\n      dup5\n        /* \"#utility.yul\":6822:6828   */\n      dup3\n        /* \"#utility.yul\":6811:6820   */\n      dup6\n        /* \"#utility.yul\":6807:6829   */\n      add\n        /* \"#utility.yul\":6786:6839   */\n      tag_167\n      jump\t// in\n    tag_271:\n        /* \"#utility.yul\":6776:6839   */\n      swap2\n      pop\n        /* \"#utility.yul\":6732:6849   */\n      pop\n        /* \"#utility.yul\":6527:6856   */\n      swap3\n      swap2\n      pop\n      pop\n      jump\t// out\n        /* \"#utility.yul\":6862:6961   */\n    tag_170:\n        /* \"#utility.yul\":6914:6920   */\n      0x00\n        /* \"#utility.yul\":6948:6953   */\n      dup2\n        /* \"#utility.yul\":6942:6954   */\n      mload\n        /* \"#utility.yul\":6932:6954   */\n      swap1\n      pop\n        /* \"#utility.yul\":6862:6961   */\n      swap2\n      swap1\n      pop\n      jump\t// out\n        /* \"#utility.yul\":6967:7136   */\n    tag_171:\n        /* \"#utility.yul\":7051:7062   */\n      0x00\n        /* \"#utility.yul\":7085:7091   */\n      dup3\n        /* \"#utility.yul\":7080:7083   */\n      dup3\n        /* \"#utility.yul\":7073:7092   */\n      mstore\n        /* \"#utility.yul\":7125:7129   */\n      0x20\n        /* \"#utility.yul\":7120:7123   */\n      dup3\n        /* \"#utility.yul\":7116:7130   */\n      add\n        /* \"#utility.yul\":7101:7130   */\n      swap1\n      pop\n        /* \"#utility.yul\":6967:7136   */\n      swap3\n      swap2\n      pop\n      pop\n      jump\t// out\n        /* \"#utility.yul\":7142:7388   */\n    tag_172:\n        /* \"#utility.yul\":7223:7224   */\n      0x00\n        /* \"#utility.yul\":7233:7346   */\n    tag_275:\n        /* \"#utility.yul\":7247:7253   */\n      dup4\n        /* \"#utility.yul\":7244:7245   */\n      dup2\n        /* \"#utility.yul\":7241:7254   */\n      lt\n        /* \"#utility.yul\":7233:7346   */\n      iszero\n      tag_277\n      jumpi\n        /* \"#utility.yul\":7332:7333   */\n      dup1\n        /* \"#utility.yul\":7327:7330   */\n      dup3\n        /* \"#utility.yul\":7323:7334   */\n      add\n        /* \"#utility.yul\":7317:7335   */\n      mload\n        /* \"#utility.yul\":7313:7314   */\n      dup2\n        /* \"#utility.yul\":7308:7311   */\n      dup5\n        /* \"#utility.yul\":7304:7315   */\n      add\n        /* \"#utility.yul\":7297:7336   */\n      mstore\n        /* \"#utility.yul\":7269:7271   */\n      0x20\n        /* \"#utility.yul\":7266:7267   */\n      dup2\n        /* \"#utility.yul\":7262:7272   */\n      add\n        /* \"#utility.yul\":7257:7272   */\n      swap1\n      pop\n        /* \"#utility.yul\":7233:7346   */\n      jump(tag_275)\n    tag_277:\n        /* \"#utility.yul\":7380:7381   */\n      0x00\n        /* \"#utility.yul\":7371:7377   */\n      dup5\n        /* \"#utility.yul\":7366:7369   */\n      dup5\n        /* \"#utility.yul\":7362:7378   */\n      add\n        /* \"#utility.yul\":7355:7382   */\n      mstore\n        /* \"#utility.yul\":7204:7388   */\n      pop\n        /* \"#utility.yul\":7142:7388   */\n      pop\n      pop\n      pop\n      jump\t// out\n        /* \"#utility.yul\":7394:7771   */\n    tag_173:\n        /* \"#utility.yul\":7482:7485   */\n      0x00\n        /* \"#utility.yul\":7510:7549   */\n      tag_279\n        /* \"#utility.yul\":7543:7548   */\n      dup3\n        /* \"#utility.yul\":7510:7549   */\n      tag_170\n      jump\t// in\n    tag_279:\n        /* \"#utility.yul\":7565:7636   */\n      tag_280\n        /* \"#utility.yul\":7629:7635   */\n      dup2\n        /* \"#utility.yul\":7624:7627   */\n      dup6\n        /* \"#utility.yul\":7565:7636   */\n      tag_171\n      jump\t// in\n    tag_280:\n        /* \"#utility.yul\":7558:7636   */\n      swap4\n      pop\n        /* \"#utility.yul\":7645:7710   */\n      tag_281\n        /* \"#utility.yul\":7703:7709   */\n      dup2\n        /* \"#utility.yul\":7698:7701   */\n      dup6\n        /* \"#utility.yul\":7691:7695   */\n      0x20\n        /* \"#utility.yul\":7684:7689   */\n      dup7\n        /* \"#utility.yul\":7680:7696   */\n      add\n        /* \"#utility.yul\":7645:7710   */\n      tag_172\n      jump\t// in\n    tag_281:\n        /* \"#utility.yul\":7735:7764   */\n      tag_282\n        /* \"#utility.yul\":7757:7763   */\n      dup2\n        /* \"#utility.yul\":7735:7764   */\n      tag_157\n      jump\t// in\n    tag_282:\n        /* \"#utility.yul\":7730:7733   */\n      dup5\n        /* \"#utility.yul\":7726:7765   */\n      add\n        /* \"#utility.yul\":7719:7765   */\n      swap2\n      pop\n        /* \"#utility.yul\":7486:7771   */\n      pop\n        /* \"#utility.yul\":7394:7771   */\n      swap3\n      swap2\n      pop\n      pop\n      jump\t// out\n        /* \"#utility.yul\":7777:10211   */\n    tag_41:\n        /* \"#utility.yul\":8394:8398   */\n      0x00\n        /* \"#utility.yul\":8432:8435   */\n      0x0180\n        /* \"#utility.yul\":8421:8430   */\n      dup3\n        /* \"#utility.yul\":8417:8436   */\n      add\n        /* \"#utility.yul\":8409:8436   */\n      swap1\n      pop\n        /* \"#utility.yul\":8482:8491   */\n      dup2\n        /* \"#utility.yul\":8476:8480   */\n      dup2\n        /* \"#utility.yul\":8472:8492   */\n      sub\n        /* \"#utility.yul\":8468:8469   */\n      0x00\n        /* \"#utility.yul\":8457:8466   */\n      dup4\n        /* \"#utility.yul\":8453:8470   */\n      add\n        /* \"#utility.yul\":8446:8493   */\n      mstore\n        /* \"#utility.yul\":8510:8588   */\n      tag_284\n        /* \"#utility.yul\":8583:8587   */\n      dup2\n        /* \"#utility.yul\":8574:8580   */\n      dup16\n        /* \"#utility.yul\":8510:8588   */\n      tag_173\n      jump\t// in\n    tag_284:\n        /* \"#utility.yul\":8502:8588   */\n      swap1\n      pop\n        /* \"#utility.yul\":8635:8644   */\n      dup2\n        /* \"#utility.yul\":8629:8633   */\n      dup2\n        /* \"#utility.yul\":8625:8645   */\n      sub\n        /* \"#utility.yul\":8620:8622   */\n      0x20\n        /* \"#utility.yul\":8609:8618   */\n      dup4\n        /* \"#utility.yul\":8605:8623   */\n      add\n        /* \"#utility.yul\":8598:8646   */\n      mstore\n        /* \"#utility.yul\":8663:8741   */\n      tag_285\n        /* \"#utility.yul\":8736:8740   */\n      dup2\n        /* \"#utility.yul\":8727:8733   */\n      dup15\n        /* \"#utility.yul\":8663:8741   */\n      tag_173\n      jump\t// in\n    tag_285:\n        /* \"#utility.yul\":8655:8741   */\n      swap1\n      pop\n        /* \"#utility.yul\":8788:8797   */\n      dup2\n        /* \"#utility.yul\":8782:8786   */\n      dup2\n        /* \"#utility.yul\":8778:8798   */\n      sub\n        /* \"#utility.yul\":8773:8775   */\n      0x40\n        /* \"#utility.yul\":8762:8771   */\n      dup4\n        /* \"#utility.yul\":8758:8776   */\n      add\n        /* \"#utility.yul\":8751:8799   */\n      mstore\n        /* \"#utility.yul\":8816:8894   */\n      tag_286\n        /* \"#utility.yul\":8889:8893   */\n      dup2\n        /* \"#utility.yul\":8880:8886   */\n      dup14\n        /* \"#utility.yul\":8816:8894   */\n      tag_173\n      jump\t// in\n    tag_286:\n        /* \"#utility.yul\":8808:8894   */\n      swap1\n      pop\n        /* \"#utility.yul\":8941:8950   */\n      dup2\n        /* \"#utility.yul\":8935:8939   */\n      dup2\n        /* \"#utility.yul\":8931:8951   */\n      sub\n        /* \"#utility.yul\":8926:8928   */\n      0x60\n        /* \"#utility.yul\":8915:8924   */\n      dup4\n        /* \"#utility.yul\":8911:8929   */\n      add\n        /* \"#utility.yul\":8904:8952   */\n      mstore\n        /* \"#utility.yul\":8969:9047   */\n      tag_287\n        /* \"#utility.yul\":9042:9046   */\n      dup2\n        /* \"#utility.yul\":9033:9039   */\n      dup13\n        /* \"#utility.yul\":8969:9047   */\n      tag_173\n      jump\t// in\n    tag_287:\n        /* \"#utility.yul\":8961:9047   */\n      swap1\n      pop\n        /* \"#utility.yul\":9095:9104   */\n      dup2\n        /* \"#utility.yul\":9089:9093   */\n      dup2\n        /* \"#utility.yul\":9085:9105   */\n      sub\n        /* \"#utility.yul\":9079:9082   */\n      0x80\n        /* \"#utility.yul\":9068:9077   */\n      dup4\n        /* \"#utility.yul\":9064:9083   */\n      add\n        /* \"#utility.yul\":9057:9106   */\n      mstore\n        /* \"#utility.yul\":9123:9201   */\n      tag_288\n        /* \"#utility.yul\":9196:9200   */\n      dup2\n        /* \"#utility.yul\":9187:9193   */\n      dup12\n        /* \"#utility.yul\":9123:9201   */\n      tag_173\n      jump\t// in\n    tag_288:\n        /* \"#utility.yul\":9115:9201   */\n      swap1\n      pop\n        /* \"#utility.yul\":9249:9258   */\n      dup2\n        /* \"#utility.yul\":9243:9247   */\n      dup2\n        /* \"#utility.yul\":9239:9259   */\n      sub\n        /* \"#utility.yul\":9233:9236   */\n      0xa0\n        /* \"#utility.yul\":9222:9231   */\n      dup4\n        /* \"#utility.yul\":9218:9237   */\n      add\n        /* \"#utility.yul\":9211:9260   */\n      mstore\n        /* \"#utility.yul\":9277:9355   */\n      tag_289\n        /* \"#utility.yul\":9350:9354   */\n      dup2\n        /* \"#utility.yul\":9341:9347   */\n      dup11\n        /* \"#utility.yul\":9277:9355   */\n      tag_173\n      jump\t// in\n    tag_289:\n        /* \"#utility.yul\":9269:9355   */\n      swap1\n      pop\n        /* \"#utility.yul\":9403:9412   */\n      dup2\n        /* \"#utility.yul\":9397:9401   */\n      dup2\n        /* \"#utility.yul\":9393:9413   */\n      sub\n        /* \"#utility.yul\":9387:9390   */\n      0xc0\n        /* \"#utility.yul\":9376:9385   */\n      dup4\n        /* \"#utility.yul\":9372:9391   */\n      add\n        /* \"#utility.yul\":9365:9414   */\n      mstore\n        /* \"#utility.yul\":9431:9509   */\n      tag_290\n        /* \"#utility.yul\":9504:9508   */\n      dup2\n        /* \"#utility.yul\":9495:9501   */\n      dup10\n        /* \"#utility.yul\":9431:9509   */\n      tag_173\n      jump\t// in\n    tag_290:\n        /* \"#utility.yul\":9423:9509   */\n      swap1\n      pop\n        /* \"#utility.yul\":9557:9566   */\n      dup2\n        /* \"#utility.yul\":9551:9555   */\n      dup2\n        /* \"#utility.yul\":9547:9567   */\n      sub\n        /* \"#utility.yul\":9541:9544   */\n      0xe0\n        /* \"#utility.yul\":9530:9539   */\n      dup4\n        /* \"#utility.yul\":9526:9545   */\n      add\n        /* \"#utility.yul\":9519:9568   */\n      mstore\n        /* \"#utility.yul\":9585:9663   */\n      tag_291\n        /* \"#utility.yul\":9658:9662   */\n      dup2\n        /* \"#utility.yul\":9649:9655   */\n      dup9\n        /* \"#utility.yul\":9585:9663   */\n      tag_173\n      jump\t// in\n    tag_291:\n        /* \"#utility.yul\":9577:9663   */\n      swap1\n      pop\n        /* \"#utility.yul\":9711:9720   */\n      dup2\n        /* \"#utility.yul\":9705:9709   */\n      dup2\n        /* \"#utility.yul\":9701:9721   */\n      sub\n        /* \"#utility.yul\":9695:9698   */\n      0x0100\n        /* \"#utility.yul\":9684:9693   */\n      dup4\n        /* \"#utility.yul\":9680:9699   */\n      add\n        /* \"#utility.yul\":9673:9722   */\n      mstore\n        /* \"#utility.yul\":9739:9817   */\n      tag_292\n        /* \"#utility.yul\":9812:9816   */\n      dup2\n        /* \"#utility.yul\":9803:9809   */\n      dup8\n        /* \"#utility.yul\":9739:9817   */\n      tag_173\n      jump\t// in\n    tag_292:\n        /* \"#utility.yul\":9731:9817   */\n      swap1\n      pop\n        /* \"#utility.yul\":9865:9874   */\n      dup2\n        /* \"#utility.yul\":9859:9863   */\n      dup2\n        /* \"#utility.yul\":9855:9875   */\n      sub\n        /* \"#utility.yul\":9849:9852   */\n      0x0120\n        /* \"#utility.yul\":9838:9847   */\n      dup4\n        /* \"#utility.yul\":9834:9853   */\n      add\n        /* \"#utility.yul\":9827:9876   */\n      mstore\n        /* \"#utility.yul\":9893:9971   */\n      tag_293\n        /* \"#utility.yul\":9966:9970   */\n      dup2\n        /* \"#utility.yul\":9957:9963   */\n      dup7\n        /* \"#utility.yul\":9893:9971   */\n      tag_173\n      jump\t// in\n    tag_293:\n        /* \"#utility.yul\":9885:9971   */\n      swap1\n      pop\n        /* \"#utility.yul\":10019:10028   */\n      dup2\n        /* \"#utility.yul\":10013:10017   */\n      dup2\n        /* \"#utility.yul\":10009:10029   */\n      sub\n        /* \"#utility.yul\":10003:10006   */\n      0x0140\n        /* \"#utility.yul\":9992:10001   */\n      dup4\n        /* \"#utility.yul\":9988:10007   */\n      add\n        /* \"#utility.yul\":9981:10030   */\n      mstore\n        /* \"#utility.yul\":10047:10126   */\n      tag_294\n        /* \"#utility.yul\":10121:10125   */\n      dup2\n        /* \"#utility.yul\":10111:10118   */\n      dup6\n        /* \"#utility.yul\":10047:10126   */\n      tag_173\n      jump\t// in\n    tag_294:\n        /* \"#utility.yul\":10039:10126   */\n      swap1\n      pop\n        /* \"#utility.yul\":10136:10204   */\n      tag_295\n        /* \"#utility.yul\":10199:10202   */\n      0x0160\n        /* \"#utility.yul\":10188:10197   */\n      dup4\n        /* \"#utility.yul\":10184:10203   */\n      add\n        /* \"#utility.yul\":10174:10181   */\n      dup5\n        /* \"#utility.yul\":10136:10204   */\n      tag_154\n      jump\t// in\n    tag_295:\n        /* \"#utility.yul\":7777:10211   */\n      swap14\n      swap13\n      pop\n      pop\n      pop\n      pop\n      pop\n      pop\n      pop\n      pop\n      pop\n      pop\n      pop\n      pop\n      pop\n      jump\t// out\n        /* \"#utility.yul\":10217:11522   */\n    tag_47:\n        /* \"#utility.yul\":10333:10339   */\n      0x00\n        /* \"#utility.yul\":10341:10347   */\n      dup1\n        /* \"#utility.yul\":10349:10355   */\n      0x00\n        /* \"#utility.yul\":10357:10363   */\n      dup1\n        /* \"#utility.yul\":10406:10409   */\n      0x80\n        /* \"#utility.yul\":10394:10403   */\n      dup6\n        /* \"#utility.yul\":10385:10392   */\n      dup8\n        /* \"#utility.yul\":10381:10404   */\n      sub\n        /* \"#utility.yul\":10377:10410   */\n      slt\n        /* \"#utility.yul\":10374:10494   */\n      iszero\n      tag_297\n      jumpi\n        /* \"#utility.yul\":10413:10492   */\n      tag_298\n      tag_147\n      jump\t// in\n    tag_298:\n        /* \"#utility.yul\":10374:10494   */\n    tag_297:\n        /* \"#utility.yul\":10561:10562   */\n      0x00\n        /* \"#utility.yul\":10550:10559   */\n      dup6\n        /* \"#utility.yul\":10546:10563   */\n      add\n        /* \"#utility.yul\":10533:10564   */\n      calldataload\n        /* \"#utility.yul\":10591:10609   */\n      0xffffffffffffffff\n        /* \"#utility.yul\":10583:10589   */\n      dup2\n        /* \"#utility.yul\":10580:10610   */\n      gt\n        /* \"#utility.yul\":10577:10694   */\n      iszero\n      tag_299\n      jumpi\n        /* \"#utility.yul\":10613:10692   */\n      tag_300\n      tag_148\n      jump\t// in\n    tag_300:\n        /* \"#utility.yul\":10577:10694   */\n    tag_299:\n        /* \"#utility.yul\":10718:10781   */\n      tag_301\n        /* \"#utility.yul\":10773:10780   */\n      dup8\n        /* \"#utility.yul\":10764:10770   */\n      dup3\n        /* \"#utility.yul\":10753:10762   */\n      dup9\n        /* \"#utility.yul\":10749:10771   */\n      add\n        /* \"#utility.yul\":10718:10781   */\n      tag_164\n      jump\t// in\n    tag_301:\n        /* \"#utility.yul\":10708:10781   */\n      swap5\n      pop\n        /* \"#utility.yul\":10504:10791   */\n      pop\n        /* \"#utility.yul\":10858:10860   */\n      0x20\n        /* \"#utility.yul\":10847:10856   */\n      dup6\n        /* \"#utility.yul\":10843:10861   */\n      add\n        /* \"#utility.yul\":10830:10862   */\n      calldataload\n        /* \"#utility.yul\":10889:10907   */\n      0xffffffffffffffff\n        /* \"#utility.yul\":10881:10887   */\n      dup2\n        /* \"#utility.yul\":10878:10908   */\n      gt\n        /* \"#utility.yul\":10875:10992   */\n      iszero\n      tag_302\n      jumpi\n        /* \"#utility.yul\":10911:10990   */\n      tag_303\n      tag_148\n      jump\t// in\n    tag_303:\n        /* \"#utility.yul\":10875:10992   */\n    tag_302:\n        /* \"#utility.yul\":11016:11079   */\n      tag_304\n        /* \"#utility.yul\":11071:11078   */\n      dup8\n        /* \"#utility.yul\":11062:11068   */\n      dup3\n        /* \"#utility.yul\":11051:11060   */\n      dup9\n        /* \"#utility.yul\":11047:11069   */\n      add\n        /* \"#utility.yul\":11016:11079   */\n      tag_164\n      jump\t// in\n    tag_304:\n        /* \"#utility.yul\":11006:11079   */\n      swap4\n      pop\n        /* \"#utility.yul\":10801:11089   */\n      pop\n        /* \"#utility.yul\":11156:11158   */\n      0x40\n        /* \"#utility.yul\":11145:11154   */\n      dup6\n        /* \"#utility.yul\":11141:11159   */\n      add\n        /* \"#utility.yul\":11128:11160   */\n      calldataload\n        /* \"#utility.yul\":11187:11205   */\n      0xffffffffffffffff\n        /* \"#utility.yul\":11179:11185   */\n      dup2\n        /* \"#utility.yul\":11176:11206   */\n      gt\n        /* \"#utility.yul\":11173:11290   */\n      iszero\n      tag_305\n      jumpi\n        /* \"#utility.yul\":11209:11288   */\n      tag_306\n      tag_148\n      jump\t// in\n    tag_306:\n        /* \"#utility.yul\":11173:11290   */\n    tag_305:\n        /* \"#utility.yul\":11314:11377   */\n      tag_307\n        /* \"#utility.yul\":11369:11376   */\n      dup8\n        /* \"#utility.yul\":11360:11366   */\n      dup3\n        /* \"#utility.yul\":11349:11358   */\n      dup9\n        /* \"#utility.yul\":11345:11367   */\n      add\n        /* \"#utility.yul\":11314:11377   */\n      tag_164\n      jump\t// in\n    tag_307:\n        /* \"#utility.yul\":11304:11377   */\n      swap3\n      pop\n        /* \"#utility.yul\":11099:11387   */\n      pop\n        /* \"#utility.yul\":11426:11428   */\n      0x60\n        /* \"#utility.yul\":11452:11505   */\n      tag_308\n        /* \"#utility.yul\":11497:11504   */\n      dup8\n        /* \"#utility.yul\":11488:11494   */\n      dup3\n        /* \"#utility.yul\":11477:11486   */\n      dup9\n        /* \"#utility.yul\":11473:11495   */\n      add\n        /* \"#utility.yul\":11452:11505   */\n      tag_167\n      jump\t// in\n    tag_308:\n        /* \"#utility.yul\":11442:11505   */\n      swap2\n      pop\n        /* \"#utility.yul\":11397:11515   */\n      pop\n        /* \"#utility.yul\":10217:11522   */\n      swap3\n      swap6\n      swap2\n      swap5\n      pop\n      swap3\n      pop\n      jump\t// out\n        /* \"#utility.yul\":11528:13013   */\n    tag_51:\n        /* \"#utility.yul\":11654:11660   */\n      0x00\n        /* \"#utility.yul\":11662:11668   */\n      dup1\n        /* \"#utility.yul\":11670:11676   */\n      0x00\n        /* \"#utility.yul\":11678:11684   */\n      dup1\n        /* \"#utility.yul\":11727:11730   */\n      0x80\n        /* \"#utility.yul\":11715:11724   */\n      dup6\n        /* \"#utility.yul\":11706:11713   */\n      dup8\n        /* \"#utility.yul\":11702:11725   */\n      sub\n        /* \"#utility.yul\":11698:11731   */\n      slt\n        /* \"#utility.yul\":11695:11815   */\n      iszero\n      tag_310\n      jumpi\n        /* \"#utility.yul\":11734:11813   */\n      tag_311\n      tag_147\n      jump\t// in\n    tag_311:\n        /* \"#utility.yul\":11695:11815   */\n    tag_310:\n        /* \"#utility.yul\":11882:11883   */\n      0x00\n        /* \"#utility.yul\":11871:11880   */\n      dup6\n        /* \"#utility.yul\":11867:11884   */\n      add\n        /* \"#utility.yul\":11854:11885   */\n      calldataload\n        /* \"#utility.yul\":11912:11930   */\n      0xffffffffffffffff\n        /* \"#utility.yul\":11904:11910   */\n      dup2\n        /* \"#utility.yul\":11901:11931   */\n      gt\n        /* \"#utility.yul\":11898:12015   */\n      iszero\n      tag_312\n      jumpi\n        /* \"#utility.yul\":11934:12013   */\n      tag_313\n      tag_148\n      jump\t// in\n    tag_313:\n        /* \"#utility.yul\":11898:12015   */\n    tag_312:\n        /* \"#utility.yul\":12039:12102   */\n      tag_314\n        /* \"#utility.yul\":12094:12101   */\n      dup8\n        /* \"#utility.yul\":12085:12091   */\n      dup3\n        /* \"#utility.yul\":12074:12083   */\n      dup9\n        /* \"#utility.yul\":12070:12092   */\n      add\n        /* \"#utility.yul\":12039:12102   */\n      tag_164\n      jump\t// in\n    tag_314:\n        /* \"#utility.yul\":12029:12102   */\n      swap5\n      pop\n        /* \"#utility.yul\":11825:12112   */\n      pop\n        /* \"#utility.yul\":12179:12181   */\n      0x20\n        /* \"#utility.yul\":12168:12177   */\n      dup6\n        /* \"#utility.yul\":12164:12182   */\n      add\n        /* \"#utility.yul\":12151:12183   */\n      calldataload\n        /* \"#utility.yul\":12210:12228   */\n      0xffffffffffffffff\n        /* \"#utility.yul\":12202:12208   */\n      dup2\n        /* \"#utility.yul\":12199:12229   */\n      gt\n        /* \"#utility.yul\":12196:12313   */\n      iszero\n      tag_315\n      jumpi\n        /* \"#utility.yul\":12232:12311   */\n      tag_316\n      tag_148\n      jump\t// in\n    tag_316:\n        /* \"#utility.yul\":12196:12313   */\n    tag_315:\n        /* \"#utility.yul\":12337:12400   */\n      tag_317\n        /* \"#utility.yul\":12392:12399   */\n      dup8\n        /* \"#utility.yul\":12383:12389   */\n      dup3\n        /* \"#utility.yul\":12372:12381   */\n      dup9\n        /* \"#utility.yul\":12368:12390   */\n      add\n        /* \"#utility.yul\":12337:12400   */\n      tag_164\n      jump\t// in\n    tag_317:\n        /* \"#utility.yul\":12327:12400   */\n      swap4\n      pop\n        /* \"#utility.yul\":12122:12410   */\n      pop\n        /* \"#utility.yul\":12477:12479   */\n      0x40\n        /* \"#utility.yul\":12466:12475   */\n      dup6\n        /* \"#utility.yul\":12462:12480   */\n      add\n        /* \"#utility.yul\":12449:12481   */\n      calldataload\n        /* \"#utility.yul\":12508:12526   */\n      0xffffffffffffffff\n        /* \"#utility.yul\":12500:12506   */\n      dup2\n        /* \"#utility.yul\":12497:12527   */\n      gt\n        /* \"#utility.yul\":12494:12611   */\n      iszero\n      tag_318\n      jumpi\n        /* \"#utility.yul\":12530:12609   */\n      tag_319\n      tag_148\n      jump\t// in\n    tag_319:\n        /* \"#utility.yul\":12494:12611   */\n    tag_318:\n        /* \"#utility.yul\":12635:12698   */\n      tag_320\n        /* \"#utility.yul\":12690:12697   */\n      dup8\n        /* \"#utility.yul\":12681:12687   */\n      dup3\n        /* \"#utility.yul\":12670:12679   */\n      dup9\n        /* \"#utility.yul\":12666:12688   */\n      add\n        /* \"#utility.yul\":12635:12698   */\n      tag_164\n      jump\t// in\n    tag_320:\n        /* \"#utility.yul\":12625:12698   */\n      swap3\n      pop\n        /* \"#utility.yul\":12420:12708   */\n      pop\n        /* \"#utility.yul\":12775:12777   */\n      0x60\n        /* \"#utility.yul\":12764:12773   */\n      dup6\n        /* \"#utility.yul\":12760:12778   */\n      add\n        /* \"#utility.yul\":12747:12779   */\n      calldataload\n        /* \"#utility.yul\":12806:12824   */\n      0xffffffffffffffff\n        /* \"#utility.yul\":12798:12804   */\n      dup2\n        /* \"#utility.yul\":12795:12825   */\n      gt\n        /* \"#utility.yul\":12792:12909   */\n      iszero\n      tag_321\n      jumpi\n        /* \"#utility.yul\":12828:12907   */\n      tag_322\n      tag_148\n      jump\t// in\n    tag_322:\n        /* \"#utility.yul\":12792:12909   */\n    tag_321:\n        /* \"#utility.yul\":12933:12996   */\n      tag_323\n        /* \"#utility.yul\":12988:12995   */\n      dup8\n        /* \"#utility.yul\":12979:12985   */\n      dup3\n        /* \"#utility.yul\":12968:12977   */\n      dup9\n        /* \"#utility.yul\":12964:12986   */\n      add\n        /* \"#utility.yul\":12933:12996   */\n      tag_164\n      jump\t// in\n    tag_323:\n        /* \"#utility.yul\":12923:12996   */\n      swap2\n      pop\n        /* \"#utility.yul\":12718:13006   */\n      pop\n        /* \"#utility.yul\":11528:13013   */\n      swap3\n      swap6\n      swap2\n      swap5\n      pop\n      swap3\n      pop\n      jump\t// out\n        /* \"#utility.yul\":13019:13199   */\n    tag_59:\n        /* \"#utility.yul\":13067:13144   */\n      0x4e487b7100000000000000000000000000000000000000000000000000000000\n        /* \"#utility.yul\":13064:13065   */\n      0x00\n        /* \"#utility.yul\":13057:13145   */\n      mstore\n        /* \"#utility.yul\":13164:13168   */\n      0x32\n        /* \"#utility.yul\":13161:13162   */\n      0x04\n        /* \"#utility.yul\":13154:13169   */\n      mstore\n        /* \"#utility.yul\":13188:13192   */\n      0x24\n        /* \"#utility.yul\":13185:13186   */\n      0x00\n        /* \"#utility.yul\":13178:13193   */\n      revert\n        /* \"#utility.yul\":13205:13385   */\n    tag_174:\n        /* \"#utility.yul\":13253:13330   */\n      0x4e487b7100000000000000000000000000000000000000000000000000000000\n        /* \"#utility.yul\":13250:13251   */\n      0x00\n        /* \"#utility.yul\":13243:13331   */\n      mstore\n        /* \"#utility.yul\":13350:13354   */\n      0x22\n        /* \"#utility.yul\":13347:13348   */\n      0x04\n        /* \"#utility.yul\":13340:13355   */\n      mstore\n        /* \"#utility.yul\":13374:13378   */\n      0x24\n        /* \"#utility.yul\":13371:13372   */\n      0x00\n        /* \"#utility.yul\":13364:13379   */\n      revert\n        /* \"#utility.yul\":13391:13711   */\n    tag_73:\n        /* \"#utility.yul\":13435:13441   */\n      0x00\n        /* \"#utility.yul\":13472:13473   */\n      0x02\n        /* \"#utility.yul\":13466:13470   */\n      dup3\n        /* \"#utility.yul\":13462:13474   */\n      div\n        /* \"#utility.yul\":13452:13474   */\n      swap1\n      pop\n        /* \"#utility.yul\":13519:13520   */\n      0x01\n        /* \"#utility.yul\":13513:13517   */\n      dup3\n        /* \"#utility.yul\":13509:13521   */\n      and\n        /* \"#utility.yul\":13540:13558   */\n      dup1\n        /* \"#utility.yul\":13530:13611   */\n      tag_327\n      jumpi\n        /* \"#utility.yul\":13596:13600   */\n      0x7f\n        /* \"#utility.yul\":13588:13594   */\n      dup3\n        /* \"#utility.yul\":13584:13601   */\n      and\n        /* \"#utility.yul\":13574:13601   */\n      swap2\n      pop\n        /* \"#utility.yul\":13530:13611   */\n    tag_327:\n        /* \"#utility.yul\":13658:13660   */\n      0x20\n        /* \"#utility.yul\":13650:13656   */\n      dup3\n        /* \"#utility.yul\":13647:13661   */\n      lt\n        /* \"#utility.yul\":13627:13645   */\n      dup2\n        /* \"#utility.yul\":13624:13662   */\n      sub\n        /* \"#utility.yul\":13621:13705   */\n      tag_328\n      jumpi\n        /* \"#utility.yul\":13677:13695   */\n      tag_329\n      tag_174\n      jump\t// in\n    tag_329:\n        /* \"#utility.yul\":13621:13705   */\n    tag_328:\n        /* \"#utility.yul\":13442:13711   */\n      pop\n        /* \"#utility.yul\":13391:13711   */\n      swap2\n      swap1\n      pop\n      jump\t// out\n        /* \"#utility.yul\":13717:13858   */\n    tag_175:\n        /* \"#utility.yul\":13766:13770   */\n      0x00\n        /* \"#utility.yul\":13789:13792   */\n      dup2\n        /* \"#utility.yul\":13781:13792   */\n      swap1\n      pop\n        /* \"#utility.yul\":13812:13815   */\n      dup2\n        /* \"#utility.yul\":13809:13810   */\n      0x00\n        /* \"#utility.yul\":13802:13816   */\n      mstore\n        /* \"#utility.yul\":13846:13850   */\n      0x20\n        /* \"#utility.yul\":13843:13844   */\n      0x00\n        /* \"#utility.yul\":13833:13851   */\n      keccak256\n        /* \"#utility.yul\":13825:13851   */\n      swap1\n      pop\n        /* \"#utility.yul\":13717:13858   */\n      swap2\n      swap1\n      pop\n      jump\t// out\n        /* \"#utility.yul\":13864:13957   */\n    tag_176:\n        /* \"#utility.yul\":13901:13907   */\n      0x00\n        /* \"#utility.yul\":13948:13950   */\n      0x20\n        /* \"#utility.yul\":13943:13945   */\n      0x1f\n        /* \"#utility.yul\":13936:13941   */\n      dup4\n        /* \"#utility.yul\":13932:13946   */\n      add\n        /* \"#utility.yul\":13928:13951   */\n      div\n        /* \"#utility.yul\":13918:13951   */\n      swap1\n      pop\n        /* \"#utility.yul\":13864:13957   */\n      swap2\n      swap1\n      pop\n      jump\t// out\n        /* \"#utility.yul\":13963:14070   */\n    tag_177:\n        /* \"#utility.yul\":14007:14015   */\n      0x00\n        /* \"#utility.yul\":14057:14062   */\n      dup3\n        /* \"#utility.yul\":14051:14055   */\n      dup3\n        /* \"#utility.yul\":14047:14063   */\n      shl\n        /* \"#utility.yul\":14026:14063   */\n      swap1\n      pop\n        /* \"#utility.yul\":13963:14070   */\n      swap3\n      swap2\n      pop\n      pop\n      jump\t// out\n        /* \"#utility.yul\":14076:14469   */\n    tag_178:\n        /* \"#utility.yul\":14145:14151   */\n      0x00\n        /* \"#utility.yul\":14195:14196   */\n      0x08\n        /* \"#utility.yul\":14183:14193   */\n      dup4\n        /* \"#utility.yul\":14179:14197   */\n      mul\n        /* \"#utility.yul\":14218:14315   */\n      tag_334\n        /* \"#utility.yul\":14248:14314   */\n      0xffffffffffffffffffffffffffffffffffffffffffffffffffffffffffffffff\n        /* \"#utility.yul\":14237:14246   */\n      dup3\n        /* \"#utility.yul\":14218:14315   */\n      tag_177\n      jump\t// in\n    tag_334:\n        /* \"#utility.yul\":14336:14375   */\n      tag_335\n        /* \"#utility.yul\":14366:14374   */\n      dup7\n        /* \"#utility.yul\":14355:14364   */\n      dup4\n        /* \"#utility.yul\":14336:14375   */\n      tag_177\n      jump\t// in\n    tag_335:\n        /* \"#utility.yul\":14324:14375   */\n      swap6\n      pop\n        /* \"#utility.yul\":14408:14412   */\n      dup1\n        /* \"#utility.yul\":14404:14413   */\n      not\n        /* \"#utility.yul\":14397:14402   */\n      dup5\n        /* \"#utility.yul\":14393:14414   */\n      and\n        /* \"#utility.yul\":14384:14414   */\n      swap4\n      pop\n        /* \"#utility.yul\":14457:14461   */\n      dup1\n        /* \"#utility.yul\":14447:14455   */\n      dup7\n        /* \"#utility.yul\":14443:14462   */\n      and\n        /* \"#utility.yul\":14436:14441   */\n      dup5\n        /* \"#utility.yul\":14433:14463   */\n      or\n        /* \"#utility.yul\":14423:14463   */\n      swap3\n      pop\n        /* \"#utility.yul\":14152:14469   */\n      pop\n      pop\n        /* \"#utility.yul\":14076:14469   */\n      swap4\n      swap3\n      pop\n      pop\n      pop\n      jump\t// out\n        /* \"#utility.yul\":14475:14535   */\n    tag_179:\n        /* \"#utility.yul\":14503:14506   */\n      0x00\n        /* \"#utility.yul\":14524:14529   */\n      dup2\n        /* \"#utility.yul\":14517:14529   */\n      swap1\n      pop\n        /* \"#utility.yul\":14475:14535   */\n      swap2\n      swap1\n      pop\n      jump\t// out\n        /* \"#utility.yul\":14541:14683   */\n    tag_180:\n        /* \"#utility.yul\":14591:14600   */\n      0x00\n        /* \"#utility.yul\":14624:14677   */\n      tag_338\n        /* \"#utility.yul\":14642:14676   */\n      tag_339\n        /* \"#utility.yul\":14651:14675   */\n      tag_340\n        /* \"#utility.yul\":14669:14674   */\n      dup5\n        /* \"#utility.yul\":14651:14675   */\n      tag_165\n      jump\t// in\n    tag_340:\n        /* \"#utility.yul\":14642:14676   */\n      tag_179\n      jump\t// in\n    tag_339:\n        /* \"#utility.yul\":14624:14677   */\n      tag_165\n      jump\t// in\n    tag_338:\n        /* \"#utility.yul\":14611:14677   */\n      swap1\n      pop\n        /* \"#utility.yul\":14541:14683   */\n      swap2\n      swap1\n      pop\n      jump\t// out\n        /* \"#utility.yul\":14689:14764   */\n    tag_181:\n        /* \"#utility.yul\":14732:14735   */\n      0x00\n        /* \"#utility.yul\":14753:14758   */\n      dup2\n        /* \"#utility.yul\":14746:14758   */\n      swap1\n      pop\n        /* \"#utility.yul\":14689:14764   */\n      swap2\n      swap1\n      pop\n      jump\t// out\n        /* \"#utility.yul\":14770:15039   */\n    tag_182:\n        /* \"#utility.yul\":14880:14919   */\n      tag_343\n        /* \"#utility.yul\":14911:14918   */\n      dup4\n        /* \"#utility.yul\":14880:14919   */\n      tag_180\n      jump\t// in\n    tag_343:\n        /* \"#utility.yul\":14941:15032   */\n      tag_344\n        /* \"#utility.yul\":14990:15031   */\n      tag_345\n        /* \"#utility.yul\":15014:15030   */\n      dup3\n        /* \"#utility.yul\":14990:15031   */\n      tag_181\n      jump\t// in\n    tag_345:\n        /* \"#utility.yul\":14982:14988   */\n      dup5\n        /* \"#utility.yul\":14975:14979   */\n      dup5\n        /* \"#utility.yul\":14969:14980   */\n      sload\n        /* \"#utility.yul\":14941:15032   */\n      tag_178\n      jump\t// in\n    tag_344:\n        /* \"#utility.yul\":14935:14939   */\n      dup3\n        /* \"#utility.yul\":14928:15033   */\n      sstore\n        /* \"#utility.yul\":14846:15039   */\n      pop\n        /* \"#utility.yul\":14770:15039   */\n      pop\n      pop\n      pop\n      jump\t// out\n        /* \"#utility.yul\":15045:15118   */\n    tag_183:\n        /* \"#utility.yul\":15090:15093   */\n      0x00\n        /* \"#utility.yul\":15045:15118   */\n      swap1\n      jump\t// out\n        /* \"#utility.yul\":15124:15313   */\n    tag_184:\n        /* \"#utility.yul\":15201:15233   */\n      tag_348\n      tag_183\n      jump\t// in\n    tag_348:\n        /* \"#utility.yul\":15242:15307   */\n      tag_349\n        /* \"#utility.yul\":15300:15306   */\n      dup2\n        /* \"#utility.yul\":15292:15298   */\n      dup5\n        /* \"#utility.yul\":15286:15290   */\n      dup5\n        /* \"#utility.yul\":15242:15307   */\n      tag_182\n      jump\t// in\n    tag_349:\n        /* \"#utility.yul\":15177:15313   */\n      pop\n        /* \"#utility.yul\":15124:15313   */\n      pop\n      pop\n      jump\t// out\n        /* \"#utility.yul\":15319:15505   */\n    tag_185:\n        /* \"#utility.yul\":15379:15499   */\n    tag_351:\n        /* \"#utility.yul\":15396:15399   */\n      dup2\n        /* \"#utility.yul\":15389:15394   */\n      dup2\n        /* \"#utility.yul\":15386:15400   */\n      lt\n        /* \"#utility.yul\":15379:15499   */\n      iszero\n      tag_353\n      jumpi\n        /* \"#utility.yul\":15450:15489   */\n      tag_354\n        /* \"#utility.yul\":15487:15488   */\n      0x00\n        /* \"#utility.yul\":15480:15485   */\n      dup3\n        /* \"#utility.yul\":15450:15489   */\n      tag_184\n      jump\t// in\n    tag_354:\n        /* \"#utility.yul\":15423:15424   */\n      0x01\n        /* \"#utility.yul\":15416:15421   */\n      dup2\n        /* \"#utility.yul\":15412:15425   */\n      add\n        /* \"#utility.yul\":15403:15425   */\n      swap1\n      pop\n        /* \"#utility.yul\":15379:15499   */\n      jump(tag_351)\n    tag_353:\n        /* \"#utility.yul\":15319:15505   */\n      pop\n      pop\n      jump\t// out\n        /* \"#utility.yul\":15511:16054   */\n    tag_186:\n        /* \"#utility.yul\":15612:15614   */\n      0x1f\n        /* \"#utility.yul\":15607:15610   */\n      dup3\n        /* \"#utility.yul\":15604:15615   */\n      gt\n        /* \"#utility.yul\":15601:16047   */\n      iszero\n      tag_356\n      jumpi\n        /* \"#utility.yul\":15646:15684   */\n      tag_357\n        /* \"#utility.yul\":15678:15683   */\n      dup2\n        /* \"#utility.yul\":15646:15684   */\n      tag_175\n      jump\t// in\n    tag_357:\n        /* \"#utility.yul\":15730:15759   */\n      tag_358\n        /* \"#utility.yul\":15748:15758   */\n      dup5\n        /* \"#utility.yul\":15730:15759   */\n      tag_176\n      jump\t// in\n    tag_358:\n        /* \"#utility.yul\":15720:15728   */\n      dup2\n        /* \"#utility.yul\":15716:15760   */\n      add\n        /* \"#utility.yul\":15913:15915   */\n      0x20\n        /* \"#utility.yul\":15901:15911   */\n      dup6\n        /* \"#utility.yul\":15898:15916   */\n      lt\n        /* \"#utility.yul\":15895:15944   */\n      iszero\n      tag_359\n      jumpi\n        /* \"#utility.yul\":15934:15942   */\n      dup2\n        /* \"#utility.yul\":15919:15942   */\n      swap1\n      pop\n        /* \"#utility.yul\":15895:15944   */\n    tag_359:\n        /* \"#utility.yul\":15957:16037   */\n      tag_360\n        /* \"#utility.yul\":16013:16035   */\n      tag_361\n        /* \"#utility.yul\":16031:16034   */\n      dup6\n        /* \"#utility.yul\":16013:16035   */\n      tag_176\n      jump\t// in\n    tag_361:\n        /* \"#utility.yul\":16003:16011   */\n      dup4\n        /* \"#utility.yul\":15999:16036   */\n      add\n        /* \"#utility.yul\":15986:15997   */\n      dup3\n        /* \"#utility.yul\":15957:16037   */\n      tag_185\n      jump\t// in\n    tag_360:\n        /* \"#utility.yul\":15616:16047   */\n      pop\n      pop\n        /* \"#utility.yul\":15601:16047   */\n    tag_356:\n        /* \"#utility.yul\":15511:16054   */\n      pop\n      pop\n      pop\n      jump\t// out\n        /* \"#utility.yul\":16060:16177   */\n    tag_187:\n        /* \"#utility.yul\":16114:16122   */\n      0x00\n        /* \"#utility.yul\":16164:16169   */\n      dup3\n        /* \"#utility.yul\":16158:16162   */\n      dup3\n        /* \"#utility.yul\":16154:16170   */\n      shr\n        /* \"#utility.yul\":16133:16170   */\n      swap1\n      pop\n        /* \"#utility.yul\":16060:16177   */\n      swap3\n      swap2\n      pop\n      pop\n      jump\t// out\n        /* \"#utility.yul\":16183:16352   */\n    tag_188:\n        /* \"#utility.yul\":16227:16233   */\n      0x00\n        /* \"#utility.yul\":16260:16311   */\n      tag_364\n        /* \"#utility.yul\":16308:16309   */\n      0x00\n        /* \"#utility.yul\":16304:16310   */\n      not\n        /* \"#utility.yul\":16296:16301   */\n      dup5\n        /* \"#utility.yul\":16293:16294   */\n      0x08\n        /* \"#utility.yul\":16289:16302   */\n      mul\n        /* \"#utility.yul\":16260:16311   */\n      tag_187\n      jump\t// in\n    tag_364:\n        /* \"#utility.yul\":16256:16312   */\n      not\n        /* \"#utility.yul\":16341:16345   */\n      dup1\n        /* \"#utility.yul\":16335:16339   */\n      dup4\n        /* \"#utility.yul\":16331:16346   */\n      and\n        /* \"#utility.yul\":16321:16346   */\n      swap2\n      pop\n        /* \"#utility.yul\":16234:16352   */\n      pop\n        /* \"#utility.yul\":16183:16352   */\n      swap3\n      swap2\n      pop\n      pop\n      jump\t// out\n        /* \"#utility.yul\":16357:16652   */\n    tag_189:\n        /* \"#utility.yul\":16433:16437   */\n      0x00\n        /* \"#utility.yul\":16579:16608   */\n      tag_366\n        /* \"#utility.yul\":16604:16607   */\n      dup4\n        /* \"#utility.yul\":16598:16602   */\n      dup4\n        /* \"#utility.yul\":16579:16608   */\n      tag_188\n      jump\t// in\n    tag_366:\n        /* \"#utility.yul\":16571:16608   */\n      swap2\n      pop\n        /* \"#utility.yul\":16641:16644   */\n      dup3\n        /* \"#utility.yul\":16638:16639   */\n      0x02\n        /* \"#utility.yul\":16634:16645   */\n      mul\n        /* \"#utility.yul\":16628:16632   */\n      dup3\n        /* \"#utility.yul\":16625:16646   */\n      or\n        /* \"#utility.yul\":16617:16646   */\n      swap1\n      pop\n        /* \"#utility.yul\":16357:16652   */\n      swap3\n      swap2\n      pop\n      pop\n      jump\t// out\n        /* \"#utility.yul\":16657:18052   */\n    tag_62:\n        /* \"#utility.yul\":16774:16811   */\n      tag_368\n        /* \"#utility.yul\":16807:16810   */\n      dup3\n        /* \"#utility.yul\":16774:16811   */\n      tag_170\n      jump\t// in\n    tag_368:\n        /* \"#utility.yul\":16876:16894   */\n      0xffffffffffffffff\n        /* \"#utility.yul\":16868:16874   */\n      dup2\n        /* \"#utility.yul\":16865:16895   */\n      gt\n        /* \"#utility.yul\":16862:16918   */\n      iszero\n      tag_369\n      jumpi\n        /* \"#utility.yul\":16898:16916   */\n      tag_370\n      tag_158\n      jump\t// in\n    tag_370:\n        /* \"#utility.yul\":16862:16918   */\n    tag_369:\n        /* \"#utility.yul\":16942:16980   */\n      tag_371\n        /* \"#utility.yul\":16974:16978   */\n      dup3\n        /* \"#utility.yul\":16968:16979   */\n      sload\n        /* \"#utility.yul\":16942:16980   */\n      tag_73\n      jump\t// in\n    tag_371:\n        /* \"#utility.yul\":17027:17094   */\n      tag_372\n        /* \"#utility.yul\":17087:17093   */\n      dup3\n        /* \"#utility.yul\":17079:17085   */\n      dup3\n        /* \"#utility.yul\":17073:17077   */\n      dup6\n        /* \"#utility.yul\":17027:17094   */\n      tag_186\n      jump\t// in\n    tag_372:\n        /* \"#utility.yul\":17121:17122   */\n      0x00\n        /* \"#utility.yul\":17145:17149   */\n      0x20\n        /* \"#utility.yul\":17132:17149   */\n      swap1\n      pop\n        /* \"#utility.yul\":17177:17179   */\n      0x1f\n        /* \"#utility.yul\":17169:17175   */\n      dup4\n        /* \"#utility.yul\":17166:17180   */\n      gt\n        /* \"#utility.yul\":17194:17195   */\n      0x01\n        /* \"#utility.yul\":17189:17807   */\n      dup2\n      eq\n      tag_374\n      jumpi\n        /* \"#utility.yul\":17851:17852   */\n      0x00\n        /* \"#utility.yul\":17868:17874   */\n      dup5\n        /* \"#utility.yul\":17865:17942   */\n      iszero\n      tag_375\n      jumpi\n        /* \"#utility.yul\":17917:17926   */\n      dup3\n        /* \"#utility.yul\":17912:17915   */\n      dup8\n        /* \"#utility.yul\":17908:17927   */\n      add\n        /* \"#utility.yul\":17902:17928   */\n      mload\n        /* \"#utility.yul\":17893:17928   */\n      swap1\n      pop\n        /* \"#utility.yul\":17865:17942   */\n    tag_375:\n        /* \"#utility.yul\":17968:18035   */\n      tag_376\n        /* \"#utility.yul\":18028:18034   */\n      dup6\n        /* \"#utility.yul\":18021:18026   */\n      dup3\n        /* \"#utility.yul\":17968:18035   */\n      tag_189\n      jump\t// in\n    tag_376:\n        /* \"#utility.yul\":17962:17966   */\n      dup7\n        /* \"#utility.yul\":17955:18036   */\n      sstore\n        /* \"#utility.yul\":17824:18046   */\n      pop\n        /* \"#utility.yul\":17159:18046   */\n      jump(tag_373)\n        /* \"#utility.yul\":17189:17807   */\n    tag_374:\n        /* \"#utility.yul\":17241:17245   */\n      0x1f\n        /* \"#utility.yul\":17237:17246   */\n      not\n        /* \"#utility.yul\":17229:17235   */\n      dup5\n        /* \"#utility.yul\":17225:17247   */\n      and\n        /* \"#utility.yul\":17275:17312   */\n      tag_377\n        /* \"#utility.yul\":17307:17311   */\n      dup7\n        /* \"#utility.yul\":17275:17312   */\n      tag_175\n      jump\t// in\n    tag_377:\n        /* \"#utility.yul\":17334:17335   */\n      0x00\n        /* \"#utility.yul\":17348:17556   */\n    tag_378:\n        /* \"#utility.yul\":17362:17369   */\n      dup3\n        /* \"#utility.yul\":17359:17360   */\n      dup2\n        /* \"#utility.yul\":17356:17370   */\n      lt\n        /* \"#utility.yul\":17348:17556   */\n      iszero\n      tag_380\n      jumpi\n        /* \"#utility.yul\":17441:17450   */\n      dup5\n        /* \"#utility.yul\":17436:17439   */\n      dup10\n        /* \"#utility.yul\":17432:17451   */\n      add\n        /* \"#utility.yul\":17426:17452   */\n      mload\n        /* \"#utility.yul\":17418:17424   */\n      dup3\n        /* \"#utility.yul\":17411:17453   */\n      sstore\n        /* \"#utility.yul\":17492:17493   */\n      0x01\n        /* \"#utility.yul\":17484:17490   */\n      dup3\n        /* \"#utility.yul\":17480:17494   */\n      add\n        /* \"#utility.yul\":17470:17494   */\n      swap2\n      pop\n        /* \"#utility.yul\":17539:17541   */\n      0x20\n        /* \"#utility.yul\":17528:17537   */\n      dup6\n        /* \"#utility.yul\":17524:17542   */\n      add\n        /* \"#utility.yul\":17511:17542   */\n      swap5\n      pop\n        /* \"#utility.yul\":17385:17389   */\n      0x20\n        /* \"#utility.yul\":17382:17383   */\n      dup2\n        /* \"#utility.yul\":17378:17390   */\n      add\n        /* \"#utility.yul\":17373:17390   */\n      swap1\n      pop\n        /* \"#utility.yul\":17348:17556   */\n      jump(tag_378)\n    tag_380:\n        /* \"#utility.yul\":17584:17590   */\n      dup7\n        /* \"#utility.yul\":17575:17582   */\n      dup4\n        /* \"#utility.yul\":17572:17591   */\n      lt\n        /* \"#utility.yul\":17569:17748   */\n      iszero\n      tag_381\n      jumpi\n        /* \"#utility.yul\":17642:17651   */\n      dup5\n        /* \"#utility.yul\":17637:17640   */\n      dup10\n        /* \"#utility.yul\":17633:17652   */\n      add\n        /* \"#utility.yul\":17627:17653   */\n      mload\n        /* \"#utility.yul\":17685:17733   */\n      tag_382\n        /* \"#utility.yul\":17727:17731   */\n      0x1f\n        /* \"#utility.yul\":17719:17725   */\n      dup10\n        /* \"#utility.yul\":17715:17732   */\n      and\n        /* \"#utility.yul\":17704:17713   */\n      dup3\n        /* \"#utility.yul\":17685:17733   */\n      tag_188\n      jump\t// in\n    tag_382:\n        /* \"#utility.yul\":17677:17683   */\n      dup4\n        /* \"#utility.yul\":17670:17734   */\n      sstore\n        /* \"#utility.yul\":17592:17748   */\n      pop\n        /* \"#utility.yul\":17569:17748   */\n    tag_381:\n        /* \"#utility.yul\":17794:17795   */\n      0x01\n        /* \"#utility.yul\":17790:17791   */\n      0x02\n        /* \"#utility.yul\":17782:17788   */\n      dup9\n        /* \"#utility.yul\":17778:17792   */\n      mul\n        /* \"#utility.yul\":17774:17796   */\n      add\n        /* \"#utility.yul\":17768:17772   */\n      dup9\n        /* \"#utility.yul\":17761:17797   */\n      sstore\n        /* \"#utility.yul\":17196:17807   */\n      pop\n      pop\n      pop\n        /* \"#utility.yul\":17159:18046   */\n    tag_373:\n      pop\n        /* \"#utility.yul\":16749:18052   */\n      pop\n      pop\n      pop\n        /* \"#utility.yul\":16657:18052   */\n      pop\n      pop\n      jump\t// out\n\n    auxdata: 0xa2646970667358221220f0256e1c87755f43d61375f4937a6149c19f4877658b91102e4b3ce99b58cf9b64736f6c63430008130033\n}\n","bytecode":{"linkReferences":{},"object":"60806040523480156200001157600080fd5b506040516200160d3803806200160d83398181016040528101906200003791906200012c565b80600160006101000a81548173ffffffffffffffffffffffffffffffffffffffff021916908373ffffffffffffffffffffffffffffffffffffffff16021790555081600281905550505062000173565b600080fd5b6000819050919050565b620000a1816200008c565b8114620000ad57600080fd5b50565b600081519050620000c18162000096565b92915050565b600073ffffffffffffffffffffffffffffffffffffffff82169050919050565b6000620000f482620000c7565b9050919050565b6200010681620000e7565b81146200011257600080fd5b50565b6000815190506200012681620000fb565b92915050565b6000806040838503121562000146576200014562000087565b5b60006200015685828601620000b0565b9250506020620001698582860162000115565b9150509250929050565b61148a80620001836000396000f3fe608060405234801561001057600080fd5b506004361061009e5760003560e01c80638001bd7c116100665780638001bd7c14610147578063937e09b114610182578063abf689f0146101a0578063ee532422146101bc578063f7580f9a146101d85761009e565b80630a144391146100a3578063144fbfb5146100d3578063194fc7e5146100ef578063481c6a751461010b5780635ba2271e14610129575b600080fd5b6100bd60048036038101906100b89190610ae8565b6101f4565b6040516100ca9190610b30565b60405180910390f35b6100ed60048036038101906100e89190610cc7565b610214565b005b61010960048036038101906101049190610d52565b610263565b005b6101136102bc565b6040516101209190610dbd565b60405180910390f35b6101316102e2565b60405161013e9190610de7565b60405180910390f35b610161600480360381019061015c9190610e02565b6102ee565b6040516101799c9b9a99989796959493929190610eae565b60405180910390f35b61018a610943565b6040516101979190610de7565b60405180910390f35b6101ba60048036038101906101b59190610fb5565b610949565b005b6101d660048036038101906101d19190611070565b6109ab565b005b6101f260048036038101906101ed9190610d52565b610a3a565b005b60036020528060005260406000206000915054906101000a900460ff1681565b600080828154811061022957610228611147565b5b90600052602060002090600c020190508381600501908161024a9190611382565b508281600901908161025c9190611382565b5050505050565b600080828154811061027857610277611147565b5b90600052602060002090600c02019050828160040190816102999190611382565b50600181600b0160006101000a81548160ff021916908315150217905550505050565b600160009054906101000a900473ffffffffffffffffffffffffffffffffffffffff1681565b60008080549050905090565b600081815481106102fe57600080fd5b90600052602060002090600c0201600091509050806000018054610321906111a5565b80601f016020809104026020016040519081016040528092919081815260200182805461034d906111a5565b801561039a5780601f1061036f5761010080835404028352916020019161039a565b820191906000526020600020905b81548152906001019060200180831161037d57829003601f168201915b5050505050908060010180546103af906111a5565b80601f01602080910402602001604051908101604052809291908181526020018280546103db906111a5565b80156104285780601f106103fd57610100808354040283529160200191610428565b820191906000526020600020905b81548152906001019060200180831161040b57829003601f168201915b50505050509080600201805461043d906111a5565b80601f0160208091040260200160405190810160405280929190818152602001828054610469906111a5565b80156104b65780601f1061048b576101008083540402835291602001916104b6565b820191906000526020600020905b81548152906001019060200180831161049957829003601f168201915b5050505050908060030180546104cb906111a5565b80601f01602080910402602001604051908101604052809291908181526020018280546104f7906111a5565b80156105445780601f1061051957610100808354040283529160200191610544565b820191906000526020600020905b81548152906001019060200180831161052757829003601f168201915b505050505090806004018054610559906111a5565b80601f0160208091040260200160405190810160405280929190818152602001828054610585906111a5565b80156105d25780601f106105a7576101008083540402835291602001916105d2565b820191906000526020600020905b8154815290600101906020018083116105b557829003601f168201915b5050505050908060050180546105e7906111a5565b80601f0160208091040260200160405190810160405280929190818152602001828054610613906111a5565b80156106605780601f1061063557610100808354040283529160200191610660565b820191906000526020600020905b81548152906001019060200180831161064357829003601f168201915b505050505090806006018054610675906111a5565b80601f01602080910402602001604051908101604052809291908181526020018280546106a1906111a5565b80156106ee5780601f106106c3576101008083540402835291602001916106ee565b820191906000526020600020905b8154815290600101906020018083116106d157829003601f168201915b505050505090806007018054610703906111a5565b80601f016020809104026020016040519081016040528092919081815260200182805461072f906111a5565b801561077c5780601f106107515761010080835404028352916020019161077c565b820191906000526020600020905b81548152906001019060200180831161075f57829003601f168201915b505050505090806008018054610791906111a5565b80601f01602080910402602001604051908101604052809291908181526020018280546107bd906111a5565b801561080a5780601f106107df5761010080835404028352916020019161080a565b820191906000526020600020905b8154815290600101906020018083116107ed57829003601f168201915b50505050509080600901805461081f906111a5565b80601f016020809104026020016040519081016040528092919081815260200182805461084b906111a5565b80156108985780601f1061086d57610100808354040283529160200191610898565b820191906000526020600020905b81548152906001019060200180831161087b57829003601f168201915b50505050509080600a0180546108ad906111a5565b80601f01602080910402602001604051908101604052809291908181526020018280546108d9906111a5565b80156109265780601f106108fb57610100808354040283529160200191610926565b820191906000526020600020905b81548152906001019060200180831161090957829003601f168201915b50505050509080600b0160009054906101000a900460ff1690508c565b60025481565b600080828154811061095e5761095d611147565b5b90600052602060002090600c020190508481600601908161097f9190611382565b50838160070190816109919190611382565b50828160080190816109a39190611382565b505050505050565b6000806001816001815401808255809150500390600052602060002090600c02019050848160000190816109df9190611382565b50838160010190816109f19190611382565b5082816002019081610a039190611382565b5081816003019081610a159190611382565b50600081600b0160006101000a81548160ff0219169083151502179055505050505050565b6000808281548110610a4f57610a4e611147565b5b90600052602060002090600c020190508281600a019081610a709190611382565b50505050565b6000604051905090565b600080fd5b600080fd5b600073ffffffffffffffffffffffffffffffffffffffff82169050919050565b6000610ab582610a8a565b9050919050565b610ac581610aaa565b8114610ad057600080fd5b50565b600081359050610ae281610abc565b92915050565b600060208284031215610afe57610afd610a80565b5b6000610b0c84828501610ad3565b91505092915050565b60008115159050919050565b610b2a81610b15565b82525050565b6000602082019050610b456000830184610b21565b92915050565b600080fd5b600080fd5b6000601f19601f8301169050919050565b7f4e487b7100000000000000000000000000000000000000000000000000000000600052604160045260246000fd5b610b9e82610b55565b810181811067ffffffffffffffff82111715610bbd57610bbc610b66565b5b80604052505050565b6000610bd0610a76565b9050610bdc8282610b95565b919050565b600067ffffffffffffffff821115610bfc57610bfb610b66565b5b610c0582610b55565b9050602081019050919050565b82818337600083830152505050565b6000610c34610c2f84610be1565b610bc6565b905082815260208101848484011115610c5057610c4f610b50565b5b610c5b848285610c12565b509392505050565b600082601f830112610c7857610c77610b4b565b5b8135610c88848260208601610c21565b91505092915050565b6000819050919050565b610ca481610c91565b8114610caf57600080fd5b50565b600081359050610cc181610c9b565b92915050565b600080600060608486031215610ce057610cdf610a80565b5b600084013567ffffffffffffffff811115610cfe57610cfd610a85565b5b610d0a86828701610c63565b935050602084013567ffffffffffffffff811115610d2b57610d2a610a85565b5b610d3786828701610c63565b9250506040610d4886828701610cb2565b9150509250925092565b60008060408385031215610d6957610d68610a80565b5b600083013567ffffffffffffffff811115610d8757610d86610a85565b5b610d9385828601610c63565b9250506020610da485828601610cb2565b9150509250929050565b610db781610aaa565b82525050565b6000602082019050610dd26000830184610dae565b92915050565b610de181610c91565b82525050565b6000602082019050610dfc6000830184610dd8565b92915050565b600060208284031215610e1857610e17610a80565b5b6000610e2684828501610cb2565b91505092915050565b600081519050919050565b600082825260208201905092915050565b60005b83811015610e69578082015181840152602081019050610e4e565b60008484015250505050565b6000610e8082610e2f565b610e8a8185610e3a565b9350610e9a818560208601610e4b565b610ea381610b55565b840191505092915050565b6000610180820190508181036000830152610ec9818f610e75565b90508181036020830152610edd818e610e75565b90508181036040830152610ef1818d610e75565b90508181036060830152610f05818c610e75565b90508181036080830152610f19818b610e75565b905081810360a0830152610f2d818a610e75565b905081810360c0830152610f418189610e75565b905081810360e0830152610f558188610e75565b9050818103610100830152610f6a8187610e75565b9050818103610120830152610f7f8186610e75565b9050818103610140830152610f948185610e75565b9050610fa4610160830184610b21565b9d9c50505050505050505050505050565b60008060008060808587031215610fcf57610fce610a80565b5b600085013567ffffffffffffffff811115610fed57610fec610a85565b5b610ff987828801610c63565b945050602085013567ffffffffffffffff81111561101a57611019610a85565b5b61102687828801610c63565b935050604085013567ffffffffffffffff81111561104757611046610a85565b5b61105387828801610c63565b925050606061106487828801610cb2565b91505092959194509250565b6000806000806080858703121561108a57611089610a80565b5b600085013567ffffffffffffffff8111156110a8576110a7610a85565b5b6110b487828801610c63565b945050602085013567ffffffffffffffff8111156110d5576110d4610a85565b5b6110e187828801610c63565b935050604085013567ffffffffffffffff81111561110257611101610a85565b5b61110e87828801610c63565b925050606085013567ffffffffffffffff81111561112f5761112e610a85565b5b61113b87828801610c63565b91505092959194509250565b7f4e487b7100000000000000000000000000000000000000000000000000000000600052603260045260246000fd5b7f4e487b7100000000000000000000000000000000000000000000000000000000600052602260045260246000fd5b600060028204905060018216806111bd57607f821691505b6020821081036111d0576111cf611176565b5b50919050565b60008190508160005260206000209050919050565b60006020601f8301049050919050565b600082821b905092915050565b6000600883026112387fffffffffffffffffffffffffffffffffffffffffffffffffffffffffffffffff826111fb565b61124286836111fb565b95508019841693508086168417925050509392505050565b6000819050919050565b600061127f61127a61127584610c91565b61125a565b610c91565b9050919050565b6000819050919050565b61129983611264565b6112ad6112a582611286565b848454611208565b825550505050565b600090565b6112c26112b5565b6112cd818484611290565b505050565b5b818110156112f1576112e66000826112ba565b6001810190506112d3565b5050565b601f82111561133657611307816111d6565b611310846111eb565b8101602085101561131f578190505b61133361132b856111eb565b8301826112d2565b50505b505050565b600082821c905092915050565b60006113596000198460080261133b565b1980831691505092915050565b60006113728383611348565b9150826002028217905092915050565b61138b82610e2f565b67ffffffffffffffff8111156113a4576113a3610b66565b5b6113ae82546111a5565b6113b98282856112f5565b600060209050601f8311600181146113ec57600084156113da578287015190505b6113e48582611366565b86555061144c565b601f1984166113fa866111d6565b60005b82811015611422578489015182556001820191506020850194506020810190506113fd565b8683101561143f578489015161143b601f891682611348565b8355505b6001600288020188555050505b50505050505056fea2646970667358221220f0256e1c87755f43d61375f4937a6149c19f4877658b91102e4b3ce99b58cf9b64736f6c63430008130033","opcodes":"PUSH1 0x80 PUSH1 0x40 MSTORE CALLVALUE DUP1 ISZERO PUSH3 0x11 JUMPI PUSH1 0x0 DUP1 REVERT JUMPDEST POP PUSH1 0x40 MLOAD PUSH3 0x160D CODESIZE SUB DUP1 PUSH3 0x160D DUP4 CODECOPY DUP2 DUP2 ADD PUSH1 0x40 MSTORE DUP2 ADD SWAP1 PUSH3 0x37 SWAP2 SWAP1 PUSH3 0x12C JUMP JUMPDEST DUP1 PUSH1 0x1 PUSH1 0x0 PUSH2 0x100 EXP DUP2 SLOAD DUP2 PUSH20 0xFFFFFFFFFFFFFFFFFFFFFFFFFFFFFFFFFFFFFFFF MUL NOT AND SWAP1 DUP4 PUSH20 0xFFFFFFFFFFFFFFFFFFFFFFFFFFFFFFFFFFFFFFFF AND MUL OR SWAP1 SSTORE POP DUP2 PUSH1 0x2 DUP2 SWAP1 SSTORE POP POP POP PUSH3 0x173 JUMP JUMPDEST PUSH1 0x0 DUP1 REVERT JUMPDEST PUSH1 0x0 DUP2 SWAP1 POP SWAP2 SWAP1 POP JUMP JUMPDEST PUSH3 0xA1 DUP2 PUSH3 0x8C JUMP JUMPDEST DUP2 EQ PUSH3 0xAD JUMPI PUSH1 0x0 DUP1 REVERT JUMPDEST POP JUMP JUMPDEST PUSH1 0x0 DUP2 MLOAD SWAP1 POP PUSH3 0xC1 DUP2 PUSH3 0x96 JUMP JUMPDEST SWAP3 SWAP2 POP POP JUMP JUMPDEST PUSH1 0x0 PUSH20 0xFFFFFFFFFFFFFFFFFFFFFFFFFFFFFFFFFFFFFFFF DUP3 AND SWAP1 POP SWAP2 SWAP1 POP JUMP JUMPDEST PUSH1 0x0 PUSH3 0xF4 DUP3 PUSH3 0xC7 JUMP JUMPDEST SWAP1 POP SWAP2 SWAP1 POP JUMP JUMPDEST PUSH3 0x106 DUP2 PUSH3 0xE7 JUMP JUMPDEST DUP2 EQ PUSH3 0x112 JUMPI PUSH1 0x0 DUP1 REVERT JUMPDEST POP JUMP JUMPDEST PUSH1 0x0 DUP2 MLOAD SWAP1 POP PUSH3 0x126 DUP2 PUSH3 0xFB JUMP JUMPDEST SWAP3 SWAP2 POP POP JUMP JUMPDEST PUSH1 0x0 DUP1 PUSH1 0x40 DUP4 DUP6 SUB SLT ISZERO PUSH3 0x146 JUMPI PUSH3 0x145 PUSH3 0x87 JUMP JUMPDEST JUMPDEST PUSH1 0x0 PUSH3 0x156 DUP6 DUP3 DUP7 ADD PUSH3 0xB0 JUMP JUMPDEST SWAP3 POP POP PUSH1 0x20 PUSH3 0x169 DUP6 DUP3 DUP7 ADD PUSH3 0x115 JUMP JUMPDEST SWAP2 POP POP SWAP3 POP SWAP3 SWAP1 POP JUMP JUMPDEST PUSH2 0x148A DUP1 PUSH3 0x183 PUSH1 0x0 CODECOPY PUSH1 0x0 RETURN INVALID PUSH1 0x80 PUSH1 0x40 MSTORE CALLVALUE DUP1 ISZERO PUSH2 0x10 JUMPI PUSH1 0x0 DUP1 REVERT JUMPDEST POP PUSH1 0x4 CALLDATASIZE LT PUSH2 0x9E JUMPI PUSH1 0x0 CALLDATALOAD PUSH1 0xE0 SHR DUP1 PUSH4 0x8001BD7C GT PUSH2 0x66 JUMPI DUP1 PUSH4 0x8001BD7C EQ PUSH2 0x147 JUMPI DUP1 PUSH4 0x937E09B1 EQ PUSH2 0x182 JUMPI DUP1 PUSH4 0xABF689F0 EQ PUSH2 0x1A0 JUMPI DUP1 PUSH4 0xEE532422 EQ PUSH2 0x1BC JUMPI DUP1 PUSH4 0xF7580F9A EQ PUSH2 0x1D8 JUMPI PUSH2 0x9E JUMP JUMPDEST DUP1 PUSH4 0xA144391 EQ PUSH2 0xA3 JUMPI DUP1 PUSH4 0x144FBFB5 EQ PUSH2 0xD3 JUMPI DUP1 PUSH4 0x194FC7E5 EQ PUSH2 0xEF JUMPI DUP1 PUSH4 0x481C6A75 EQ PUSH2 0x10B JUMPI DUP1 PUSH4 0x5BA2271E EQ PUSH2 0x129 JUMPI JUMPDEST PUSH1 0x0 DUP1 REVERT JUMPDEST PUSH2 0xBD PUSH1 0x4 DUP1 CALLDATASIZE SUB DUP2 ADD SWAP1 PUSH2 0xB8 SWAP2 SWAP1 PUSH2 0xAE8 JUMP JUMPDEST PUSH2 0x1F4 JUMP JUMPDEST PUSH1 0x40 MLOAD PUSH2 0xCA SWAP2 SWAP1 PUSH2 0xB30 JUMP JUMPDEST PUSH1 0x40 MLOAD DUP1 SWAP2 SUB SWAP1 RETURN JUMPDEST PUSH2 0xED PUSH1 0x4 DUP1 CALLDATASIZE SUB DUP2 ADD SWAP1 PUSH2 0xE8 SWAP2 SWAP1 PUSH2 0xCC7 JUMP JUMPDEST PUSH2 0x214 JUMP JUMPDEST STOP JUMPDEST PUSH2 0x109 PUSH1 0x4 DUP1 CALLDATASIZE SUB DUP2 ADD SWAP1 PUSH2 0x104 SWAP2 SWAP1 PUSH2 0xD52 JUMP JUMPDEST PUSH2 0x263 JUMP JUMPDEST STOP JUMPDEST PUSH2 0x113 PUSH2 0x2BC JUMP JUMPDEST PUSH1 0x40 MLOAD PUSH2 0x120 SWAP2 SWAP1 PUSH2 0xDBD JUMP JUMPDEST PUSH1 0x40 MLOAD DUP1 SWAP2 SUB SWAP1 RETURN JUMPDEST PUSH2 0x131 PUSH2 0x2E2 JUMP JUMPDEST PUSH1 0x40 MLOAD PUSH2 0x13E SWAP2 SWAP1 PUSH2 0xDE7 JUMP JUMPDEST PUSH1 0x40 MLOAD DUP1 SWAP2 SUB SWAP1 RETURN JUMPDEST PUSH2 0x161 PUSH1 0x4 DUP1 CALLDATASIZE SUB DUP2 ADD SWAP1 PUSH2 0x15C SWAP2 SWAP1 PUSH2 0xE02 JUMP JUMPDEST PUSH2 0x2EE JUMP JUMPDEST PUSH1 0x40 MLOAD PUSH2 0x179 SWAP13 SWAP12 SWAP11 SWAP10 SWAP9 SWAP8 SWAP7 SWAP6 SWAP5 SWAP4 SWAP3 SWAP2 SWAP1 PUSH2 0xEAE JUMP JUMPDEST PUSH1 0x40 MLOAD DUP1 SWAP2 SUB SWAP1 RETURN JUMPDEST PUSH2 0x18A PUSH2 0x943 JUMP JUMPDEST PUSH1 0x40 MLOAD PUSH2 0x197 SWAP2 SWAP1 PUSH2 0xDE7 JUMP JUMPDEST PUSH1 0x40 MLOAD DUP1 SWAP2 SUB SWAP1 RETURN JUMPDEST PUSH2 0x1BA PUSH1 0x4 DUP1 CALLDATASIZE SUB DUP2 ADD SWAP1 PUSH2 0x1B5 SWAP2 SWAP1 PUSH2 0xFB5 JUMP JUMPDEST PUSH2 0x949 JUMP JUMPDEST STOP JUMPDEST PUSH2 0x1D6 PUSH1 0x4 DUP1 CALLDATASIZE SUB DUP2 ADD SWAP1 PUSH2 0x1D1 SWAP2 SWAP1 PUSH2 0x1070 JUMP JUMPDEST PUSH2 0x9AB JUMP JUMPDEST STOP JUMPDEST PUSH2 0x1F2 PUSH1 0x4 DUP1 CALLDATASIZE SUB DUP2 ADD SWAP1 PUSH2 0x1ED SWAP2 SWAP1 PUSH2 0xD52 JUMP JUMPDEST PUSH2 0xA3A JUMP JUMPDEST STOP JUMPDEST PUSH1 0x3 PUSH1 0x20 MSTORE DUP1 PUSH1 0x0 MSTORE PUSH1 0x40 PUSH1 0x0 KECCAK256 PUSH1 0x0 SWAP2 POP SLOAD SWAP1 PUSH2 0x100 EXP SWAP1 DIV PUSH1 0xFF AND DUP2 JUMP JUMPDEST PUSH1 0x0 DUP1 DUP3 DUP2 SLOAD DUP2 LT PUSH2 0x229 JUMPI PUSH2 0x228 PUSH2 0x1147 JUMP JUMPDEST JUMPDEST SWAP1 PUSH1 0x0 MSTORE PUSH1 0x20 PUSH1 0x0 KECCAK256 SWAP1 PUSH1 0xC MUL ADD SWAP1 POP DUP4 DUP2 PUSH1 0x5 ADD SWAP1 DUP2 PUSH2 0x24A SWAP2 SWAP1 PUSH2 0x1382 JUMP JUMPDEST POP DUP3 DUP2 PUSH1 0x9 ADD SWAP1 DUP2 PUSH2 0x25C SWAP2 SWAP1 PUSH2 0x1382 JUMP JUMPDEST POP POP POP POP POP JUMP JUMPDEST PUSH1 0x0 DUP1 DUP3 DUP2 SLOAD DUP2 LT PUSH2 0x278 JUMPI PUSH2 0x277 PUSH2 0x1147 JUMP JUMPDEST JUMPDEST SWAP1 PUSH1 0x0 MSTORE PUSH1 0x20 PUSH1 0x0 KECCAK256 SWAP1 PUSH1 0xC MUL ADD SWAP1 POP DUP3 DUP2 PUSH1 0x4 ADD SWAP1 DUP2 PUSH2 0x299 SWAP2 SWAP1 PUSH2 0x1382 JUMP JUMPDEST POP PUSH1 0x1 DUP2 PUSH1 0xB ADD PUSH1 0x0 PUSH2 0x100 EXP DUP2 SLOAD DUP2 PUSH1 0xFF MUL NOT AND SWAP1 DUP4 ISZERO ISZERO MUL OR SWAP1 SSTORE POP POP POP POP JUMP JUMPDEST PUSH1 0x1 PUSH1 0x0 SWAP1 SLOAD SWAP1 PUSH2 0x100 EXP SWAP1 DIV PUSH20 0xFFFFFFFFFFFFFFFFFFFFFFFFFFFFFFFFFFFFFFFF AND DUP2 JUMP JUMPDEST PUSH1 0x0 DUP1 DUP1 SLOAD SWAP1 POP SWAP1 POP SWAP1 JUMP JUMPDEST PUSH1 0x0 DUP2 DUP2 SLOAD DUP2 LT PUSH2 0x2FE JUMPI PUSH1 0x0 DUP1 REVERT JUMPDEST SWAP1 PUSH1 0x0 MSTORE PUSH1 0x20 PUSH1 0x0 KECCAK256 SWAP1 PUSH1 0xC MUL ADD PUSH1 0x0 SWAP2 POP SWAP1 POP DUP1 PUSH1 0x0 ADD DUP1 SLOAD PUSH2 0x321 SWAP1 PUSH2 0x11A5 JUMP JUMPDEST DUP1 PUSH1 0x1F ADD PUSH1 0x20 DUP1 SWAP2 DIV MUL PUSH1 0x20 ADD PUSH1 0x40 MLOAD SWAP1 DUP2 ADD PUSH1 0x40 MSTORE DUP1 SWAP3 SWAP2 SWAP1 DUP2 DUP2 MSTORE PUSH1 0x20 ADD DUP3 DUP1 SLOAD PUSH2 0x34D SWAP1 PUSH2 0x11A5 JUMP JUMPDEST DUP1 ISZERO PUSH2 0x39A JUMPI DUP1 PUSH1 0x1F LT PUSH2 0x36F JUMPI PUSH2 0x100 DUP1 DUP4 SLOAD DIV MUL DUP4 MSTORE SWAP2 PUSH1 0x20 ADD SWAP2 PUSH2 0x39A JUMP JUMPDEST DUP3 ADD SWAP2 SWAP1 PUSH1 0x0 MSTORE PUSH1 0x20 PUSH1 0x0 KECCAK256 SWAP1 JUMPDEST DUP2 SLOAD DUP2 MSTORE SWAP1 PUSH1 0x1 ADD SWAP1 PUSH1 0x20 ADD DUP1 DUP4 GT PUSH2 0x37D JUMPI DUP3 SWAP1 SUB PUSH1 0x1F AND DUP3 ADD SWAP2 JUMPDEST POP POP POP POP POP SWAP1 DUP1 PUSH1 0x1 ADD DUP1 SLOAD PUSH2 0x3AF SWAP1 PUSH2 0x11A5 JUMP JUMPDEST DUP1 PUSH1 0x1F ADD PUSH1 0x20 DUP1 SWAP2 DIV MUL PUSH1 0x20 ADD PUSH1 0x40 MLOAD SWAP1 DUP2 ADD PUSH1 0x40 MSTORE DUP1 SWAP3 SWAP2 SWAP1 DUP2 DUP2 MSTORE PUSH1 0x20 ADD DUP3 DUP1 SLOAD PUSH2 0x3DB SWAP1 PUSH2 0x11A5 JUMP JUMPDEST DUP1 ISZERO PUSH2 0x428 JUMPI DUP1 PUSH1 0x1F LT PUSH2 0x3FD JUMPI PUSH2 0x100 DUP1 DUP4 SLOAD DIV MUL DUP4 MSTORE SWAP2 PUSH1 0x20 ADD SWAP2 PUSH2 0x428 JUMP JUMPDEST DUP3 ADD SWAP2 SWAP1 PUSH1 0x0 MSTORE PUSH1 0x20 PUSH1 0x0 KECCAK256 SWAP1 JUMPDEST DUP2 SLOAD DUP2 MSTORE SWAP1 PUSH1 0x1 ADD SWAP1 PUSH1 0x20 ADD DUP1 DUP4 GT PUSH2 0x40B JUMPI DUP3 SWAP1 SUB PUSH1 0x1F AND DUP3 ADD SWAP2 JUMPDEST POP POP POP POP POP SWAP1 DUP1 PUSH1 0x2 ADD DUP1 SLOAD PUSH2 0x43D SWAP1 PUSH2 0x11A5 JUMP JUMPDEST DUP1 PUSH1 0x1F ADD PUSH1 0x20 DUP1 SWAP2 DIV MUL PUSH1 0x20 ADD PUSH1 0x40 MLOAD SWAP1 DUP2 ADD PUSH1 0x40 MSTORE DUP1 SWAP3 SWAP2 SWAP1 DUP2 DUP2 MSTORE PUSH1 0x20 ADD DUP3 DUP1 SLOAD PUSH2 0x469 SWAP1 PUSH2 0x11A5 JUMP JUMPDEST DUP1 ISZERO PUSH2 0x4B6 JUMPI DUP1 PUSH1 0x1F LT PUSH2 0x48B JUMPI PUSH2 0x100 DUP1 DUP4 SLOAD DIV MUL DUP4 MSTORE SWAP2 PUSH1 0x20 ADD SWAP2 PUSH2 0x4B6 JUMP JUMPDEST DUP3 ADD SWAP2 SWAP1 PUSH1 0x0 MSTORE PUSH1 0x20 PUSH1 0x0 KECCAK256 SWAP1 JUMPDEST DUP2 SLOAD DUP2 MSTORE SWAP1 PUSH1 0x1 ADD SWAP1 PUSH1 0x20 ADD DUP1 DUP4 GT PUSH2 0x499 JUMPI DUP3 SWAP1 SUB PUSH1 0x1F AND DUP3 ADD SWAP2 JUMPDEST POP POP POP POP POP SWAP1 DUP1 PUSH1 0x3 ADD DUP1 SLOAD PUSH2 0x4CB SWAP1 PUSH2 0x11A5 JUMP JUMPDEST DUP1 PUSH1 0x1F ADD PUSH1 0x20 DUP1 SWAP2 DIV MUL PUSH1 0x20 ADD PUSH1 0x40 MLOAD SWAP1 DUP2 ADD PUSH1 0x40 MSTORE DUP1 SWAP3 SWAP2 SWAP1 DUP2 DUP2 MSTORE PUSH1 0x20 ADD DUP3 DUP1 SLOAD PUSH2 0x4F7 SWAP1 PUSH2 0x11A5 JUMP JUMPDEST DUP1 ISZERO PUSH2 0x544 JUMPI DUP1 PUSH1 0x1F LT PUSH2 0x519 JUMPI PUSH2 0x100 DUP1 DUP4 SLOAD DIV MUL DUP4 MSTORE SWAP2 PUSH1 0x20 ADD SWAP2 PUSH2 0x544 JUMP JUMPDEST DUP3 ADD SWAP2 SWAP1 PUSH1 0x0 MSTORE PUSH1 0x20 PUSH1 0x0 KECCAK256 SWAP1 JUMPDEST DUP2 SLOAD DUP2 MSTORE SWAP1 PUSH1 0x1 ADD SWAP1 PUSH1 0x20 ADD DUP1 DUP4 GT PUSH2 0x527 JUMPI DUP3 SWAP1 SUB PUSH1 0x1F AND DUP3 ADD SWAP2 JUMPDEST POP POP POP POP POP SWAP1 DUP1 PUSH1 0x4 ADD DUP1 SLOAD PUSH2 0x559 SWAP1 PUSH2 0x11A5 JUMP JUMPDEST DUP1 PUSH1 0x1F ADD PUSH1 0x20 DUP1 SWAP2 DIV MUL PUSH1 0x20 ADD PUSH1 0x40 MLOAD SWAP1 DUP2 ADD PUSH1 0x40 MSTORE DUP1 SWAP3 SWAP2 SWAP1 DUP2 DUP2 MSTORE PUSH1 0x20 ADD DUP3 DUP1 SLOAD PUSH2 0x585 SWAP1 PUSH2 0x11A5 JUMP JUMPDEST DUP1 ISZERO PUSH2 0x5D2 JUMPI DUP1 PUSH1 0x1F LT PUSH2 0x5A7 JUMPI PUSH2 0x100 DUP1 DUP4 SLOAD DIV MUL DUP4 MSTORE SWAP2 PUSH1 0x20 ADD SWAP2 PUSH2 0x5D2 JUMP JUMPDEST DUP3 ADD SWAP2 SWAP1 PUSH1 0x0 MSTORE PUSH1 0x20 PUSH1 0x0 KECCAK256 SWAP1 JUMPDEST DUP2 SLOAD DUP2 MSTORE SWAP1 PUSH1 0x1 ADD SWAP1 PUSH1 0x20 ADD DUP1 DUP4 GT PUSH2 0x5B5 JUMPI DUP3 SWAP1 SUB PUSH1 0x1F AND DUP3 ADD SWAP2 JUMPDEST POP POP POP POP POP SWAP1 DUP1 PUSH1 0x5 ADD DUP1 SLOAD PUSH2 0x5E7 SWAP1 PUSH2 0x11A5 JUMP JUMPDEST DUP1 PUSH1 0x1F ADD PUSH1 0x20 DUP1 SWAP2 DIV MUL PUSH1 0x20 ADD PUSH1 0x40 MLOAD SWAP1 DUP2 ADD PUSH1 0x40 MSTORE DUP1 SWAP3 SWAP2 SWAP1 DUP2 DUP2 MSTORE PUSH1 0x20 ADD DUP3 DUP1 SLOAD PUSH2 0x613 SWAP1 PUSH2 0x11A5 JUMP JUMPDEST DUP1 ISZERO PUSH2 0x660 JUMPI DUP1 PUSH1 0x1F LT PUSH2 0x635 JUMPI PUSH2 0x100 DUP1 DUP4 SLOAD DIV MUL DUP4 MSTORE SWAP2 PUSH1 0x20 ADD SWAP2 PUSH2 0x660 JUMP JUMPDEST DUP3 ADD SWAP2 SWAP1 PUSH1 0x0 MSTORE PUSH1 0x20 PUSH1 0x0 KECCAK256 SWAP1 JUMPDEST DUP2 SLOAD DUP2 MSTORE SWAP1 PUSH1 0x1 ADD SWAP1 PUSH1 0x20 ADD DUP1 DUP4 GT PUSH2 0x643 JUMPI DUP3 SWAP1 SUB PUSH1 0x1F AND DUP3 ADD SWAP2 JUMPDEST POP POP POP POP POP SWAP1 DUP1 PUSH1 0x6 ADD DUP1 SLOAD PUSH2 0x675 SWAP1 PUSH2 0x11A5 JUMP JUMPDEST DUP1 PUSH1 0x1F ADD PUSH1 0x20 DUP1 SWAP2 DIV MUL PUSH1 0x20 ADD PUSH1 0x40 MLOAD SWAP1 DUP2 ADD PUSH1 0x40 MSTORE DUP1 SWAP3 SWAP2 SWAP1 DUP2 DUP2 MSTORE PUSH1 0x20 ADD DUP3 DUP1 SLOAD PUSH2 0x6A1 SWAP1 PUSH2 0x11A5 JUMP JUMPDEST DUP1 ISZERO PUSH2 0x6EE JUMPI DUP1 PUSH1 0x1F LT PUSH2 0x6C3 JUMPI PUSH2 0x100 DUP1 DUP4 SLOAD DIV MUL DUP4 MSTORE SWAP2 PUSH1 0x20 ADD SWAP2 PUSH2 0x6EE JUMP JUMPDEST DUP3 ADD SWAP2 SWAP1 PUSH1 0x0 MSTORE PUSH1 0x20 PUSH1 0x0 KECCAK256 SWAP1 JUMPDEST DUP2 SLOAD DUP2 MSTORE SWAP1 PUSH1 0x1 ADD SWAP1 PUSH1 0x20 ADD DUP1 DUP4 GT PUSH2 0x6D1 JUMPI DUP3 SWAP1 SUB PUSH1 0x1F AND DUP3 ADD SWAP2 JUMPDEST POP POP POP POP POP SWAP1 DUP1 PUSH1 0x7 ADD DUP1 SLOAD PUSH2 0x703 SWAP1 PUSH2 0x11A5 JUMP JUMPDEST DUP1 PUSH1 0x1F ADD PUSH1 0x20 DUP1 SWAP2 DIV MUL PUSH1 0x20 ADD PUSH1 0x40 MLOAD SWAP1 DUP2 ADD PUSH1 0x40 MSTORE DUP1 SWAP3 SWAP2 SWAP1 DUP2 DUP2 MSTORE PUSH1 0x20 ADD DUP3 DUP1 SLOAD PUSH2 0x72F SWAP1 PUSH2 0x11A5 JUMP JUMPDEST DUP1 ISZERO PUSH2 0x77C JUMPI DUP1 PUSH1 0x1F LT PUSH2 0x751 JUMPI PUSH2 0x100 DUP1 DUP4 SLOAD DIV MUL DUP4 MSTORE SWAP2 PUSH1 0x20 ADD SWAP2 PUSH2 0x77C JUMP JUMPDEST DUP3 ADD SWAP2 SWAP1 PUSH1 0x0 MSTORE PUSH1 0x20 PUSH1 0x0 KECCAK256 SWAP1 JUMPDEST DUP2 SLOAD DUP2 MSTORE SWAP1 PUSH1 0x1 ADD SWAP1 PUSH1 0x20 ADD DUP1 DUP4 GT PUSH2 0x75F JUMPI DUP3 SWAP1 SUB PUSH1 0x1F AND DUP3 ADD SWAP2 JUMPDEST POP POP POP POP POP SWAP1 DUP1 PUSH1 0x8 ADD DUP1 SLOAD PUSH2 0x791 SWAP1 PUSH2 0x11A5 JUMP JUMPDEST DUP1 PUSH1 0x1F ADD PUSH1 0x20 DUP1 SWAP2 DIV MUL PUSH1 0x20 ADD PUSH1 0x40 MLOAD SWAP1 DUP2 ADD PUSH1 0x40 MSTORE DUP1 SWAP3 SWAP2 SWAP1 DUP2 DUP2 MSTORE PUSH1 0x20 ADD DUP3 DUP1 SLOAD PUSH2 0x7BD SWAP1 PUSH2 0x11A5 JUMP JUMPDEST DUP1 ISZERO PUSH2 0x80A JUMPI DUP1 PUSH1 0x1F LT PUSH2 0x7DF JUMPI PUSH2 0x100 DUP1 DUP4 SLOAD DIV MUL DUP4 MSTORE SWAP2 PUSH1 0x20 ADD SWAP2 PUSH2 0x80A JUMP JUMPDEST DUP3 ADD SWAP2 SWAP1 PUSH1 0x0 MSTORE PUSH1 0x20 PUSH1 0x0 KECCAK256 SWAP1 JUMPDEST DUP2 SLOAD DUP2 MSTORE SWAP1 PUSH1 0x1 ADD SWAP1 PUSH1 0x20 ADD DUP1 DUP4 GT PUSH2 0x7ED JUMPI DUP3 SWAP1 SUB PUSH1 0x1F AND DUP3 ADD SWAP2 JUMPDEST POP POP POP POP POP SWAP1 DUP1 PUSH1 0x9 ADD DUP1 SLOAD PUSH2 0x81F SWAP1 PUSH2 0x11A5 JUMP JUMPDEST DUP1 PUSH1 0x1F ADD PUSH1 0x20 DUP1 SWAP2 DIV MUL PUSH1 0x20 ADD PUSH1 0x40 MLOAD SWAP1 DUP2 ADD PUSH1 0x40 MSTORE DUP1 SWAP3 SWAP2 SWAP1 DUP2 DUP2 MSTORE PUSH1 0x20 ADD DUP3 DUP1 SLOAD PUSH2 0x84B SWAP1 PUSH2 0x11A5 JUMP JUMPDEST DUP1 ISZERO PUSH2 0x898 JUMPI DUP1 PUSH1 0x1F LT PUSH2 0x86D JUMPI PUSH2 0x100 DUP1 DUP4 SLOAD DIV MUL DUP4 MSTORE SWAP2 PUSH1 0x20 ADD SWAP2 PUSH2 0x898 JUMP JUMPDEST DUP3 ADD SWAP2 SWAP1 PUSH1 0x0 MSTORE PUSH1 0x20 PUSH1 0x0 KECCAK256 SWAP1 JUMPDEST DUP2 SLOAD DUP2 MSTORE SWAP1 PUSH1 0x1 ADD SWAP1 PUSH1 0x20 ADD DUP1 DUP4 GT PUSH2 0x87B JUMPI DUP3 SWAP1 SUB PUSH1 0x1F AND DUP3 ADD SWAP2 JUMPDEST POP POP POP POP POP SWAP1 DUP1 PUSH1 0xA ADD DUP1 SLOAD PUSH2 0x8AD SWAP1 PUSH2 0x11A5 JUMP JUMPDEST DUP1 PUSH1 0x1F ADD PUSH1 0x20 DUP1 SWAP2 DIV MUL PUSH1 0x20 ADD PUSH1 0x40 MLOAD SWAP1 DUP2 ADD PUSH1 0x40 MSTORE DUP1 SWAP3 SWAP2 SWAP1 DUP2 DUP2 MSTORE PUSH1 0x20 ADD DUP3 DUP1 SLOAD PUSH2 0x8D9 SWAP1 PUSH2 0x11A5 JUMP JUMPDEST DUP1 ISZERO PUSH2 0x926 JUMPI DUP1 PUSH1 0x1F LT PUSH2 0x8FB JUMPI PUSH2 0x100 DUP1 DUP4 SLOAD DIV MUL DUP4 MSTORE SWAP2 PUSH1 0x20 ADD SWAP2 PUSH2 0x926 JUMP JUMPDEST DUP3 ADD SWAP2 SWAP1 PUSH1 0x0 MSTORE PUSH1 0x20 PUSH1 0x0 KECCAK256 SWAP1 JUMPDEST DUP2 SLOAD DUP2 MSTORE SWAP1 PUSH1 0x1 ADD SWAP1 PUSH1 0x20 ADD DUP1 DUP4 GT PUSH2 0x909 JUMPI DUP3 SWAP1 SUB PUSH1 0x1F AND DUP3 ADD SWAP2 JUMPDEST POP POP POP POP POP SWAP1 DUP1 PUSH1 0xB ADD PUSH1 0x0 SWAP1 SLOAD SWAP1 PUSH2 0x100 EXP SWAP1 DIV PUSH1 0xFF AND SWAP1 POP DUP13 JUMP JUMPDEST PUSH1 0x2 SLOAD DUP2 JUMP JUMPDEST PUSH1 0x0 DUP1 DUP3 DUP2 SLOAD DUP2 LT PUSH2 0x95E JUMPI PUSH2 0x95D PUSH2 0x1147 JUMP JUMPDEST JUMPDEST SWAP1 PUSH1 0x0 MSTORE PUSH1 0x20 PUSH1 0x0 KECCAK256 SWAP1 PUSH1 0xC MUL ADD SWAP1 POP DUP5 DUP2 PUSH1 0x6 ADD SWAP1 DUP2 PUSH2 0x97F SWAP2 SWAP1 PUSH2 0x1382 JUMP JUMPDEST POP DUP4 DUP2 PUSH1 0x7 ADD SWAP1 DUP2 PUSH2 0x991 SWAP2 SWAP1 PUSH2 0x1382 JUMP JUMPDEST POP DUP3 DUP2 PUSH1 0x8 ADD SWAP1 DUP2 PUSH2 0x9A3 SWAP2 SWAP1 PUSH2 0x1382 JUMP JUMPDEST POP POP POP POP POP POP JUMP JUMPDEST PUSH1 0x0 DUP1 PUSH1 0x1 DUP2 PUSH1 0x1 DUP2 SLOAD ADD DUP1 DUP3 SSTORE DUP1 SWAP2 POP POP SUB SWAP1 PUSH1 0x0 MSTORE PUSH1 0x20 PUSH1 0x0 KECCAK256 SWAP1 PUSH1 0xC MUL ADD SWAP1 POP DUP5 DUP2 PUSH1 0x0 ADD SWAP1 DUP2 PUSH2 0x9DF SWAP2 SWAP1 PUSH2 0x1382 JUMP JUMPDEST POP DUP4 DUP2 PUSH1 0x1 ADD SWAP1 DUP2 PUSH2 0x9F1 SWAP2 SWAP1 PUSH2 0x1382 JUMP JUMPDEST POP DUP3 DUP2 PUSH1 0x2 ADD SWAP1 DUP2 PUSH2 0xA03 SWAP2 SWAP1 PUSH2 0x1382 JUMP JUMPDEST POP DUP2 DUP2 PUSH1 0x3 ADD SWAP1 DUP2 PUSH2 0xA15 SWAP2 SWAP1 PUSH2 0x1382 JUMP JUMPDEST POP PUSH1 0x0 DUP2 PUSH1 0xB ADD PUSH1 0x0 PUSH2 0x100 EXP DUP2 SLOAD DUP2 PUSH1 0xFF MUL NOT AND SWAP1 DUP4 ISZERO ISZERO MUL OR SWAP1 SSTORE POP POP POP POP POP POP JUMP JUMPDEST PUSH1 0x0 DUP1 DUP3 DUP2 SLOAD DUP2 LT PUSH2 0xA4F JUMPI PUSH2 0xA4E PUSH2 0x1147 JUMP JUMPDEST JUMPDEST SWAP1 PUSH1 0x0 MSTORE PUSH1 0x20 PUSH1 0x0 KECCAK256 SWAP1 PUSH1 0xC MUL ADD SWAP1 POP DUP3 DUP2 PUSH1 0xA ADD SWAP1 DUP2 PUSH2 0xA70 SWAP2 SWAP1 PUSH2 0x1382 JUMP JUMPDEST POP POP POP POP JUMP JUMPDEST PUSH1 0x0 PUSH1 0x40 MLOAD SWAP1 POP SWAP1 JUMP JUMPDEST PUSH1 0x0 DUP1 REVERT JUMPDEST PUSH1 0x0 DUP1 REVERT JUMPDEST PUSH1 0x0 PUSH20 0xFFFFFFFFFFFFFFFFFFFFFFFFFFFFFFFFFFFFFFFF DUP3 AND SWAP1 POP SWAP2 SWAP1 POP JUMP JUMPDEST PUSH1 0x0 PUSH2 0xAB5 DUP3 PUSH2 0xA8A JUMP JUMPDEST SWAP1 POP SWAP2 SWAP1 POP JUMP JUMPDEST PUSH2 0xAC5 DUP2 PUSH2 0xAAA JUMP JUMPDEST DUP2 EQ PUSH2 0xAD0 JUMPI PUSH1 0x0 DUP1 REVERT JUMPDEST POP JUMP JUMPDEST PUSH1 0x0 DUP2 CALLDATALOAD SWAP1 POP PUSH2 0xAE2 DUP2 PUSH2 0xABC JUMP JUMPDEST SWAP3 SWAP2 POP POP JUMP JUMPDEST PUSH1 0x0 PUSH1 0x20 DUP3 DUP5 SUB SLT ISZERO PUSH2 0xAFE JUMPI PUSH2 0xAFD PUSH2 0xA80 JUMP JUMPDEST JUMPDEST PUSH1 0x0 PUSH2 0xB0C DUP5 DUP3 DUP6 ADD PUSH2 0xAD3 JUMP JUMPDEST SWAP2 POP POP SWAP3 SWAP2 POP POP JUMP JUMPDEST PUSH1 0x0 DUP2 ISZERO ISZERO SWAP1 POP SWAP2 SWAP1 POP JUMP JUMPDEST PUSH2 0xB2A DUP2 PUSH2 0xB15 JUMP JUMPDEST DUP3 MSTORE POP POP JUMP JUMPDEST PUSH1 0x0 PUSH1 0x20 DUP3 ADD SWAP1 POP PUSH2 0xB45 PUSH1 0x0 DUP4 ADD DUP5 PUSH2 0xB21 JUMP JUMPDEST SWAP3 SWAP2 POP POP JUMP JUMPDEST PUSH1 0x0 DUP1 REVERT JUMPDEST PUSH1 0x0 DUP1 REVERT JUMPDEST PUSH1 0x0 PUSH1 0x1F NOT PUSH1 0x1F DUP4 ADD AND SWAP1 POP SWAP2 SWAP1 POP JUMP JUMPDEST PUSH32 0x4E487B7100000000000000000000000000000000000000000000000000000000 PUSH1 0x0 MSTORE PUSH1 0x41 PUSH1 0x4 MSTORE PUSH1 0x24 PUSH1 0x0 REVERT JUMPDEST PUSH2 0xB9E DUP3 PUSH2 0xB55 JUMP JUMPDEST DUP2 ADD DUP2 DUP2 LT PUSH8 0xFFFFFFFFFFFFFFFF DUP3 GT OR ISZERO PUSH2 0xBBD JUMPI PUSH2 0xBBC PUSH2 0xB66 JUMP JUMPDEST JUMPDEST DUP1 PUSH1 0x40 MSTORE POP POP POP JUMP JUMPDEST PUSH1 0x0 PUSH2 0xBD0 PUSH2 0xA76 JUMP JUMPDEST SWAP1 POP PUSH2 0xBDC DUP3 DUP3 PUSH2 0xB95 JUMP JUMPDEST SWAP2 SWAP1 POP JUMP JUMPDEST PUSH1 0x0 PUSH8 0xFFFFFFFFFFFFFFFF DUP3 GT ISZERO PUSH2 0xBFC JUMPI PUSH2 0xBFB PUSH2 0xB66 JUMP JUMPDEST JUMPDEST PUSH2 0xC05 DUP3 PUSH2 0xB55 JUMP JUMPDEST SWAP1 POP PUSH1 0x20 DUP2 ADD SWAP1 POP SWAP2 SWAP1 POP JUMP JUMPDEST DUP3 DUP2 DUP4 CALLDATACOPY PUSH1 0x0 DUP4 DUP4 ADD MSTORE POP POP POP JUMP JUMPDEST PUSH1 0x0 PUSH2 0xC34 PUSH2 0xC2F DUP5 PUSH2 0xBE1 JUMP JUMPDEST PUSH2 0xBC6 JUMP JUMPDEST SWAP1 POP DUP3 DUP2 MSTORE PUSH1 0x20 DUP2 ADD DUP5 DUP5 DUP5 ADD GT ISZERO PUSH2 0xC50 JUMPI PUSH2 0xC4F PUSH2 0xB50 JUMP JUMPDEST JUMPDEST PUSH2 0xC5B DUP5 DUP3 DUP6 PUSH2 0xC12 JUMP JUMPDEST POP SWAP4 SWAP3 POP POP POP JUMP JUMPDEST PUSH1 0x0 DUP3 PUSH1 0x1F DUP4 ADD SLT PUSH2 0xC78 JUMPI PUSH2 0xC77 PUSH2 0xB4B JUMP JUMPDEST JUMPDEST DUP2 CALLDATALOAD PUSH2 0xC88 DUP5 DUP3 PUSH1 0x20 DUP7 ADD PUSH2 0xC21 JUMP JUMPDEST SWAP2 POP POP SWAP3 SWAP2 POP POP JUMP JUMPDEST PUSH1 0x0 DUP2 SWAP1 POP SWAP2 SWAP1 POP JUMP JUMPDEST PUSH2 0xCA4 DUP2 PUSH2 0xC91 JUMP JUMPDEST DUP2 EQ PUSH2 0xCAF JUMPI PUSH1 0x0 DUP1 REVERT JUMPDEST POP JUMP JUMPDEST PUSH1 0x0 DUP2 CALLDATALOAD SWAP1 POP PUSH2 0xCC1 DUP2 PUSH2 0xC9B JUMP JUMPDEST SWAP3 SWAP2 POP POP JUMP JUMPDEST PUSH1 0x0 DUP1 PUSH1 0x0 PUSH1 0x60 DUP5 DUP7 SUB SLT ISZERO PUSH2 0xCE0 JUMPI PUSH2 0xCDF PUSH2 0xA80 JUMP JUMPDEST JUMPDEST PUSH1 0x0 DUP5 ADD CALLDATALOAD PUSH8 0xFFFFFFFFFFFFFFFF DUP2 GT ISZERO PUSH2 0xCFE JUMPI PUSH2 0xCFD PUSH2 0xA85 JUMP JUMPDEST JUMPDEST PUSH2 0xD0A DUP7 DUP3 DUP8 ADD PUSH2 0xC63 JUMP JUMPDEST SWAP4 POP POP PUSH1 0x20 DUP5 ADD CALLDATALOAD PUSH8 0xFFFFFFFFFFFFFFFF DUP2 GT ISZERO PUSH2 0xD2B JUMPI PUSH2 0xD2A PUSH2 0xA85 JUMP JUMPDEST JUMPDEST PUSH2 0xD37 DUP7 DUP3 DUP8 ADD PUSH2 0xC63 JUMP JUMPDEST SWAP3 POP POP PUSH1 0x40 PUSH2 0xD48 DUP7 DUP3 DUP8 ADD PUSH2 0xCB2 JUMP JUMPDEST SWAP2 POP POP SWAP3 POP SWAP3 POP SWAP3 JUMP JUMPDEST PUSH1 0x0 DUP1 PUSH1 0x40 DUP4 DUP6 SUB SLT ISZERO PUSH2 0xD69 JUMPI PUSH2 0xD68 PUSH2 0xA80 JUMP JUMPDEST JUMPDEST PUSH1 0x0 DUP4 ADD CALLDATALOAD PUSH8 0xFFFFFFFFFFFFFFFF DUP2 GT ISZERO PUSH2 0xD87 JUMPI PUSH2 0xD86 PUSH2 0xA85 JUMP JUMPDEST JUMPDEST PUSH2 0xD93 DUP6 DUP3 DUP7 ADD PUSH2 0xC63 JUMP JUMPDEST SWAP3 POP POP PUSH1 0x20 PUSH2 0xDA4 DUP6 DUP3 DUP7 ADD PUSH2 0xCB2 JUMP JUMPDEST SWAP2 POP POP SWAP3 POP SWAP3 SWAP1 POP JUMP JUMPDEST PUSH2 0xDB7 DUP2 PUSH2 0xAAA JUMP JUMPDEST DUP3 MSTORE POP POP JUMP JUMPDEST PUSH1 0x0 PUSH1 0x20 DUP3 ADD SWAP1 POP PUSH2 0xDD2 PUSH1 0x0 DUP4 ADD DUP5 PUSH2 0xDAE JUMP JUMPDEST SWAP3 SWAP2 POP POP JUMP JUMPDEST PUSH2 0xDE1 DUP2 PUSH2 0xC91 JUMP JUMPDEST DUP3 MSTORE POP POP JUMP JUMPDEST PUSH1 0x0 PUSH1 0x20 DUP3 ADD SWAP1 POP PUSH2 0xDFC PUSH1 0x0 DUP4 ADD DUP5 PUSH2 0xDD8 JUMP JUMPDEST SWAP3 SWAP2 POP POP JUMP JUMPDEST PUSH1 0x0 PUSH1 0x20 DUP3 DUP5 SUB SLT ISZERO PUSH2 0xE18 JUMPI PUSH2 0xE17 PUSH2 0xA80 JUMP JUMPDEST JUMPDEST PUSH1 0x0 PUSH2 0xE26 DUP5 DUP3 DUP6 ADD PUSH2 0xCB2 JUMP JUMPDEST SWAP2 POP POP SWAP3 SWAP2 POP POP JUMP JUMPDEST PUSH1 0x0 DUP2 MLOAD SWAP1 POP SWAP2 SWAP1 POP JUMP JUMPDEST PUSH1 0x0 DUP3 DUP3 MSTORE PUSH1 0x20 DUP3 ADD SWAP1 POP SWAP3 SWAP2 POP POP JUMP JUMPDEST PUSH1 0x0 JUMPDEST DUP4 DUP2 LT ISZERO PUSH2 0xE69 JUMPI DUP1 DUP3 ADD MLOAD DUP2 DUP5 ADD MSTORE PUSH1 0x20 DUP2 ADD SWAP1 POP PUSH2 0xE4E JUMP JUMPDEST PUSH1 0x0 DUP5 DUP5 ADD MSTORE POP POP POP POP JUMP JUMPDEST PUSH1 0x0 PUSH2 0xE80 DUP3 PUSH2 0xE2F JUMP JUMPDEST PUSH2 0xE8A DUP2 DUP6 PUSH2 0xE3A JUMP JUMPDEST SWAP4 POP PUSH2 0xE9A DUP2 DUP6 PUSH1 0x20 DUP7 ADD PUSH2 0xE4B JUMP JUMPDEST PUSH2 0xEA3 DUP2 PUSH2 0xB55 JUMP JUMPDEST DUP5 ADD SWAP2 POP POP SWAP3 SWAP2 POP POP JUMP JUMPDEST PUSH1 0x0 PUSH2 0x180 DUP3 ADD SWAP1 POP DUP2 DUP2 SUB PUSH1 0x0 DUP4 ADD MSTORE PUSH2 0xEC9 DUP2 DUP16 PUSH2 0xE75 JUMP JUMPDEST SWAP1 POP DUP2 DUP2 SUB PUSH1 0x20 DUP4 ADD MSTORE PUSH2 0xEDD DUP2 DUP15 PUSH2 0xE75 JUMP JUMPDEST SWAP1 POP DUP2 DUP2 SUB PUSH1 0x40 DUP4 ADD MSTORE PUSH2 0xEF1 DUP2 DUP14 PUSH2 0xE75 JUMP JUMPDEST SWAP1 POP DUP2 DUP2 SUB PUSH1 0x60 DUP4 ADD MSTORE PUSH2 0xF05 DUP2 DUP13 PUSH2 0xE75 JUMP JUMPDEST SWAP1 POP DUP2 DUP2 SUB PUSH1 0x80 DUP4 ADD MSTORE PUSH2 0xF19 DUP2 DUP12 PUSH2 0xE75 JUMP JUMPDEST SWAP1 POP DUP2 DUP2 SUB PUSH1 0xA0 DUP4 ADD MSTORE PUSH2 0xF2D DUP2 DUP11 PUSH2 0xE75 JUMP JUMPDEST SWAP1 POP DUP2 DUP2 SUB PUSH1 0xC0 DUP4 ADD MSTORE PUSH2 0xF41 DUP2 DUP10 PUSH2 0xE75 JUMP JUMPDEST SWAP1 POP DUP2 DUP2 SUB PUSH1 0xE0 DUP4 ADD MSTORE PUSH2 0xF55 DUP2 DUP9 PUSH2 0xE75 JUMP JUMPDEST SWAP1 POP DUP2 DUP2 SUB PUSH2 0x100 DUP4 ADD MSTORE PUSH2 0xF6A DUP2 DUP8 PUSH2 0xE75 JUMP JUMPDEST SWAP1 POP DUP2 DUP2 SUB PUSH2 0x120 DUP4 ADD MSTORE PUSH2 0xF7F DUP2 DUP7 PUSH2 0xE75 JUMP JUMPDEST SWAP1 POP DUP2 DUP2 SUB PUSH2 0x140 DUP4 ADD MSTORE PUSH2 0xF94 DUP2 DUP6 PUSH2 0xE75 JUMP JUMPDEST SWAP1 POP PUSH2 0xFA4 PUSH2 0x160 DUP4 ADD DUP5 PUSH2 0xB21 JUMP JUMPDEST SWAP14 SWAP13 POP POP POP POP POP POP POP POP POP POP POP POP POP JUMP JUMPDEST PUSH1 0x0 DUP1 PUSH1 0x0 DUP1 PUSH1 0x80 DUP6 DUP8 SUB SLT ISZERO PUSH2 0xFCF JUMPI PUSH2 0xFCE PUSH2 0xA80 JUMP JUMPDEST JUMPDEST PUSH1 0x0 DUP6 ADD CALLDATALOAD PUSH8 0xFFFFFFFFFFFFFFFF DUP2 GT ISZERO PUSH2 0xFED JUMPI PUSH2 0xFEC PUSH2 0xA85 JUMP JUMPDEST JUMPDEST PUSH2 0xFF9 DUP8 DUP3 DUP9 ADD PUSH2 0xC63 JUMP JUMPDEST SWAP5 POP POP PUSH1 0x20 DUP6 ADD CALLDATALOAD PUSH8 0xFFFFFFFFFFFFFFFF DUP2 GT ISZERO PUSH2 0x101A JUMPI PUSH2 0x1019 PUSH2 0xA85 JUMP JUMPDEST JUMPDEST PUSH2 0x1026 DUP8 DUP3 DUP9 ADD PUSH2 0xC63 JUMP JUMPDEST SWAP4 POP POP PUSH1 0x40 DUP6 ADD CALLDATALOAD PUSH8 0xFFFFFFFFFFFFFFFF DUP2 GT ISZERO PUSH2 0x1047 JUMPI PUSH2 0x1046 PUSH2 0xA85 JUMP JUMPDEST JUMPDEST PUSH2 0x1053 DUP8 DUP3 DUP9 ADD PUSH2 0xC63 JUMP JUMPDEST SWAP3 POP POP PUSH1 0x60 PUSH2 0x1064 DUP8 DUP3 DUP9 ADD PUSH2 0xCB2 JUMP JUMPDEST SWAP2 POP POP SWAP3 SWAP6 SWAP2 SWAP5 POP SWAP3 POP JUMP JUMPDEST PUSH1 0x0 DUP1 PUSH1 0x0 DUP1 PUSH1 0x80 DUP6 DUP8 SUB SLT ISZERO PUSH2 0x108A JUMPI PUSH2 0x1089 PUSH2 0xA80 JUMP JUMPDEST JUMPDEST PUSH1 0x0 DUP6 ADD CALLDATALOAD PUSH8 0xFFFFFFFFFFFFFFFF DUP2 GT ISZERO PUSH2 0x10A8 JUMPI PUSH2 0x10A7 PUSH2 0xA85 JUMP JUMPDEST JUMPDEST PUSH2 0x10B4 DUP8 DUP3 DUP9 ADD PUSH2 0xC63 JUMP JUMPDEST SWAP5 POP POP PUSH1 0x20 DUP6 ADD CALLDATALOAD PUSH8 0xFFFFFFFFFFFFFFFF DUP2 GT ISZERO PUSH2 0x10D5 JUMPI PUSH2 0x10D4 PUSH2 0xA85 JUMP JUMPDEST JUMPDEST PUSH2 0x10E1 DUP8 DUP3 DUP9 ADD PUSH2 0xC63 JUMP JUMPDEST SWAP4 POP POP PUSH1 0x40 DUP6 ADD CALLDATALOAD PUSH8 0xFFFFFFFFFFFFFFFF DUP2 GT ISZERO PUSH2 0x1102 JUMPI PUSH2 0x1101 PUSH2 0xA85 JUMP JUMPDEST JUMPDEST PUSH2 0x110E DUP8 DUP3 DUP9 ADD PUSH2 0xC63 JUMP JUMPDEST SWAP3 POP POP PUSH1 0x60 DUP6 ADD CALLDATALOAD PUSH8 0xFFFFFFFFFFFFFFFF DUP2 GT ISZERO PUSH2 0x112F JUMPI PUSH2 0x112E PUSH2 0xA85 JUMP JUMPDEST JUMPDEST PUSH2 0x113B DUP8 DUP3 DUP9 ADD PUSH2 0xC63 JUMP JUMPDEST SWAP2 POP POP SWAP3 SWAP6 SWAP2 SWAP5 POP SWAP3 POP JUMP JUMPDEST PUSH32 0x4E487B7100000000000000000000000000000000000000000000000000000000 PUSH1 0x0 MSTORE PUSH1 0x32 PUSH1 0x4 MSTORE PUSH1 0x24 PUSH1 0x0 REVERT JUMPDEST PUSH32 0x4E487B7100000000000000000000000000000000000000000000000000000000 PUSH1 0x0 MSTORE PUSH1 0x22 PUSH1 0x4 MSTORE PUSH1 0x24 PUSH1 0x0 REVERT JUMPDEST PUSH1 0x0 PUSH1 0x2 DUP3 DIV SWAP1 POP PUSH1 0x1 DUP3 AND DUP1 PUSH2 0x11BD JUMPI PUSH1 0x7F DUP3 AND SWAP2 POP JUMPDEST PUSH1 0x20 DUP3 LT DUP2 SUB PUSH2 0x11D0 JUMPI PUSH2 0x11CF PUSH2 0x1176 JUMP JUMPDEST JUMPDEST POP SWAP2 SWAP1 POP JUMP JUMPDEST PUSH1 0x0 DUP2 SWAP1 POP DUP2 PUSH1 0x0 MSTORE PUSH1 0x20 PUSH1 0x0 KECCAK256 SWAP1 POP SWAP2 SWAP1 POP JUMP JUMPDEST PUSH1 0x0 PUSH1 0x20 PUSH1 0x1F DUP4 ADD DIV SWAP1 POP SWAP2 SWAP1 POP JUMP JUMPDEST PUSH1 0x0 DUP3 DUP3 SHL SWAP1 POP SWAP3 SWAP2 POP POP JUMP JUMPDEST PUSH1 0x0 PUSH1 0x8 DUP4 MUL PUSH2 0x1238 PUSH32 0xFFFFFFFFFFFFFFFFFFFFFFFFFFFFFFFFFFFFFFFFFFFFFFFFFFFFFFFFFFFFFFFF DUP3 PUSH2 0x11FB JUMP JUMPDEST PUSH2 0x1242 DUP7 DUP4 PUSH2 0x11FB JUMP JUMPDEST SWAP6 POP DUP1 NOT DUP5 AND SWAP4 POP DUP1 DUP7 AND DUP5 OR SWAP3 POP POP POP SWAP4 SWAP3 POP POP POP JUMP JUMPDEST PUSH1 0x0 DUP2 SWAP1 POP SWAP2 SWAP1 POP JUMP JUMPDEST PUSH1 0x0 PUSH2 0x127F PUSH2 0x127A PUSH2 0x1275 DUP5 PUSH2 0xC91 JUMP JUMPDEST PUSH2 0x125A JUMP JUMPDEST PUSH2 0xC91 JUMP JUMPDEST SWAP1 POP SWAP2 SWAP1 POP JUMP JUMPDEST PUSH1 0x0 DUP2 SWAP1 POP SWAP2 SWAP1 POP JUMP JUMPDEST PUSH2 0x1299 DUP4 PUSH2 0x1264 JUMP JUMPDEST PUSH2 0x12AD PUSH2 0x12A5 DUP3 PUSH2 0x1286 JUMP JUMPDEST DUP5 DUP5 SLOAD PUSH2 0x1208 JUMP JUMPDEST DUP3 SSTORE POP POP POP POP JUMP JUMPDEST PUSH1 0x0 SWAP1 JUMP JUMPDEST PUSH2 0x12C2 PUSH2 0x12B5 JUMP JUMPDEST PUSH2 0x12CD DUP2 DUP5 DUP5 PUSH2 0x1290 JUMP JUMPDEST POP POP POP JUMP JUMPDEST JUMPDEST DUP2 DUP2 LT ISZERO PUSH2 0x12F1 JUMPI PUSH2 0x12E6 PUSH1 0x0 DUP3 PUSH2 0x12BA JUMP JUMPDEST PUSH1 0x1 DUP2 ADD SWAP1 POP PUSH2 0x12D3 JUMP JUMPDEST POP POP JUMP JUMPDEST PUSH1 0x1F DUP3 GT ISZERO PUSH2 0x1336 JUMPI PUSH2 0x1307 DUP2 PUSH2 0x11D6 JUMP JUMPDEST PUSH2 0x1310 DUP5 PUSH2 0x11EB JUMP JUMPDEST DUP2 ADD PUSH1 0x20 DUP6 LT ISZERO PUSH2 0x131F JUMPI DUP2 SWAP1 POP JUMPDEST PUSH2 0x1333 PUSH2 0x132B DUP6 PUSH2 0x11EB JUMP JUMPDEST DUP4 ADD DUP3 PUSH2 0x12D2 JUMP JUMPDEST POP POP JUMPDEST POP POP POP JUMP JUMPDEST PUSH1 0x0 DUP3 DUP3 SHR SWAP1 POP SWAP3 SWAP2 POP POP JUMP JUMPDEST PUSH1 0x0 PUSH2 0x1359 PUSH1 0x0 NOT DUP5 PUSH1 0x8 MUL PUSH2 0x133B JUMP JUMPDEST NOT DUP1 DUP4 AND SWAP2 POP POP SWAP3 SWAP2 POP POP JUMP JUMPDEST PUSH1 0x0 PUSH2 0x1372 DUP4 DUP4 PUSH2 0x1348 JUMP JUMPDEST SWAP2 POP DUP3 PUSH1 0x2 MUL DUP3 OR SWAP1 POP SWAP3 SWAP2 POP POP JUMP JUMPDEST PUSH2 0x138B DUP3 PUSH2 0xE2F JUMP JUMPDEST PUSH8 0xFFFFFFFFFFFFFFFF DUP2 GT ISZERO PUSH2 0x13A4 JUMPI PUSH2 0x13A3 PUSH2 0xB66 JUMP JUMPDEST JUMPDEST PUSH2 0x13AE DUP3 SLOAD PUSH2 0x11A5 JUMP JUMPDEST PUSH2 0x13B9 DUP3 DUP3 DUP6 PUSH2 0x12F5 JUMP JUMPDEST PUSH1 0x0 PUSH1 0x20 SWAP1 POP PUSH1 0x1F DUP4 GT PUSH1 0x1 DUP2 EQ PUSH2 0x13EC JUMPI PUSH1 0x0 DUP5 ISZERO PUSH2 0x13DA JUMPI DUP3 DUP8 ADD MLOAD SWAP1 POP JUMPDEST PUSH2 0x13E4 DUP6 DUP3 PUSH2 0x1366 JUMP JUMPDEST DUP7 SSTORE POP PUSH2 0x144C JUMP JUMPDEST PUSH1 0x1F NOT DUP5 AND PUSH2 0x13FA DUP7 PUSH2 0x11D6 JUMP JUMPDEST PUSH1 0x0 JUMPDEST DUP3 DUP2 LT ISZERO PUSH2 0x1422 JUMPI DUP5 DUP10 ADD MLOAD DUP3 SSTORE PUSH1 0x1 DUP3 ADD SWAP2 POP PUSH1 0x20 DUP6 ADD SWAP5 POP PUSH1 0x20 DUP2 ADD SWAP1 POP PUSH2 0x13FD JUMP JUMPDEST DUP7 DUP4 LT ISZERO PUSH2 0x143F JUMPI DUP5 DUP10 ADD MLOAD PUSH2 0x143B PUSH1 0x1F DUP10 AND DUP3 PUSH2 0x1348 JUMP JUMPDEST DUP4 SSTORE POP JUMPDEST PUSH1 0x1 PUSH1 0x2 DUP9 MUL ADD DUP9 SSTORE POP POP POP JUMPDEST POP POP POP POP POP POP JUMP INVALID LOG2 PUSH5 0x6970667358 0x22 SLT KECCAK256 CREATE 0x25 PUSH15 0x1C87755F43D61375F4937A6149C19F BASEFEE PUSH24 0x658B91102E4B3CE99B58CF9B64736F6C6343000813003300 "},"gasEstimates":{"creation":{"codeDepositCost":"1051600","executionCost":"infinite","totalCost":"infinite"},"external":{"approvers(address)":"2846","createLogisticsBill(string,uint256)":"infinite","createManufacturerDelivery(string,uint256)":"infinite","createManufacturerInvoice(string,string,string,string)":"infinite","createSupplierReports(string,string,string,uint256)":"infinite","createSupplierShipment(string,string,uint256)":"infinite","getSupplyChainDataCount()":"2534","manager()":"2581","minimumContribution()":"2451","supplyChainDatas(uint256)":"infinite"}},"methodIdentifiers":{"approvers(address)":"0a144391","createLogisticsBill(string,uint256)":"f7580f9a","createManufacturerDelivery(string,uint256)":"194fc7e5","createManufacturerInvoice(string,string,string,string)":"ee532422","createSupplierReports(string,string,string,uint256)":"abf689f0","createSupplierShipment(string,string,uint256)":"144fbfb5","getSupplyChainDataCount()":"5ba2271e","manager()":"481c6a75","minimumContribution()":"937e09b1","supplyChainDatas(uint256)":"8001bd7c"}},"storageLayout":{"storage":[{"astId":71,"contract":"Campaign.sol:Campaign","label":"supplyChainDatas","offset":0,"slot":"0","type":"t_array(t_struct(SupplyChainData)67_storage)dyn_storage"},{"astId":73,"contract":"Campaign.sol:Campaign","label":"manager","offset":0,"slot":"1","type":"t_address"},{"astId":75,"contract":"Campaign.sol:Campaign","label":"minimumContribution","offset":0,"slot":"2","type":"t_uint256"},{"astId":79,"contract":"Campaign.sol:Campaign","label":"approvers","offset":0,"slot":"3","type":"t_mapping(t_address,t_bool)"}],"types":{"t_address":{"encoding":"inplace","label":"address","numberOfBytes":"20"},"t_array(t_struct(SupplyChainData)67_storage)dyn_storage":{"base":"t_struct(SupplyChainData)67_storage","encoding":"dynamic_array","label":"struct Campaign.SupplyChainData[]","numberOfBytes":"32"},"t_bool":{"encoding":"inplace","label":"bool","numberOfBytes":"1"},"t_mapping(t_address,t_bool)":{"encoding":"mapping","key":"t_address","label":"mapping(address => bool)","numberOfBytes":"32","value":"t_bool"},"t_string_storage":{"encoding":"bytes","label":"string","numberOfBytes":"32"},"t_struct(SupplyChainData)67_storage":{"encoding":"inplace","label":"struct Campaign.SupplyChainData","members":[{"astId":44,"contract":"Campaign.sol:Campaign","label":"orderID","offset":0,"slot":"0","type":"t_string_storage"},{"astId":46,"contract":"Campaign.sol:Campaign","label":"manufacturerName","offset":0,"slot":"1","type":"t_string_storage"},{"astId":48,"contract":"Campaign.sol:Campaign","label":"supplierName","offset":0,"slot":"2","type":"t_string_storage"},{"astId":50,"contract":"Campaign.sol:Campaign","label":"invoiceReport","offset":0,"slot":"3","type":"t_string_storage"},{"astId":52,"contract":"Campaign.sol:Campaign","label":"deliveryRecipt","offset":0,"slot":"4","type":"t_string_storage"},{"astId":54,"contract":"Campaign.sol:Campaign","label":"logisticsName","offset":0,"slot":"5","type":"t_string_storage"},{"astId":56,"contract":"Campaign.sol:Campaign","label":"rmReport","offset":0,"slot":"6","type":"t_string_storage"},{"astId":58,"contract":"Campaign.sol:Campaign","label":"qualityReport","offset":0,"slot":"7","type":"t_string_storage"},{"astId":60,"contract":"Campaign.sol:Campaign","label":"insuranceReport","offset":0,"slot":"8","type":"t_string_storage"},{"astId":62,"contract":"Campaign.sol:Campaign","label":"shipmentDetailsReport","offset":0,"slot":"9","type":"t_string_storage"},{"astId":64,"contract":"Campaign.sol:Campaign","label":"billOfLanding","offset":0,"slot":"10","type":"t_string_storage"},{"astId":66,"contract":"Campaign.sol:Campaign","label":"status","offset":0,"slot":"11","type":"t_bool"}],"numberOfBytes":"384"},"t_uint256":{"encoding":"inplace","label":"uint256","numberOfBytes":"32"}}},"userdoc":{"kind":"user","methods":{},"version":1}}