{"abi":[{"inputs":[{"internalType":"uint256","name":"minimum","type":"uint256"},{"internalType":"address","name":"creator","type":"address"}],"stateMutability":"nonpayable","type":"constructor"},{"inputs":[{"internalType":"uint256","name":"index","type":"uint256"}],"name":"approveRequest","outputs":[],"stateMutability":"nonpayable","type":"function"},{"inputs":[{"internalType":"address","name":"","type":"address"}],"name":"approvers","outputs":[{"internalType":"bool","name":"","type":"bool"}],"stateMutability":"view","type":"function"},{"inputs":[],"name":"approversCount","outputs":[{"internalType":"uint256","name":"","type":"uint256"}],"stateMutability":"view","type":"function"},{"inputs":[],"name":"contribute","outputs":[],"stateMutability":"payable","type":"function"},{"inputs":[{"internalType":"string","name":"deliveryRecipt","type":"string"},{"internalType":"uint256","name":"index","type":"uint256"},{"internalType":"string","name":"billNo","type":"string"}],"name":"createManufacturerDelivery","outputs":[],"stateMutability":"nonpayable","type":"function"},{"inputs":[{"internalType":"string","name":"orderId","type":"string"},{"internalType":"string","name":"manufacturerName","type":"string"},{"internalType":"string","name":"supplierName","type":"string"},{"internalType":"string","name":"invoiceReport","type":"string"}],"name":"createManufacturerInvoice","outputs":[],"stateMutability":"nonpayable","type":"function"},{"inputs":[{"internalType":"string","name":"orderId","type":"string"},{"internalType":"string","name":"inspectedby","type":"string"},{"internalType":"string","name":"approvedby","type":"string"},{"internalType":"uint256","name":"value","type":"uint256"},{"internalType":"string","name":"selectedFile","type":"string"},{"internalType":"address","name":"recipient","type":"address"}],"name":"createRequest","outputs":[],"stateMutability":"nonpayable","type":"function"},{"inputs":[{"internalType":"string","name":"orderID","type":"string"},{"internalType":"string","name":"logisticsProviderName","type":"string"},{"internalType":"string","name":"shipmentDetails","type":"string"},{"internalType":"string","name":"billOfLanding","type":"string"},{"internalType":"string","name":"deliveryRecipt","type":"string"}],"name":"createSupplierShipment","outputs":[],"stateMutability":"nonpayable","type":"function"},{"inputs":[{"internalType":"uint256","name":"index","type":"uint256"}],"name":"finalizeRequest","outputs":[],"stateMutability":"nonpayable","type":"function"},{"inputs":[],"name":"getRequestsCount","outputs":[{"internalType":"uint256","name":"","type":"uint256"}],"stateMutability":"view","type":"function"},{"inputs":[],"name":"getSummary","outputs":[{"internalType":"uint256","name":"","type":"uint256"},{"internalType":"uint256","name":"","type":"uint256"},{"internalType":"uint256","name":"","type":"uint256"},{"internalType":"uint256","name":"","type":"uint256"},{"internalType":"address","name":"","type":"address"}],"stateMutability":"view","type":"function"},{"inputs":[],"name":"getSupplierShipmentCount","outputs":[{"internalType":"uint256","name":"","type":"uint256"}],"stateMutability":"view","type":"function"},{"inputs":[],"name":"getSupplyChainDataCount","outputs":[{"internalType":"uint256","name":"","type":"uint256"}],"stateMutability":"view","type":"function"},{"inputs":[],"name":"manager","outputs":[{"internalType":"address","name":"","type":"address"}],"stateMutability":"view","type":"function"},{"inputs":[],"name":"minimumContribution","outputs":[{"internalType":"uint256","name":"","type":"uint256"}],"stateMutability":"view","type":"function"},{"inputs":[{"internalType":"uint256","name":"","type":"uint256"}],"name":"requests","outputs":[{"internalType":"string","name":"orderId","type":"string"},{"internalType":"string","name":"inspectedby","type":"string"},{"internalType":"string","name":"approvedby","type":"string"},{"internalType":"uint256","name":"value","type":"uint256"},{"internalType":"string","name":"selectedFile","type":"string"},{"internalType":"address","name":"recipient","type":"address"},{"internalType":"bool","name":"complete","type":"bool"},{"internalType":"uint256","name":"approvalCount","type":"uint256"}],"stateMutability":"view","type":"function"},{"inputs":[{"internalType":"uint256","name":"","type":"uint256"}],"name":"supplierShipments","outputs":[{"internalType":"string","name":"orderID","type":"string"},{"internalType":"string","name":"logisticsProviderName","type":"string"},{"internalType":"bool","name":"status","type":"bool"},{"internalType":"string","name":"shipmentDetails","type":"string"},{"internalType":"string","name":"billOfLanding","type":"string"},{"internalType":"string","name":"deliveryRecipt","type":"string"}],"stateMutability":"view","type":"function"},{"inputs":[{"internalType":"uint256","name":"","type":"uint256"}],"name":"supplyChainDatas","outputs":[{"internalType":"string","name":"orderID","type":"string"},{"internalType":"string","name":"manufacturerName","type":"string"},{"internalType":"string","name":"supplierName","type":"string"},{"internalType":"string","name":"invoiceReport","type":"string"},{"internalType":"string","name":"deliveryRecipt","type":"string"},{"internalType":"string","name":"logisticsName","type":"string"},{"internalType":"string","name":"rmReport","type":"string"},{"internalType":"string","name":"qualityReport","type":"string"},{"internalType":"string","name":"insuranceReport","type":"string"},{"internalType":"string","name":"billNo","type":"string"},{"internalType":"string","name":"billOfLanding","type":"string"},{"internalType":"bool","name":"status","type":"bool"}],"stateMutability":"view","type":"function"}],"devdoc":{"kind":"dev","methods":{},"version":1},"evm":{"assembly":"    /* \"Campaign.sol\":465:5493  contract Campaign {... */\n  mstore(0x40, 0x80)\n    /* \"Campaign.sol\":1768:1888  constructor (uint minimum, address creator) {... */\n  callvalue\n  dup1\n  iszero\n  tag_1\n  jumpi\n  0x00\n  dup1\n  revert\ntag_1:\n  pop\n  mload(0x40)\n  sub(codesize, bytecodeSize)\n  dup1\n  bytecodeSize\n  dup4\n  codecopy\n  dup2\n  dup2\n  add\n  0x40\n  mstore\n  dup2\n  add\n  swap1\n  tag_2\n  swap2\n  swap1\n  tag_3\n  jump\t// in\ntag_2:\n    /* \"Campaign.sol\":1833:1840  creator */\n  dup1\n    /* \"Campaign.sol\":1823:1830  manager */\n  0x03\n  0x00\n    /* \"Campaign.sol\":1823:1840  manager = creator */\n  0x0100\n  exp\n  dup2\n  sload\n  dup2\n  0xffffffffffffffffffffffffffffffffffffffff\n  mul\n  not\n  and\n  swap1\n  dup4\n  0xffffffffffffffffffffffffffffffffffffffff\n  and\n  mul\n  or\n  swap1\n  sstore\n  pop\n    /* \"Campaign.sol\":1873:1880  minimum */\n  dup2\n    /* \"Campaign.sol\":1851:1870  minimumContribution */\n  0x04\n    /* \"Campaign.sol\":1851:1880  minimumContribution = minimum */\n  dup2\n  swap1\n  sstore\n  pop\n    /* \"Campaign.sol\":1768:1888  constructor (uint minimum, address creator) {... */\n  pop\n  pop\n    /* \"Campaign.sol\":465:5493  contract Campaign {... */\n  jump(tag_6)\n    /* \"#utility.yul\":88:205   */\ntag_8:\n    /* \"#utility.yul\":197:198   */\n  0x00\n    /* \"#utility.yul\":194:195   */\n  dup1\n    /* \"#utility.yul\":187:199   */\n  revert\n    /* \"#utility.yul\":334:411   */\ntag_10:\n    /* \"#utility.yul\":371:378   */\n  0x00\n    /* \"#utility.yul\":400:405   */\n  dup2\n    /* \"#utility.yul\":389:405   */\n  swap1\n  pop\n    /* \"#utility.yul\":334:411   */\n  swap2\n  swap1\n  pop\n  jump\t// out\n    /* \"#utility.yul\":417:539   */\ntag_11:\n    /* \"#utility.yul\":490:514   */\n  tag_23\n    /* \"#utility.yul\":508:513   */\n  dup2\n    /* \"#utility.yul\":490:514   */\n  tag_10\n  jump\t// in\ntag_23:\n    /* \"#utility.yul\":483:488   */\n  dup2\n    /* \"#utility.yul\":480:515   */\n  eq\n    /* \"#utility.yul\":470:533   */\n  tag_24\n  jumpi\n    /* \"#utility.yul\":529:530   */\n  0x00\n    /* \"#utility.yul\":526:527   */\n  dup1\n    /* \"#utility.yul\":519:531   */\n  revert\n    /* \"#utility.yul\":470:533   */\ntag_24:\n    /* \"#utility.yul\":417:539   */\n  pop\n  jump\t// out\n    /* \"#utility.yul\":545:688   */\ntag_12:\n    /* \"#utility.yul\":602:607   */\n  0x00\n    /* \"#utility.yul\":633:639   */\n  dup2\n    /* \"#utility.yul\":627:640   */\n  mload\n    /* \"#utility.yul\":618:640   */\n  swap1\n  pop\n    /* \"#utility.yul\":649:682   */\n  tag_26\n    /* \"#utility.yul\":676:681   */\n  dup2\n    /* \"#utility.yul\":649:682   */\n  tag_11\n  jump\t// in\ntag_26:\n    /* \"#utility.yul\":545:688   */\n  swap3\n  swap2\n  pop\n  pop\n  jump\t// out\n    /* \"#utility.yul\":694:820   */\ntag_13:\n    /* \"#utility.yul\":731:738   */\n  0x00\n    /* \"#utility.yul\":771:813   */\n  0xffffffffffffffffffffffffffffffffffffffff\n    /* \"#utility.yul\":764:769   */\n  dup3\n    /* \"#utility.yul\":760:814   */\n  and\n    /* \"#utility.yul\":749:814   */\n  swap1\n  pop\n    /* \"#utility.yul\":694:820   */\n  swap2\n  swap1\n  pop\n  jump\t// out\n    /* \"#utility.yul\":826:922   */\ntag_14:\n    /* \"#utility.yul\":863:870   */\n  0x00\n    /* \"#utility.yul\":892:916   */\n  tag_29\n    /* \"#utility.yul\":910:915   */\n  dup3\n    /* \"#utility.yul\":892:916   */\n  tag_13\n  jump\t// in\ntag_29:\n    /* \"#utility.yul\":881:916   */\n  swap1\n  pop\n    /* \"#utility.yul\":826:922   */\n  swap2\n  swap1\n  pop\n  jump\t// out\n    /* \"#utility.yul\":928:1050   */\ntag_15:\n    /* \"#utility.yul\":1001:1025   */\n  tag_31\n    /* \"#utility.yul\":1019:1024   */\n  dup2\n    /* \"#utility.yul\":1001:1025   */\n  tag_14\n  jump\t// in\ntag_31:\n    /* \"#utility.yul\":994:999   */\n  dup2\n    /* \"#utility.yul\":991:1026   */\n  eq\n    /* \"#utility.yul\":981:1044   */\n  tag_32\n  jumpi\n    /* \"#utility.yul\":1040:1041   */\n  0x00\n    /* \"#utility.yul\":1037:1038   */\n  dup1\n    /* \"#utility.yul\":1030:1042   */\n  revert\n    /* \"#utility.yul\":981:1044   */\ntag_32:\n    /* \"#utility.yul\":928:1050   */\n  pop\n  jump\t// out\n    /* \"#utility.yul\":1056:1199   */\ntag_16:\n    /* \"#utility.yul\":1113:1118   */\n  0x00\n    /* \"#utility.yul\":1144:1150   */\n  dup2\n    /* \"#utility.yul\":1138:1151   */\n  mload\n    /* \"#utility.yul\":1129:1151   */\n  swap1\n  pop\n    /* \"#utility.yul\":1160:1193   */\n  tag_34\n    /* \"#utility.yul\":1187:1192   */\n  dup2\n    /* \"#utility.yul\":1160:1193   */\n  tag_15\n  jump\t// in\ntag_34:\n    /* \"#utility.yul\":1056:1199   */\n  swap3\n  swap2\n  pop\n  pop\n  jump\t// out\n    /* \"#utility.yul\":1205:1712   */\ntag_3:\n    /* \"#utility.yul\":1284:1290   */\n  0x00\n    /* \"#utility.yul\":1292:1298   */\n  dup1\n    /* \"#utility.yul\":1341:1343   */\n  0x40\n    /* \"#utility.yul\":1329:1338   */\n  dup4\n    /* \"#utility.yul\":1320:1327   */\n  dup6\n    /* \"#utility.yul\":1316:1339   */\n  sub\n    /* \"#utility.yul\":1312:1344   */\n  slt\n    /* \"#utility.yul\":1309:1428   */\n  iszero\n  tag_36\n  jumpi\n    /* \"#utility.yul\":1347:1426   */\n  tag_37\n  tag_8\n  jump\t// in\ntag_37:\n    /* \"#utility.yul\":1309:1428   */\ntag_36:\n    /* \"#utility.yul\":1467:1468   */\n  0x00\n    /* \"#utility.yul\":1492:1556   */\n  tag_38\n    /* \"#utility.yul\":1548:1555   */\n  dup6\n    /* \"#utility.yul\":1539:1545   */\n  dup3\n    /* \"#utility.yul\":1528:1537   */\n  dup7\n    /* \"#utility.yul\":1524:1546   */\n  add\n    /* \"#utility.yul\":1492:1556   */\n  tag_12\n  jump\t// in\ntag_38:\n    /* \"#utility.yul\":1482:1556   */\n  swap3\n  pop\n    /* \"#utility.yul\":1438:1566   */\n  pop\n    /* \"#utility.yul\":1605:1607   */\n  0x20\n    /* \"#utility.yul\":1631:1695   */\n  tag_39\n    /* \"#utility.yul\":1687:1694   */\n  dup6\n    /* \"#utility.yul\":1678:1684   */\n  dup3\n    /* \"#utility.yul\":1667:1676   */\n  dup7\n    /* \"#utility.yul\":1663:1685   */\n  add\n    /* \"#utility.yul\":1631:1695   */\n  tag_16\n  jump\t// in\ntag_39:\n    /* \"#utility.yul\":1621:1695   */\n  swap2\n  pop\n    /* \"#utility.yul\":1576:1705   */\n  pop\n    /* \"#utility.yul\":1205:1712   */\n  swap3\n  pop\n  swap3\n  swap1\n  pop\n  jump\t// out\n    /* \"Campaign.sol\":465:5493  contract Campaign {... */\ntag_6:\n  dataSize(sub_0)\n  dup1\n  dataOffset(sub_0)\n  0x00\n  codecopy\n  0x00\n  return\nstop\n\nsub_0: assembly {\n        /* \"Campaign.sol\":465:5493  contract Campaign {... */\n      mstore(0x40, 0x80)\n      jumpi(tag_1, lt(calldatasize, 0x04))\n      shr(0xe0, calldataload(0x00))\n      dup1\n      0x8001bd7c\n      gt\n      tag_20\n      jumpi\n      dup1\n      0xa2fbd6b7\n      gt\n      tag_21\n      jumpi\n      dup1\n      0xa2fbd6b7\n      eq\n      tag_15\n      jumpi\n      dup1\n      0xc7957f56\n      eq\n      tag_16\n      jumpi\n      dup1\n      0xd7bb99ba\n      eq\n      tag_17\n      jumpi\n      dup1\n      0xd7d1bbdb\n      eq\n      tag_18\n      jumpi\n      dup1\n      0xee532422\n      eq\n      tag_19\n      jumpi\n      jump(tag_1)\n    tag_21:\n      dup1\n      0x8001bd7c\n      eq\n      tag_11\n      jumpi\n      dup1\n      0x81d12c58\n      eq\n      tag_12\n      jumpi\n      dup1\n      0x82fde093\n      eq\n      tag_13\n      jumpi\n      dup1\n      0x937e09b1\n      eq\n      tag_14\n      jumpi\n      jump(tag_1)\n    tag_20:\n      dup1\n      0x4051ddac\n      gt\n      tag_22\n      jumpi\n      dup1\n      0x4051ddac\n      eq\n      tag_6\n      jumpi\n      dup1\n      0x481c6a75\n      eq\n      tag_7\n      jumpi\n      dup1\n      0x5b1410b5\n      eq\n      tag_8\n      jumpi\n      dup1\n      0x5ba2271e\n      eq\n      tag_9\n      jumpi\n      dup1\n      0x7fcddd05\n      eq\n      tag_10\n      jumpi\n      jump(tag_1)\n    tag_22:\n      dup1\n      0x03441006\n      eq\n      tag_2\n      jumpi\n      dup1\n      0x0a144391\n      eq\n      tag_3\n      jumpi\n      dup1\n      0x17a371eb\n      eq\n      tag_4\n      jumpi\n      dup1\n      0x3410452a\n      eq\n      tag_5\n      jumpi\n    tag_1:\n      0x00\n      dup1\n      revert\n        /* \"Campaign.sol\":4547:4862  function finalizeRequest(uint index) public restricted {... */\n    tag_2:\n      callvalue\n      dup1\n      iszero\n      tag_23\n      jumpi\n      0x00\n      dup1\n      revert\n    tag_23:\n      pop\n      tag_24\n      0x04\n      dup1\n      calldatasize\n      sub\n      dup2\n      add\n      swap1\n      tag_25\n      swap2\n      swap1\n      tag_26\n      jump\t// in\n    tag_25:\n      tag_27\n      jump\t// in\n    tag_24:\n      stop\n        /* \"Campaign.sol\":1594:1635  mapping(address => bool) public approvers */\n    tag_3:\n      callvalue\n      dup1\n      iszero\n      tag_28\n      jumpi\n      0x00\n      dup1\n      revert\n    tag_28:\n      pop\n      tag_29\n      0x04\n      dup1\n      calldatasize\n      sub\n      dup2\n      add\n      swap1\n      tag_30\n      swap2\n      swap1\n      tag_31\n      jump\t// in\n    tag_30:\n      tag_32\n      jump\t// in\n    tag_29:\n      mload(0x40)\n      tag_33\n      swap2\n      swap1\n      tag_34\n      jump\t// in\n    tag_33:\n      mload(0x40)\n      dup1\n      swap2\n      sub\n      swap1\n      return\n        /* \"Campaign.sol\":5260:5372  function getSupplierShipmentCount() public view returns (uint){... */\n    tag_4:\n      callvalue\n      dup1\n      iszero\n      tag_35\n      jumpi\n      0x00\n      dup1\n      revert\n    tag_35:\n      pop\n      tag_36\n      tag_37\n      jump\t// in\n    tag_36:\n      mload(0x40)\n      tag_38\n      swap2\n      swap1\n      tag_39\n      jump\t// in\n    tag_38:\n      mload(0x40)\n      dup1\n      swap2\n      sub\n      swap1\n      return\n        /* \"Campaign.sol\":5156:5252  function getRequestsCount() public view returns (uint) {... */\n    tag_5:\n      callvalue\n      dup1\n      iszero\n      tag_40\n      jumpi\n      0x00\n      dup1\n      revert\n    tag_40:\n      pop\n      tag_41\n      tag_42\n      jump\t// in\n    tag_41:\n      mload(0x40)\n      tag_43\n      swap2\n      swap1\n      tag_39\n      jump\t// in\n    tag_43:\n      mload(0x40)\n      dup1\n      swap2\n      sub\n      swap1\n      return\n        /* \"Campaign.sol\":4874:5144  function getSummary() public view returns (... */\n    tag_6:\n      callvalue\n      dup1\n      iszero\n      tag_44\n      jumpi\n      0x00\n      dup1\n      revert\n    tag_44:\n      pop\n      tag_45\n      tag_46\n      jump\t// in\n    tag_45:\n      mload(0x40)\n      tag_47\n      swap6\n      swap5\n      swap4\n      swap3\n      swap2\n      swap1\n      tag_48\n      jump\t// in\n    tag_47:\n      mload(0x40)\n      dup1\n      swap2\n      sub\n      swap1\n      return\n        /* \"Campaign.sol\":1527:1549  address public manager */\n    tag_7:\n      callvalue\n      dup1\n      iszero\n      tag_49\n      jumpi\n      0x00\n      dup1\n      revert\n    tag_49:\n      pop\n      tag_50\n      tag_51\n      jump\t// in\n    tag_50:\n      mload(0x40)\n      tag_52\n      swap2\n      swap1\n      tag_53\n      jump\t// in\n    tag_52:\n      mload(0x40)\n      dup1\n      swap2\n      sub\n      swap1\n      return\n        /* \"Campaign.sol\":2068:2638  function createRequest(string memory orderId, string memory inspectedby,string memory approvedby, uint value,string memory selectedFile ,address recipient) public restricted {... */\n    tag_8:\n      callvalue\n      dup1\n      iszero\n      tag_54\n      jumpi\n      0x00\n      dup1\n      revert\n    tag_54:\n      pop\n      tag_55\n      0x04\n      dup1\n      calldatasize\n      sub\n      dup2\n      add\n      swap1\n      tag_56\n      swap2\n      swap1\n      tag_57\n      jump\t// in\n    tag_56:\n      tag_58\n      jump\t// in\n    tag_55:\n      stop\n        /* \"Campaign.sol\":5380:5490  function getSupplyChainDataCount() public view returns (uint){... */\n    tag_9:\n      callvalue\n      dup1\n      iszero\n      tag_59\n      jumpi\n      0x00\n      dup1\n      revert\n    tag_59:\n      pop\n      tag_60\n      tag_61\n      jump\t// in\n    tag_60:\n      mload(0x40)\n      tag_62\n      swap2\n      swap1\n      tag_39\n      jump\t// in\n    tag_62:\n      mload(0x40)\n      dup1\n      swap2\n      sub\n      swap1\n      return\n        /* \"Campaign.sol\":1002:1045  SupplierShipment[] public supplierShipments */\n    tag_10:\n      callvalue\n      dup1\n      iszero\n      tag_63\n      jumpi\n      0x00\n      dup1\n      revert\n    tag_63:\n      pop\n      tag_64\n      0x04\n      dup1\n      calldatasize\n      sub\n      dup2\n      add\n      swap1\n      tag_65\n      swap2\n      swap1\n      tag_26\n      jump\t// in\n    tag_65:\n      tag_66\n      jump\t// in\n    tag_64:\n      mload(0x40)\n      tag_67\n      swap7\n      swap6\n      swap5\n      swap4\n      swap3\n      swap2\n      swap1\n      tag_68\n      jump\t// in\n    tag_67:\n      mload(0x40)\n      dup1\n      swap2\n      sub\n      swap1\n      return\n        /* \"Campaign.sol\":1445:1486  SupplyChainData[] public supplyChainDatas */\n    tag_11:\n      callvalue\n      dup1\n      iszero\n      tag_69\n      jumpi\n      0x00\n      dup1\n      revert\n    tag_69:\n      pop\n      tag_70\n      0x04\n      dup1\n      calldatasize\n      sub\n      dup2\n      add\n      swap1\n      tag_71\n      swap2\n      swap1\n      tag_26\n      jump\t// in\n    tag_71:\n      tag_72\n      jump\t// in\n    tag_70:\n      mload(0x40)\n      tag_73\n      swap13\n      swap12\n      swap11\n      swap10\n      swap9\n      swap8\n      swap7\n      swap6\n      swap5\n      swap4\n      swap3\n      swap2\n      swap1\n      tag_74\n      jump\t// in\n    tag_73:\n      mload(0x40)\n      dup1\n      swap2\n      sub\n      swap1\n      return\n        /* \"Campaign.sol\":1495:1520  Request[] public requests */\n    tag_12:\n      callvalue\n      dup1\n      iszero\n      tag_75\n      jumpi\n      0x00\n      dup1\n      revert\n    tag_75:\n      pop\n      tag_76\n      0x04\n      dup1\n      calldatasize\n      sub\n      dup2\n      add\n      swap1\n      tag_77\n      swap2\n      swap1\n      tag_26\n      jump\t// in\n    tag_77:\n      tag_78\n      jump\t// in\n    tag_76:\n      mload(0x40)\n      tag_79\n      swap9\n      swap8\n      swap7\n      swap6\n      swap5\n      swap4\n      swap3\n      swap2\n      swap1\n      tag_80\n      jump\t// in\n    tag_79:\n      mload(0x40)\n      dup1\n      swap2\n      sub\n      swap1\n      return\n        /* \"Campaign.sol\":1642:1668  uint public approversCount */\n    tag_13:\n      callvalue\n      dup1\n      iszero\n      tag_81\n      jumpi\n      0x00\n      dup1\n      revert\n    tag_81:\n      pop\n      tag_82\n      tag_83\n      jump\t// in\n    tag_82:\n      mload(0x40)\n      tag_84\n      swap2\n      swap1\n      tag_39\n      jump\t// in\n    tag_84:\n      mload(0x40)\n      dup1\n      swap2\n      sub\n      swap1\n      return\n        /* \"Campaign.sol\":1556:1587  uint public minimumContribution */\n    tag_14:\n      callvalue\n      dup1\n      iszero\n      tag_85\n      jumpi\n      0x00\n      dup1\n      revert\n    tag_85:\n      pop\n      tag_86\n      tag_87\n      jump\t// in\n    tag_86:\n      mload(0x40)\n      tag_88\n      swap2\n      swap1\n      tag_39\n      jump\t// in\n    tag_88:\n      mload(0x40)\n      dup1\n      swap2\n      sub\n      swap1\n      return\n        /* \"Campaign.sol\":2646:3288  function createSupplierShipment(string memory orderID, string memory logisticsProviderName,string memory shipmentDetails,string memory billOfLanding, string memory deliveryRecipt) public restricted{... */\n    tag_15:\n      callvalue\n      dup1\n      iszero\n      tag_89\n      jumpi\n      0x00\n      dup1\n      revert\n    tag_89:\n      pop\n      tag_90\n      0x04\n      dup1\n      calldatasize\n      sub\n      dup2\n      add\n      swap1\n      tag_91\n      swap2\n      swap1\n      tag_92\n      jump\t// in\n    tag_91:\n      tag_93\n      jump\t// in\n    tag_90:\n      stop\n        /* \"Campaign.sol\":3827:4242  function createManufacturerDelivery(string memory deliveryRecipt, uint index, string memory billNo ) public restricted{... */\n    tag_16:\n      callvalue\n      dup1\n      iszero\n      tag_94\n      jumpi\n      0x00\n      dup1\n      revert\n    tag_94:\n      pop\n      tag_95\n      0x04\n      dup1\n      calldatasize\n      sub\n      dup2\n      add\n      swap1\n      tag_96\n      swap2\n      swap1\n      tag_97\n      jump\t// in\n    tag_96:\n      tag_98\n      jump\t// in\n    tag_95:\n      stop\n        /* \"Campaign.sol\":1896:2060  function contribute() public payable {... */\n    tag_17:\n      tag_99\n      tag_100\n      jump\t// in\n    tag_99:\n      stop\n        /* \"Campaign.sol\":4260:4539  function approveRequest(uint index) public {... */\n    tag_18:\n      callvalue\n      dup1\n      iszero\n      tag_101\n      jumpi\n      0x00\n      dup1\n      revert\n    tag_101:\n      pop\n      tag_102\n      0x04\n      dup1\n      calldatasize\n      sub\n      dup2\n      add\n      swap1\n      tag_103\n      swap2\n      swap1\n      tag_26\n      jump\t// in\n    tag_103:\n      tag_104\n      jump\t// in\n    tag_102:\n      stop\n        /* \"Campaign.sol\":3298:3819  function createManufacturerInvoice(string memory orderId, string memory manufacturerName,string memory supplierName,string memory invoiceReport) public restricted{... */\n    tag_19:\n      callvalue\n      dup1\n      iszero\n      tag_105\n      jumpi\n      0x00\n      dup1\n      revert\n    tag_105:\n      pop\n      tag_106\n      0x04\n      dup1\n      calldatasize\n      sub\n      dup2\n      add\n      swap1\n      tag_107\n      swap2\n      swap1\n      tag_108\n      jump\t// in\n    tag_107:\n      tag_109\n      jump\t// in\n    tag_106:\n      stop\n        /* \"Campaign.sol\":4547:4862  function finalizeRequest(uint index) public restricted {... */\n    tag_27:\n        /* \"Campaign.sol\":1732:1739  manager */\n      0x03\n      0x00\n      swap1\n      sload\n      swap1\n      0x0100\n      exp\n      swap1\n      div\n      0xffffffffffffffffffffffffffffffffffffffff\n      and\n        /* \"Campaign.sol\":1718:1739  msg.sender == manager */\n      0xffffffffffffffffffffffffffffffffffffffff\n      and\n        /* \"Campaign.sol\":1718:1728  msg.sender */\n      caller\n        /* \"Campaign.sol\":1718:1739  msg.sender == manager */\n      0xffffffffffffffffffffffffffffffffffffffff\n      and\n      eq\n        /* \"Campaign.sol\":1710:1740  require(msg.sender == manager) */\n      tag_111\n      jumpi\n      0x00\n      dup1\n      revert\n    tag_111:\n        /* \"Campaign.sol\":4613:4636  Request storage request */\n      0x00\n        /* \"Campaign.sol\":4639:4647  requests */\n      0x02\n        /* \"Campaign.sol\":4648:4653  index */\n      dup3\n        /* \"Campaign.sol\":4639:4654  requests[index] */\n      dup2\n      sload\n      dup2\n      lt\n      tag_113\n      jumpi\n      tag_114\n      tag_115\n      jump\t// in\n    tag_114:\n    tag_113:\n      swap1\n      0x00\n      mstore\n      keccak256(0x00, 0x20)\n      swap1\n      0x08\n      mul\n      add\n        /* \"Campaign.sol\":4613:4654  Request storage request = requests[index] */\n      swap1\n      pop\n        /* \"Campaign.sol\":4717:4718  2 */\n      0x02\n        /* \"Campaign.sol\":4700:4714  approversCount */\n      sload(0x06)\n        /* \"Campaign.sol\":4700:4718  approversCount / 2 */\n      tag_117\n      swap2\n      swap1\n      tag_118\n      jump\t// in\n    tag_117:\n        /* \"Campaign.sol\":4675:4682  request */\n      dup2\n        /* \"Campaign.sol\":4675:4696  request.approvalCount */\n      0x06\n      add\n      sload\n        /* \"Campaign.sol\":4675:4719  request.approvalCount > (approversCount / 2) */\n      gt\n        /* \"Campaign.sol\":4667:4720  require(request.approvalCount > (approversCount / 2)) */\n      tag_119\n      jumpi\n      0x00\n      dup1\n      revert\n    tag_119:\n        /* \"Campaign.sol\":4740:4747  request */\n      dup1\n        /* \"Campaign.sol\":4740:4756  request.complete */\n      0x05\n      add\n      0x14\n      swap1\n      sload\n      swap1\n      0x0100\n      exp\n      swap1\n      div\n      0xff\n      and\n        /* \"Campaign.sol\":4739:4756  !request.complete */\n      iszero\n        /* \"Campaign.sol\":4731:4757  require(!request.complete) */\n      tag_120\n      jumpi\n      0x00\n      dup1\n      revert\n    tag_120:\n        /* \"Campaign.sol\":4778:4785  request */\n      dup1\n        /* \"Campaign.sol\":4778:4795  request.recipient */\n      0x05\n      add\n      0x00\n      swap1\n      sload\n      swap1\n      0x0100\n      exp\n      swap1\n      div\n      0xffffffffffffffffffffffffffffffffffffffff\n      and\n        /* \"Campaign.sol\":4770:4805  payable(request.recipient).transfer */\n      0xffffffffffffffffffffffffffffffffffffffff\n      and\n        /* \"Campaign.sol\":4770:4820  payable(request.recipient).transfer(request.value) */\n      0x08fc\n        /* \"Campaign.sol\":4806:4813  request */\n      dup3\n        /* \"Campaign.sol\":4806:4819  request.value */\n      0x03\n      add\n      sload\n        /* \"Campaign.sol\":4770:4820  payable(request.recipient).transfer(request.value) */\n      swap1\n      dup2\n      iszero\n      mul\n      swap1\n      mload(0x40)\n      0x00\n      mload(0x40)\n      dup1\n      dup4\n      sub\n      dup2\n      dup6\n      dup9\n      dup9\n      call\n      swap4\n      pop\n      pop\n      pop\n      pop\n      iszero\n      dup1\n      iszero\n      tag_122\n      jumpi\n      returndatasize\n      0x00\n      dup1\n      returndatacopy\n      revert(0x00, returndatasize)\n    tag_122:\n      pop\n        /* \"Campaign.sol\":4850:4854  true */\n      0x01\n        /* \"Campaign.sol\":4831:4838  request */\n      dup2\n        /* \"Campaign.sol\":4831:4847  request.complete */\n      0x05\n      add\n      0x14\n        /* \"Campaign.sol\":4831:4854  request.complete = true */\n      0x0100\n      exp\n      dup2\n      sload\n      dup2\n      0xff\n      mul\n      not\n      and\n      swap1\n      dup4\n      iszero\n      iszero\n      mul\n      or\n      swap1\n      sstore\n      pop\n        /* \"Campaign.sol\":4602:4862  {... */\n      pop\n        /* \"Campaign.sol\":4547:4862  function finalizeRequest(uint index) public restricted {... */\n      pop\n      jump\t// out\n        /* \"Campaign.sol\":1594:1635  mapping(address => bool) public approvers */\n    tag_32:\n      mstore(0x20, 0x05)\n      dup1\n      0x00\n      mstore\n      keccak256(0x00, 0x40)\n      0x00\n      swap2\n      pop\n      sload\n      swap1\n      0x0100\n      exp\n      swap1\n      div\n      0xff\n      and\n      dup2\n      jump\t// out\n        /* \"Campaign.sol\":5260:5372  function getSupplierShipmentCount() public view returns (uint){... */\n    tag_37:\n        /* \"Campaign.sol\":5317:5321  uint */\n      0x00\n        /* \"Campaign.sol\":5340:5357  supplierShipments */\n      dup1\n        /* \"Campaign.sol\":5340:5364  supplierShipments.length */\n      dup1\n      sload\n      swap1\n      pop\n        /* \"Campaign.sol\":5333:5364  return supplierShipments.length */\n      swap1\n      pop\n        /* \"Campaign.sol\":5260:5372  function getSupplierShipmentCount() public view returns (uint){... */\n      swap1\n      jump\t// out\n        /* \"Campaign.sol\":5156:5252  function getRequestsCount() public view returns (uint) {... */\n    tag_42:\n        /* \"Campaign.sol\":5205:5209  uint */\n      0x00\n        /* \"Campaign.sol\":5229:5237  requests */\n      0x02\n        /* \"Campaign.sol\":5229:5244  requests.length */\n      dup1\n      sload\n      swap1\n      pop\n        /* \"Campaign.sol\":5222:5244  return requests.length */\n      swap1\n      pop\n        /* \"Campaign.sol\":5156:5252  function getRequestsCount() public view returns (uint) {... */\n      swap1\n      jump\t// out\n        /* \"Campaign.sol\":4874:5144  function getSummary() public view returns (... */\n    tag_46:\n        /* \"Campaign.sol\":4925:4929  uint */\n      0x00\n        /* \"Campaign.sol\":4931:4935  uint */\n      dup1\n        /* \"Campaign.sol\":4937:4941  uint */\n      0x00\n        /* \"Campaign.sol\":4943:4947  uint */\n      dup1\n        /* \"Campaign.sol\":4949:4956  address */\n      0x00\n        /* \"Campaign.sol\":4997:5016  minimumContribution */\n      sload(0x04)\n        /* \"Campaign.sol\":5029:5050  address(this).balance */\n      selfbalance\n        /* \"Campaign.sol\":5063:5071  requests */\n      0x02\n        /* \"Campaign.sol\":5063:5078  requests.length */\n      dup1\n      sload\n      swap1\n      pop\n        /* \"Campaign.sol\":5091:5105  approversCount */\n      sload(0x06)\n        /* \"Campaign.sol\":5118:5125  manager */\n      0x03\n      0x00\n      swap1\n      sload\n      swap1\n      0x0100\n      exp\n      swap1\n      div\n      0xffffffffffffffffffffffffffffffffffffffff\n      and\n        /* \"Campaign.sol\":4977:5136  return (... */\n      swap5\n      pop\n      swap5\n      pop\n      swap5\n      pop\n      swap5\n      pop\n      swap5\n      pop\n        /* \"Campaign.sol\":4874:5144  function getSummary() public view returns (... */\n      swap1\n      swap2\n      swap3\n      swap4\n      swap5\n      jump\t// out\n        /* \"Campaign.sol\":1527:1549  address public manager */\n    tag_51:\n      0x03\n      0x00\n      swap1\n      sload\n      swap1\n      0x0100\n      exp\n      swap1\n      div\n      0xffffffffffffffffffffffffffffffffffffffff\n      and\n      dup2\n      jump\t// out\n        /* \"Campaign.sol\":2068:2638  function createRequest(string memory orderId, string memory inspectedby,string memory approvedby, uint value,string memory selectedFile ,address recipient) public restricted {... */\n    tag_58:\n        /* \"Campaign.sol\":1732:1739  manager */\n      0x03\n      0x00\n      swap1\n      sload\n      swap1\n      0x0100\n      exp\n      swap1\n      div\n      0xffffffffffffffffffffffffffffffffffffffff\n      and\n        /* \"Campaign.sol\":1718:1739  msg.sender == manager */\n      0xffffffffffffffffffffffffffffffffffffffff\n      and\n        /* \"Campaign.sol\":1718:1728  msg.sender */\n      caller\n        /* \"Campaign.sol\":1718:1739  msg.sender == manager */\n      0xffffffffffffffffffffffffffffffffffffffff\n      and\n      eq\n        /* \"Campaign.sol\":1710:1740  require(msg.sender == manager) */\n      tag_127\n      jumpi\n      0x00\n      dup1\n      revert\n    tag_127:\n        /* \"Campaign.sol\":2253:2279  Request storage newRequest */\n      0x00\n        /* \"Campaign.sol\":2282:2290  requests */\n      0x02\n        /* \"Campaign.sol\":2282:2297  requests.push() */\n      0x01\n      dup2\n      0x01\n      dup2\n      sload\n      add\n      dup1\n      dup3\n      sstore\n      dup1\n      swap2\n      pop\n      pop\n      sub\n      swap1\n      0x00\n      mstore\n      keccak256(0x00, 0x20)\n      swap1\n      0x08\n      mul\n      add\n        /* \"Campaign.sol\":2253:2297  Request storage newRequest = requests.push() */\n      swap1\n      pop\n        /* \"Campaign.sol\":2330:2337  orderId */\n      dup7\n        /* \"Campaign.sol\":2309:2319  newRequest */\n      dup2\n        /* \"Campaign.sol\":2309:2327  newRequest.orderId */\n      0x00\n      add\n        /* \"Campaign.sol\":2309:2337  newRequest.orderId = orderId */\n      swap1\n      dup2\n      tag_130\n      swap2\n      swap1\n      tag_131\n      jump\t// in\n    tag_130:\n      pop\n        /* \"Campaign.sol\":2373:2384  inspectedby */\n      dup6\n        /* \"Campaign.sol\":2348:2358  newRequest */\n      dup2\n        /* \"Campaign.sol\":2348:2370  newRequest.inspectedby */\n      0x01\n      add\n        /* \"Campaign.sol\":2348:2384  newRequest.inspectedby = inspectedby */\n      swap1\n      dup2\n      tag_132\n      swap2\n      swap1\n      tag_131\n      jump\t// in\n    tag_132:\n      pop\n        /* \"Campaign.sol\":2419:2429  approvedby */\n      dup5\n        /* \"Campaign.sol\":2395:2405  newRequest */\n      dup2\n        /* \"Campaign.sol\":2395:2416  newRequest.approvedby */\n      0x02\n      add\n        /* \"Campaign.sol\":2395:2429  newRequest.approvedby = approvedby */\n      swap1\n      dup2\n      tag_133\n      swap2\n      swap1\n      tag_131\n      jump\t// in\n    tag_133:\n      pop\n        /* \"Campaign.sol\":2460:2465  value */\n      dup4\n        /* \"Campaign.sol\":2442:2452  newRequest */\n      dup2\n        /* \"Campaign.sol\":2442:2458  newRequest.value */\n      0x03\n      add\n        /* \"Campaign.sol\":2442:2465  newRequest.value= value */\n      dup2\n      swap1\n      sstore\n      pop\n        /* \"Campaign.sol\":2501:2513  selectedFile */\n      dup3\n        /* \"Campaign.sol\":2476:2486  newRequest */\n      dup2\n        /* \"Campaign.sol\":2476:2499  newRequest.selectedFile */\n      0x04\n      add\n        /* \"Campaign.sol\":2476:2513  newRequest.selectedFile= selectedFile */\n      swap1\n      dup2\n      tag_134\n      swap2\n      swap1\n      tag_131\n      jump\t// in\n    tag_134:\n      pop\n        /* \"Campaign.sol\":2546:2555  recipient */\n      dup2\n        /* \"Campaign.sol\":2524:2534  newRequest */\n      dup2\n        /* \"Campaign.sol\":2524:2544  newRequest.recipient */\n      0x05\n      add\n      0x00\n        /* \"Campaign.sol\":2524:2555  newRequest.recipient= recipient */\n      0x0100\n      exp\n      dup2\n      sload\n      dup2\n      0xffffffffffffffffffffffffffffffffffffffff\n      mul\n      not\n      and\n      swap1\n      dup4\n      0xffffffffffffffffffffffffffffffffffffffff\n      and\n      mul\n      or\n      swap1\n      sstore\n      pop\n        /* \"Campaign.sol\":2587:2592  false */\n      0x00\n        /* \"Campaign.sol\":2566:2576  newRequest */\n      dup2\n        /* \"Campaign.sol\":2566:2585  newRequest.complete */\n      0x05\n      add\n      0x14\n        /* \"Campaign.sol\":2566:2592  newRequest.complete= false */\n      0x0100\n      exp\n      dup2\n      sload\n      dup2\n      0xff\n      mul\n      not\n      and\n      swap1\n      dup4\n      iszero\n      iszero\n      mul\n      or\n      swap1\n      sstore\n      pop\n        /* \"Campaign.sol\":2629:2630  0 */\n      0x00\n        /* \"Campaign.sol\":2603:2613  newRequest */\n      dup2\n        /* \"Campaign.sol\":2603:2627  newRequest.approvalCount */\n      0x06\n      add\n        /* \"Campaign.sol\":2603:2630  newRequest.approvalCount= 0 */\n      dup2\n      swap1\n      sstore\n      pop\n        /* \"Campaign.sol\":2242:2638  {... */\n      pop\n        /* \"Campaign.sol\":2068:2638  function createRequest(string memory orderId, string memory inspectedby,string memory approvedby, uint value,string memory selectedFile ,address recipient) public restricted {... */\n      pop\n      pop\n      pop\n      pop\n      pop\n      pop\n      jump\t// out\n        /* \"Campaign.sol\":5380:5490  function getSupplyChainDataCount() public view returns (uint){... */\n    tag_61:\n        /* \"Campaign.sol\":5436:5440  uint */\n      0x00\n        /* \"Campaign.sol\":5459:5475  supplyChainDatas */\n      0x01\n        /* \"Campaign.sol\":5459:5482  supplyChainDatas.length */\n      dup1\n      sload\n      swap1\n      pop\n        /* \"Campaign.sol\":5452:5482  return supplyChainDatas.length */\n      swap1\n      pop\n        /* \"Campaign.sol\":5380:5490  function getSupplyChainDataCount() public view returns (uint){... */\n      swap1\n      jump\t// out\n        /* \"Campaign.sol\":1002:1045  SupplierShipment[] public supplierShipments */\n    tag_66:\n      0x00\n      dup2\n      dup2\n      sload\n      dup2\n      lt\n      tag_136\n      jumpi\n      0x00\n      dup1\n      revert\n    tag_136:\n      swap1\n      0x00\n      mstore\n      keccak256(0x00, 0x20)\n      swap1\n      0x06\n      mul\n      add\n      0x00\n      swap2\n      pop\n      swap1\n      pop\n      dup1\n      0x00\n      add\n      dup1\n      sload\n      tag_138\n      swap1\n      tag_139\n      jump\t// in\n    tag_138:\n      dup1\n      0x1f\n      add\n      0x20\n      dup1\n      swap2\n      div\n      mul\n      0x20\n      add\n      mload(0x40)\n      swap1\n      dup2\n      add\n      0x40\n      mstore\n      dup1\n      swap3\n      swap2\n      swap1\n      dup2\n      dup2\n      mstore\n      0x20\n      add\n      dup3\n      dup1\n      sload\n      tag_140\n      swap1\n      tag_139\n      jump\t// in\n    tag_140:\n      dup1\n      iszero\n      tag_141\n      jumpi\n      dup1\n      0x1f\n      lt\n      tag_142\n      jumpi\n      0x0100\n      dup1\n      dup4\n      sload\n      div\n      mul\n      dup4\n      mstore\n      swap2\n      0x20\n      add\n      swap2\n      jump(tag_141)\n    tag_142:\n      dup3\n      add\n      swap2\n      swap1\n      0x00\n      mstore\n      keccak256(0x00, 0x20)\n      swap1\n    tag_143:\n      dup2\n      sload\n      dup2\n      mstore\n      swap1\n      0x01\n      add\n      swap1\n      0x20\n      add\n      dup1\n      dup4\n      gt\n      tag_143\n      jumpi\n      dup3\n      swap1\n      sub\n      0x1f\n      and\n      dup3\n      add\n      swap2\n    tag_141:\n      pop\n      pop\n      pop\n      pop\n      pop\n      swap1\n      dup1\n      0x01\n      add\n      dup1\n      sload\n      tag_144\n      swap1\n      tag_139\n      jump\t// in\n    tag_144:\n      dup1\n      0x1f\n      add\n      0x20\n      dup1\n      swap2\n      div\n      mul\n      0x20\n      add\n      mload(0x40)\n      swap1\n      dup2\n      add\n      0x40\n      mstore\n      dup1\n      swap3\n      swap2\n      swap1\n      dup2\n      dup2\n      mstore\n      0x20\n      add\n      dup3\n      dup1\n      sload\n      tag_145\n      swap1\n      tag_139\n      jump\t// in\n    tag_145:\n      dup1\n      iszero\n      tag_146\n      jumpi\n      dup1\n      0x1f\n      lt\n      tag_147\n      jumpi\n      0x0100\n      dup1\n      dup4\n      sload\n      div\n      mul\n      dup4\n      mstore\n      swap2\n      0x20\n      add\n      swap2\n      jump(tag_146)\n    tag_147:\n      dup3\n      add\n      swap2\n      swap1\n      0x00\n      mstore\n      keccak256(0x00, 0x20)\n      swap1\n    tag_148:\n      dup2\n      sload\n      dup2\n      mstore\n      swap1\n      0x01\n      add\n      swap1\n      0x20\n      add\n      dup1\n      dup4\n      gt\n      tag_148\n      jumpi\n      dup3\n      swap1\n      sub\n      0x1f\n      and\n      dup3\n      add\n      swap2\n    tag_146:\n      pop\n      pop\n      pop\n      pop\n      pop\n      swap1\n      dup1\n      0x02\n      add\n      0x00\n      swap1\n      sload\n      swap1\n      0x0100\n      exp\n      swap1\n      div\n      0xff\n      and\n      swap1\n      dup1\n      0x03\n      add\n      dup1\n      sload\n      tag_149\n      swap1\n      tag_139\n      jump\t// in\n    tag_149:\n      dup1\n      0x1f\n      add\n      0x20\n      dup1\n      swap2\n      div\n      mul\n      0x20\n      add\n      mload(0x40)\n      swap1\n      dup2\n      add\n      0x40\n      mstore\n      dup1\n      swap3\n      swap2\n      swap1\n      dup2\n      dup2\n      mstore\n      0x20\n      add\n      dup3\n      dup1\n      sload\n      tag_150\n      swap1\n      tag_139\n      jump\t// in\n    tag_150:\n      dup1\n      iszero\n      tag_151\n      jumpi\n      dup1\n      0x1f\n      lt\n      tag_152\n      jumpi\n      0x0100\n      dup1\n      dup4\n      sload\n      div\n      mul\n      dup4\n      mstore\n      swap2\n      0x20\n      add\n      swap2\n      jump(tag_151)\n    tag_152:\n      dup3\n      add\n      swap2\n      swap1\n      0x00\n      mstore\n      keccak256(0x00, 0x20)\n      swap1\n    tag_153:\n      dup2\n      sload\n      dup2\n      mstore\n      swap1\n      0x01\n      add\n      swap1\n      0x20\n      add\n      dup1\n      dup4\n      gt\n      tag_153\n      jumpi\n      dup3\n      swap1\n      sub\n      0x1f\n      and\n      dup3\n      add\n      swap2\n    tag_151:\n      pop\n      pop\n      pop\n      pop\n      pop\n      swap1\n      dup1\n      0x04\n      add\n      dup1\n      sload\n      tag_154\n      swap1\n      tag_139\n      jump\t// in\n    tag_154:\n      dup1\n      0x1f\n      add\n      0x20\n      dup1\n      swap2\n      div\n      mul\n      0x20\n      add\n      mload(0x40)\n      swap1\n      dup2\n      add\n      0x40\n      mstore\n      dup1\n      swap3\n      swap2\n      swap1\n      dup2\n      dup2\n      mstore\n      0x20\n      add\n      dup3\n      dup1\n      sload\n      tag_155\n      swap1\n      tag_139\n      jump\t// in\n    tag_155:\n      dup1\n      iszero\n      tag_156\n      jumpi\n      dup1\n      0x1f\n      lt\n      tag_157\n      jumpi\n      0x0100\n      dup1\n      dup4\n      sload\n      div\n      mul\n      dup4\n      mstore\n      swap2\n      0x20\n      add\n      swap2\n      jump(tag_156)\n    tag_157:\n      dup3\n      add\n      swap2\n      swap1\n      0x00\n      mstore\n      keccak256(0x00, 0x20)\n      swap1\n    tag_158:\n      dup2\n      sload\n      dup2\n      mstore\n      swap1\n      0x01\n      add\n      swap1\n      0x20\n      add\n      dup1\n      dup4\n      gt\n      tag_158\n      jumpi\n      dup3\n      swap1\n      sub\n      0x1f\n      and\n      dup3\n      add\n      swap2\n    tag_156:\n      pop\n      pop\n      pop\n      pop\n      pop\n      swap1\n      dup1\n      0x05\n      add\n      dup1\n      sload\n      tag_159\n      swap1\n      tag_139\n      jump\t// in\n    tag_159:\n      dup1\n      0x1f\n      add\n      0x20\n      dup1\n      swap2\n      div\n      mul\n      0x20\n      add\n      mload(0x40)\n      swap1\n      dup2\n      add\n      0x40\n      mstore\n      dup1\n      swap3\n      swap2\n      swap1\n      dup2\n      dup2\n      mstore\n      0x20\n      add\n      dup3\n      dup1\n      sload\n      tag_160\n      swap1\n      tag_139\n      jump\t// in\n    tag_160:\n      dup1\n      iszero\n      tag_161\n      jumpi\n      dup1\n      0x1f\n      lt\n      tag_162\n      jumpi\n      0x0100\n      dup1\n      dup4\n      sload\n      div\n      mul\n      dup4\n      mstore\n      swap2\n      0x20\n      add\n      swap2\n      jump(tag_161)\n    tag_162:\n      dup3\n      add\n      swap2\n      swap1\n      0x00\n      mstore\n      keccak256(0x00, 0x20)\n      swap1\n    tag_163:\n      dup2\n      sload\n      dup2\n      mstore\n      swap1\n      0x01\n      add\n      swap1\n      0x20\n      add\n      dup1\n      dup4\n      gt\n      tag_163\n      jumpi\n      dup3\n      swap1\n      sub\n      0x1f\n      and\n      dup3\n      add\n      swap2\n    tag_161:\n      pop\n      pop\n      pop\n      pop\n      pop\n      swap1\n      pop\n      dup7\n      jump\t// out\n        /* \"Campaign.sol\":1445:1486  SupplyChainData[] public supplyChainDatas */\n    tag_72:\n      0x01\n      dup2\n      dup2\n      sload\n      dup2\n      lt\n      tag_164\n      jumpi\n      0x00\n      dup1\n      revert\n    tag_164:\n      swap1\n      0x00\n      mstore\n      keccak256(0x00, 0x20)\n      swap1\n      0x0c\n      mul\n      add\n      0x00\n      swap2\n      pop\n      swap1\n      pop\n      dup1\n      0x00\n      add\n      dup1\n      sload\n      tag_166\n      swap1\n      tag_139\n      jump\t// in\n    tag_166:\n      dup1\n      0x1f\n      add\n      0x20\n      dup1\n      swap2\n      div\n      mul\n      0x20\n      add\n      mload(0x40)\n      swap1\n      dup2\n      add\n      0x40\n      mstore\n      dup1\n      swap3\n      swap2\n      swap1\n      dup2\n      dup2\n      mstore\n      0x20\n      add\n      dup3\n      dup1\n      sload\n      tag_167\n      swap1\n      tag_139\n      jump\t// in\n    tag_167:\n      dup1\n      iszero\n      tag_168\n      jumpi\n      dup1\n      0x1f\n      lt\n      tag_169\n      jumpi\n      0x0100\n      dup1\n      dup4\n      sload\n      div\n      mul\n      dup4\n      mstore\n      swap2\n      0x20\n      add\n      swap2\n      jump(tag_168)\n    tag_169:\n      dup3\n      add\n      swap2\n      swap1\n      0x00\n      mstore\n      keccak256(0x00, 0x20)\n      swap1\n    tag_170:\n      dup2\n      sload\n      dup2\n      mstore\n      swap1\n      0x01\n      add\n      swap1\n      0x20\n      add\n      dup1\n      dup4\n      gt\n      tag_170\n      jumpi\n      dup3\n      swap1\n      sub\n      0x1f\n      and\n      dup3\n      add\n      swap2\n    tag_168:\n      pop\n      pop\n      pop\n      pop\n      pop\n      swap1\n      dup1\n      0x01\n      add\n      dup1\n      sload\n      tag_171\n      swap1\n      tag_139\n      jump\t// in\n    tag_171:\n      dup1\n      0x1f\n      add\n      0x20\n      dup1\n      swap2\n      div\n      mul\n      0x20\n      add\n      mload(0x40)\n      swap1\n      dup2\n      add\n      0x40\n      mstore\n      dup1\n      swap3\n      swap2\n      swap1\n      dup2\n      dup2\n      mstore\n      0x20\n      add\n      dup3\n      dup1\n      sload\n      tag_172\n      swap1\n      tag_139\n      jump\t// in\n    tag_172:\n      dup1\n      iszero\n      tag_173\n      jumpi\n      dup1\n      0x1f\n      lt\n      tag_174\n      jumpi\n      0x0100\n      dup1\n      dup4\n      sload\n      div\n      mul\n      dup4\n      mstore\n      swap2\n      0x20\n      add\n      swap2\n      jump(tag_173)\n    tag_174:\n      dup3\n      add\n      swap2\n      swap1\n      0x00\n      mstore\n      keccak256(0x00, 0x20)\n      swap1\n    tag_175:\n      dup2\n      sload\n      dup2\n      mstore\n      swap1\n      0x01\n      add\n      swap1\n      0x20\n      add\n      dup1\n      dup4\n      gt\n      tag_175\n      jumpi\n      dup3\n      swap1\n      sub\n      0x1f\n      and\n      dup3\n      add\n      swap2\n    tag_173:\n      pop\n      pop\n      pop\n      pop\n      pop\n      swap1\n      dup1\n      0x02\n      add\n      dup1\n      sload\n      tag_176\n      swap1\n      tag_139\n      jump\t// in\n    tag_176:\n      dup1\n      0x1f\n      add\n      0x20\n      dup1\n      swap2\n      div\n      mul\n      0x20\n      add\n      mload(0x40)\n      swap1\n      dup2\n      add\n      0x40\n      mstore\n      dup1\n      swap3\n      swap2\n      swap1\n      dup2\n      dup2\n      mstore\n      0x20\n      add\n      dup3\n      dup1\n      sload\n      tag_177\n      swap1\n      tag_139\n      jump\t// in\n    tag_177:\n      dup1\n      iszero\n      tag_178\n      jumpi\n      dup1\n      0x1f\n      lt\n      tag_179\n      jumpi\n      0x0100\n      dup1\n      dup4\n      sload\n      div\n      mul\n      dup4\n      mstore\n      swap2\n      0x20\n      add\n      swap2\n      jump(tag_178)\n    tag_179:\n      dup3\n      add\n      swap2\n      swap1\n      0x00\n      mstore\n      keccak256(0x00, 0x20)\n      swap1\n    tag_180:\n      dup2\n      sload\n      dup2\n      mstore\n      swap1\n      0x01\n      add\n      swap1\n      0x20\n      add\n      dup1\n      dup4\n      gt\n      tag_180\n      jumpi\n      dup3\n      swap1\n      sub\n      0x1f\n      and\n      dup3\n      add\n      swap2\n    tag_178:\n      pop\n      pop\n      pop\n      pop\n      pop\n      swap1\n      dup1\n      0x03\n      add\n      dup1\n      sload\n      tag_181\n      swap1\n      tag_139\n      jump\t// in\n    tag_181:\n      dup1\n      0x1f\n      add\n      0x20\n      dup1\n      swap2\n      div\n      mul\n      0x20\n      add\n      mload(0x40)\n      swap1\n      dup2\n      add\n      0x40\n      mstore\n      dup1\n      swap3\n      swap2\n      swap1\n      dup2\n      dup2\n      mstore\n      0x20\n      add\n      dup3\n      dup1\n      sload\n      tag_182\n      swap1\n      tag_139\n      jump\t// in\n    tag_182:\n      dup1\n      iszero\n      tag_183\n      jumpi\n      dup1\n      0x1f\n      lt\n      tag_184\n      jumpi\n      0x0100\n      dup1\n      dup4\n      sload\n      div\n      mul\n      dup4\n      mstore\n      swap2\n      0x20\n      add\n      swap2\n      jump(tag_183)\n    tag_184:\n      dup3\n      add\n      swap2\n      swap1\n      0x00\n      mstore\n      keccak256(0x00, 0x20)\n      swap1\n    tag_185:\n      dup2\n      sload\n      dup2\n      mstore\n      swap1\n      0x01\n      add\n      swap1\n      0x20\n      add\n      dup1\n      dup4\n      gt\n      tag_185\n      jumpi\n      dup3\n      swap1\n      sub\n      0x1f\n      and\n      dup3\n      add\n      swap2\n    tag_183:\n      pop\n      pop\n      pop\n      pop\n      pop\n      swap1\n      dup1\n      0x04\n      add\n      dup1\n      sload\n      tag_186\n      swap1\n      tag_139\n      jump\t// in\n    tag_186:\n      dup1\n      0x1f\n      add\n      0x20\n      dup1\n      swap2\n      div\n      mul\n      0x20\n      add\n      mload(0x40)\n      swap1\n      dup2\n      add\n      0x40\n      mstore\n      dup1\n      swap3\n      swap2\n      swap1\n      dup2\n      dup2\n      mstore\n      0x20\n      add\n      dup3\n      dup1\n      sload\n      tag_187\n      swap1\n      tag_139\n      jump\t// in\n    tag_187:\n      dup1\n      iszero\n      tag_188\n      jumpi\n      dup1\n      0x1f\n      lt\n      tag_189\n      jumpi\n      0x0100\n      dup1\n      dup4\n      sload\n      div\n      mul\n      dup4\n      mstore\n      swap2\n      0x20\n      add\n      swap2\n      jump(tag_188)\n    tag_189:\n      dup3\n      add\n      swap2\n      swap1\n      0x00\n      mstore\n      keccak256(0x00, 0x20)\n      swap1\n    tag_190:\n      dup2\n      sload\n      dup2\n      mstore\n      swap1\n      0x01\n      add\n      swap1\n      0x20\n      add\n      dup1\n      dup4\n      gt\n      tag_190\n      jumpi\n      dup3\n      swap1\n      sub\n      0x1f\n      and\n      dup3\n      add\n      swap2\n    tag_188:\n      pop\n      pop\n      pop\n      pop\n      pop\n      swap1\n      dup1\n      0x05\n      add\n      dup1\n      sload\n      tag_191\n      swap1\n      tag_139\n      jump\t// in\n    tag_191:\n      dup1\n      0x1f\n      add\n      0x20\n      dup1\n      swap2\n      div\n      mul\n      0x20\n      add\n      mload(0x40)\n      swap1\n      dup2\n      add\n      0x40\n      mstore\n      dup1\n      swap3\n      swap2\n      swap1\n      dup2\n      dup2\n      mstore\n      0x20\n      add\n      dup3\n      dup1\n      sload\n      tag_192\n      swap1\n      tag_139\n      jump\t// in\n    tag_192:\n      dup1\n      iszero\n      tag_193\n      jumpi\n      dup1\n      0x1f\n      lt\n      tag_194\n      jumpi\n      0x0100\n      dup1\n      dup4\n      sload\n      div\n      mul\n      dup4\n      mstore\n      swap2\n      0x20\n      add\n      swap2\n      jump(tag_193)\n    tag_194:\n      dup3\n      add\n      swap2\n      swap1\n      0x00\n      mstore\n      keccak256(0x00, 0x20)\n      swap1\n    tag_195:\n      dup2\n      sload\n      dup2\n      mstore\n      swap1\n      0x01\n      add\n      swap1\n      0x20\n      add\n      dup1\n      dup4\n      gt\n      tag_195\n      jumpi\n      dup3\n      swap1\n      sub\n      0x1f\n      and\n      dup3\n      add\n      swap2\n    tag_193:\n      pop\n      pop\n      pop\n      pop\n      pop\n      swap1\n      dup1\n      0x06\n      add\n      dup1\n      sload\n      tag_196\n      swap1\n      tag_139\n      jump\t// in\n    tag_196:\n      dup1\n      0x1f\n      add\n      0x20\n      dup1\n      swap2\n      div\n      mul\n      0x20\n      add\n      mload(0x40)\n      swap1\n      dup2\n      add\n      0x40\n      mstore\n      dup1\n      swap3\n      swap2\n      swap1\n      dup2\n      dup2\n      mstore\n      0x20\n      add\n      dup3\n      dup1\n      sload\n      tag_197\n      swap1\n      tag_139\n      jump\t// in\n    tag_197:\n      dup1\n      iszero\n      tag_198\n      jumpi\n      dup1\n      0x1f\n      lt\n      tag_199\n      jumpi\n      0x0100\n      dup1\n      dup4\n      sload\n      div\n      mul\n      dup4\n      mstore\n      swap2\n      0x20\n      add\n      swap2\n      jump(tag_198)\n    tag_199:\n      dup3\n      add\n      swap2\n      swap1\n      0x00\n      mstore\n      keccak256(0x00, 0x20)\n      swap1\n    tag_200:\n      dup2\n      sload\n      dup2\n      mstore\n      swap1\n      0x01\n      add\n      swap1\n      0x20\n      add\n      dup1\n      dup4\n      gt\n      tag_200\n      jumpi\n      dup3\n      swap1\n      sub\n      0x1f\n      and\n      dup3\n      add\n      swap2\n    tag_198:\n      pop\n      pop\n      pop\n      pop\n      pop\n      swap1\n      dup1\n      0x07\n      add\n      dup1\n      sload\n      tag_201\n      swap1\n      tag_139\n      jump\t// in\n    tag_201:\n      dup1\n      0x1f\n      add\n      0x20\n      dup1\n      swap2\n      div\n      mul\n      0x20\n      add\n      mload(0x40)\n      swap1\n      dup2\n      add\n      0x40\n      mstore\n      dup1\n      swap3\n      swap2\n      swap1\n      dup2\n      dup2\n      mstore\n      0x20\n      add\n      dup3\n      dup1\n      sload\n      tag_202\n      swap1\n      tag_139\n      jump\t// in\n    tag_202:\n      dup1\n      iszero\n      tag_203\n      jumpi\n      dup1\n      0x1f\n      lt\n      tag_204\n      jumpi\n      0x0100\n      dup1\n      dup4\n      sload\n      div\n      mul\n      dup4\n      mstore\n      swap2\n      0x20\n      add\n      swap2\n      jump(tag_203)\n    tag_204:\n      dup3\n      add\n      swap2\n      swap1\n      0x00\n      mstore\n      keccak256(0x00, 0x20)\n      swap1\n    tag_205:\n      dup2\n      sload\n      dup2\n      mstore\n      swap1\n      0x01\n      add\n      swap1\n      0x20\n      add\n      dup1\n      dup4\n      gt\n      tag_205\n      jumpi\n      dup3\n      swap1\n      sub\n      0x1f\n      and\n      dup3\n      add\n      swap2\n    tag_203:\n      pop\n      pop\n      pop\n      pop\n      pop\n      swap1\n      dup1\n      0x08\n      add\n      dup1\n      sload\n      tag_206\n      swap1\n      tag_139\n      jump\t// in\n    tag_206:\n      dup1\n      0x1f\n      add\n      0x20\n      dup1\n      swap2\n      div\n      mul\n      0x20\n      add\n      mload(0x40)\n      swap1\n      dup2\n      add\n      0x40\n      mstore\n      dup1\n      swap3\n      swap2\n      swap1\n      dup2\n      dup2\n      mstore\n      0x20\n      add\n      dup3\n      dup1\n      sload\n      tag_207\n      swap1\n      tag_139\n      jump\t// in\n    tag_207:\n      dup1\n      iszero\n      tag_208\n      jumpi\n      dup1\n      0x1f\n      lt\n      tag_209\n      jumpi\n      0x0100\n      dup1\n      dup4\n      sload\n      div\n      mul\n      dup4\n      mstore\n      swap2\n      0x20\n      add\n      swap2\n      jump(tag_208)\n    tag_209:\n      dup3\n      add\n      swap2\n      swap1\n      0x00\n      mstore\n      keccak256(0x00, 0x20)\n      swap1\n    tag_210:\n      dup2\n      sload\n      dup2\n      mstore\n      swap1\n      0x01\n      add\n      swap1\n      0x20\n      add\n      dup1\n      dup4\n      gt\n      tag_210\n      jumpi\n      dup3\n      swap1\n      sub\n      0x1f\n      and\n      dup3\n      add\n      swap2\n    tag_208:\n      pop\n      pop\n      pop\n      pop\n      pop\n      swap1\n      dup1\n      0x09\n      add\n      dup1\n      sload\n      tag_211\n      swap1\n      tag_139\n      jump\t// in\n    tag_211:\n      dup1\n      0x1f\n      add\n      0x20\n      dup1\n      swap2\n      div\n      mul\n      0x20\n      add\n      mload(0x40)\n      swap1\n      dup2\n      add\n      0x40\n      mstore\n      dup1\n      swap3\n      swap2\n      swap1\n      dup2\n      dup2\n      mstore\n      0x20\n      add\n      dup3\n      dup1\n      sload\n      tag_212\n      swap1\n      tag_139\n      jump\t// in\n    tag_212:\n      dup1\n      iszero\n      tag_213\n      jumpi\n      dup1\n      0x1f\n      lt\n      tag_214\n      jumpi\n      0x0100\n      dup1\n      dup4\n      sload\n      div\n      mul\n      dup4\n      mstore\n      swap2\n      0x20\n      add\n      swap2\n      jump(tag_213)\n    tag_214:\n      dup3\n      add\n      swap2\n      swap1\n      0x00\n      mstore\n      keccak256(0x00, 0x20)\n      swap1\n    tag_215:\n      dup2\n      sload\n      dup2\n      mstore\n      swap1\n      0x01\n      add\n      swap1\n      0x20\n      add\n      dup1\n      dup4\n      gt\n      tag_215\n      jumpi\n      dup3\n      swap1\n      sub\n      0x1f\n      and\n      dup3\n      add\n      swap2\n    tag_213:\n      pop\n      pop\n      pop\n      pop\n      pop\n      swap1\n      dup1\n      0x0a\n      add\n      dup1\n      sload\n      tag_216\n      swap1\n      tag_139\n      jump\t// in\n    tag_216:\n      dup1\n      0x1f\n      add\n      0x20\n      dup1\n      swap2\n      div\n      mul\n      0x20\n      add\n      mload(0x40)\n      swap1\n      dup2\n      add\n      0x40\n      mstore\n      dup1\n      swap3\n      swap2\n      swap1\n      dup2\n      dup2\n      mstore\n      0x20\n      add\n      dup3\n      dup1\n      sload\n      tag_217\n      swap1\n      tag_139\n      jump\t// in\n    tag_217:\n      dup1\n      iszero\n      tag_218\n      jumpi\n      dup1\n      0x1f\n      lt\n      tag_219\n      jumpi\n      0x0100\n      dup1\n      dup4\n      sload\n      div\n      mul\n      dup4\n      mstore\n      swap2\n      0x20\n      add\n      swap2\n      jump(tag_218)\n    tag_219:\n      dup3\n      add\n      swap2\n      swap1\n      0x00\n      mstore\n      keccak256(0x00, 0x20)\n      swap1\n    tag_220:\n      dup2\n      sload\n      dup2\n      mstore\n      swap1\n      0x01\n      add\n      swap1\n      0x20\n      add\n      dup1\n      dup4\n      gt\n      tag_220\n      jumpi\n      dup3\n      swap1\n      sub\n      0x1f\n      and\n      dup3\n      add\n      swap2\n    tag_218:\n      pop\n      pop\n      pop\n      pop\n      pop\n      swap1\n      dup1\n      0x0b\n      add\n      0x00\n      swap1\n      sload\n      swap1\n      0x0100\n      exp\n      swap1\n      div\n      0xff\n      and\n      swap1\n      pop\n      dup13\n      jump\t// out\n        /* \"Campaign.sol\":1495:1520  Request[] public requests */\n    tag_78:\n      0x02\n      dup2\n      dup2\n      sload\n      dup2\n      lt\n      tag_221\n      jumpi\n      0x00\n      dup1\n      revert\n    tag_221:\n      swap1\n      0x00\n      mstore\n      keccak256(0x00, 0x20)\n      swap1\n      0x08\n      mul\n      add\n      0x00\n      swap2\n      pop\n      swap1\n      pop\n      dup1\n      0x00\n      add\n      dup1\n      sload\n      tag_223\n      swap1\n      tag_139\n      jump\t// in\n    tag_223:\n      dup1\n      0x1f\n      add\n      0x20\n      dup1\n      swap2\n      div\n      mul\n      0x20\n      add\n      mload(0x40)\n      swap1\n      dup2\n      add\n      0x40\n      mstore\n      dup1\n      swap3\n      swap2\n      swap1\n      dup2\n      dup2\n      mstore\n      0x20\n      add\n      dup3\n      dup1\n      sload\n      tag_224\n      swap1\n      tag_139\n      jump\t// in\n    tag_224:\n      dup1\n      iszero\n      tag_225\n      jumpi\n      dup1\n      0x1f\n      lt\n      tag_226\n      jumpi\n      0x0100\n      dup1\n      dup4\n      sload\n      div\n      mul\n      dup4\n      mstore\n      swap2\n      0x20\n      add\n      swap2\n      jump(tag_225)\n    tag_226:\n      dup3\n      add\n      swap2\n      swap1\n      0x00\n      mstore\n      keccak256(0x00, 0x20)\n      swap1\n    tag_227:\n      dup2\n      sload\n      dup2\n      mstore\n      swap1\n      0x01\n      add\n      swap1\n      0x20\n      add\n      dup1\n      dup4\n      gt\n      tag_227\n      jumpi\n      dup3\n      swap1\n      sub\n      0x1f\n      and\n      dup3\n      add\n      swap2\n    tag_225:\n      pop\n      pop\n      pop\n      pop\n      pop\n      swap1\n      dup1\n      0x01\n      add\n      dup1\n      sload\n      tag_228\n      swap1\n      tag_139\n      jump\t// in\n    tag_228:\n      dup1\n      0x1f\n      add\n      0x20\n      dup1\n      swap2\n      div\n      mul\n      0x20\n      add\n      mload(0x40)\n      swap1\n      dup2\n      add\n      0x40\n      mstore\n      dup1\n      swap3\n      swap2\n      swap1\n      dup2\n      dup2\n      mstore\n      0x20\n      add\n      dup3\n      dup1\n      sload\n      tag_229\n      swap1\n      tag_139\n      jump\t// in\n    tag_229:\n      dup1\n      iszero\n      tag_230\n      jumpi\n      dup1\n      0x1f\n      lt\n      tag_231\n      jumpi\n      0x0100\n      dup1\n      dup4\n      sload\n      div\n      mul\n      dup4\n      mstore\n      swap2\n      0x20\n      add\n      swap2\n      jump(tag_230)\n    tag_231:\n      dup3\n      add\n      swap2\n      swap1\n      0x00\n      mstore\n      keccak256(0x00, 0x20)\n      swap1\n    tag_232:\n      dup2\n      sload\n      dup2\n      mstore\n      swap1\n      0x01\n      add\n      swap1\n      0x20\n      add\n      dup1\n      dup4\n      gt\n      tag_232\n      jumpi\n      dup3\n      swap1\n      sub\n      0x1f\n      and\n      dup3\n      add\n      swap2\n    tag_230:\n      pop\n      pop\n      pop\n      pop\n      pop\n      swap1\n      dup1\n      0x02\n      add\n      dup1\n      sload\n      tag_233\n      swap1\n      tag_139\n      jump\t// in\n    tag_233:\n      dup1\n      0x1f\n      add\n      0x20\n      dup1\n      swap2\n      div\n      mul\n      0x20\n      add\n      mload(0x40)\n      swap1\n      dup2\n      add\n      0x40\n      mstore\n      dup1\n      swap3\n      swap2\n      swap1\n      dup2\n      dup2\n      mstore\n      0x20\n      add\n      dup3\n      dup1\n      sload\n      tag_234\n      swap1\n      tag_139\n      jump\t// in\n    tag_234:\n      dup1\n      iszero\n      tag_235\n      jumpi\n      dup1\n      0x1f\n      lt\n      tag_236\n      jumpi\n      0x0100\n      dup1\n      dup4\n      sload\n      div\n      mul\n      dup4\n      mstore\n      swap2\n      0x20\n      add\n      swap2\n      jump(tag_235)\n    tag_236:\n      dup3\n      add\n      swap2\n      swap1\n      0x00\n      mstore\n      keccak256(0x00, 0x20)\n      swap1\n    tag_237:\n      dup2\n      sload\n      dup2\n      mstore\n      swap1\n      0x01\n      add\n      swap1\n      0x20\n      add\n      dup1\n      dup4\n      gt\n      tag_237\n      jumpi\n      dup3\n      swap1\n      sub\n      0x1f\n      and\n      dup3\n      add\n      swap2\n    tag_235:\n      pop\n      pop\n      pop\n      pop\n      pop\n      swap1\n      dup1\n      0x03\n      add\n      sload\n      swap1\n      dup1\n      0x04\n      add\n      dup1\n      sload\n      tag_238\n      swap1\n      tag_139\n      jump\t// in\n    tag_238:\n      dup1\n      0x1f\n      add\n      0x20\n      dup1\n      swap2\n      div\n      mul\n      0x20\n      add\n      mload(0x40)\n      swap1\n      dup2\n      add\n      0x40\n      mstore\n      dup1\n      swap3\n      swap2\n      swap1\n      dup2\n      dup2\n      mstore\n      0x20\n      add\n      dup3\n      dup1\n      sload\n      tag_239\n      swap1\n      tag_139\n      jump\t// in\n    tag_239:\n      dup1\n      iszero\n      tag_240\n      jumpi\n      dup1\n      0x1f\n      lt\n      tag_241\n      jumpi\n      0x0100\n      dup1\n      dup4\n      sload\n      div\n      mul\n      dup4\n      mstore\n      swap2\n      0x20\n      add\n      swap2\n      jump(tag_240)\n    tag_241:\n      dup3\n      add\n      swap2\n      swap1\n      0x00\n      mstore\n      keccak256(0x00, 0x20)\n      swap1\n    tag_242:\n      dup2\n      sload\n      dup2\n      mstore\n      swap1\n      0x01\n      add\n      swap1\n      0x20\n      add\n      dup1\n      dup4\n      gt\n      tag_242\n      jumpi\n      dup3\n      swap1\n      sub\n      0x1f\n      and\n      dup3\n      add\n      swap2\n    tag_240:\n      pop\n      pop\n      pop\n      pop\n      pop\n      swap1\n      dup1\n      0x05\n      add\n      0x00\n      swap1\n      sload\n      swap1\n      0x0100\n      exp\n      swap1\n      div\n      0xffffffffffffffffffffffffffffffffffffffff\n      and\n      swap1\n      dup1\n      0x05\n      add\n      0x14\n      swap1\n      sload\n      swap1\n      0x0100\n      exp\n      swap1\n      div\n      0xff\n      and\n      swap1\n      dup1\n      0x06\n      add\n      sload\n      swap1\n      pop\n      dup9\n      jump\t// out\n        /* \"Campaign.sol\":1642:1668  uint public approversCount */\n    tag_83:\n      sload(0x06)\n      dup2\n      jump\t// out\n        /* \"Campaign.sol\":1556:1587  uint public minimumContribution */\n    tag_87:\n      sload(0x04)\n      dup2\n      jump\t// out\n        /* \"Campaign.sol\":2646:3288  function createSupplierShipment(string memory orderID, string memory logisticsProviderName,string memory shipmentDetails,string memory billOfLanding, string memory deliveryRecipt) public restricted{... */\n    tag_93:\n        /* \"Campaign.sol\":1732:1739  manager */\n      0x03\n      0x00\n      swap1\n      sload\n      swap1\n      0x0100\n      exp\n      swap1\n      div\n      0xffffffffffffffffffffffffffffffffffffffff\n      and\n        /* \"Campaign.sol\":1718:1739  msg.sender == manager */\n      0xffffffffffffffffffffffffffffffffffffffff\n      and\n        /* \"Campaign.sol\":1718:1728  msg.sender */\n      caller\n        /* \"Campaign.sol\":1718:1739  msg.sender == manager */\n      0xffffffffffffffffffffffffffffffffffffffff\n      and\n      eq\n        /* \"Campaign.sol\":1710:1740  require(msg.sender == manager) */\n      tag_244\n      jumpi\n      0x00\n      dup1\n      revert\n    tag_244:\n        /* \"Campaign.sol\":2854:2898  SupplierShipment storage newSupplierShipment */\n      0x00\n        /* \"Campaign.sol\":2901:2918  supplierShipments */\n      dup1\n        /* \"Campaign.sol\":2901:2925  supplierShipments.push() */\n      0x01\n      dup2\n      0x01\n      dup2\n      sload\n      add\n      dup1\n      dup3\n      sstore\n      dup1\n      swap2\n      pop\n      pop\n      sub\n      swap1\n      0x00\n      mstore\n      keccak256(0x00, 0x20)\n      swap1\n      0x06\n      mul\n      add\n        /* \"Campaign.sol\":2854:2925  SupplierShipment storage newSupplierShipment = supplierShipments.push() */\n      swap1\n      pop\n        /* \"Campaign.sol\":2966:2973  orderID */\n      dup6\n        /* \"Campaign.sol\":2936:2955  newSupplierShipment */\n      dup2\n        /* \"Campaign.sol\":2936:2963  newSupplierShipment.orderID */\n      0x00\n      add\n        /* \"Campaign.sol\":2936:2973  newSupplierShipment.orderID = orderID */\n      swap1\n      dup2\n      tag_247\n      swap2\n      swap1\n      tag_131\n      jump\t// in\n    tag_247:\n      pop\n        /* \"Campaign.sol\":3028:3049  logisticsProviderName */\n      dup5\n        /* \"Campaign.sol\":2984:3003  newSupplierShipment */\n      dup2\n        /* \"Campaign.sol\":2984:3025  newSupplierShipment.logisticsProviderName */\n      0x01\n      add\n        /* \"Campaign.sol\":2984:3049  newSupplierShipment.logisticsProviderName = logisticsProviderName */\n      swap1\n      dup2\n      tag_248\n      swap2\n      swap1\n      tag_131\n      jump\t// in\n    tag_248:\n      pop\n        /* \"Campaign.sol\":3089:3094  false */\n      0x00\n        /* \"Campaign.sol\":3060:3079  newSupplierShipment */\n      dup2\n        /* \"Campaign.sol\":3060:3086  newSupplierShipment.status */\n      0x02\n      add\n      0x00\n        /* \"Campaign.sol\":3060:3094  newSupplierShipment.status = false */\n      0x0100\n      exp\n      dup2\n      sload\n      dup2\n      0xff\n      mul\n      not\n      and\n      swap1\n      dup4\n      iszero\n      iszero\n      mul\n      or\n      swap1\n      sstore\n      pop\n        /* \"Campaign.sol\":3143:3158  shipmentDetails */\n      dup4\n        /* \"Campaign.sol\":3105:3124  newSupplierShipment */\n      dup2\n        /* \"Campaign.sol\":3105:3140  newSupplierShipment.shipmentDetails */\n      0x03\n      add\n        /* \"Campaign.sol\":3105:3158  newSupplierShipment.shipmentDetails = shipmentDetails */\n      swap1\n      dup2\n      tag_249\n      swap2\n      swap1\n      tag_131\n      jump\t// in\n    tag_249:\n      pop\n        /* \"Campaign.sol\":3205:3218  billOfLanding */\n      dup3\n        /* \"Campaign.sol\":3169:3188  newSupplierShipment */\n      dup2\n        /* \"Campaign.sol\":3169:3202  newSupplierShipment.billOfLanding */\n      0x04\n      add\n        /* \"Campaign.sol\":3169:3218  newSupplierShipment.billOfLanding = billOfLanding */\n      swap1\n      dup2\n      tag_250\n      swap2\n      swap1\n      tag_131\n      jump\t// in\n    tag_250:\n      pop\n        /* \"Campaign.sol\":3266:3280  deliveryRecipt */\n      dup2\n        /* \"Campaign.sol\":3229:3248  newSupplierShipment */\n      dup2\n        /* \"Campaign.sol\":3229:3263  newSupplierShipment.deliveryRecipt */\n      0x05\n      add\n        /* \"Campaign.sol\":3229:3280  newSupplierShipment.deliveryRecipt = deliveryRecipt */\n      swap1\n      dup2\n      tag_251\n      swap2\n      swap1\n      tag_131\n      jump\t// in\n    tag_251:\n      pop\n        /* \"Campaign.sol\":2843:3288  {... */\n      pop\n        /* \"Campaign.sol\":2646:3288  function createSupplierShipment(string memory orderID, string memory logisticsProviderName,string memory shipmentDetails,string memory billOfLanding, string memory deliveryRecipt) public restricted{... */\n      pop\n      pop\n      pop\n      pop\n      pop\n      jump\t// out\n        /* \"Campaign.sol\":3827:4242  function createManufacturerDelivery(string memory deliveryRecipt, uint index, string memory billNo ) public restricted{... */\n    tag_98:\n        /* \"Campaign.sol\":1732:1739  manager */\n      0x03\n      0x00\n      swap1\n      sload\n      swap1\n      0x0100\n      exp\n      swap1\n      div\n      0xffffffffffffffffffffffffffffffffffffffff\n      and\n        /* \"Campaign.sol\":1718:1739  msg.sender == manager */\n      0xffffffffffffffffffffffffffffffffffffffff\n      and\n        /* \"Campaign.sol\":1718:1728  msg.sender */\n      caller\n        /* \"Campaign.sol\":1718:1739  msg.sender == manager */\n      0xffffffffffffffffffffffffffffffffffffffff\n      and\n      eq\n        /* \"Campaign.sol\":1710:1740  require(msg.sender == manager) */\n      tag_253\n      jumpi\n      0x00\n      dup1\n      revert\n    tag_253:\n        /* \"Campaign.sol\":4055:4094  SupplyChainData storage supplyChainData */\n      0x00\n        /* \"Campaign.sol\":4097:4113  supplyChainDatas */\n      0x01\n        /* \"Campaign.sol\":4114:4119  index */\n      dup4\n        /* \"Campaign.sol\":4097:4120  supplyChainDatas[index] */\n      dup2\n      sload\n      dup2\n      lt\n      tag_255\n      jumpi\n      tag_256\n      tag_115\n      jump\t// in\n    tag_256:\n    tag_255:\n      swap1\n      0x00\n      mstore\n      keccak256(0x00, 0x20)\n      swap1\n      0x0c\n      mul\n      add\n        /* \"Campaign.sol\":4055:4120  SupplyChainData storage supplyChainData = supplyChainDatas[index] */\n      swap1\n      pop\n        /* \"Campaign.sol\":4176:4190  deliveryRecipt */\n      dup4\n        /* \"Campaign.sol\":4143:4158  supplyChainData */\n      dup2\n        /* \"Campaign.sol\":4143:4173  supplyChainData.deliveryRecipt */\n      0x04\n      add\n        /* \"Campaign.sol\":4143:4190  supplyChainData.deliveryRecipt = deliveryRecipt */\n      swap1\n      dup2\n      tag_258\n      swap2\n      swap1\n      tag_131\n      jump\t// in\n    tag_258:\n      pop\n        /* \"Campaign.sol\":4226:4232  billNo */\n      dup2\n        /* \"Campaign.sol\":4201:4216  supplyChainData */\n      dup2\n        /* \"Campaign.sol\":4201:4223  supplyChainData.billNo */\n      0x09\n      add\n        /* \"Campaign.sol\":4201:4232  supplyChainData.billNo = billNo */\n      swap1\n      dup2\n      tag_259\n      swap2\n      swap1\n      tag_131\n      jump\t// in\n    tag_259:\n      pop\n        /* \"Campaign.sol\":3945:4242  {... */\n      pop\n        /* \"Campaign.sol\":3827:4242  function createManufacturerDelivery(string memory deliveryRecipt, uint index, string memory billNo ) public restricted{... */\n      pop\n      pop\n      pop\n      jump\t// out\n        /* \"Campaign.sol\":1896:2060  function contribute() public payable {... */\n    tag_100:\n        /* \"Campaign.sol\":1964:1983  minimumContribution */\n      sload(0x04)\n        /* \"Campaign.sol\":1952:1961  msg.value */\n      callvalue\n        /* \"Campaign.sol\":1952:1983  msg.value > minimumContribution */\n      gt\n        /* \"Campaign.sol\":1944:1984  require(msg.value > minimumContribution) */\n      tag_261\n      jumpi\n      0x00\n      dup1\n      revert\n    tag_261:\n        /* \"Campaign.sol\":2021:2025  true */\n      0x01\n        /* \"Campaign.sol\":1997:2006  approvers */\n      0x05\n        /* \"Campaign.sol\":1997:2018  approvers[msg.sender] */\n      0x00\n        /* \"Campaign.sol\":2007:2017  msg.sender */\n      caller\n        /* \"Campaign.sol\":1997:2018  approvers[msg.sender] */\n      0xffffffffffffffffffffffffffffffffffffffff\n      and\n      0xffffffffffffffffffffffffffffffffffffffff\n      and\n      dup2\n      mstore\n      0x20\n      add\n      swap1\n      dup2\n      mstore\n      0x20\n      add\n      0x00\n      keccak256\n      0x00\n        /* \"Campaign.sol\":1997:2025  approvers[msg.sender] = true */\n      0x0100\n      exp\n      dup2\n      sload\n      dup2\n      0xff\n      mul\n      not\n      and\n      swap1\n      dup4\n      iszero\n      iszero\n      mul\n      or\n      swap1\n      sstore\n      pop\n        /* \"Campaign.sol\":2036:2050  approversCount */\n      0x06\n      0x00\n        /* \"Campaign.sol\":2036:2052  approversCount++ */\n      dup2\n      sload\n      dup1\n      swap3\n      swap2\n      swap1\n      tag_262\n      swap1\n      tag_263\n      jump\t// in\n    tag_262:\n      swap2\n      swap1\n      pop\n      sstore\n      pop\n        /* \"Campaign.sol\":1896:2060  function contribute() public payable {... */\n      jump\t// out\n        /* \"Campaign.sol\":4260:4539  function approveRequest(uint index) public {... */\n    tag_104:\n        /* \"Campaign.sol\":4314:4337  Request storage request */\n      0x00\n        /* \"Campaign.sol\":4340:4348  requests */\n      0x02\n        /* \"Campaign.sol\":4349:4354  index */\n      dup3\n        /* \"Campaign.sol\":4340:4355  requests[index] */\n      dup2\n      sload\n      dup2\n      lt\n      tag_265\n      jumpi\n      tag_266\n      tag_115\n      jump\t// in\n    tag_266:\n    tag_265:\n      swap1\n      0x00\n      mstore\n      keccak256(0x00, 0x20)\n      swap1\n      0x08\n      mul\n      add\n        /* \"Campaign.sol\":4314:4355  Request storage request = requests[index] */\n      swap1\n      pop\n        /* \"Campaign.sol\":4376:4385  approvers */\n      0x05\n        /* \"Campaign.sol\":4376:4397  approvers[msg.sender] */\n      0x00\n        /* \"Campaign.sol\":4386:4396  msg.sender */\n      caller\n        /* \"Campaign.sol\":4376:4397  approvers[msg.sender] */\n      0xffffffffffffffffffffffffffffffffffffffff\n      and\n      0xffffffffffffffffffffffffffffffffffffffff\n      and\n      dup2\n      mstore\n      0x20\n      add\n      swap1\n      dup2\n      mstore\n      0x20\n      add\n      0x00\n      keccak256\n      0x00\n      swap1\n      sload\n      swap1\n      0x0100\n      exp\n      swap1\n      div\n      0xff\n      and\n        /* \"Campaign.sol\":4368:4398  require(approvers[msg.sender]) */\n      tag_268\n      jumpi\n      0x00\n      dup1\n      revert\n    tag_268:\n        /* \"Campaign.sol\":4418:4425  request */\n      dup1\n        /* \"Campaign.sol\":4418:4435  request.approvals */\n      0x07\n      add\n        /* \"Campaign.sol\":4418:4447  request.approvals[msg.sender] */\n      0x00\n        /* \"Campaign.sol\":4436:4446  msg.sender */\n      caller\n        /* \"Campaign.sol\":4418:4447  request.approvals[msg.sender] */\n      0xffffffffffffffffffffffffffffffffffffffff\n      and\n      0xffffffffffffffffffffffffffffffffffffffff\n      and\n      dup2\n      mstore\n      0x20\n      add\n      swap1\n      dup2\n      mstore\n      0x20\n      add\n      0x00\n      keccak256\n      0x00\n      swap1\n      sload\n      swap1\n      0x0100\n      exp\n      swap1\n      div\n      0xff\n      and\n        /* \"Campaign.sol\":4417:4447  !request.approvals[msg.sender] */\n      iszero\n        /* \"Campaign.sol\":4409:4448  require(!request.approvals[msg.sender]) */\n      tag_269\n      jumpi\n      0x00\n      dup1\n      revert\n    tag_269:\n        /* \"Campaign.sol\":4493:4497  true */\n      0x01\n        /* \"Campaign.sol\":4461:4468  request */\n      dup2\n        /* \"Campaign.sol\":4461:4478  request.approvals */\n      0x07\n      add\n        /* \"Campaign.sol\":4461:4490  request.approvals[msg.sender] */\n      0x00\n        /* \"Campaign.sol\":4479:4489  msg.sender */\n      caller\n        /* \"Campaign.sol\":4461:4490  request.approvals[msg.sender] */\n      0xffffffffffffffffffffffffffffffffffffffff\n      and\n      0xffffffffffffffffffffffffffffffffffffffff\n      and\n      dup2\n      mstore\n      0x20\n      add\n      swap1\n      dup2\n      mstore\n      0x20\n      add\n      0x00\n      keccak256\n      0x00\n        /* \"Campaign.sol\":4461:4497  request.approvals[msg.sender] = true */\n      0x0100\n      exp\n      dup2\n      sload\n      dup2\n      0xff\n      mul\n      not\n      and\n      swap1\n      dup4\n      iszero\n      iszero\n      mul\n      or\n      swap1\n      sstore\n      pop\n        /* \"Campaign.sol\":4508:4515  request */\n      dup1\n        /* \"Campaign.sol\":4508:4529  request.approvalCount */\n      0x06\n      add\n      0x00\n        /* \"Campaign.sol\":4508:4531  request.approvalCount++ */\n      dup2\n      sload\n      dup1\n      swap3\n      swap2\n      swap1\n      tag_270\n      swap1\n      tag_263\n      jump\t// in\n    tag_270:\n      swap2\n      swap1\n      pop\n      sstore\n      pop\n        /* \"Campaign.sol\":4303:4539  {... */\n      pop\n        /* \"Campaign.sol\":4260:4539  function approveRequest(uint index) public {... */\n      pop\n      jump\t// out\n        /* \"Campaign.sol\":3298:3819  function createManufacturerInvoice(string memory orderId, string memory manufacturerName,string memory supplierName,string memory invoiceReport) public restricted{... */\n    tag_109:\n        /* \"Campaign.sol\":1732:1739  manager */\n      0x03\n      0x00\n      swap1\n      sload\n      swap1\n      0x0100\n      exp\n      swap1\n      div\n      0xffffffffffffffffffffffffffffffffffffffff\n      and\n        /* \"Campaign.sol\":1718:1739  msg.sender == manager */\n      0xffffffffffffffffffffffffffffffffffffffff\n      and\n        /* \"Campaign.sol\":1718:1728  msg.sender */\n      caller\n        /* \"Campaign.sol\":1718:1739  msg.sender == manager */\n      0xffffffffffffffffffffffffffffffffffffffff\n      and\n      eq\n        /* \"Campaign.sol\":1710:1740  require(msg.sender == manager) */\n      tag_272\n      jumpi\n      0x00\n      dup1\n      revert\n    tag_272:\n        /* \"Campaign.sol\":3471:3513  SupplyChainData storage newSupplyChainData */\n      0x00\n        /* \"Campaign.sol\":3516:3532  supplyChainDatas */\n      0x01\n        /* \"Campaign.sol\":3516:3539  supplyChainDatas.push() */\n      dup1\n      dup2\n      0x01\n      dup2\n      sload\n      add\n      dup1\n      dup3\n      sstore\n      dup1\n      swap2\n      pop\n      pop\n      sub\n      swap1\n      0x00\n      mstore\n      keccak256(0x00, 0x20)\n      swap1\n      0x0c\n      mul\n      add\n        /* \"Campaign.sol\":3471:3539  SupplyChainData storage newSupplyChainData = supplyChainDatas.push() */\n      swap1\n      pop\n        /* \"Campaign.sol\":3579:3586  orderId */\n      dup5\n        /* \"Campaign.sol\":3550:3568  newSupplyChainData */\n      dup2\n        /* \"Campaign.sol\":3550:3576  newSupplyChainData.orderID */\n      0x00\n      add\n        /* \"Campaign.sol\":3550:3586  newSupplyChainData.orderID = orderId */\n      swap1\n      dup2\n      tag_275\n      swap2\n      swap1\n      tag_131\n      jump\t// in\n    tag_275:\n      pop\n        /* \"Campaign.sol\":3635:3651  manufacturerName */\n      dup4\n        /* \"Campaign.sol\":3597:3615  newSupplyChainData */\n      dup2\n        /* \"Campaign.sol\":3597:3632  newSupplyChainData.manufacturerName */\n      0x01\n      add\n        /* \"Campaign.sol\":3597:3651  newSupplyChainData.manufacturerName = manufacturerName */\n      swap1\n      dup2\n      tag_276\n      swap2\n      swap1\n      tag_131\n      jump\t// in\n    tag_276:\n      pop\n        /* \"Campaign.sol\":3696:3708  supplierName */\n      dup3\n        /* \"Campaign.sol\":3662:3680  newSupplyChainData */\n      dup2\n        /* \"Campaign.sol\":3662:3693  newSupplyChainData.supplierName */\n      0x02\n      add\n        /* \"Campaign.sol\":3662:3708  newSupplyChainData.supplierName = supplierName */\n      swap1\n      dup2\n      tag_277\n      swap2\n      swap1\n      tag_131\n      jump\t// in\n    tag_277:\n      pop\n        /* \"Campaign.sol\":3754:3767  invoiceReport */\n      dup2\n        /* \"Campaign.sol\":3719:3737  newSupplyChainData */\n      dup2\n        /* \"Campaign.sol\":3719:3751  newSupplyChainData.invoiceReport */\n      0x03\n      add\n        /* \"Campaign.sol\":3719:3767  newSupplyChainData.invoiceReport = invoiceReport */\n      swap1\n      dup2\n      tag_278\n      swap2\n      swap1\n      tag_131\n      jump\t// in\n    tag_278:\n      pop\n        /* \"Campaign.sol\":3806:3811  false */\n      0x00\n        /* \"Campaign.sol\":3778:3796  newSupplyChainData */\n      dup2\n        /* \"Campaign.sol\":3778:3803  newSupplyChainData.status */\n      0x0b\n      add\n      0x00\n        /* \"Campaign.sol\":3778:3811  newSupplyChainData.status = false */\n      0x0100\n      exp\n      dup2\n      sload\n      dup2\n      0xff\n      mul\n      not\n      and\n      swap1\n      dup4\n      iszero\n      iszero\n      mul\n      or\n      swap1\n      sstore\n      pop\n        /* \"Campaign.sol\":3460:3819  {... */\n      pop\n        /* \"Campaign.sol\":3298:3819  function createManufacturerInvoice(string memory orderId, string memory manufacturerName,string memory supplierName,string memory invoiceReport) public restricted{... */\n      pop\n      pop\n      pop\n      pop\n      jump\t// out\n        /* \"#utility.yul\":7:82   */\n    tag_279:\n        /* \"#utility.yul\":40:46   */\n      0x00\n        /* \"#utility.yul\":73:75   */\n      0x40\n        /* \"#utility.yul\":67:76   */\n      mload\n        /* \"#utility.yul\":57:76   */\n      swap1\n      pop\n        /* \"#utility.yul\":7:82   */\n      swap1\n      jump\t// out\n        /* \"#utility.yul\":88:205   */\n    tag_280:\n        /* \"#utility.yul\":197:198   */\n      0x00\n        /* \"#utility.yul\":194:195   */\n      dup1\n        /* \"#utility.yul\":187:199   */\n      revert\n        /* \"#utility.yul\":211:328   */\n    tag_281:\n        /* \"#utility.yul\":320:321   */\n      0x00\n        /* \"#utility.yul\":317:318   */\n      dup1\n        /* \"#utility.yul\":310:322   */\n      revert\n        /* \"#utility.yul\":334:411   */\n    tag_282:\n        /* \"#utility.yul\":371:378   */\n      0x00\n        /* \"#utility.yul\":400:405   */\n      dup2\n        /* \"#utility.yul\":389:405   */\n      swap1\n      pop\n        /* \"#utility.yul\":334:411   */\n      swap2\n      swap1\n      pop\n      jump\t// out\n        /* \"#utility.yul\":417:539   */\n    tag_283:\n        /* \"#utility.yul\":490:514   */\n      tag_331\n        /* \"#utility.yul\":508:513   */\n      dup2\n        /* \"#utility.yul\":490:514   */\n      tag_282\n      jump\t// in\n    tag_331:\n        /* \"#utility.yul\":483:488   */\n      dup2\n        /* \"#utility.yul\":480:515   */\n      eq\n        /* \"#utility.yul\":470:533   */\n      tag_332\n      jumpi\n        /* \"#utility.yul\":529:530   */\n      0x00\n        /* \"#utility.yul\":526:527   */\n      dup1\n        /* \"#utility.yul\":519:531   */\n      revert\n        /* \"#utility.yul\":470:533   */\n    tag_332:\n        /* \"#utility.yul\":417:539   */\n      pop\n      jump\t// out\n        /* \"#utility.yul\":545:684   */\n    tag_284:\n        /* \"#utility.yul\":591:596   */\n      0x00\n        /* \"#utility.yul\":629:635   */\n      dup2\n        /* \"#utility.yul\":616:636   */\n      calldataload\n        /* \"#utility.yul\":607:636   */\n      swap1\n      pop\n        /* \"#utility.yul\":645:678   */\n      tag_334\n        /* \"#utility.yul\":672:677   */\n      dup2\n        /* \"#utility.yul\":645:678   */\n      tag_283\n      jump\t// in\n    tag_334:\n        /* \"#utility.yul\":545:684   */\n      swap3\n      swap2\n      pop\n      pop\n      jump\t// out\n        /* \"#utility.yul\":690:1019   */\n    tag_26:\n        /* \"#utility.yul\":749:755   */\n      0x00\n        /* \"#utility.yul\":798:800   */\n      0x20\n        /* \"#utility.yul\":786:795   */\n      dup3\n        /* \"#utility.yul\":777:784   */\n      dup5\n        /* \"#utility.yul\":773:796   */\n      sub\n        /* \"#utility.yul\":769:801   */\n      slt\n        /* \"#utility.yul\":766:885   */\n      iszero\n      tag_336\n      jumpi\n        /* \"#utility.yul\":804:883   */\n      tag_337\n      tag_280\n      jump\t// in\n    tag_337:\n        /* \"#utility.yul\":766:885   */\n    tag_336:\n        /* \"#utility.yul\":924:925   */\n      0x00\n        /* \"#utility.yul\":949:1002   */\n      tag_338\n        /* \"#utility.yul\":994:1001   */\n      dup5\n        /* \"#utility.yul\":985:991   */\n      dup3\n        /* \"#utility.yul\":974:983   */\n      dup6\n        /* \"#utility.yul\":970:992   */\n      add\n        /* \"#utility.yul\":949:1002   */\n      tag_284\n      jump\t// in\n    tag_338:\n        /* \"#utility.yul\":939:1002   */\n      swap2\n      pop\n        /* \"#utility.yul\":895:1012   */\n      pop\n        /* \"#utility.yul\":690:1019   */\n      swap3\n      swap2\n      pop\n      pop\n      jump\t// out\n        /* \"#utility.yul\":1025:1151   */\n    tag_285:\n        /* \"#utility.yul\":1062:1069   */\n      0x00\n        /* \"#utility.yul\":1102:1144   */\n      0xffffffffffffffffffffffffffffffffffffffff\n        /* \"#utility.yul\":1095:1100   */\n      dup3\n        /* \"#utility.yul\":1091:1145   */\n      and\n        /* \"#utility.yul\":1080:1145   */\n      swap1\n      pop\n        /* \"#utility.yul\":1025:1151   */\n      swap2\n      swap1\n      pop\n      jump\t// out\n        /* \"#utility.yul\":1157:1253   */\n    tag_286:\n        /* \"#utility.yul\":1194:1201   */\n      0x00\n        /* \"#utility.yul\":1223:1247   */\n      tag_341\n        /* \"#utility.yul\":1241:1246   */\n      dup3\n        /* \"#utility.yul\":1223:1247   */\n      tag_285\n      jump\t// in\n    tag_341:\n        /* \"#utility.yul\":1212:1247   */\n      swap1\n      pop\n        /* \"#utility.yul\":1157:1253   */\n      swap2\n      swap1\n      pop\n      jump\t// out\n        /* \"#utility.yul\":1259:1381   */\n    tag_287:\n        /* \"#utility.yul\":1332:1356   */\n      tag_343\n        /* \"#utility.yul\":1350:1355   */\n      dup2\n        /* \"#utility.yul\":1332:1356   */\n      tag_286\n      jump\t// in\n    tag_343:\n        /* \"#utility.yul\":1325:1330   */\n      dup2\n        /* \"#utility.yul\":1322:1357   */\n      eq\n        /* \"#utility.yul\":1312:1375   */\n      tag_344\n      jumpi\n        /* \"#utility.yul\":1371:1372   */\n      0x00\n        /* \"#utility.yul\":1368:1369   */\n      dup1\n        /* \"#utility.yul\":1361:1373   */\n      revert\n        /* \"#utility.yul\":1312:1375   */\n    tag_344:\n        /* \"#utility.yul\":1259:1381   */\n      pop\n      jump\t// out\n        /* \"#utility.yul\":1387:1526   */\n    tag_288:\n        /* \"#utility.yul\":1433:1438   */\n      0x00\n        /* \"#utility.yul\":1471:1477   */\n      dup2\n        /* \"#utility.yul\":1458:1478   */\n      calldataload\n        /* \"#utility.yul\":1449:1478   */\n      swap1\n      pop\n        /* \"#utility.yul\":1487:1520   */\n      tag_346\n        /* \"#utility.yul\":1514:1519   */\n      dup2\n        /* \"#utility.yul\":1487:1520   */\n      tag_287\n      jump\t// in\n    tag_346:\n        /* \"#utility.yul\":1387:1526   */\n      swap3\n      swap2\n      pop\n      pop\n      jump\t// out\n        /* \"#utility.yul\":1532:1861   */\n    tag_31:\n        /* \"#utility.yul\":1591:1597   */\n      0x00\n        /* \"#utility.yul\":1640:1642   */\n      0x20\n        /* \"#utility.yul\":1628:1637   */\n      dup3\n        /* \"#utility.yul\":1619:1626   */\n      dup5\n        /* \"#utility.yul\":1615:1638   */\n      sub\n        /* \"#utility.yul\":1611:1643   */\n      slt\n        /* \"#utility.yul\":1608:1727   */\n      iszero\n      tag_348\n      jumpi\n        /* \"#utility.yul\":1646:1725   */\n      tag_349\n      tag_280\n      jump\t// in\n    tag_349:\n        /* \"#utility.yul\":1608:1727   */\n    tag_348:\n        /* \"#utility.yul\":1766:1767   */\n      0x00\n        /* \"#utility.yul\":1791:1844   */\n      tag_350\n        /* \"#utility.yul\":1836:1843   */\n      dup5\n        /* \"#utility.yul\":1827:1833   */\n      dup3\n        /* \"#utility.yul\":1816:1825   */\n      dup6\n        /* \"#utility.yul\":1812:1834   */\n      add\n        /* \"#utility.yul\":1791:1844   */\n      tag_288\n      jump\t// in\n    tag_350:\n        /* \"#utility.yul\":1781:1844   */\n      swap2\n      pop\n        /* \"#utility.yul\":1737:1854   */\n      pop\n        /* \"#utility.yul\":1532:1861   */\n      swap3\n      swap2\n      pop\n      pop\n      jump\t// out\n        /* \"#utility.yul\":1867:1957   */\n    tag_289:\n        /* \"#utility.yul\":1901:1908   */\n      0x00\n        /* \"#utility.yul\":1944:1949   */\n      dup2\n        /* \"#utility.yul\":1937:1950   */\n      iszero\n        /* \"#utility.yul\":1930:1951   */\n      iszero\n        /* \"#utility.yul\":1919:1951   */\n      swap1\n      pop\n        /* \"#utility.yul\":1867:1957   */\n      swap2\n      swap1\n      pop\n      jump\t// out\n        /* \"#utility.yul\":1963:2072   */\n    tag_290:\n        /* \"#utility.yul\":2044:2065   */\n      tag_353\n        /* \"#utility.yul\":2059:2064   */\n      dup2\n        /* \"#utility.yul\":2044:2065   */\n      tag_289\n      jump\t// in\n    tag_353:\n        /* \"#utility.yul\":2039:2042   */\n      dup3\n        /* \"#utility.yul\":2032:2066   */\n      mstore\n        /* \"#utility.yul\":1963:2072   */\n      pop\n      pop\n      jump\t// out\n        /* \"#utility.yul\":2078:2288   */\n    tag_34:\n        /* \"#utility.yul\":2165:2169   */\n      0x00\n        /* \"#utility.yul\":2203:2205   */\n      0x20\n        /* \"#utility.yul\":2192:2201   */\n      dup3\n        /* \"#utility.yul\":2188:2206   */\n      add\n        /* \"#utility.yul\":2180:2206   */\n      swap1\n      pop\n        /* \"#utility.yul\":2216:2281   */\n      tag_355\n        /* \"#utility.yul\":2278:2279   */\n      0x00\n        /* \"#utility.yul\":2267:2276   */\n      dup4\n        /* \"#utility.yul\":2263:2280   */\n      add\n        /* \"#utility.yul\":2254:2260   */\n      dup5\n        /* \"#utility.yul\":2216:2281   */\n      tag_290\n      jump\t// in\n    tag_355:\n        /* \"#utility.yul\":2078:2288   */\n      swap3\n      swap2\n      pop\n      pop\n      jump\t// out\n        /* \"#utility.yul\":2294:2412   */\n    tag_291:\n        /* \"#utility.yul\":2381:2405   */\n      tag_357\n        /* \"#utility.yul\":2399:2404   */\n      dup2\n        /* \"#utility.yul\":2381:2405   */\n      tag_282\n      jump\t// in\n    tag_357:\n        /* \"#utility.yul\":2376:2379   */\n      dup3\n        /* \"#utility.yul\":2369:2406   */\n      mstore\n        /* \"#utility.yul\":2294:2412   */\n      pop\n      pop\n      jump\t// out\n        /* \"#utility.yul\":2418:2640   */\n    tag_39:\n        /* \"#utility.yul\":2511:2515   */\n      0x00\n        /* \"#utility.yul\":2549:2551   */\n      0x20\n        /* \"#utility.yul\":2538:2547   */\n      dup3\n        /* \"#utility.yul\":2534:2552   */\n      add\n        /* \"#utility.yul\":2526:2552   */\n      swap1\n      pop\n        /* \"#utility.yul\":2562:2633   */\n      tag_359\n        /* \"#utility.yul\":2630:2631   */\n      0x00\n        /* \"#utility.yul\":2619:2628   */\n      dup4\n        /* \"#utility.yul\":2615:2632   */\n      add\n        /* \"#utility.yul\":2606:2612   */\n      dup5\n        /* \"#utility.yul\":2562:2633   */\n      tag_291\n      jump\t// in\n    tag_359:\n        /* \"#utility.yul\":2418:2640   */\n      swap3\n      swap2\n      pop\n      pop\n      jump\t// out\n        /* \"#utility.yul\":2646:2764   */\n    tag_292:\n        /* \"#utility.yul\":2733:2757   */\n      tag_361\n        /* \"#utility.yul\":2751:2756   */\n      dup2\n        /* \"#utility.yul\":2733:2757   */\n      tag_286\n      jump\t// in\n    tag_361:\n        /* \"#utility.yul\":2728:2731   */\n      dup3\n        /* \"#utility.yul\":2721:2758   */\n      mstore\n        /* \"#utility.yul\":2646:2764   */\n      pop\n      pop\n      jump\t// out\n        /* \"#utility.yul\":2770:3434   */\n    tag_48:\n        /* \"#utility.yul\":2975:2979   */\n      0x00\n        /* \"#utility.yul\":3013:3016   */\n      0xa0\n        /* \"#utility.yul\":3002:3011   */\n      dup3\n        /* \"#utility.yul\":2998:3017   */\n      add\n        /* \"#utility.yul\":2990:3017   */\n      swap1\n      pop\n        /* \"#utility.yul\":3027:3098   */\n      tag_363\n        /* \"#utility.yul\":3095:3096   */\n      0x00\n        /* \"#utility.yul\":3084:3093   */\n      dup4\n        /* \"#utility.yul\":3080:3097   */\n      add\n        /* \"#utility.yul\":3071:3077   */\n      dup9\n        /* \"#utility.yul\":3027:3098   */\n      tag_291\n      jump\t// in\n    tag_363:\n        /* \"#utility.yul\":3108:3180   */\n      tag_364\n        /* \"#utility.yul\":3176:3178   */\n      0x20\n        /* \"#utility.yul\":3165:3174   */\n      dup4\n        /* \"#utility.yul\":3161:3179   */\n      add\n        /* \"#utility.yul\":3152:3158   */\n      dup8\n        /* \"#utility.yul\":3108:3180   */\n      tag_291\n      jump\t// in\n    tag_364:\n        /* \"#utility.yul\":3190:3262   */\n      tag_365\n        /* \"#utility.yul\":3258:3260   */\n      0x40\n        /* \"#utility.yul\":3247:3256   */\n      dup4\n        /* \"#utility.yul\":3243:3261   */\n      add\n        /* \"#utility.yul\":3234:3240   */\n      dup7\n        /* \"#utility.yul\":3190:3262   */\n      tag_291\n      jump\t// in\n    tag_365:\n        /* \"#utility.yul\":3272:3344   */\n      tag_366\n        /* \"#utility.yul\":3340:3342   */\n      0x60\n        /* \"#utility.yul\":3329:3338   */\n      dup4\n        /* \"#utility.yul\":3325:3343   */\n      add\n        /* \"#utility.yul\":3316:3322   */\n      dup6\n        /* \"#utility.yul\":3272:3344   */\n      tag_291\n      jump\t// in\n    tag_366:\n        /* \"#utility.yul\":3354:3427   */\n      tag_367\n        /* \"#utility.yul\":3422:3425   */\n      0x80\n        /* \"#utility.yul\":3411:3420   */\n      dup4\n        /* \"#utility.yul\":3407:3426   */\n      add\n        /* \"#utility.yul\":3398:3404   */\n      dup5\n        /* \"#utility.yul\":3354:3427   */\n      tag_292\n      jump\t// in\n    tag_367:\n        /* \"#utility.yul\":2770:3434   */\n      swap7\n      swap6\n      pop\n      pop\n      pop\n      pop\n      pop\n      pop\n      jump\t// out\n        /* \"#utility.yul\":3440:3662   */\n    tag_53:\n        /* \"#utility.yul\":3533:3537   */\n      0x00\n        /* \"#utility.yul\":3571:3573   */\n      0x20\n        /* \"#utility.yul\":3560:3569   */\n      dup3\n        /* \"#utility.yul\":3556:3574   */\n      add\n        /* \"#utility.yul\":3548:3574   */\n      swap1\n      pop\n        /* \"#utility.yul\":3584:3655   */\n      tag_369\n        /* \"#utility.yul\":3652:3653   */\n      0x00\n        /* \"#utility.yul\":3641:3650   */\n      dup4\n        /* \"#utility.yul\":3637:3654   */\n      add\n        /* \"#utility.yul\":3628:3634   */\n      dup5\n        /* \"#utility.yul\":3584:3655   */\n      tag_292\n      jump\t// in\n    tag_369:\n        /* \"#utility.yul\":3440:3662   */\n      swap3\n      swap2\n      pop\n      pop\n      jump\t// out\n        /* \"#utility.yul\":3668:3785   */\n    tag_293:\n        /* \"#utility.yul\":3777:3778   */\n      0x00\n        /* \"#utility.yul\":3774:3775   */\n      dup1\n        /* \"#utility.yul\":3767:3779   */\n      revert\n        /* \"#utility.yul\":3791:3908   */\n    tag_294:\n        /* \"#utility.yul\":3900:3901   */\n      0x00\n        /* \"#utility.yul\":3897:3898   */\n      dup1\n        /* \"#utility.yul\":3890:3902   */\n      revert\n        /* \"#utility.yul\":3914:4016   */\n    tag_295:\n        /* \"#utility.yul\":3955:3961   */\n      0x00\n        /* \"#utility.yul\":4006:4008   */\n      0x1f\n        /* \"#utility.yul\":4002:4009   */\n      not\n        /* \"#utility.yul\":3997:3999   */\n      0x1f\n        /* \"#utility.yul\":3990:3995   */\n      dup4\n        /* \"#utility.yul\":3986:4000   */\n      add\n        /* \"#utility.yul\":3982:4010   */\n      and\n        /* \"#utility.yul\":3972:4010   */\n      swap1\n      pop\n        /* \"#utility.yul\":3914:4016   */\n      swap2\n      swap1\n      pop\n      jump\t// out\n        /* \"#utility.yul\":4022:4202   */\n    tag_296:\n        /* \"#utility.yul\":4070:4147   */\n      0x4e487b7100000000000000000000000000000000000000000000000000000000\n        /* \"#utility.yul\":4067:4068   */\n      0x00\n        /* \"#utility.yul\":4060:4148   */\n      mstore\n        /* \"#utility.yul\":4167:4171   */\n      0x41\n        /* \"#utility.yul\":4164:4165   */\n      0x04\n        /* \"#utility.yul\":4157:4172   */\n      mstore\n        /* \"#utility.yul\":4191:4195   */\n      0x24\n        /* \"#utility.yul\":4188:4189   */\n      0x00\n        /* \"#utility.yul\":4181:4196   */\n      revert\n        /* \"#utility.yul\":4208:4489   */\n    tag_297:\n        /* \"#utility.yul\":4291:4318   */\n      tag_375\n        /* \"#utility.yul\":4313:4317   */\n      dup3\n        /* \"#utility.yul\":4291:4318   */\n      tag_295\n      jump\t// in\n    tag_375:\n        /* \"#utility.yul\":4283:4289   */\n      dup2\n        /* \"#utility.yul\":4279:4319   */\n      add\n        /* \"#utility.yul\":4421:4427   */\n      dup2\n        /* \"#utility.yul\":4409:4419   */\n      dup2\n        /* \"#utility.yul\":4406:4428   */\n      lt\n        /* \"#utility.yul\":4385:4403   */\n      0xffffffffffffffff\n        /* \"#utility.yul\":4373:4383   */\n      dup3\n        /* \"#utility.yul\":4370:4404   */\n      gt\n        /* \"#utility.yul\":4367:4429   */\n      or\n        /* \"#utility.yul\":4364:4452   */\n      iszero\n      tag_376\n      jumpi\n        /* \"#utility.yul\":4432:4450   */\n      tag_377\n      tag_296\n      jump\t// in\n    tag_377:\n        /* \"#utility.yul\":4364:4452   */\n    tag_376:\n        /* \"#utility.yul\":4472:4482   */\n      dup1\n        /* \"#utility.yul\":4468:4470   */\n      0x40\n        /* \"#utility.yul\":4461:4483   */\n      mstore\n        /* \"#utility.yul\":4251:4489   */\n      pop\n        /* \"#utility.yul\":4208:4489   */\n      pop\n      pop\n      jump\t// out\n        /* \"#utility.yul\":4495:4624   */\n    tag_298:\n        /* \"#utility.yul\":4529:4535   */\n      0x00\n        /* \"#utility.yul\":4556:4576   */\n      tag_379\n      tag_279\n      jump\t// in\n    tag_379:\n        /* \"#utility.yul\":4546:4576   */\n      swap1\n      pop\n        /* \"#utility.yul\":4585:4618   */\n      tag_380\n        /* \"#utility.yul\":4613:4617   */\n      dup3\n        /* \"#utility.yul\":4605:4611   */\n      dup3\n        /* \"#utility.yul\":4585:4618   */\n      tag_297\n      jump\t// in\n    tag_380:\n        /* \"#utility.yul\":4495:4624   */\n      swap2\n      swap1\n      pop\n      jump\t// out\n        /* \"#utility.yul\":4630:4938   */\n    tag_299:\n        /* \"#utility.yul\":4692:4696   */\n      0x00\n        /* \"#utility.yul\":4782:4800   */\n      0xffffffffffffffff\n        /* \"#utility.yul\":4774:4780   */\n      dup3\n        /* \"#utility.yul\":4771:4801   */\n      gt\n        /* \"#utility.yul\":4768:4824   */\n      iszero\n      tag_382\n      jumpi\n        /* \"#utility.yul\":4804:4822   */\n      tag_383\n      tag_296\n      jump\t// in\n    tag_383:\n        /* \"#utility.yul\":4768:4824   */\n    tag_382:\n        /* \"#utility.yul\":4842:4871   */\n      tag_384\n        /* \"#utility.yul\":4864:4870   */\n      dup3\n        /* \"#utility.yul\":4842:4871   */\n      tag_295\n      jump\t// in\n    tag_384:\n        /* \"#utility.yul\":4834:4871   */\n      swap1\n      pop\n        /* \"#utility.yul\":4926:4930   */\n      0x20\n        /* \"#utility.yul\":4920:4924   */\n      dup2\n        /* \"#utility.yul\":4916:4931   */\n      add\n        /* \"#utility.yul\":4908:4931   */\n      swap1\n      pop\n        /* \"#utility.yul\":4630:4938   */\n      swap2\n      swap1\n      pop\n      jump\t// out\n        /* \"#utility.yul\":4944:5090   */\n    tag_300:\n        /* \"#utility.yul\":5041:5047   */\n      dup3\n        /* \"#utility.yul\":5036:5039   */\n      dup2\n        /* \"#utility.yul\":5031:5034   */\n      dup4\n        /* \"#utility.yul\":5018:5048   */\n      calldatacopy\n        /* \"#utility.yul\":5082:5083   */\n      0x00\n        /* \"#utility.yul\":5073:5079   */\n      dup4\n        /* \"#utility.yul\":5068:5071   */\n      dup4\n        /* \"#utility.yul\":5064:5080   */\n      add\n        /* \"#utility.yul\":5057:5084   */\n      mstore\n        /* \"#utility.yul\":4944:5090   */\n      pop\n      pop\n      pop\n      jump\t// out\n        /* \"#utility.yul\":5096:5521   */\n    tag_301:\n        /* \"#utility.yul\":5174:5179   */\n      0x00\n        /* \"#utility.yul\":5199:5265   */\n      tag_387\n        /* \"#utility.yul\":5215:5264   */\n      tag_388\n        /* \"#utility.yul\":5257:5263   */\n      dup5\n        /* \"#utility.yul\":5215:5264   */\n      tag_299\n      jump\t// in\n    tag_388:\n        /* \"#utility.yul\":5199:5265   */\n      tag_298\n      jump\t// in\n    tag_387:\n        /* \"#utility.yul\":5190:5265   */\n      swap1\n      pop\n        /* \"#utility.yul\":5288:5294   */\n      dup3\n        /* \"#utility.yul\":5281:5286   */\n      dup2\n        /* \"#utility.yul\":5274:5295   */\n      mstore\n        /* \"#utility.yul\":5326:5330   */\n      0x20\n        /* \"#utility.yul\":5319:5324   */\n      dup2\n        /* \"#utility.yul\":5315:5331   */\n      add\n        /* \"#utility.yul\":5364:5367   */\n      dup5\n        /* \"#utility.yul\":5355:5361   */\n      dup5\n        /* \"#utility.yul\":5350:5353   */\n      dup5\n        /* \"#utility.yul\":5346:5362   */\n      add\n        /* \"#utility.yul\":5343:5368   */\n      gt\n        /* \"#utility.yul\":5340:5452   */\n      iszero\n      tag_389\n      jumpi\n        /* \"#utility.yul\":5371:5450   */\n      tag_390\n      tag_294\n      jump\t// in\n    tag_390:\n        /* \"#utility.yul\":5340:5452   */\n    tag_389:\n        /* \"#utility.yul\":5461:5515   */\n      tag_391\n        /* \"#utility.yul\":5508:5514   */\n      dup5\n        /* \"#utility.yul\":5503:5506   */\n      dup3\n        /* \"#utility.yul\":5498:5501   */\n      dup6\n        /* \"#utility.yul\":5461:5515   */\n      tag_300\n      jump\t// in\n    tag_391:\n        /* \"#utility.yul\":5180:5521   */\n      pop\n        /* \"#utility.yul\":5096:5521   */\n      swap4\n      swap3\n      pop\n      pop\n      pop\n      jump\t// out\n        /* \"#utility.yul\":5541:5881   */\n    tag_302:\n        /* \"#utility.yul\":5597:5602   */\n      0x00\n        /* \"#utility.yul\":5646:5649   */\n      dup3\n        /* \"#utility.yul\":5639:5643   */\n      0x1f\n        /* \"#utility.yul\":5631:5637   */\n      dup4\n        /* \"#utility.yul\":5627:5644   */\n      add\n        /* \"#utility.yul\":5623:5650   */\n      slt\n        /* \"#utility.yul\":5613:5735   */\n      tag_393\n      jumpi\n        /* \"#utility.yul\":5654:5733   */\n      tag_394\n      tag_293\n      jump\t// in\n    tag_394:\n        /* \"#utility.yul\":5613:5735   */\n    tag_393:\n        /* \"#utility.yul\":5771:5777   */\n      dup2\n        /* \"#utility.yul\":5758:5778   */\n      calldataload\n        /* \"#utility.yul\":5796:5875   */\n      tag_395\n        /* \"#utility.yul\":5871:5874   */\n      dup5\n        /* \"#utility.yul\":5863:5869   */\n      dup3\n        /* \"#utility.yul\":5856:5860   */\n      0x20\n        /* \"#utility.yul\":5848:5854   */\n      dup7\n        /* \"#utility.yul\":5844:5861   */\n      add\n        /* \"#utility.yul\":5796:5875   */\n      tag_301\n      jump\t// in\n    tag_395:\n        /* \"#utility.yul\":5787:5875   */\n      swap2\n      pop\n        /* \"#utility.yul\":5603:5881   */\n      pop\n        /* \"#utility.yul\":5541:5881   */\n      swap3\n      swap2\n      pop\n      pop\n      jump\t// out\n        /* \"#utility.yul\":5887:7664   */\n    tag_57:\n        /* \"#utility.yul\":6031:6037   */\n      0x00\n        /* \"#utility.yul\":6039:6045   */\n      dup1\n        /* \"#utility.yul\":6047:6053   */\n      0x00\n        /* \"#utility.yul\":6055:6061   */\n      dup1\n        /* \"#utility.yul\":6063:6069   */\n      0x00\n        /* \"#utility.yul\":6071:6077   */\n      dup1\n        /* \"#utility.yul\":6120:6123   */\n      0xc0\n        /* \"#utility.yul\":6108:6117   */\n      dup8\n        /* \"#utility.yul\":6099:6106   */\n      dup10\n        /* \"#utility.yul\":6095:6118   */\n      sub\n        /* \"#utility.yul\":6091:6124   */\n      slt\n        /* \"#utility.yul\":6088:6208   */\n      iszero\n      tag_397\n      jumpi\n        /* \"#utility.yul\":6127:6206   */\n      tag_398\n      tag_280\n      jump\t// in\n    tag_398:\n        /* \"#utility.yul\":6088:6208   */\n    tag_397:\n        /* \"#utility.yul\":6275:6276   */\n      0x00\n        /* \"#utility.yul\":6264:6273   */\n      dup8\n        /* \"#utility.yul\":6260:6277   */\n      add\n        /* \"#utility.yul\":6247:6278   */\n      calldataload\n        /* \"#utility.yul\":6305:6323   */\n      0xffffffffffffffff\n        /* \"#utility.yul\":6297:6303   */\n      dup2\n        /* \"#utility.yul\":6294:6324   */\n      gt\n        /* \"#utility.yul\":6291:6408   */\n      iszero\n      tag_399\n      jumpi\n        /* \"#utility.yul\":6327:6406   */\n      tag_400\n      tag_281\n      jump\t// in\n    tag_400:\n        /* \"#utility.yul\":6291:6408   */\n    tag_399:\n        /* \"#utility.yul\":6432:6495   */\n      tag_401\n        /* \"#utility.yul\":6487:6494   */\n      dup10\n        /* \"#utility.yul\":6478:6484   */\n      dup3\n        /* \"#utility.yul\":6467:6476   */\n      dup11\n        /* \"#utility.yul\":6463:6485   */\n      add\n        /* \"#utility.yul\":6432:6495   */\n      tag_302\n      jump\t// in\n    tag_401:\n        /* \"#utility.yul\":6422:6495   */\n      swap7\n      pop\n        /* \"#utility.yul\":6218:6505   */\n      pop\n        /* \"#utility.yul\":6572:6574   */\n      0x20\n        /* \"#utility.yul\":6561:6570   */\n      dup8\n        /* \"#utility.yul\":6557:6575   */\n      add\n        /* \"#utility.yul\":6544:6576   */\n      calldataload\n        /* \"#utility.yul\":6603:6621   */\n      0xffffffffffffffff\n        /* \"#utility.yul\":6595:6601   */\n      dup2\n        /* \"#utility.yul\":6592:6622   */\n      gt\n        /* \"#utility.yul\":6589:6706   */\n      iszero\n      tag_402\n      jumpi\n        /* \"#utility.yul\":6625:6704   */\n      tag_403\n      tag_281\n      jump\t// in\n    tag_403:\n        /* \"#utility.yul\":6589:6706   */\n    tag_402:\n        /* \"#utility.yul\":6730:6793   */\n      tag_404\n        /* \"#utility.yul\":6785:6792   */\n      dup10\n        /* \"#utility.yul\":6776:6782   */\n      dup3\n        /* \"#utility.yul\":6765:6774   */\n      dup11\n        /* \"#utility.yul\":6761:6783   */\n      add\n        /* \"#utility.yul\":6730:6793   */\n      tag_302\n      jump\t// in\n    tag_404:\n        /* \"#utility.yul\":6720:6793   */\n      swap6\n      pop\n        /* \"#utility.yul\":6515:6803   */\n      pop\n        /* \"#utility.yul\":6870:6872   */\n      0x40\n        /* \"#utility.yul\":6859:6868   */\n      dup8\n        /* \"#utility.yul\":6855:6873   */\n      add\n        /* \"#utility.yul\":6842:6874   */\n      calldataload\n        /* \"#utility.yul\":6901:6919   */\n      0xffffffffffffffff\n        /* \"#utility.yul\":6893:6899   */\n      dup2\n        /* \"#utility.yul\":6890:6920   */\n      gt\n        /* \"#utility.yul\":6887:7004   */\n      iszero\n      tag_405\n      jumpi\n        /* \"#utility.yul\":6923:7002   */\n      tag_406\n      tag_281\n      jump\t// in\n    tag_406:\n        /* \"#utility.yul\":6887:7004   */\n    tag_405:\n        /* \"#utility.yul\":7028:7091   */\n      tag_407\n        /* \"#utility.yul\":7083:7090   */\n      dup10\n        /* \"#utility.yul\":7074:7080   */\n      dup3\n        /* \"#utility.yul\":7063:7072   */\n      dup11\n        /* \"#utility.yul\":7059:7081   */\n      add\n        /* \"#utility.yul\":7028:7091   */\n      tag_302\n      jump\t// in\n    tag_407:\n        /* \"#utility.yul\":7018:7091   */\n      swap5\n      pop\n        /* \"#utility.yul\":6813:7101   */\n      pop\n        /* \"#utility.yul\":7140:7142   */\n      0x60\n        /* \"#utility.yul\":7166:7219   */\n      tag_408\n        /* \"#utility.yul\":7211:7218   */\n      dup10\n        /* \"#utility.yul\":7202:7208   */\n      dup3\n        /* \"#utility.yul\":7191:7200   */\n      dup11\n        /* \"#utility.yul\":7187:7209   */\n      add\n        /* \"#utility.yul\":7166:7219   */\n      tag_284\n      jump\t// in\n    tag_408:\n        /* \"#utility.yul\":7156:7219   */\n      swap4\n      pop\n        /* \"#utility.yul\":7111:7229   */\n      pop\n        /* \"#utility.yul\":7296:7299   */\n      0x80\n        /* \"#utility.yul\":7285:7294   */\n      dup8\n        /* \"#utility.yul\":7281:7300   */\n      add\n        /* \"#utility.yul\":7268:7301   */\n      calldataload\n        /* \"#utility.yul\":7328:7346   */\n      0xffffffffffffffff\n        /* \"#utility.yul\":7320:7326   */\n      dup2\n        /* \"#utility.yul\":7317:7347   */\n      gt\n        /* \"#utility.yul\":7314:7431   */\n      iszero\n      tag_409\n      jumpi\n        /* \"#utility.yul\":7350:7429   */\n      tag_410\n      tag_281\n      jump\t// in\n    tag_410:\n        /* \"#utility.yul\":7314:7431   */\n    tag_409:\n        /* \"#utility.yul\":7455:7518   */\n      tag_411\n        /* \"#utility.yul\":7510:7517   */\n      dup10\n        /* \"#utility.yul\":7501:7507   */\n      dup3\n        /* \"#utility.yul\":7490:7499   */\n      dup11\n        /* \"#utility.yul\":7486:7508   */\n      add\n        /* \"#utility.yul\":7455:7518   */\n      tag_302\n      jump\t// in\n    tag_411:\n        /* \"#utility.yul\":7445:7518   */\n      swap3\n      pop\n        /* \"#utility.yul\":7239:7528   */\n      pop\n        /* \"#utility.yul\":7567:7570   */\n      0xa0\n        /* \"#utility.yul\":7594:7647   */\n      tag_412\n        /* \"#utility.yul\":7639:7646   */\n      dup10\n        /* \"#utility.yul\":7630:7636   */\n      dup3\n        /* \"#utility.yul\":7619:7628   */\n      dup11\n        /* \"#utility.yul\":7615:7637   */\n      add\n        /* \"#utility.yul\":7594:7647   */\n      tag_288\n      jump\t// in\n    tag_412:\n        /* \"#utility.yul\":7584:7647   */\n      swap2\n      pop\n        /* \"#utility.yul\":7538:7657   */\n      pop\n        /* \"#utility.yul\":5887:7664   */\n      swap3\n      swap6\n      pop\n      swap3\n      swap6\n      pop\n      swap3\n      swap6\n      jump\t// out\n        /* \"#utility.yul\":7670:7769   */\n    tag_303:\n        /* \"#utility.yul\":7722:7728   */\n      0x00\n        /* \"#utility.yul\":7756:7761   */\n      dup2\n        /* \"#utility.yul\":7750:7762   */\n      mload\n        /* \"#utility.yul\":7740:7762   */\n      swap1\n      pop\n        /* \"#utility.yul\":7670:7769   */\n      swap2\n      swap1\n      pop\n      jump\t// out\n        /* \"#utility.yul\":7775:7944   */\n    tag_304:\n        /* \"#utility.yul\":7859:7870   */\n      0x00\n        /* \"#utility.yul\":7893:7899   */\n      dup3\n        /* \"#utility.yul\":7888:7891   */\n      dup3\n        /* \"#utility.yul\":7881:7900   */\n      mstore\n        /* \"#utility.yul\":7933:7937   */\n      0x20\n        /* \"#utility.yul\":7928:7931   */\n      dup3\n        /* \"#utility.yul\":7924:7938   */\n      add\n        /* \"#utility.yul\":7909:7938   */\n      swap1\n      pop\n        /* \"#utility.yul\":7775:7944   */\n      swap3\n      swap2\n      pop\n      pop\n      jump\t// out\n        /* \"#utility.yul\":7950:8196   */\n    tag_305:\n        /* \"#utility.yul\":8031:8032   */\n      0x00\n        /* \"#utility.yul\":8041:8154   */\n    tag_416:\n        /* \"#utility.yul\":8055:8061   */\n      dup4\n        /* \"#utility.yul\":8052:8053   */\n      dup2\n        /* \"#utility.yul\":8049:8062   */\n      lt\n        /* \"#utility.yul\":8041:8154   */\n      iszero\n      tag_418\n      jumpi\n        /* \"#utility.yul\":8140:8141   */\n      dup1\n        /* \"#utility.yul\":8135:8138   */\n      dup3\n        /* \"#utility.yul\":8131:8142   */\n      add\n        /* \"#utility.yul\":8125:8143   */\n      mload\n        /* \"#utility.yul\":8121:8122   */\n      dup2\n        /* \"#utility.yul\":8116:8119   */\n      dup5\n        /* \"#utility.yul\":8112:8123   */\n      add\n        /* \"#utility.yul\":8105:8144   */\n      mstore\n        /* \"#utility.yul\":8077:8079   */\n      0x20\n        /* \"#utility.yul\":8074:8075   */\n      dup2\n        /* \"#utility.yul\":8070:8080   */\n      add\n        /* \"#utility.yul\":8065:8080   */\n      swap1\n      pop\n        /* \"#utility.yul\":8041:8154   */\n      jump(tag_416)\n    tag_418:\n        /* \"#utility.yul\":8188:8189   */\n      0x00\n        /* \"#utility.yul\":8179:8185   */\n      dup5\n        /* \"#utility.yul\":8174:8177   */\n      dup5\n        /* \"#utility.yul\":8170:8186   */\n      add\n        /* \"#utility.yul\":8163:8190   */\n      mstore\n        /* \"#utility.yul\":8012:8196   */\n      pop\n        /* \"#utility.yul\":7950:8196   */\n      pop\n      pop\n      pop\n      jump\t// out\n        /* \"#utility.yul\":8202:8579   */\n    tag_306:\n        /* \"#utility.yul\":8290:8293   */\n      0x00\n        /* \"#utility.yul\":8318:8357   */\n      tag_420\n        /* \"#utility.yul\":8351:8356   */\n      dup3\n        /* \"#utility.yul\":8318:8357   */\n      tag_303\n      jump\t// in\n    tag_420:\n        /* \"#utility.yul\":8373:8444   */\n      tag_421\n        /* \"#utility.yul\":8437:8443   */\n      dup2\n        /* \"#utility.yul\":8432:8435   */\n      dup6\n        /* \"#utility.yul\":8373:8444   */\n      tag_304\n      jump\t// in\n    tag_421:\n        /* \"#utility.yul\":8366:8444   */\n      swap4\n      pop\n        /* \"#utility.yul\":8453:8518   */\n      tag_422\n        /* \"#utility.yul\":8511:8517   */\n      dup2\n        /* \"#utility.yul\":8506:8509   */\n      dup6\n        /* \"#utility.yul\":8499:8503   */\n      0x20\n        /* \"#utility.yul\":8492:8497   */\n      dup7\n        /* \"#utility.yul\":8488:8504   */\n      add\n        /* \"#utility.yul\":8453:8518   */\n      tag_305\n      jump\t// in\n    tag_422:\n        /* \"#utility.yul\":8543:8572   */\n      tag_423\n        /* \"#utility.yul\":8565:8571   */\n      dup2\n        /* \"#utility.yul\":8543:8572   */\n      tag_295\n      jump\t// in\n    tag_423:\n        /* \"#utility.yul\":8538:8541   */\n      dup5\n        /* \"#utility.yul\":8534:8573   */\n      add\n        /* \"#utility.yul\":8527:8573   */\n      swap2\n      pop\n        /* \"#utility.yul\":8294:8579   */\n      pop\n        /* \"#utility.yul\":8202:8579   */\n      swap3\n      swap2\n      pop\n      pop\n      jump\t// out\n        /* \"#utility.yul\":8585:9803   */\n    tag_68:\n        /* \"#utility.yul\":8912:8916   */\n      0x00\n        /* \"#utility.yul\":8950:8953   */\n      0xc0\n        /* \"#utility.yul\":8939:8948   */\n      dup3\n        /* \"#utility.yul\":8935:8954   */\n      add\n        /* \"#utility.yul\":8927:8954   */\n      swap1\n      pop\n        /* \"#utility.yul\":9000:9009   */\n      dup2\n        /* \"#utility.yul\":8994:8998   */\n      dup2\n        /* \"#utility.yul\":8990:9010   */\n      sub\n        /* \"#utility.yul\":8986:8987   */\n      0x00\n        /* \"#utility.yul\":8975:8984   */\n      dup4\n        /* \"#utility.yul\":8971:8988   */\n      add\n        /* \"#utility.yul\":8964:9011   */\n      mstore\n        /* \"#utility.yul\":9028:9106   */\n      tag_425\n        /* \"#utility.yul\":9101:9105   */\n      dup2\n        /* \"#utility.yul\":9092:9098   */\n      dup10\n        /* \"#utility.yul\":9028:9106   */\n      tag_306\n      jump\t// in\n    tag_425:\n        /* \"#utility.yul\":9020:9106   */\n      swap1\n      pop\n        /* \"#utility.yul\":9153:9162   */\n      dup2\n        /* \"#utility.yul\":9147:9151   */\n      dup2\n        /* \"#utility.yul\":9143:9163   */\n      sub\n        /* \"#utility.yul\":9138:9140   */\n      0x20\n        /* \"#utility.yul\":9127:9136   */\n      dup4\n        /* \"#utility.yul\":9123:9141   */\n      add\n        /* \"#utility.yul\":9116:9164   */\n      mstore\n        /* \"#utility.yul\":9181:9259   */\n      tag_426\n        /* \"#utility.yul\":9254:9258   */\n      dup2\n        /* \"#utility.yul\":9245:9251   */\n      dup9\n        /* \"#utility.yul\":9181:9259   */\n      tag_306\n      jump\t// in\n    tag_426:\n        /* \"#utility.yul\":9173:9259   */\n      swap1\n      pop\n        /* \"#utility.yul\":9269:9335   */\n      tag_427\n        /* \"#utility.yul\":9331:9333   */\n      0x40\n        /* \"#utility.yul\":9320:9329   */\n      dup4\n        /* \"#utility.yul\":9316:9334   */\n      add\n        /* \"#utility.yul\":9307:9313   */\n      dup8\n        /* \"#utility.yul\":9269:9335   */\n      tag_290\n      jump\t// in\n    tag_427:\n        /* \"#utility.yul\":9382:9391   */\n      dup2\n        /* \"#utility.yul\":9376:9380   */\n      dup2\n        /* \"#utility.yul\":9372:9392   */\n      sub\n        /* \"#utility.yul\":9367:9369   */\n      0x60\n        /* \"#utility.yul\":9356:9365   */\n      dup4\n        /* \"#utility.yul\":9352:9370   */\n      add\n        /* \"#utility.yul\":9345:9393   */\n      mstore\n        /* \"#utility.yul\":9410:9488   */\n      tag_428\n        /* \"#utility.yul\":9483:9487   */\n      dup2\n        /* \"#utility.yul\":9474:9480   */\n      dup7\n        /* \"#utility.yul\":9410:9488   */\n      tag_306\n      jump\t// in\n    tag_428:\n        /* \"#utility.yul\":9402:9488   */\n      swap1\n      pop\n        /* \"#utility.yul\":9536:9545   */\n      dup2\n        /* \"#utility.yul\":9530:9534   */\n      dup2\n        /* \"#utility.yul\":9526:9546   */\n      sub\n        /* \"#utility.yul\":9520:9523   */\n      0x80\n        /* \"#utility.yul\":9509:9518   */\n      dup4\n        /* \"#utility.yul\":9505:9524   */\n      add\n        /* \"#utility.yul\":9498:9547   */\n      mstore\n        /* \"#utility.yul\":9564:9642   */\n      tag_429\n        /* \"#utility.yul\":9637:9641   */\n      dup2\n        /* \"#utility.yul\":9628:9634   */\n      dup6\n        /* \"#utility.yul\":9564:9642   */\n      tag_306\n      jump\t// in\n    tag_429:\n        /* \"#utility.yul\":9556:9642   */\n      swap1\n      pop\n        /* \"#utility.yul\":9690:9699   */\n      dup2\n        /* \"#utility.yul\":9684:9688   */\n      dup2\n        /* \"#utility.yul\":9680:9700   */\n      sub\n        /* \"#utility.yul\":9674:9677   */\n      0xa0\n        /* \"#utility.yul\":9663:9672   */\n      dup4\n        /* \"#utility.yul\":9659:9678   */\n      add\n        /* \"#utility.yul\":9652:9701   */\n      mstore\n        /* \"#utility.yul\":9718:9796   */\n      tag_430\n        /* \"#utility.yul\":9791:9795   */\n      dup2\n        /* \"#utility.yul\":9782:9788   */\n      dup5\n        /* \"#utility.yul\":9718:9796   */\n      tag_306\n      jump\t// in\n    tag_430:\n        /* \"#utility.yul\":9710:9796   */\n      swap1\n      pop\n        /* \"#utility.yul\":8585:9803   */\n      swap8\n      swap7\n      pop\n      pop\n      pop\n      pop\n      pop\n      pop\n      pop\n      jump\t// out\n        /* \"#utility.yul\":9809:12243   */\n    tag_74:\n        /* \"#utility.yul\":10426:10430   */\n      0x00\n        /* \"#utility.yul\":10464:10467   */\n      0x0180\n        /* \"#utility.yul\":10453:10462   */\n      dup3\n        /* \"#utility.yul\":10449:10468   */\n      add\n        /* \"#utility.yul\":10441:10468   */\n      swap1\n      pop\n        /* \"#utility.yul\":10514:10523   */\n      dup2\n        /* \"#utility.yul\":10508:10512   */\n      dup2\n        /* \"#utility.yul\":10504:10524   */\n      sub\n        /* \"#utility.yul\":10500:10501   */\n      0x00\n        /* \"#utility.yul\":10489:10498   */\n      dup4\n        /* \"#utility.yul\":10485:10502   */\n      add\n        /* \"#utility.yul\":10478:10525   */\n      mstore\n        /* \"#utility.yul\":10542:10620   */\n      tag_432\n        /* \"#utility.yul\":10615:10619   */\n      dup2\n        /* \"#utility.yul\":10606:10612   */\n      dup16\n        /* \"#utility.yul\":10542:10620   */\n      tag_306\n      jump\t// in\n    tag_432:\n        /* \"#utility.yul\":10534:10620   */\n      swap1\n      pop\n        /* \"#utility.yul\":10667:10676   */\n      dup2\n        /* \"#utility.yul\":10661:10665   */\n      dup2\n        /* \"#utility.yul\":10657:10677   */\n      sub\n        /* \"#utility.yul\":10652:10654   */\n      0x20\n        /* \"#utility.yul\":10641:10650   */\n      dup4\n        /* \"#utility.yul\":10637:10655   */\n      add\n        /* \"#utility.yul\":10630:10678   */\n      mstore\n        /* \"#utility.yul\":10695:10773   */\n      tag_433\n        /* \"#utility.yul\":10768:10772   */\n      dup2\n        /* \"#utility.yul\":10759:10765   */\n      dup15\n        /* \"#utility.yul\":10695:10773   */\n      tag_306\n      jump\t// in\n    tag_433:\n        /* \"#utility.yul\":10687:10773   */\n      swap1\n      pop\n        /* \"#utility.yul\":10820:10829   */\n      dup2\n        /* \"#utility.yul\":10814:10818   */\n      dup2\n        /* \"#utility.yul\":10810:10830   */\n      sub\n        /* \"#utility.yul\":10805:10807   */\n      0x40\n        /* \"#utility.yul\":10794:10803   */\n      dup4\n        /* \"#utility.yul\":10790:10808   */\n      add\n        /* \"#utility.yul\":10783:10831   */\n      mstore\n        /* \"#utility.yul\":10848:10926   */\n      tag_434\n        /* \"#utility.yul\":10921:10925   */\n      dup2\n        /* \"#utility.yul\":10912:10918   */\n      dup14\n        /* \"#utility.yul\":10848:10926   */\n      tag_306\n      jump\t// in\n    tag_434:\n        /* \"#utility.yul\":10840:10926   */\n      swap1\n      pop\n        /* \"#utility.yul\":10973:10982   */\n      dup2\n        /* \"#utility.yul\":10967:10971   */\n      dup2\n        /* \"#utility.yul\":10963:10983   */\n      sub\n        /* \"#utility.yul\":10958:10960   */\n      0x60\n        /* \"#utility.yul\":10947:10956   */\n      dup4\n        /* \"#utility.yul\":10943:10961   */\n      add\n        /* \"#utility.yul\":10936:10984   */\n      mstore\n        /* \"#utility.yul\":11001:11079   */\n      tag_435\n        /* \"#utility.yul\":11074:11078   */\n      dup2\n        /* \"#utility.yul\":11065:11071   */\n      dup13\n        /* \"#utility.yul\":11001:11079   */\n      tag_306\n      jump\t// in\n    tag_435:\n        /* \"#utility.yul\":10993:11079   */\n      swap1\n      pop\n        /* \"#utility.yul\":11127:11136   */\n      dup2\n        /* \"#utility.yul\":11121:11125   */\n      dup2\n        /* \"#utility.yul\":11117:11137   */\n      sub\n        /* \"#utility.yul\":11111:11114   */\n      0x80\n        /* \"#utility.yul\":11100:11109   */\n      dup4\n        /* \"#utility.yul\":11096:11115   */\n      add\n        /* \"#utility.yul\":11089:11138   */\n      mstore\n        /* \"#utility.yul\":11155:11233   */\n      tag_436\n        /* \"#utility.yul\":11228:11232   */\n      dup2\n        /* \"#utility.yul\":11219:11225   */\n      dup12\n        /* \"#utility.yul\":11155:11233   */\n      tag_306\n      jump\t// in\n    tag_436:\n        /* \"#utility.yul\":11147:11233   */\n      swap1\n      pop\n        /* \"#utility.yul\":11281:11290   */\n      dup2\n        /* \"#utility.yul\":11275:11279   */\n      dup2\n        /* \"#utility.yul\":11271:11291   */\n      sub\n        /* \"#utility.yul\":11265:11268   */\n      0xa0\n        /* \"#utility.yul\":11254:11263   */\n      dup4\n        /* \"#utility.yul\":11250:11269   */\n      add\n        /* \"#utility.yul\":11243:11292   */\n      mstore\n        /* \"#utility.yul\":11309:11387   */\n      tag_437\n        /* \"#utility.yul\":11382:11386   */\n      dup2\n        /* \"#utility.yul\":11373:11379   */\n      dup11\n        /* \"#utility.yul\":11309:11387   */\n      tag_306\n      jump\t// in\n    tag_437:\n        /* \"#utility.yul\":11301:11387   */\n      swap1\n      pop\n        /* \"#utility.yul\":11435:11444   */\n      dup2\n        /* \"#utility.yul\":11429:11433   */\n      dup2\n        /* \"#utility.yul\":11425:11445   */\n      sub\n        /* \"#utility.yul\":11419:11422   */\n      0xc0\n        /* \"#utility.yul\":11408:11417   */\n      dup4\n        /* \"#utility.yul\":11404:11423   */\n      add\n        /* \"#utility.yul\":11397:11446   */\n      mstore\n        /* \"#utility.yul\":11463:11541   */\n      tag_438\n        /* \"#utility.yul\":11536:11540   */\n      dup2\n        /* \"#utility.yul\":11527:11533   */\n      dup10\n        /* \"#utility.yul\":11463:11541   */\n      tag_306\n      jump\t// in\n    tag_438:\n        /* \"#utility.yul\":11455:11541   */\n      swap1\n      pop\n        /* \"#utility.yul\":11589:11598   */\n      dup2\n        /* \"#utility.yul\":11583:11587   */\n      dup2\n        /* \"#utility.yul\":11579:11599   */\n      sub\n        /* \"#utility.yul\":11573:11576   */\n      0xe0\n        /* \"#utility.yul\":11562:11571   */\n      dup4\n        /* \"#utility.yul\":11558:11577   */\n      add\n        /* \"#utility.yul\":11551:11600   */\n      mstore\n        /* \"#utility.yul\":11617:11695   */\n      tag_439\n        /* \"#utility.yul\":11690:11694   */\n      dup2\n        /* \"#utility.yul\":11681:11687   */\n      dup9\n        /* \"#utility.yul\":11617:11695   */\n      tag_306\n      jump\t// in\n    tag_439:\n        /* \"#utility.yul\":11609:11695   */\n      swap1\n      pop\n        /* \"#utility.yul\":11743:11752   */\n      dup2\n        /* \"#utility.yul\":11737:11741   */\n      dup2\n        /* \"#utility.yul\":11733:11753   */\n      sub\n        /* \"#utility.yul\":11727:11730   */\n      0x0100\n        /* \"#utility.yul\":11716:11725   */\n      dup4\n        /* \"#utility.yul\":11712:11731   */\n      add\n        /* \"#utility.yul\":11705:11754   */\n      mstore\n        /* \"#utility.yul\":11771:11849   */\n      tag_440\n        /* \"#utility.yul\":11844:11848   */\n      dup2\n        /* \"#utility.yul\":11835:11841   */\n      dup8\n        /* \"#utility.yul\":11771:11849   */\n      tag_306\n      jump\t// in\n    tag_440:\n        /* \"#utility.yul\":11763:11849   */\n      swap1\n      pop\n        /* \"#utility.yul\":11897:11906   */\n      dup2\n        /* \"#utility.yul\":11891:11895   */\n      dup2\n        /* \"#utility.yul\":11887:11907   */\n      sub\n        /* \"#utility.yul\":11881:11884   */\n      0x0120\n        /* \"#utility.yul\":11870:11879   */\n      dup4\n        /* \"#utility.yul\":11866:11885   */\n      add\n        /* \"#utility.yul\":11859:11908   */\n      mstore\n        /* \"#utility.yul\":11925:12003   */\n      tag_441\n        /* \"#utility.yul\":11998:12002   */\n      dup2\n        /* \"#utility.yul\":11989:11995   */\n      dup7\n        /* \"#utility.yul\":11925:12003   */\n      tag_306\n      jump\t// in\n    tag_441:\n        /* \"#utility.yul\":11917:12003   */\n      swap1\n      pop\n        /* \"#utility.yul\":12051:12060   */\n      dup2\n        /* \"#utility.yul\":12045:12049   */\n      dup2\n        /* \"#utility.yul\":12041:12061   */\n      sub\n        /* \"#utility.yul\":12035:12038   */\n      0x0140\n        /* \"#utility.yul\":12024:12033   */\n      dup4\n        /* \"#utility.yul\":12020:12039   */\n      add\n        /* \"#utility.yul\":12013:12062   */\n      mstore\n        /* \"#utility.yul\":12079:12158   */\n      tag_442\n        /* \"#utility.yul\":12153:12157   */\n      dup2\n        /* \"#utility.yul\":12143:12150   */\n      dup6\n        /* \"#utility.yul\":12079:12158   */\n      tag_306\n      jump\t// in\n    tag_442:\n        /* \"#utility.yul\":12071:12158   */\n      swap1\n      pop\n        /* \"#utility.yul\":12168:12236   */\n      tag_443\n        /* \"#utility.yul\":12231:12234   */\n      0x0160\n        /* \"#utility.yul\":12220:12229   */\n      dup4\n        /* \"#utility.yul\":12216:12235   */\n      add\n        /* \"#utility.yul\":12206:12213   */\n      dup5\n        /* \"#utility.yul\":12168:12236   */\n      tag_290\n      jump\t// in\n    tag_443:\n        /* \"#utility.yul\":9809:12243   */\n      swap14\n      swap13\n      pop\n      pop\n      pop\n      pop\n      pop\n      pop\n      pop\n      pop\n      pop\n      pop\n      pop\n      pop\n      pop\n      jump\t// out\n        /* \"#utility.yul\":12249:13598   */\n    tag_80:\n        /* \"#utility.yul\":12612:12616   */\n      0x00\n        /* \"#utility.yul\":12650:12653   */\n      0x0100\n        /* \"#utility.yul\":12639:12648   */\n      dup3\n        /* \"#utility.yul\":12635:12654   */\n      add\n        /* \"#utility.yul\":12627:12654   */\n      swap1\n      pop\n        /* \"#utility.yul\":12700:12709   */\n      dup2\n        /* \"#utility.yul\":12694:12698   */\n      dup2\n        /* \"#utility.yul\":12690:12710   */\n      sub\n        /* \"#utility.yul\":12686:12687   */\n      0x00\n        /* \"#utility.yul\":12675:12684   */\n      dup4\n        /* \"#utility.yul\":12671:12688   */\n      add\n        /* \"#utility.yul\":12664:12711   */\n      mstore\n        /* \"#utility.yul\":12728:12806   */\n      tag_445\n        /* \"#utility.yul\":12801:12805   */\n      dup2\n        /* \"#utility.yul\":12792:12798   */\n      dup12\n        /* \"#utility.yul\":12728:12806   */\n      tag_306\n      jump\t// in\n    tag_445:\n        /* \"#utility.yul\":12720:12806   */\n      swap1\n      pop\n        /* \"#utility.yul\":12853:12862   */\n      dup2\n        /* \"#utility.yul\":12847:12851   */\n      dup2\n        /* \"#utility.yul\":12843:12863   */\n      sub\n        /* \"#utility.yul\":12838:12840   */\n      0x20\n        /* \"#utility.yul\":12827:12836   */\n      dup4\n        /* \"#utility.yul\":12823:12841   */\n      add\n        /* \"#utility.yul\":12816:12864   */\n      mstore\n        /* \"#utility.yul\":12881:12959   */\n      tag_446\n        /* \"#utility.yul\":12954:12958   */\n      dup2\n        /* \"#utility.yul\":12945:12951   */\n      dup11\n        /* \"#utility.yul\":12881:12959   */\n      tag_306\n      jump\t// in\n    tag_446:\n        /* \"#utility.yul\":12873:12959   */\n      swap1\n      pop\n        /* \"#utility.yul\":13006:13015   */\n      dup2\n        /* \"#utility.yul\":13000:13004   */\n      dup2\n        /* \"#utility.yul\":12996:13016   */\n      sub\n        /* \"#utility.yul\":12991:12993   */\n      0x40\n        /* \"#utility.yul\":12980:12989   */\n      dup4\n        /* \"#utility.yul\":12976:12994   */\n      add\n        /* \"#utility.yul\":12969:13017   */\n      mstore\n        /* \"#utility.yul\":13034:13112   */\n      tag_447\n        /* \"#utility.yul\":13107:13111   */\n      dup2\n        /* \"#utility.yul\":13098:13104   */\n      dup10\n        /* \"#utility.yul\":13034:13112   */\n      tag_306\n      jump\t// in\n    tag_447:\n        /* \"#utility.yul\":13026:13112   */\n      swap1\n      pop\n        /* \"#utility.yul\":13122:13194   */\n      tag_448\n        /* \"#utility.yul\":13190:13192   */\n      0x60\n        /* \"#utility.yul\":13179:13188   */\n      dup4\n        /* \"#utility.yul\":13175:13193   */\n      add\n        /* \"#utility.yul\":13166:13172   */\n      dup9\n        /* \"#utility.yul\":13122:13194   */\n      tag_291\n      jump\t// in\n    tag_448:\n        /* \"#utility.yul\":13242:13251   */\n      dup2\n        /* \"#utility.yul\":13236:13240   */\n      dup2\n        /* \"#utility.yul\":13232:13252   */\n      sub\n        /* \"#utility.yul\":13226:13229   */\n      0x80\n        /* \"#utility.yul\":13215:13224   */\n      dup4\n        /* \"#utility.yul\":13211:13230   */\n      add\n        /* \"#utility.yul\":13204:13253   */\n      mstore\n        /* \"#utility.yul\":13270:13348   */\n      tag_449\n        /* \"#utility.yul\":13343:13347   */\n      dup2\n        /* \"#utility.yul\":13334:13340   */\n      dup8\n        /* \"#utility.yul\":13270:13348   */\n      tag_306\n      jump\t// in\n    tag_449:\n        /* \"#utility.yul\":13262:13348   */\n      swap1\n      pop\n        /* \"#utility.yul\":13358:13431   */\n      tag_450\n        /* \"#utility.yul\":13426:13429   */\n      0xa0\n        /* \"#utility.yul\":13415:13424   */\n      dup4\n        /* \"#utility.yul\":13411:13430   */\n      add\n        /* \"#utility.yul\":13402:13408   */\n      dup7\n        /* \"#utility.yul\":13358:13431   */\n      tag_292\n      jump\t// in\n    tag_450:\n        /* \"#utility.yul\":13441:13508   */\n      tag_451\n        /* \"#utility.yul\":13503:13506   */\n      0xc0\n        /* \"#utility.yul\":13492:13501   */\n      dup4\n        /* \"#utility.yul\":13488:13507   */\n      add\n        /* \"#utility.yul\":13479:13485   */\n      dup6\n        /* \"#utility.yul\":13441:13508   */\n      tag_290\n      jump\t// in\n    tag_451:\n        /* \"#utility.yul\":13518:13591   */\n      tag_452\n        /* \"#utility.yul\":13586:13589   */\n      0xe0\n        /* \"#utility.yul\":13575:13584   */\n      dup4\n        /* \"#utility.yul\":13571:13590   */\n      add\n        /* \"#utility.yul\":13562:13568   */\n      dup5\n        /* \"#utility.yul\":13518:13591   */\n      tag_291\n      jump\t// in\n    tag_452:\n        /* \"#utility.yul\":12249:13598   */\n      swap10\n      swap9\n      pop\n      pop\n      pop\n      pop\n      pop\n      pop\n      pop\n      pop\n      pop\n      jump\t// out\n        /* \"#utility.yul\":13604:15415   */\n    tag_92:\n        /* \"#utility.yul\":13749:13755   */\n      0x00\n        /* \"#utility.yul\":13757:13763   */\n      dup1\n        /* \"#utility.yul\":13765:13771   */\n      0x00\n        /* \"#utility.yul\":13773:13779   */\n      dup1\n        /* \"#utility.yul\":13781:13787   */\n      0x00\n        /* \"#utility.yul\":13830:13833   */\n      0xa0\n        /* \"#utility.yul\":13818:13827   */\n      dup7\n        /* \"#utility.yul\":13809:13816   */\n      dup9\n        /* \"#utility.yul\":13805:13828   */\n      sub\n        /* \"#utility.yul\":13801:13834   */\n      slt\n        /* \"#utility.yul\":13798:13918   */\n      iszero\n      tag_454\n      jumpi\n        /* \"#utility.yul\":13837:13916   */\n      tag_455\n      tag_280\n      jump\t// in\n    tag_455:\n        /* \"#utility.yul\":13798:13918   */\n    tag_454:\n        /* \"#utility.yul\":13985:13986   */\n      0x00\n        /* \"#utility.yul\":13974:13983   */\n      dup7\n        /* \"#utility.yul\":13970:13987   */\n      add\n        /* \"#utility.yul\":13957:13988   */\n      calldataload\n        /* \"#utility.yul\":14015:14033   */\n      0xffffffffffffffff\n        /* \"#utility.yul\":14007:14013   */\n      dup2\n        /* \"#utility.yul\":14004:14034   */\n      gt\n        /* \"#utility.yul\":14001:14118   */\n      iszero\n      tag_456\n      jumpi\n        /* \"#utility.yul\":14037:14116   */\n      tag_457\n      tag_281\n      jump\t// in\n    tag_457:\n        /* \"#utility.yul\":14001:14118   */\n    tag_456:\n        /* \"#utility.yul\":14142:14205   */\n      tag_458\n        /* \"#utility.yul\":14197:14204   */\n      dup9\n        /* \"#utility.yul\":14188:14194   */\n      dup3\n        /* \"#utility.yul\":14177:14186   */\n      dup10\n        /* \"#utility.yul\":14173:14195   */\n      add\n        /* \"#utility.yul\":14142:14205   */\n      tag_302\n      jump\t// in\n    tag_458:\n        /* \"#utility.yul\":14132:14205   */\n      swap6\n      pop\n        /* \"#utility.yul\":13928:14215   */\n      pop\n        /* \"#utility.yul\":14282:14284   */\n      0x20\n        /* \"#utility.yul\":14271:14280   */\n      dup7\n        /* \"#utility.yul\":14267:14285   */\n      add\n        /* \"#utility.yul\":14254:14286   */\n      calldataload\n        /* \"#utility.yul\":14313:14331   */\n      0xffffffffffffffff\n        /* \"#utility.yul\":14305:14311   */\n      dup2\n        /* \"#utility.yul\":14302:14332   */\n      gt\n        /* \"#utility.yul\":14299:14416   */\n      iszero\n      tag_459\n      jumpi\n        /* \"#utility.yul\":14335:14414   */\n      tag_460\n      tag_281\n      jump\t// in\n    tag_460:\n        /* \"#utility.yul\":14299:14416   */\n    tag_459:\n        /* \"#utility.yul\":14440:14503   */\n      tag_461\n        /* \"#utility.yul\":14495:14502   */\n      dup9\n        /* \"#utility.yul\":14486:14492   */\n      dup3\n        /* \"#utility.yul\":14475:14484   */\n      dup10\n        /* \"#utility.yul\":14471:14493   */\n      add\n        /* \"#utility.yul\":14440:14503   */\n      tag_302\n      jump\t// in\n    tag_461:\n        /* \"#utility.yul\":14430:14503   */\n      swap5\n      pop\n        /* \"#utility.yul\":14225:14513   */\n      pop\n        /* \"#utility.yul\":14580:14582   */\n      0x40\n        /* \"#utility.yul\":14569:14578   */\n      dup7\n        /* \"#utility.yul\":14565:14583   */\n      add\n        /* \"#utility.yul\":14552:14584   */\n      calldataload\n        /* \"#utility.yul\":14611:14629   */\n      0xffffffffffffffff\n        /* \"#utility.yul\":14603:14609   */\n      dup2\n        /* \"#utility.yul\":14600:14630   */\n      gt\n        /* \"#utility.yul\":14597:14714   */\n      iszero\n      tag_462\n      jumpi\n        /* \"#utility.yul\":14633:14712   */\n      tag_463\n      tag_281\n      jump\t// in\n    tag_463:\n        /* \"#utility.yul\":14597:14714   */\n    tag_462:\n        /* \"#utility.yul\":14738:14801   */\n      tag_464\n        /* \"#utility.yul\":14793:14800   */\n      dup9\n        /* \"#utility.yul\":14784:14790   */\n      dup3\n        /* \"#utility.yul\":14773:14782   */\n      dup10\n        /* \"#utility.yul\":14769:14791   */\n      add\n        /* \"#utility.yul\":14738:14801   */\n      tag_302\n      jump\t// in\n    tag_464:\n        /* \"#utility.yul\":14728:14801   */\n      swap4\n      pop\n        /* \"#utility.yul\":14523:14811   */\n      pop\n        /* \"#utility.yul\":14878:14880   */\n      0x60\n        /* \"#utility.yul\":14867:14876   */\n      dup7\n        /* \"#utility.yul\":14863:14881   */\n      add\n        /* \"#utility.yul\":14850:14882   */\n      calldataload\n        /* \"#utility.yul\":14909:14927   */\n      0xffffffffffffffff\n        /* \"#utility.yul\":14901:14907   */\n      dup2\n        /* \"#utility.yul\":14898:14928   */\n      gt\n        /* \"#utility.yul\":14895:15012   */\n      iszero\n      tag_465\n      jumpi\n        /* \"#utility.yul\":14931:15010   */\n      tag_466\n      tag_281\n      jump\t// in\n    tag_466:\n        /* \"#utility.yul\":14895:15012   */\n    tag_465:\n        /* \"#utility.yul\":15036:15099   */\n      tag_467\n        /* \"#utility.yul\":15091:15098   */\n      dup9\n        /* \"#utility.yul\":15082:15088   */\n      dup3\n        /* \"#utility.yul\":15071:15080   */\n      dup10\n        /* \"#utility.yul\":15067:15089   */\n      add\n        /* \"#utility.yul\":15036:15099   */\n      tag_302\n      jump\t// in\n    tag_467:\n        /* \"#utility.yul\":15026:15099   */\n      swap3\n      pop\n        /* \"#utility.yul\":14821:15109   */\n      pop\n        /* \"#utility.yul\":15176:15179   */\n      0x80\n        /* \"#utility.yul\":15165:15174   */\n      dup7\n        /* \"#utility.yul\":15161:15180   */\n      add\n        /* \"#utility.yul\":15148:15181   */\n      calldataload\n        /* \"#utility.yul\":15208:15226   */\n      0xffffffffffffffff\n        /* \"#utility.yul\":15200:15206   */\n      dup2\n        /* \"#utility.yul\":15197:15227   */\n      gt\n        /* \"#utility.yul\":15194:15311   */\n      iszero\n      tag_468\n      jumpi\n        /* \"#utility.yul\":15230:15309   */\n      tag_469\n      tag_281\n      jump\t// in\n    tag_469:\n        /* \"#utility.yul\":15194:15311   */\n    tag_468:\n        /* \"#utility.yul\":15335:15398   */\n      tag_470\n        /* \"#utility.yul\":15390:15397   */\n      dup9\n        /* \"#utility.yul\":15381:15387   */\n      dup3\n        /* \"#utility.yul\":15370:15379   */\n      dup10\n        /* \"#utility.yul\":15366:15388   */\n      add\n        /* \"#utility.yul\":15335:15398   */\n      tag_302\n      jump\t// in\n    tag_470:\n        /* \"#utility.yul\":15325:15398   */\n      swap2\n      pop\n        /* \"#utility.yul\":15119:15408   */\n      pop\n        /* \"#utility.yul\":13604:15415   */\n      swap3\n      swap6\n      pop\n      swap3\n      swap6\n      swap1\n      swap4\n      pop\n      jump\t// out\n        /* \"#utility.yul\":15421:16400   */\n    tag_97:\n        /* \"#utility.yul\":15518:15524   */\n      0x00\n        /* \"#utility.yul\":15526:15532   */\n      dup1\n        /* \"#utility.yul\":15534:15540   */\n      0x00\n        /* \"#utility.yul\":15583:15585   */\n      0x60\n        /* \"#utility.yul\":15571:15580   */\n      dup5\n        /* \"#utility.yul\":15562:15569   */\n      dup7\n        /* \"#utility.yul\":15558:15581   */\n      sub\n        /* \"#utility.yul\":15554:15586   */\n      slt\n        /* \"#utility.yul\":15551:15670   */\n      iszero\n      tag_472\n      jumpi\n        /* \"#utility.yul\":15589:15668   */\n      tag_473\n      tag_280\n      jump\t// in\n    tag_473:\n        /* \"#utility.yul\":15551:15670   */\n    tag_472:\n        /* \"#utility.yul\":15737:15738   */\n      0x00\n        /* \"#utility.yul\":15726:15735   */\n      dup5\n        /* \"#utility.yul\":15722:15739   */\n      add\n        /* \"#utility.yul\":15709:15740   */\n      calldataload\n        /* \"#utility.yul\":15767:15785   */\n      0xffffffffffffffff\n        /* \"#utility.yul\":15759:15765   */\n      dup2\n        /* \"#utility.yul\":15756:15786   */\n      gt\n        /* \"#utility.yul\":15753:15870   */\n      iszero\n      tag_474\n      jumpi\n        /* \"#utility.yul\":15789:15868   */\n      tag_475\n      tag_281\n      jump\t// in\n    tag_475:\n        /* \"#utility.yul\":15753:15870   */\n    tag_474:\n        /* \"#utility.yul\":15894:15957   */\n      tag_476\n        /* \"#utility.yul\":15949:15956   */\n      dup7\n        /* \"#utility.yul\":15940:15946   */\n      dup3\n        /* \"#utility.yul\":15929:15938   */\n      dup8\n        /* \"#utility.yul\":15925:15947   */\n      add\n        /* \"#utility.yul\":15894:15957   */\n      tag_302\n      jump\t// in\n    tag_476:\n        /* \"#utility.yul\":15884:15957   */\n      swap4\n      pop\n        /* \"#utility.yul\":15680:15967   */\n      pop\n        /* \"#utility.yul\":16006:16008   */\n      0x20\n        /* \"#utility.yul\":16032:16085   */\n      tag_477\n        /* \"#utility.yul\":16077:16084   */\n      dup7\n        /* \"#utility.yul\":16068:16074   */\n      dup3\n        /* \"#utility.yul\":16057:16066   */\n      dup8\n        /* \"#utility.yul\":16053:16075   */\n      add\n        /* \"#utility.yul\":16032:16085   */\n      tag_284\n      jump\t// in\n    tag_477:\n        /* \"#utility.yul\":16022:16085   */\n      swap3\n      pop\n        /* \"#utility.yul\":15977:16095   */\n      pop\n        /* \"#utility.yul\":16162:16164   */\n      0x40\n        /* \"#utility.yul\":16151:16160   */\n      dup5\n        /* \"#utility.yul\":16147:16165   */\n      add\n        /* \"#utility.yul\":16134:16166   */\n      calldataload\n        /* \"#utility.yul\":16193:16211   */\n      0xffffffffffffffff\n        /* \"#utility.yul\":16185:16191   */\n      dup2\n        /* \"#utility.yul\":16182:16212   */\n      gt\n        /* \"#utility.yul\":16179:16296   */\n      iszero\n      tag_478\n      jumpi\n        /* \"#utility.yul\":16215:16294   */\n      tag_479\n      tag_281\n      jump\t// in\n    tag_479:\n        /* \"#utility.yul\":16179:16296   */\n    tag_478:\n        /* \"#utility.yul\":16320:16383   */\n      tag_480\n        /* \"#utility.yul\":16375:16382   */\n      dup7\n        /* \"#utility.yul\":16366:16372   */\n      dup3\n        /* \"#utility.yul\":16355:16364   */\n      dup8\n        /* \"#utility.yul\":16351:16373   */\n      add\n        /* \"#utility.yul\":16320:16383   */\n      tag_302\n      jump\t// in\n    tag_480:\n        /* \"#utility.yul\":16310:16383   */\n      swap2\n      pop\n        /* \"#utility.yul\":16105:16393   */\n      pop\n        /* \"#utility.yul\":15421:16400   */\n      swap3\n      pop\n      swap3\n      pop\n      swap3\n      jump\t// out\n        /* \"#utility.yul\":16406:17891   */\n    tag_108:\n        /* \"#utility.yul\":16532:16538   */\n      0x00\n        /* \"#utility.yul\":16540:16546   */\n      dup1\n        /* \"#utility.yul\":16548:16554   */\n      0x00\n        /* \"#utility.yul\":16556:16562   */\n      dup1\n        /* \"#utility.yul\":16605:16608   */\n      0x80\n        /* \"#utility.yul\":16593:16602   */\n      dup6\n        /* \"#utility.yul\":16584:16591   */\n      dup8\n        /* \"#utility.yul\":16580:16603   */\n      sub\n        /* \"#utility.yul\":16576:16609   */\n      slt\n        /* \"#utility.yul\":16573:16693   */\n      iszero\n      tag_482\n      jumpi\n        /* \"#utility.yul\":16612:16691   */\n      tag_483\n      tag_280\n      jump\t// in\n    tag_483:\n        /* \"#utility.yul\":16573:16693   */\n    tag_482:\n        /* \"#utility.yul\":16760:16761   */\n      0x00\n        /* \"#utility.yul\":16749:16758   */\n      dup6\n        /* \"#utility.yul\":16745:16762   */\n      add\n        /* \"#utility.yul\":16732:16763   */\n      calldataload\n        /* \"#utility.yul\":16790:16808   */\n      0xffffffffffffffff\n        /* \"#utility.yul\":16782:16788   */\n      dup2\n        /* \"#utility.yul\":16779:16809   */\n      gt\n        /* \"#utility.yul\":16776:16893   */\n      iszero\n      tag_484\n      jumpi\n        /* \"#utility.yul\":16812:16891   */\n      tag_485\n      tag_281\n      jump\t// in\n    tag_485:\n        /* \"#utility.yul\":16776:16893   */\n    tag_484:\n        /* \"#utility.yul\":16917:16980   */\n      tag_486\n        /* \"#utility.yul\":16972:16979   */\n      dup8\n        /* \"#utility.yul\":16963:16969   */\n      dup3\n        /* \"#utility.yul\":16952:16961   */\n      dup9\n        /* \"#utility.yul\":16948:16970   */\n      add\n        /* \"#utility.yul\":16917:16980   */\n      tag_302\n      jump\t// in\n    tag_486:\n        /* \"#utility.yul\":16907:16980   */\n      swap5\n      pop\n        /* \"#utility.yul\":16703:16990   */\n      pop\n        /* \"#utility.yul\":17057:17059   */\n      0x20\n        /* \"#utility.yul\":17046:17055   */\n      dup6\n        /* \"#utility.yul\":17042:17060   */\n      add\n        /* \"#utility.yul\":17029:17061   */\n      calldataload\n        /* \"#utility.yul\":17088:17106   */\n      0xffffffffffffffff\n        /* \"#utility.yul\":17080:17086   */\n      dup2\n        /* \"#utility.yul\":17077:17107   */\n      gt\n        /* \"#utility.yul\":17074:17191   */\n      iszero\n      tag_487\n      jumpi\n        /* \"#utility.yul\":17110:17189   */\n      tag_488\n      tag_281\n      jump\t// in\n    tag_488:\n        /* \"#utility.yul\":17074:17191   */\n    tag_487:\n        /* \"#utility.yul\":17215:17278   */\n      tag_489\n        /* \"#utility.yul\":17270:17277   */\n      dup8\n        /* \"#utility.yul\":17261:17267   */\n      dup3\n        /* \"#utility.yul\":17250:17259   */\n      dup9\n        /* \"#utility.yul\":17246:17268   */\n      add\n        /* \"#utility.yul\":17215:17278   */\n      tag_302\n      jump\t// in\n    tag_489:\n        /* \"#utility.yul\":17205:17278   */\n      swap4\n      pop\n        /* \"#utility.yul\":17000:17288   */\n      pop\n        /* \"#utility.yul\":17355:17357   */\n      0x40\n        /* \"#utility.yul\":17344:17353   */\n      dup6\n        /* \"#utility.yul\":17340:17358   */\n      add\n        /* \"#utility.yul\":17327:17359   */\n      calldataload\n        /* \"#utility.yul\":17386:17404   */\n      0xffffffffffffffff\n        /* \"#utility.yul\":17378:17384   */\n      dup2\n        /* \"#utility.yul\":17375:17405   */\n      gt\n        /* \"#utility.yul\":17372:17489   */\n      iszero\n      tag_490\n      jumpi\n        /* \"#utility.yul\":17408:17487   */\n      tag_491\n      tag_281\n      jump\t// in\n    tag_491:\n        /* \"#utility.yul\":17372:17489   */\n    tag_490:\n        /* \"#utility.yul\":17513:17576   */\n      tag_492\n        /* \"#utility.yul\":17568:17575   */\n      dup8\n        /* \"#utility.yul\":17559:17565   */\n      dup3\n        /* \"#utility.yul\":17548:17557   */\n      dup9\n        /* \"#utility.yul\":17544:17566   */\n      add\n        /* \"#utility.yul\":17513:17576   */\n      tag_302\n      jump\t// in\n    tag_492:\n        /* \"#utility.yul\":17503:17576   */\n      swap3\n      pop\n        /* \"#utility.yul\":17298:17586   */\n      pop\n        /* \"#utility.yul\":17653:17655   */\n      0x60\n        /* \"#utility.yul\":17642:17651   */\n      dup6\n        /* \"#utility.yul\":17638:17656   */\n      add\n        /* \"#utility.yul\":17625:17657   */\n      calldataload\n        /* \"#utility.yul\":17684:17702   */\n      0xffffffffffffffff\n        /* \"#utility.yul\":17676:17682   */\n      dup2\n        /* \"#utility.yul\":17673:17703   */\n      gt\n        /* \"#utility.yul\":17670:17787   */\n      iszero\n      tag_493\n      jumpi\n        /* \"#utility.yul\":17706:17785   */\n      tag_494\n      tag_281\n      jump\t// in\n    tag_494:\n        /* \"#utility.yul\":17670:17787   */\n    tag_493:\n        /* \"#utility.yul\":17811:17874   */\n      tag_495\n        /* \"#utility.yul\":17866:17873   */\n      dup8\n        /* \"#utility.yul\":17857:17863   */\n      dup3\n        /* \"#utility.yul\":17846:17855   */\n      dup9\n        /* \"#utility.yul\":17842:17864   */\n      add\n        /* \"#utility.yul\":17811:17874   */\n      tag_302\n      jump\t// in\n    tag_495:\n        /* \"#utility.yul\":17801:17874   */\n      swap2\n      pop\n        /* \"#utility.yul\":17596:17884   */\n      pop\n        /* \"#utility.yul\":16406:17891   */\n      swap3\n      swap6\n      swap2\n      swap5\n      pop\n      swap3\n      pop\n      jump\t// out\n        /* \"#utility.yul\":17897:18077   */\n    tag_115:\n        /* \"#utility.yul\":17945:18022   */\n      0x4e487b7100000000000000000000000000000000000000000000000000000000\n        /* \"#utility.yul\":17942:17943   */\n      0x00\n        /* \"#utility.yul\":17935:18023   */\n      mstore\n        /* \"#utility.yul\":18042:18046   */\n      0x32\n        /* \"#utility.yul\":18039:18040   */\n      0x04\n        /* \"#utility.yul\":18032:18047   */\n      mstore\n        /* \"#utility.yul\":18066:18070   */\n      0x24\n        /* \"#utility.yul\":18063:18064   */\n      0x00\n        /* \"#utility.yul\":18056:18071   */\n      revert\n        /* \"#utility.yul\":18083:18263   */\n    tag_307:\n        /* \"#utility.yul\":18131:18208   */\n      0x4e487b7100000000000000000000000000000000000000000000000000000000\n        /* \"#utility.yul\":18128:18129   */\n      0x00\n        /* \"#utility.yul\":18121:18209   */\n      mstore\n        /* \"#utility.yul\":18228:18232   */\n      0x12\n        /* \"#utility.yul\":18225:18226   */\n      0x04\n        /* \"#utility.yul\":18218:18233   */\n      mstore\n        /* \"#utility.yul\":18252:18256   */\n      0x24\n        /* \"#utility.yul\":18249:18250   */\n      0x00\n        /* \"#utility.yul\":18242:18257   */\n      revert\n        /* \"#utility.yul\":18269:18449   */\n    tag_308:\n        /* \"#utility.yul\":18317:18394   */\n      0x4e487b7100000000000000000000000000000000000000000000000000000000\n        /* \"#utility.yul\":18314:18315   */\n      0x00\n        /* \"#utility.yul\":18307:18395   */\n      mstore\n        /* \"#utility.yul\":18414:18418   */\n      0x11\n        /* \"#utility.yul\":18411:18412   */\n      0x04\n        /* \"#utility.yul\":18404:18419   */\n      mstore\n        /* \"#utility.yul\":18438:18442   */\n      0x24\n        /* \"#utility.yul\":18435:18436   */\n      0x00\n        /* \"#utility.yul\":18428:18443   */\n      revert\n        /* \"#utility.yul\":18455:18640   */\n    tag_118:\n        /* \"#utility.yul\":18495:18496   */\n      0x00\n        /* \"#utility.yul\":18512:18532   */\n      tag_500\n        /* \"#utility.yul\":18530:18531   */\n      dup3\n        /* \"#utility.yul\":18512:18532   */\n      tag_282\n      jump\t// in\n    tag_500:\n        /* \"#utility.yul\":18507:18532   */\n      swap2\n      pop\n        /* \"#utility.yul\":18546:18566   */\n      tag_501\n        /* \"#utility.yul\":18564:18565   */\n      dup4\n        /* \"#utility.yul\":18546:18566   */\n      tag_282\n      jump\t// in\n    tag_501:\n        /* \"#utility.yul\":18541:18566   */\n      swap3\n      pop\n        /* \"#utility.yul\":18585:18586   */\n      dup3\n        /* \"#utility.yul\":18575:18610   */\n      tag_502\n      jumpi\n        /* \"#utility.yul\":18590:18608   */\n      tag_503\n      tag_307\n      jump\t// in\n    tag_503:\n        /* \"#utility.yul\":18575:18610   */\n    tag_502:\n        /* \"#utility.yul\":18632:18633   */\n      dup3\n        /* \"#utility.yul\":18629:18630   */\n      dup3\n        /* \"#utility.yul\":18625:18634   */\n      div\n        /* \"#utility.yul\":18620:18634   */\n      swap1\n      pop\n        /* \"#utility.yul\":18455:18640   */\n      swap3\n      swap2\n      pop\n      pop\n      jump\t// out\n        /* \"#utility.yul\":18646:18826   */\n    tag_309:\n        /* \"#utility.yul\":18694:18771   */\n      0x4e487b7100000000000000000000000000000000000000000000000000000000\n        /* \"#utility.yul\":18691:18692   */\n      0x00\n        /* \"#utility.yul\":18684:18772   */\n      mstore\n        /* \"#utility.yul\":18791:18795   */\n      0x22\n        /* \"#utility.yul\":18788:18789   */\n      0x04\n        /* \"#utility.yul\":18781:18796   */\n      mstore\n        /* \"#utility.yul\":18815:18819   */\n      0x24\n        /* \"#utility.yul\":18812:18813   */\n      0x00\n        /* \"#utility.yul\":18805:18820   */\n      revert\n        /* \"#utility.yul\":18832:19152   */\n    tag_139:\n        /* \"#utility.yul\":18876:18882   */\n      0x00\n        /* \"#utility.yul\":18913:18914   */\n      0x02\n        /* \"#utility.yul\":18907:18911   */\n      dup3\n        /* \"#utility.yul\":18903:18915   */\n      div\n        /* \"#utility.yul\":18893:18915   */\n      swap1\n      pop\n        /* \"#utility.yul\":18960:18961   */\n      0x01\n        /* \"#utility.yul\":18954:18958   */\n      dup3\n        /* \"#utility.yul\":18950:18962   */\n      and\n        /* \"#utility.yul\":18981:18999   */\n      dup1\n        /* \"#utility.yul\":18971:19052   */\n      tag_506\n      jumpi\n        /* \"#utility.yul\":19037:19041   */\n      0x7f\n        /* \"#utility.yul\":19029:19035   */\n      dup3\n        /* \"#utility.yul\":19025:19042   */\n      and\n        /* \"#utility.yul\":19015:19042   */\n      swap2\n      pop\n        /* \"#utility.yul\":18971:19052   */\n    tag_506:\n        /* \"#utility.yul\":19099:19101   */\n      0x20\n        /* \"#utility.yul\":19091:19097   */\n      dup3\n        /* \"#utility.yul\":19088:19102   */\n      lt\n        /* \"#utility.yul\":19068:19086   */\n      dup2\n        /* \"#utility.yul\":19065:19103   */\n      sub\n        /* \"#utility.yul\":19062:19146   */\n      tag_507\n      jumpi\n        /* \"#utility.yul\":19118:19136   */\n      tag_508\n      tag_309\n      jump\t// in\n    tag_508:\n        /* \"#utility.yul\":19062:19146   */\n    tag_507:\n        /* \"#utility.yul\":18883:19152   */\n      pop\n        /* \"#utility.yul\":18832:19152   */\n      swap2\n      swap1\n      pop\n      jump\t// out\n        /* \"#utility.yul\":19158:19299   */\n    tag_310:\n        /* \"#utility.yul\":19207:19211   */\n      0x00\n        /* \"#utility.yul\":19230:19233   */\n      dup2\n        /* \"#utility.yul\":19222:19233   */\n      swap1\n      pop\n        /* \"#utility.yul\":19253:19256   */\n      dup2\n        /* \"#utility.yul\":19250:19251   */\n      0x00\n        /* \"#utility.yul\":19243:19257   */\n      mstore\n        /* \"#utility.yul\":19287:19291   */\n      0x20\n        /* \"#utility.yul\":19284:19285   */\n      0x00\n        /* \"#utility.yul\":19274:19292   */\n      keccak256\n        /* \"#utility.yul\":19266:19292   */\n      swap1\n      pop\n        /* \"#utility.yul\":19158:19299   */\n      swap2\n      swap1\n      pop\n      jump\t// out\n        /* \"#utility.yul\":19305:19398   */\n    tag_311:\n        /* \"#utility.yul\":19342:19348   */\n      0x00\n        /* \"#utility.yul\":19389:19391   */\n      0x20\n        /* \"#utility.yul\":19384:19386   */\n      0x1f\n        /* \"#utility.yul\":19377:19382   */\n      dup4\n        /* \"#utility.yul\":19373:19387   */\n      add\n        /* \"#utility.yul\":19369:19392   */\n      div\n        /* \"#utility.yul\":19359:19392   */\n      swap1\n      pop\n        /* \"#utility.yul\":19305:19398   */\n      swap2\n      swap1\n      pop\n      jump\t// out\n        /* \"#utility.yul\":19404:19511   */\n    tag_312:\n        /* \"#utility.yul\":19448:19456   */\n      0x00\n        /* \"#utility.yul\":19498:19503   */\n      dup3\n        /* \"#utility.yul\":19492:19496   */\n      dup3\n        /* \"#utility.yul\":19488:19504   */\n      shl\n        /* \"#utility.yul\":19467:19504   */\n      swap1\n      pop\n        /* \"#utility.yul\":19404:19511   */\n      swap3\n      swap2\n      pop\n      pop\n      jump\t// out\n        /* \"#utility.yul\":19517:19910   */\n    tag_313:\n        /* \"#utility.yul\":19586:19592   */\n      0x00\n        /* \"#utility.yul\":19636:19637   */\n      0x08\n        /* \"#utility.yul\":19624:19634   */\n      dup4\n        /* \"#utility.yul\":19620:19638   */\n      mul\n        /* \"#utility.yul\":19659:19756   */\n      tag_513\n        /* \"#utility.yul\":19689:19755   */\n      0xffffffffffffffffffffffffffffffffffffffffffffffffffffffffffffffff\n        /* \"#utility.yul\":19678:19687   */\n      dup3\n        /* \"#utility.yul\":19659:19756   */\n      tag_312\n      jump\t// in\n    tag_513:\n        /* \"#utility.yul\":19777:19816   */\n      tag_514\n        /* \"#utility.yul\":19807:19815   */\n      dup7\n        /* \"#utility.yul\":19796:19805   */\n      dup4\n        /* \"#utility.yul\":19777:19816   */\n      tag_312\n      jump\t// in\n    tag_514:\n        /* \"#utility.yul\":19765:19816   */\n      swap6\n      pop\n        /* \"#utility.yul\":19849:19853   */\n      dup1\n        /* \"#utility.yul\":19845:19854   */\n      not\n        /* \"#utility.yul\":19838:19843   */\n      dup5\n        /* \"#utility.yul\":19834:19855   */\n      and\n        /* \"#utility.yul\":19825:19855   */\n      swap4\n      pop\n        /* \"#utility.yul\":19898:19902   */\n      dup1\n        /* \"#utility.yul\":19888:19896   */\n      dup7\n        /* \"#utility.yul\":19884:19903   */\n      and\n        /* \"#utility.yul\":19877:19882   */\n      dup5\n        /* \"#utility.yul\":19874:19904   */\n      or\n        /* \"#utility.yul\":19864:19904   */\n      swap3\n      pop\n        /* \"#utility.yul\":19593:19910   */\n      pop\n      pop\n        /* \"#utility.yul\":19517:19910   */\n      swap4\n      swap3\n      pop\n      pop\n      pop\n      jump\t// out\n        /* \"#utility.yul\":19916:19976   */\n    tag_314:\n        /* \"#utility.yul\":19944:19947   */\n      0x00\n        /* \"#utility.yul\":19965:19970   */\n      dup2\n        /* \"#utility.yul\":19958:19970   */\n      swap1\n      pop\n        /* \"#utility.yul\":19916:19976   */\n      swap2\n      swap1\n      pop\n      jump\t// out\n        /* \"#utility.yul\":19982:20124   */\n    tag_315:\n        /* \"#utility.yul\":20032:20041   */\n      0x00\n        /* \"#utility.yul\":20065:20118   */\n      tag_517\n        /* \"#utility.yul\":20083:20117   */\n      tag_518\n        /* \"#utility.yul\":20092:20116   */\n      tag_519\n        /* \"#utility.yul\":20110:20115   */\n      dup5\n        /* \"#utility.yul\":20092:20116   */\n      tag_282\n      jump\t// in\n    tag_519:\n        /* \"#utility.yul\":20083:20117   */\n      tag_314\n      jump\t// in\n    tag_518:\n        /* \"#utility.yul\":20065:20118   */\n      tag_282\n      jump\t// in\n    tag_517:\n        /* \"#utility.yul\":20052:20118   */\n      swap1\n      pop\n        /* \"#utility.yul\":19982:20124   */\n      swap2\n      swap1\n      pop\n      jump\t// out\n        /* \"#utility.yul\":20130:20205   */\n    tag_316:\n        /* \"#utility.yul\":20173:20176   */\n      0x00\n        /* \"#utility.yul\":20194:20199   */\n      dup2\n        /* \"#utility.yul\":20187:20199   */\n      swap1\n      pop\n        /* \"#utility.yul\":20130:20205   */\n      swap2\n      swap1\n      pop\n      jump\t// out\n        /* \"#utility.yul\":20211:20480   */\n    tag_317:\n        /* \"#utility.yul\":20321:20360   */\n      tag_522\n        /* \"#utility.yul\":20352:20359   */\n      dup4\n        /* \"#utility.yul\":20321:20360   */\n      tag_315\n      jump\t// in\n    tag_522:\n        /* \"#utility.yul\":20382:20473   */\n      tag_523\n        /* \"#utility.yul\":20431:20472   */\n      tag_524\n        /* \"#utility.yul\":20455:20471   */\n      dup3\n        /* \"#utility.yul\":20431:20472   */\n      tag_316\n      jump\t// in\n    tag_524:\n        /* \"#utility.yul\":20423:20429   */\n      dup5\n        /* \"#utility.yul\":20416:20420   */\n      dup5\n        /* \"#utility.yul\":20410:20421   */\n      sload\n        /* \"#utility.yul\":20382:20473   */\n      tag_313\n      jump\t// in\n    tag_523:\n        /* \"#utility.yul\":20376:20380   */\n      dup3\n        /* \"#utility.yul\":20369:20474   */\n      sstore\n        /* \"#utility.yul\":20287:20480   */\n      pop\n        /* \"#utility.yul\":20211:20480   */\n      pop\n      pop\n      pop\n      jump\t// out\n        /* \"#utility.yul\":20486:20559   */\n    tag_318:\n        /* \"#utility.yul\":20531:20534   */\n      0x00\n        /* \"#utility.yul\":20486:20559   */\n      swap1\n      jump\t// out\n        /* \"#utility.yul\":20565:20754   */\n    tag_319:\n        /* \"#utility.yul\":20642:20674   */\n      tag_527\n      tag_318\n      jump\t// in\n    tag_527:\n        /* \"#utility.yul\":20683:20748   */\n      tag_528\n        /* \"#utility.yul\":20741:20747   */\n      dup2\n        /* \"#utility.yul\":20733:20739   */\n      dup5\n        /* \"#utility.yul\":20727:20731   */\n      dup5\n        /* \"#utility.yul\":20683:20748   */\n      tag_317\n      jump\t// in\n    tag_528:\n        /* \"#utility.yul\":20618:20754   */\n      pop\n        /* \"#utility.yul\":20565:20754   */\n      pop\n      pop\n      jump\t// out\n        /* \"#utility.yul\":20760:20946   */\n    tag_320:\n        /* \"#utility.yul\":20820:20940   */\n    tag_530:\n        /* \"#utility.yul\":20837:20840   */\n      dup2\n        /* \"#utility.yul\":20830:20835   */\n      dup2\n        /* \"#utility.yul\":20827:20841   */\n      lt\n        /* \"#utility.yul\":20820:20940   */\n      iszero\n      tag_532\n      jumpi\n        /* \"#utility.yul\":20891:20930   */\n      tag_533\n        /* \"#utility.yul\":20928:20929   */\n      0x00\n        /* \"#utility.yul\":20921:20926   */\n      dup3\n        /* \"#utility.yul\":20891:20930   */\n      tag_319\n      jump\t// in\n    tag_533:\n        /* \"#utility.yul\":20864:20865   */\n      0x01\n        /* \"#utility.yul\":20857:20862   */\n      dup2\n        /* \"#utility.yul\":20853:20866   */\n      add\n        /* \"#utility.yul\":20844:20866   */\n      swap1\n      pop\n        /* \"#utility.yul\":20820:20940   */\n      jump(tag_530)\n    tag_532:\n        /* \"#utility.yul\":20760:20946   */\n      pop\n      pop\n      jump\t// out\n        /* \"#utility.yul\":20952:21495   */\n    tag_321:\n        /* \"#utility.yul\":21053:21055   */\n      0x1f\n        /* \"#utility.yul\":21048:21051   */\n      dup3\n        /* \"#utility.yul\":21045:21056   */\n      gt\n        /* \"#utility.yul\":21042:21488   */\n      iszero\n      tag_535\n      jumpi\n        /* \"#utility.yul\":21087:21125   */\n      tag_536\n        /* \"#utility.yul\":21119:21124   */\n      dup2\n        /* \"#utility.yul\":21087:21125   */\n      tag_310\n      jump\t// in\n    tag_536:\n        /* \"#utility.yul\":21171:21200   */\n      tag_537\n        /* \"#utility.yul\":21189:21199   */\n      dup5\n        /* \"#utility.yul\":21171:21200   */\n      tag_311\n      jump\t// in\n    tag_537:\n        /* \"#utility.yul\":21161:21169   */\n      dup2\n        /* \"#utility.yul\":21157:21201   */\n      add\n        /* \"#utility.yul\":21354:21356   */\n      0x20\n        /* \"#utility.yul\":21342:21352   */\n      dup6\n        /* \"#utility.yul\":21339:21357   */\n      lt\n        /* \"#utility.yul\":21336:21385   */\n      iszero\n      tag_538\n      jumpi\n        /* \"#utility.yul\":21375:21383   */\n      dup2\n        /* \"#utility.yul\":21360:21383   */\n      swap1\n      pop\n        /* \"#utility.yul\":21336:21385   */\n    tag_538:\n        /* \"#utility.yul\":21398:21478   */\n      tag_539\n        /* \"#utility.yul\":21454:21476   */\n      tag_540\n        /* \"#utility.yul\":21472:21475   */\n      dup6\n        /* \"#utility.yul\":21454:21476   */\n      tag_311\n      jump\t// in\n    tag_540:\n        /* \"#utility.yul\":21444:21452   */\n      dup4\n        /* \"#utility.yul\":21440:21477   */\n      add\n        /* \"#utility.yul\":21427:21438   */\n      dup3\n        /* \"#utility.yul\":21398:21478   */\n      tag_320\n      jump\t// in\n    tag_539:\n        /* \"#utility.yul\":21057:21488   */\n      pop\n      pop\n        /* \"#utility.yul\":21042:21488   */\n    tag_535:\n        /* \"#utility.yul\":20952:21495   */\n      pop\n      pop\n      pop\n      jump\t// out\n        /* \"#utility.yul\":21501:21618   */\n    tag_322:\n        /* \"#utility.yul\":21555:21563   */\n      0x00\n        /* \"#utility.yul\":21605:21610   */\n      dup3\n        /* \"#utility.yul\":21599:21603   */\n      dup3\n        /* \"#utility.yul\":21595:21611   */\n      shr\n        /* \"#utility.yul\":21574:21611   */\n      swap1\n      pop\n        /* \"#utility.yul\":21501:21618   */\n      swap3\n      swap2\n      pop\n      pop\n      jump\t// out\n        /* \"#utility.yul\":21624:21793   */\n    tag_323:\n        /* \"#utility.yul\":21668:21674   */\n      0x00\n        /* \"#utility.yul\":21701:21752   */\n      tag_543\n        /* \"#utility.yul\":21749:21750   */\n      0x00\n        /* \"#utility.yul\":21745:21751   */\n      not\n        /* \"#utility.yul\":21737:21742   */\n      dup5\n        /* \"#utility.yul\":21734:21735   */\n      0x08\n        /* \"#utility.yul\":21730:21743   */\n      mul\n        /* \"#utility.yul\":21701:21752   */\n      tag_322\n      jump\t// in\n    tag_543:\n        /* \"#utility.yul\":21697:21753   */\n      not\n        /* \"#utility.yul\":21782:21786   */\n      dup1\n        /* \"#utility.yul\":21776:21780   */\n      dup4\n        /* \"#utility.yul\":21772:21787   */\n      and\n        /* \"#utility.yul\":21762:21787   */\n      swap2\n      pop\n        /* \"#utility.yul\":21675:21793   */\n      pop\n        /* \"#utility.yul\":21624:21793   */\n      swap3\n      swap2\n      pop\n      pop\n      jump\t// out\n        /* \"#utility.yul\":21798:22093   */\n    tag_324:\n        /* \"#utility.yul\":21874:21878   */\n      0x00\n        /* \"#utility.yul\":22020:22049   */\n      tag_545\n        /* \"#utility.yul\":22045:22048   */\n      dup4\n        /* \"#utility.yul\":22039:22043   */\n      dup4\n        /* \"#utility.yul\":22020:22049   */\n      tag_323\n      jump\t// in\n    tag_545:\n        /* \"#utility.yul\":22012:22049   */\n      swap2\n      pop\n        /* \"#utility.yul\":22082:22085   */\n      dup3\n        /* \"#utility.yul\":22079:22080   */\n      0x02\n        /* \"#utility.yul\":22075:22086   */\n      mul\n        /* \"#utility.yul\":22069:22073   */\n      dup3\n        /* \"#utility.yul\":22066:22087   */\n      or\n        /* \"#utility.yul\":22058:22087   */\n      swap1\n      pop\n        /* \"#utility.yul\":21798:22093   */\n      swap3\n      swap2\n      pop\n      pop\n      jump\t// out\n        /* \"#utility.yul\":22098:23493   */\n    tag_131:\n        /* \"#utility.yul\":22215:22252   */\n      tag_547\n        /* \"#utility.yul\":22248:22251   */\n      dup3\n        /* \"#utility.yul\":22215:22252   */\n      tag_303\n      jump\t// in\n    tag_547:\n        /* \"#utility.yul\":22317:22335   */\n      0xffffffffffffffff\n        /* \"#utility.yul\":22309:22315   */\n      dup2\n        /* \"#utility.yul\":22306:22336   */\n      gt\n        /* \"#utility.yul\":22303:22359   */\n      iszero\n      tag_548\n      jumpi\n        /* \"#utility.yul\":22339:22357   */\n      tag_549\n      tag_296\n      jump\t// in\n    tag_549:\n        /* \"#utility.yul\":22303:22359   */\n    tag_548:\n        /* \"#utility.yul\":22383:22421   */\n      tag_550\n        /* \"#utility.yul\":22415:22419   */\n      dup3\n        /* \"#utility.yul\":22409:22420   */\n      sload\n        /* \"#utility.yul\":22383:22421   */\n      tag_139\n      jump\t// in\n    tag_550:\n        /* \"#utility.yul\":22468:22535   */\n      tag_551\n        /* \"#utility.yul\":22528:22534   */\n      dup3\n        /* \"#utility.yul\":22520:22526   */\n      dup3\n        /* \"#utility.yul\":22514:22518   */\n      dup6\n        /* \"#utility.yul\":22468:22535   */\n      tag_321\n      jump\t// in\n    tag_551:\n        /* \"#utility.yul\":22562:22563   */\n      0x00\n        /* \"#utility.yul\":22586:22590   */\n      0x20\n        /* \"#utility.yul\":22573:22590   */\n      swap1\n      pop\n        /* \"#utility.yul\":22618:22620   */\n      0x1f\n        /* \"#utility.yul\":22610:22616   */\n      dup4\n        /* \"#utility.yul\":22607:22621   */\n      gt\n        /* \"#utility.yul\":22635:22636   */\n      0x01\n        /* \"#utility.yul\":22630:23248   */\n      dup2\n      eq\n      tag_553\n      jumpi\n        /* \"#utility.yul\":23292:23293   */\n      0x00\n        /* \"#utility.yul\":23309:23315   */\n      dup5\n        /* \"#utility.yul\":23306:23383   */\n      iszero\n      tag_554\n      jumpi\n        /* \"#utility.yul\":23358:23367   */\n      dup3\n        /* \"#utility.yul\":23353:23356   */\n      dup8\n        /* \"#utility.yul\":23349:23368   */\n      add\n        /* \"#utility.yul\":23343:23369   */\n      mload\n        /* \"#utility.yul\":23334:23369   */\n      swap1\n      pop\n        /* \"#utility.yul\":23306:23383   */\n    tag_554:\n        /* \"#utility.yul\":23409:23476   */\n      tag_555\n        /* \"#utility.yul\":23469:23475   */\n      dup6\n        /* \"#utility.yul\":23462:23467   */\n      dup3\n        /* \"#utility.yul\":23409:23476   */\n      tag_324\n      jump\t// in\n    tag_555:\n        /* \"#utility.yul\":23403:23407   */\n      dup7\n        /* \"#utility.yul\":23396:23477   */\n      sstore\n        /* \"#utility.yul\":23265:23487   */\n      pop\n        /* \"#utility.yul\":22600:23487   */\n      jump(tag_552)\n        /* \"#utility.yul\":22630:23248   */\n    tag_553:\n        /* \"#utility.yul\":22682:22686   */\n      0x1f\n        /* \"#utility.yul\":22678:22687   */\n      not\n        /* \"#utility.yul\":22670:22676   */\n      dup5\n        /* \"#utility.yul\":22666:22688   */\n      and\n        /* \"#utility.yul\":22716:22753   */\n      tag_556\n        /* \"#utility.yul\":22748:22752   */\n      dup7\n        /* \"#utility.yul\":22716:22753   */\n      tag_310\n      jump\t// in\n    tag_556:\n        /* \"#utility.yul\":22775:22776   */\n      0x00\n        /* \"#utility.yul\":22789:22997   */\n    tag_557:\n        /* \"#utility.yul\":22803:22810   */\n      dup3\n        /* \"#utility.yul\":22800:22801   */\n      dup2\n        /* \"#utility.yul\":22797:22811   */\n      lt\n        /* \"#utility.yul\":22789:22997   */\n      iszero\n      tag_559\n      jumpi\n        /* \"#utility.yul\":22882:22891   */\n      dup5\n        /* \"#utility.yul\":22877:22880   */\n      dup10\n        /* \"#utility.yul\":22873:22892   */\n      add\n        /* \"#utility.yul\":22867:22893   */\n      mload\n        /* \"#utility.yul\":22859:22865   */\n      dup3\n        /* \"#utility.yul\":22852:22894   */\n      sstore\n        /* \"#utility.yul\":22933:22934   */\n      0x01\n        /* \"#utility.yul\":22925:22931   */\n      dup3\n        /* \"#utility.yul\":22921:22935   */\n      add\n        /* \"#utility.yul\":22911:22935   */\n      swap2\n      pop\n        /* \"#utility.yul\":22980:22982   */\n      0x20\n        /* \"#utility.yul\":22969:22978   */\n      dup6\n        /* \"#utility.yul\":22965:22983   */\n      add\n        /* \"#utility.yul\":22952:22983   */\n      swap5\n      pop\n        /* \"#utility.yul\":22826:22830   */\n      0x20\n        /* \"#utility.yul\":22823:22824   */\n      dup2\n        /* \"#utility.yul\":22819:22831   */\n      add\n        /* \"#utility.yul\":22814:22831   */\n      swap1\n      pop\n        /* \"#utility.yul\":22789:22997   */\n      jump(tag_557)\n    tag_559:\n        /* \"#utility.yul\":23025:23031   */\n      dup7\n        /* \"#utility.yul\":23016:23023   */\n      dup4\n        /* \"#utility.yul\":23013:23032   */\n      lt\n        /* \"#utility.yul\":23010:23189   */\n      iszero\n      tag_560\n      jumpi\n        /* \"#utility.yul\":23083:23092   */\n      dup5\n        /* \"#utility.yul\":23078:23081   */\n      dup10\n        /* \"#utility.yul\":23074:23093   */\n      add\n        /* \"#utility.yul\":23068:23094   */\n      mload\n        /* \"#utility.yul\":23126:23174   */\n      tag_561\n        /* \"#utility.yul\":23168:23172   */\n      0x1f\n        /* \"#utility.yul\":23160:23166   */\n      dup10\n        /* \"#utility.yul\":23156:23173   */\n      and\n        /* \"#utility.yul\":23145:23154   */\n      dup3\n        /* \"#utility.yul\":23126:23174   */\n      tag_323\n      jump\t// in\n    tag_561:\n        /* \"#utility.yul\":23118:23124   */\n      dup4\n        /* \"#utility.yul\":23111:23175   */\n      sstore\n        /* \"#utility.yul\":23033:23189   */\n      pop\n        /* \"#utility.yul\":23010:23189   */\n    tag_560:\n        /* \"#utility.yul\":23235:23236   */\n      0x01\n        /* \"#utility.yul\":23231:23232   */\n      0x02\n        /* \"#utility.yul\":23223:23229   */\n      dup9\n        /* \"#utility.yul\":23219:23233   */\n      mul\n        /* \"#utility.yul\":23215:23237   */\n      add\n        /* \"#utility.yul\":23209:23213   */\n      dup9\n        /* \"#utility.yul\":23202:23238   */\n      sstore\n        /* \"#utility.yul\":22637:23248   */\n      pop\n      pop\n      pop\n        /* \"#utility.yul\":22600:23487   */\n    tag_552:\n      pop\n        /* \"#utility.yul\":22190:23493   */\n      pop\n      pop\n      pop\n        /* \"#utility.yul\":22098:23493   */\n      pop\n      pop\n      jump\t// out\n        /* \"#utility.yul\":23499:23732   */\n    tag_263:\n        /* \"#utility.yul\":23538:23541   */\n      0x00\n        /* \"#utility.yul\":23561:23585   */\n      tag_563\n        /* \"#utility.yul\":23579:23584   */\n      dup3\n        /* \"#utility.yul\":23561:23585   */\n      tag_282\n      jump\t// in\n    tag_563:\n        /* \"#utility.yul\":23552:23585   */\n      swap2\n      pop\n        /* \"#utility.yul\":23607:23673   */\n      0xffffffffffffffffffffffffffffffffffffffffffffffffffffffffffffffff\n        /* \"#utility.yul\":23600:23605   */\n      dup3\n        /* \"#utility.yul\":23597:23674   */\n      sub\n        /* \"#utility.yul\":23594:23697   */\n      tag_564\n      jumpi\n        /* \"#utility.yul\":23677:23695   */\n      tag_565\n      tag_308\n      jump\t// in\n    tag_565:\n        /* \"#utility.yul\":23594:23697   */\n    tag_564:\n        /* \"#utility.yul\":23724:23725   */\n      0x01\n        /* \"#utility.yul\":23717:23722   */\n      dup3\n        /* \"#utility.yul\":23713:23726   */\n      add\n        /* \"#utility.yul\":23706:23726   */\n      swap1\n      pop\n        /* \"#utility.yul\":23499:23732   */\n      swap2\n      swap1\n      pop\n      jump\t// out\n\n    auxdata: 0xa264697066735822122048043774efae35aeef4db754465cc2360a07f1c35806be7fbf12b37a7b256c8f64736f6c63430008130033\n}\n","bytecode":{"linkReferences":{},"object":"60806040523480156200001157600080fd5b50604051620026ba380380620026ba83398181016040528101906200003791906200012c565b80600360006101000a81548173ffffffffffffffffffffffffffffffffffffffff021916908373ffffffffffffffffffffffffffffffffffffffff16021790555081600481905550505062000173565b600080fd5b6000819050919050565b620000a1816200008c565b8114620000ad57600080fd5b50565b600081519050620000c18162000096565b92915050565b600073ffffffffffffffffffffffffffffffffffffffff82169050919050565b6000620000f482620000c7565b9050919050565b6200010681620000e7565b81146200011257600080fd5b50565b6000815190506200012681620000fb565b92915050565b6000806040838503121562000146576200014562000087565b5b60006200015685828601620000b0565b9250506020620001698582860162000115565b9150509250929050565b61253780620001836000396000f3fe6080604052600436106101095760003560e01c80638001bd7c11610095578063a2fbd6b711610064578063a2fbd6b71461039c578063c7957f56146103c5578063d7bb99ba146103ee578063d7d1bbdb146103f8578063ee5324221461042157610109565b80638001bd7c146102ba57806381d12c581461030257806382fde09314610346578063937e09b11461037157610109565b80634051ddac116100dc5780634051ddac146101ca578063481c6a75146101f95780635b1410b5146102245780635ba2271e1461024d5780637fcddd051461027857610109565b8063034410061461010e5780630a1443911461013757806317a371eb146101745780633410452a1461019f575b600080fd5b34801561011a57600080fd5b5061013560048036038101906101309190611838565b61044a565b005b34801561014357600080fd5b5061015e600480360381019061015991906118c3565b610594565b60405161016b919061190b565b60405180910390f35b34801561018057600080fd5b506101896105b4565b6040516101969190611935565b60405180910390f35b3480156101ab57600080fd5b506101b46105c0565b6040516101c19190611935565b60405180910390f35b3480156101d657600080fd5b506101df6105cd565b6040516101f095949392919061195f565b60405180910390f35b34801561020557600080fd5b5061020e610616565b60405161021b91906119b2565b60405180910390f35b34801561023057600080fd5b5061024b60048036038101906102469190611b13565b61063c565b005b34801561025957600080fd5b5061026261077e565b60405161026f9190611935565b60405180910390f35b34801561028457600080fd5b5061029f600480360381019061029a9190611838565b61078b565b6040516102b196959493929190611c8f565b60405180910390f35b3480156102c657600080fd5b506102e160048036038101906102dc9190611838565b610a8c565b6040516102f99c9b9a99989796959493929190611d13565b60405180910390f35b34801561030e57600080fd5b5061032960048036038101906103249190611838565b6110e1565b60405161033d989796959493929190611e1a565b60405180910390f35b34801561035257600080fd5b5061035b611386565b6040516103689190611935565b60405180910390f35b34801561037d57600080fd5b5061038661138c565b6040516103939190611935565b60405180910390f35b3480156103a857600080fd5b506103c360048036038101906103be9190611eb4565b611392565b005b3480156103d157600080fd5b506103ec60048036038101906103e79190611fbb565b61148e565b005b6103f6611538565b005b34801561040457600080fd5b5061041f600480360381019061041a9190611838565b6115b8565b005b34801561042d57600080fd5b5061044860048036038101906104439190612046565b611705565b005b600360009054906101000a900473ffffffffffffffffffffffffffffffffffffffff1673ffffffffffffffffffffffffffffffffffffffff163373ffffffffffffffffffffffffffffffffffffffff16146104a457600080fd5b6000600282815481106104ba576104b961211d565b5b9060005260206000209060080201905060026006546104d991906121aa565b8160060154116104e857600080fd5b8060050160149054906101000a900460ff161561050457600080fd5b8060050160009054906101000a900473ffffffffffffffffffffffffffffffffffffffff1673ffffffffffffffffffffffffffffffffffffffff166108fc82600301549081150290604051600060405180830381858888f19350505050158015610572573d6000803e3d6000fd5b5060018160050160146101000a81548160ff0219169083151502179055505050565b60056020528060005260406000206000915054906101000a900460ff1681565b60008080549050905090565b6000600280549050905090565b600080600080600060045447600280549050600654600360009054906101000a900473ffffffffffffffffffffffffffffffffffffffff16945094509450945094509091929394565b600360009054906101000a900473ffffffffffffffffffffffffffffffffffffffff1681565b600360009054906101000a900473ffffffffffffffffffffffffffffffffffffffff1673ffffffffffffffffffffffffffffffffffffffff163373ffffffffffffffffffffffffffffffffffffffff161461069657600080fd5b600060026001816001815401808255809150500390600052602060002090600802019050868160000190816106cb91906123e7565b50858160010190816106dd91906123e7565b50848160020190816106ef91906123e7565b508381600301819055508281600401908161070a91906123e7565b50818160050160006101000a81548173ffffffffffffffffffffffffffffffffffffffff021916908373ffffffffffffffffffffffffffffffffffffffff16021790555060008160050160146101000a81548160ff0219169083151502179055506000816006018190555050505050505050565b6000600180549050905090565b6000818154811061079b57600080fd5b90600052602060002090600602016000915090508060000180546107be9061220a565b80601f01602080910402602001604051908101604052809291908181526020018280546107ea9061220a565b80156108375780601f1061080c57610100808354040283529160200191610837565b820191906000526020600020905b81548152906001019060200180831161081a57829003601f168201915b50505050509080600101805461084c9061220a565b80601f01602080910402602001604051908101604052809291908181526020018280546108789061220a565b80156108c55780601f1061089a576101008083540402835291602001916108c5565b820191906000526020600020905b8154815290600101906020018083116108a857829003601f168201915b5050505050908060020160009054906101000a900460ff16908060030180546108ed9061220a565b80601f01602080910402602001604051908101604052809291908181526020018280546109199061220a565b80156109665780601f1061093b57610100808354040283529160200191610966565b820191906000526020600020905b81548152906001019060200180831161094957829003601f168201915b50505050509080600401805461097b9061220a565b80601f01602080910402602001604051908101604052809291908181526020018280546109a79061220a565b80156109f45780601f106109c9576101008083540402835291602001916109f4565b820191906000526020600020905b8154815290600101906020018083116109d757829003601f168201915b505050505090806005018054610a099061220a565b80601f0160208091040260200160405190810160405280929190818152602001828054610a359061220a565b8015610a825780601f10610a5757610100808354040283529160200191610a82565b820191906000526020600020905b815481529060010190602001808311610a6557829003601f168201915b5050505050905086565b60018181548110610a9c57600080fd5b90600052602060002090600c0201600091509050806000018054610abf9061220a565b80601f0160208091040260200160405190810160405280929190818152602001828054610aeb9061220a565b8015610b385780601f10610b0d57610100808354040283529160200191610b38565b820191906000526020600020905b815481529060010190602001808311610b1b57829003601f168201915b505050505090806001018054610b4d9061220a565b80601f0160208091040260200160405190810160405280929190818152602001828054610b799061220a565b8015610bc65780601f10610b9b57610100808354040283529160200191610bc6565b820191906000526020600020905b815481529060010190602001808311610ba957829003601f168201915b505050505090806002018054610bdb9061220a565b80601f0160208091040260200160405190810160405280929190818152602001828054610c079061220a565b8015610c545780601f10610c2957610100808354040283529160200191610c54565b820191906000526020600020905b815481529060010190602001808311610c3757829003601f168201915b505050505090806003018054610c699061220a565b80601f0160208091040260200160405190810160405280929190818152602001828054610c959061220a565b8015610ce25780601f10610cb757610100808354040283529160200191610ce2565b820191906000526020600020905b815481529060010190602001808311610cc557829003601f168201915b505050505090806004018054610cf79061220a565b80601f0160208091040260200160405190810160405280929190818152602001828054610d239061220a565b8015610d705780601f10610d4557610100808354040283529160200191610d70565b820191906000526020600020905b815481529060010190602001808311610d5357829003601f168201915b505050505090806005018054610d859061220a565b80601f0160208091040260200160405190810160405280929190818152602001828054610db19061220a565b8015610dfe5780601f10610dd357610100808354040283529160200191610dfe565b820191906000526020600020905b815481529060010190602001808311610de157829003601f168201915b505050505090806006018054610e139061220a565b80601f0160208091040260200160405190810160405280929190818152602001828054610e3f9061220a565b8015610e8c5780601f10610e6157610100808354040283529160200191610e8c565b820191906000526020600020905b815481529060010190602001808311610e6f57829003601f168201915b505050505090806007018054610ea19061220a565b80601f0160208091040260200160405190810160405280929190818152602001828054610ecd9061220a565b8015610f1a5780601f10610eef57610100808354040283529160200191610f1a565b820191906000526020600020905b815481529060010190602001808311610efd57829003601f168201915b505050505090806008018054610f2f9061220a565b80601f0160208091040260200160405190810160405280929190818152602001828054610f5b9061220a565b8015610fa85780601f10610f7d57610100808354040283529160200191610fa8565b820191906000526020600020905b815481529060010190602001808311610f8b57829003601f168201915b505050505090806009018054610fbd9061220a565b80601f0160208091040260200160405190810160405280929190818152602001828054610fe99061220a565b80156110365780601f1061100b57610100808354040283529160200191611036565b820191906000526020600020905b81548152906001019060200180831161101957829003601f168201915b50505050509080600a01805461104b9061220a565b80601f01602080910402602001604051908101604052809291908181526020018280546110779061220a565b80156110c45780601f10611099576101008083540402835291602001916110c4565b820191906000526020600020905b8154815290600101906020018083116110a757829003601f168201915b50505050509080600b0160009054906101000a900460ff1690508c565b600281815481106110f157600080fd5b90600052602060002090600802016000915090508060000180546111149061220a565b80601f01602080910402602001604051908101604052809291908181526020018280546111409061220a565b801561118d5780601f106111625761010080835404028352916020019161118d565b820191906000526020600020905b81548152906001019060200180831161117057829003601f168201915b5050505050908060010180546111a29061220a565b80601f01602080910402602001604051908101604052809291908181526020018280546111ce9061220a565b801561121b5780601f106111f05761010080835404028352916020019161121b565b820191906000526020600020905b8154815290600101906020018083116111fe57829003601f168201915b5050505050908060020180546112309061220a565b80601f016020809104026020016040519081016040528092919081815260200182805461125c9061220a565b80156112a95780601f1061127e576101008083540402835291602001916112a9565b820191906000526020600020905b81548152906001019060200180831161128c57829003601f168201915b5050505050908060030154908060040180546112c49061220a565b80601f01602080910402602001604051908101604052809291908181526020018280546112f09061220a565b801561133d5780601f106113125761010080835404028352916020019161133d565b820191906000526020600020905b81548152906001019060200180831161132057829003601f168201915b5050505050908060050160009054906101000a900473ffffffffffffffffffffffffffffffffffffffff16908060050160149054906101000a900460ff16908060060154905088565b60065481565b60045481565b600360009054906101000a900473ffffffffffffffffffffffffffffffffffffffff1673ffffffffffffffffffffffffffffffffffffffff163373ffffffffffffffffffffffffffffffffffffffff16146113ec57600080fd5b60008060018160018154018082558091505003906000526020600020906006020190508581600001908161142091906123e7565b508481600101908161143291906123e7565b5060008160020160006101000a81548160ff0219169083151502179055508381600301908161146191906123e7565b508281600401908161147391906123e7565b508181600501908161148591906123e7565b50505050505050565b600360009054906101000a900473ffffffffffffffffffffffffffffffffffffffff1673ffffffffffffffffffffffffffffffffffffffff163373ffffffffffffffffffffffffffffffffffffffff16146114e857600080fd5b6000600183815481106114fe576114fd61211d565b5b90600052602060002090600c020190508381600401908161151f91906123e7565b508181600901908161153191906123e7565b5050505050565b600454341161154657600080fd5b6001600560003373ffffffffffffffffffffffffffffffffffffffff1673ffffffffffffffffffffffffffffffffffffffff16815260200190815260200160002060006101000a81548160ff021916908315150217905550600660008154809291906115b1906124b9565b9190505550565b6000600282815481106115ce576115cd61211d565b5b90600052602060002090600802019050600560003373ffffffffffffffffffffffffffffffffffffffff1673ffffffffffffffffffffffffffffffffffffffff16815260200190815260200160002060009054906101000a900460ff1661163457600080fd5b8060070160003373ffffffffffffffffffffffffffffffffffffffff1673ffffffffffffffffffffffffffffffffffffffff16815260200190815260200160002060009054906101000a900460ff161561168d57600080fd5b60018160070160003373ffffffffffffffffffffffffffffffffffffffff1673ffffffffffffffffffffffffffffffffffffffff16815260200190815260200160002060006101000a81548160ff0219169083151502179055508060060160008154809291906116fc906124b9565b91905055505050565b600360009054906101000a900473ffffffffffffffffffffffffffffffffffffffff1673ffffffffffffffffffffffffffffffffffffffff163373ffffffffffffffffffffffffffffffffffffffff161461175f57600080fd5b6000600180816001815401808255809150500390600052602060002090600c020190508481600001908161179391906123e7565b50838160010190816117a591906123e7565b50828160020190816117b791906123e7565b50818160030190816117c991906123e7565b50600081600b0160006101000a81548160ff0219169083151502179055505050505050565b6000604051905090565b600080fd5b600080fd5b6000819050919050565b61181581611802565b811461182057600080fd5b50565b6000813590506118328161180c565b92915050565b60006020828403121561184e5761184d6117f8565b5b600061185c84828501611823565b91505092915050565b600073ffffffffffffffffffffffffffffffffffffffff82169050919050565b600061189082611865565b9050919050565b6118a081611885565b81146118ab57600080fd5b50565b6000813590506118bd81611897565b92915050565b6000602082840312156118d9576118d86117f8565b5b60006118e7848285016118ae565b91505092915050565b60008115159050919050565b611905816118f0565b82525050565b600060208201905061192060008301846118fc565b92915050565b61192f81611802565b82525050565b600060208201905061194a6000830184611926565b92915050565b61195981611885565b82525050565b600060a0820190506119746000830188611926565b6119816020830187611926565b61198e6040830186611926565b61199b6060830185611926565b6119a86080830184611950565b9695505050505050565b60006020820190506119c76000830184611950565b92915050565b600080fd5b600080fd5b6000601f19601f8301169050919050565b7f4e487b7100000000000000000000000000000000000000000000000000000000600052604160045260246000fd5b611a20826119d7565b810181811067ffffffffffffffff82111715611a3f57611a3e6119e8565b5b80604052505050565b6000611a526117ee565b9050611a5e8282611a17565b919050565b600067ffffffffffffffff821115611a7e57611a7d6119e8565b5b611a87826119d7565b9050602081019050919050565b82818337600083830152505050565b6000611ab6611ab184611a63565b611a48565b905082815260208101848484011115611ad257611ad16119d2565b5b611add848285611a94565b509392505050565b600082601f830112611afa57611af96119cd565b5b8135611b0a848260208601611aa3565b91505092915050565b60008060008060008060c08789031215611b3057611b2f6117f8565b5b600087013567ffffffffffffffff811115611b4e57611b4d6117fd565b5b611b5a89828a01611ae5565b965050602087013567ffffffffffffffff811115611b7b57611b7a6117fd565b5b611b8789828a01611ae5565b955050604087013567ffffffffffffffff811115611ba857611ba76117fd565b5b611bb489828a01611ae5565b9450506060611bc589828a01611823565b935050608087013567ffffffffffffffff811115611be657611be56117fd565b5b611bf289828a01611ae5565b92505060a0611c0389828a016118ae565b9150509295509295509295565b600081519050919050565b600082825260208201905092915050565b60005b83811015611c4a578082015181840152602081019050611c2f565b60008484015250505050565b6000611c6182611c10565b611c6b8185611c1b565b9350611c7b818560208601611c2c565b611c84816119d7565b840191505092915050565b600060c0820190508181036000830152611ca98189611c56565b90508181036020830152611cbd8188611c56565b9050611ccc60408301876118fc565b8181036060830152611cde8186611c56565b90508181036080830152611cf28185611c56565b905081810360a0830152611d068184611c56565b9050979650505050505050565b6000610180820190508181036000830152611d2e818f611c56565b90508181036020830152611d42818e611c56565b90508181036040830152611d56818d611c56565b90508181036060830152611d6a818c611c56565b90508181036080830152611d7e818b611c56565b905081810360a0830152611d92818a611c56565b905081810360c0830152611da68189611c56565b905081810360e0830152611dba8188611c56565b9050818103610100830152611dcf8187611c56565b9050818103610120830152611de48186611c56565b9050818103610140830152611df98185611c56565b9050611e096101608301846118fc565b9d9c50505050505050505050505050565b6000610100820190508181036000830152611e35818b611c56565b90508181036020830152611e49818a611c56565b90508181036040830152611e5d8189611c56565b9050611e6c6060830188611926565b8181036080830152611e7e8187611c56565b9050611e8d60a0830186611950565b611e9a60c08301856118fc565b611ea760e0830184611926565b9998505050505050505050565b600080600080600060a08688031215611ed057611ecf6117f8565b5b600086013567ffffffffffffffff811115611eee57611eed6117fd565b5b611efa88828901611ae5565b955050602086013567ffffffffffffffff811115611f1b57611f1a6117fd565b5b611f2788828901611ae5565b945050604086013567ffffffffffffffff811115611f4857611f476117fd565b5b611f5488828901611ae5565b935050606086013567ffffffffffffffff811115611f7557611f746117fd565b5b611f8188828901611ae5565b925050608086013567ffffffffffffffff811115611fa257611fa16117fd565b5b611fae88828901611ae5565b9150509295509295909350565b600080600060608486031215611fd457611fd36117f8565b5b600084013567ffffffffffffffff811115611ff257611ff16117fd565b5b611ffe86828701611ae5565b935050602061200f86828701611823565b925050604084013567ffffffffffffffff8111156120305761202f6117fd565b5b61203c86828701611ae5565b9150509250925092565b600080600080608085870312156120605761205f6117f8565b5b600085013567ffffffffffffffff81111561207e5761207d6117fd565b5b61208a87828801611ae5565b945050602085013567ffffffffffffffff8111156120ab576120aa6117fd565b5b6120b787828801611ae5565b935050604085013567ffffffffffffffff8111156120d8576120d76117fd565b5b6120e487828801611ae5565b925050606085013567ffffffffffffffff811115612105576121046117fd565b5b61211187828801611ae5565b91505092959194509250565b7f4e487b7100000000000000000000000000000000000000000000000000000000600052603260045260246000fd5b7f4e487b7100000000000000000000000000000000000000000000000000000000600052601260045260246000fd5b7f4e487b7100000000000000000000000000000000000000000000000000000000600052601160045260246000fd5b60006121b582611802565b91506121c083611802565b9250826121d0576121cf61214c565b5b828204905092915050565b7f4e487b7100000000000000000000000000000000000000000000000000000000600052602260045260246000fd5b6000600282049050600182168061222257607f821691505b602082108103612235576122346121db565b5b50919050565b60008190508160005260206000209050919050565b60006020601f8301049050919050565b600082821b905092915050565b60006008830261229d7fffffffffffffffffffffffffffffffffffffffffffffffffffffffffffffffff82612260565b6122a78683612260565b95508019841693508086168417925050509392505050565b6000819050919050565b60006122e46122df6122da84611802565b6122bf565b611802565b9050919050565b6000819050919050565b6122fe836122c9565b61231261230a826122eb565b84845461226d565b825550505050565b600090565b61232761231a565b6123328184846122f5565b505050565b5b818110156123565761234b60008261231f565b600181019050612338565b5050565b601f82111561239b5761236c8161223b565b61237584612250565b81016020851015612384578190505b61239861239085612250565b830182612337565b50505b505050565b600082821c905092915050565b60006123be600019846008026123a0565b1980831691505092915050565b60006123d783836123ad565b9150826002028217905092915050565b6123f082611c10565b67ffffffffffffffff811115612409576124086119e8565b5b612413825461220a565b61241e82828561235a565b600060209050601f831160018114612451576000841561243f578287015190505b61244985826123cb565b8655506124b1565b601f19841661245f8661223b565b60005b8281101561248757848901518255600182019150602085019450602081019050612462565b868310156124a457848901516124a0601f8916826123ad565b8355505b6001600288020188555050505b505050505050565b60006124c482611802565b91507fffffffffffffffffffffffffffffffffffffffffffffffffffffffffffffffff82036124f6576124f561217b565b5b60018201905091905056fea264697066735822122048043774efae35aeef4db754465cc2360a07f1c35806be7fbf12b37a7b256c8f64736f6c63430008130033","opcodes":"PUSH1 0x80 PUSH1 0x40 MSTORE CALLVALUE DUP1 ISZERO PUSH3 0x11 JUMPI PUSH1 0x0 DUP1 REVERT JUMPDEST POP PUSH1 0x40 MLOAD PUSH3 0x26BA CODESIZE SUB DUP1 PUSH3 0x26BA DUP4 CODECOPY DUP2 DUP2 ADD PUSH1 0x40 MSTORE DUP2 ADD SWAP1 PUSH3 0x37 SWAP2 SWAP1 PUSH3 0x12C JUMP JUMPDEST DUP1 PUSH1 0x3 PUSH1 0x0 PUSH2 0x100 EXP DUP2 SLOAD DUP2 PUSH20 0xFFFFFFFFFFFFFFFFFFFFFFFFFFFFFFFFFFFFFFFF MUL NOT AND SWAP1 DUP4 PUSH20 0xFFFFFFFFFFFFFFFFFFFFFFFFFFFFFFFFFFFFFFFF AND MUL OR SWAP1 SSTORE POP DUP2 PUSH1 0x4 DUP2 SWAP1 SSTORE POP POP POP PUSH3 0x173 JUMP JUMPDEST PUSH1 0x0 DUP1 REVERT JUMPDEST PUSH1 0x0 DUP2 SWAP1 POP SWAP2 SWAP1 POP JUMP JUMPDEST PUSH3 0xA1 DUP2 PUSH3 0x8C JUMP JUMPDEST DUP2 EQ PUSH3 0xAD JUMPI PUSH1 0x0 DUP1 REVERT JUMPDEST POP JUMP JUMPDEST PUSH1 0x0 DUP2 MLOAD SWAP1 POP PUSH3 0xC1 DUP2 PUSH3 0x96 JUMP JUMPDEST SWAP3 SWAP2 POP POP JUMP JUMPDEST PUSH1 0x0 PUSH20 0xFFFFFFFFFFFFFFFFFFFFFFFFFFFFFFFFFFFFFFFF DUP3 AND SWAP1 POP SWAP2 SWAP1 POP JUMP JUMPDEST PUSH1 0x0 PUSH3 0xF4 DUP3 PUSH3 0xC7 JUMP JUMPDEST SWAP1 POP SWAP2 SWAP1 POP JUMP JUMPDEST PUSH3 0x106 DUP2 PUSH3 0xE7 JUMP JUMPDEST DUP2 EQ PUSH3 0x112 JUMPI PUSH1 0x0 DUP1 REVERT JUMPDEST POP JUMP JUMPDEST PUSH1 0x0 DUP2 MLOAD SWAP1 POP PUSH3 0x126 DUP2 PUSH3 0xFB JUMP JUMPDEST SWAP3 SWAP2 POP POP JUMP JUMPDEST PUSH1 0x0 DUP1 PUSH1 0x40 DUP4 DUP6 SUB SLT ISZERO PUSH3 0x146 JUMPI PUSH3 0x145 PUSH3 0x87 JUMP JUMPDEST JUMPDEST PUSH1 0x0 PUSH3 0x156 DUP6 DUP3 DUP7 ADD PUSH3 0xB0 JUMP JUMPDEST SWAP3 POP POP PUSH1 0x20 PUSH3 0x169 DUP6 DUP3 DUP7 ADD PUSH3 0x115 JUMP JUMPDEST SWAP2 POP POP SWAP3 POP SWAP3 SWAP1 POP JUMP JUMPDEST PUSH2 0x2537 DUP1 PUSH3 0x183 PUSH1 0x0 CODECOPY PUSH1 0x0 RETURN INVALID PUSH1 0x80 PUSH1 0x40 MSTORE PUSH1 0x4 CALLDATASIZE LT PUSH2 0x109 JUMPI PUSH1 0x0 CALLDATALOAD PUSH1 0xE0 SHR DUP1 PUSH4 0x8001BD7C GT PUSH2 0x95 JUMPI DUP1 PUSH4 0xA2FBD6B7 GT PUSH2 0x64 JUMPI DUP1 PUSH4 0xA2FBD6B7 EQ PUSH2 0x39C JUMPI DUP1 PUSH4 0xC7957F56 EQ PUSH2 0x3C5 JUMPI DUP1 PUSH4 0xD7BB99BA EQ PUSH2 0x3EE JUMPI DUP1 PUSH4 0xD7D1BBDB EQ PUSH2 0x3F8 JUMPI DUP1 PUSH4 0xEE532422 EQ PUSH2 0x421 JUMPI PUSH2 0x109 JUMP JUMPDEST DUP1 PUSH4 0x8001BD7C EQ PUSH2 0x2BA JUMPI DUP1 PUSH4 0x81D12C58 EQ PUSH2 0x302 JUMPI DUP1 PUSH4 0x82FDE093 EQ PUSH2 0x346 JUMPI DUP1 PUSH4 0x937E09B1 EQ PUSH2 0x371 JUMPI PUSH2 0x109 JUMP JUMPDEST DUP1 PUSH4 0x4051DDAC GT PUSH2 0xDC JUMPI DUP1 PUSH4 0x4051DDAC EQ PUSH2 0x1CA JUMPI DUP1 PUSH4 0x481C6A75 EQ PUSH2 0x1F9 JUMPI DUP1 PUSH4 0x5B1410B5 EQ PUSH2 0x224 JUMPI DUP1 PUSH4 0x5BA2271E EQ PUSH2 0x24D JUMPI DUP1 PUSH4 0x7FCDDD05 EQ PUSH2 0x278 JUMPI PUSH2 0x109 JUMP JUMPDEST DUP1 PUSH4 0x3441006 EQ PUSH2 0x10E JUMPI DUP1 PUSH4 0xA144391 EQ PUSH2 0x137 JUMPI DUP1 PUSH4 0x17A371EB EQ PUSH2 0x174 JUMPI DUP1 PUSH4 0x3410452A EQ PUSH2 0x19F JUMPI JUMPDEST PUSH1 0x0 DUP1 REVERT JUMPDEST CALLVALUE DUP1 ISZERO PUSH2 0x11A JUMPI PUSH1 0x0 DUP1 REVERT JUMPDEST POP PUSH2 0x135 PUSH1 0x4 DUP1 CALLDATASIZE SUB DUP2 ADD SWAP1 PUSH2 0x130 SWAP2 SWAP1 PUSH2 0x1838 JUMP JUMPDEST PUSH2 0x44A JUMP JUMPDEST STOP JUMPDEST CALLVALUE DUP1 ISZERO PUSH2 0x143 JUMPI PUSH1 0x0 DUP1 REVERT JUMPDEST POP PUSH2 0x15E PUSH1 0x4 DUP1 CALLDATASIZE SUB DUP2 ADD SWAP1 PUSH2 0x159 SWAP2 SWAP1 PUSH2 0x18C3 JUMP JUMPDEST PUSH2 0x594 JUMP JUMPDEST PUSH1 0x40 MLOAD PUSH2 0x16B SWAP2 SWAP1 PUSH2 0x190B JUMP JUMPDEST PUSH1 0x40 MLOAD DUP1 SWAP2 SUB SWAP1 RETURN JUMPDEST CALLVALUE DUP1 ISZERO PUSH2 0x180 JUMPI PUSH1 0x0 DUP1 REVERT JUMPDEST POP PUSH2 0x189 PUSH2 0x5B4 JUMP JUMPDEST PUSH1 0x40 MLOAD PUSH2 0x196 SWAP2 SWAP1 PUSH2 0x1935 JUMP JUMPDEST PUSH1 0x40 MLOAD DUP1 SWAP2 SUB SWAP1 RETURN JUMPDEST CALLVALUE DUP1 ISZERO PUSH2 0x1AB JUMPI PUSH1 0x0 DUP1 REVERT JUMPDEST POP PUSH2 0x1B4 PUSH2 0x5C0 JUMP JUMPDEST PUSH1 0x40 MLOAD PUSH2 0x1C1 SWAP2 SWAP1 PUSH2 0x1935 JUMP JUMPDEST PUSH1 0x40 MLOAD DUP1 SWAP2 SUB SWAP1 RETURN JUMPDEST CALLVALUE DUP1 ISZERO PUSH2 0x1D6 JUMPI PUSH1 0x0 DUP1 REVERT JUMPDEST POP PUSH2 0x1DF PUSH2 0x5CD JUMP JUMPDEST PUSH1 0x40 MLOAD PUSH2 0x1F0 SWAP6 SWAP5 SWAP4 SWAP3 SWAP2 SWAP1 PUSH2 0x195F JUMP JUMPDEST PUSH1 0x40 MLOAD DUP1 SWAP2 SUB SWAP1 RETURN JUMPDEST CALLVALUE DUP1 ISZERO PUSH2 0x205 JUMPI PUSH1 0x0 DUP1 REVERT JUMPDEST POP PUSH2 0x20E PUSH2 0x616 JUMP JUMPDEST PUSH1 0x40 MLOAD PUSH2 0x21B SWAP2 SWAP1 PUSH2 0x19B2 JUMP JUMPDEST PUSH1 0x40 MLOAD DUP1 SWAP2 SUB SWAP1 RETURN JUMPDEST CALLVALUE DUP1 ISZERO PUSH2 0x230 JUMPI PUSH1 0x0 DUP1 REVERT JUMPDEST POP PUSH2 0x24B PUSH1 0x4 DUP1 CALLDATASIZE SUB DUP2 ADD SWAP1 PUSH2 0x246 SWAP2 SWAP1 PUSH2 0x1B13 JUMP JUMPDEST PUSH2 0x63C JUMP JUMPDEST STOP JUMPDEST CALLVALUE DUP1 ISZERO PUSH2 0x259 JUMPI PUSH1 0x0 DUP1 REVERT JUMPDEST POP PUSH2 0x262 PUSH2 0x77E JUMP JUMPDEST PUSH1 0x40 MLOAD PUSH2 0x26F SWAP2 SWAP1 PUSH2 0x1935 JUMP JUMPDEST PUSH1 0x40 MLOAD DUP1 SWAP2 SUB SWAP1 RETURN JUMPDEST CALLVALUE DUP1 ISZERO PUSH2 0x284 JUMPI PUSH1 0x0 DUP1 REVERT JUMPDEST POP PUSH2 0x29F PUSH1 0x4 DUP1 CALLDATASIZE SUB DUP2 ADD SWAP1 PUSH2 0x29A SWAP2 SWAP1 PUSH2 0x1838 JUMP JUMPDEST PUSH2 0x78B JUMP JUMPDEST PUSH1 0x40 MLOAD PUSH2 0x2B1 SWAP7 SWAP6 SWAP5 SWAP4 SWAP3 SWAP2 SWAP1 PUSH2 0x1C8F JUMP JUMPDEST PUSH1 0x40 MLOAD DUP1 SWAP2 SUB SWAP1 RETURN JUMPDEST CALLVALUE DUP1 ISZERO PUSH2 0x2C6 JUMPI PUSH1 0x0 DUP1 REVERT JUMPDEST POP PUSH2 0x2E1 PUSH1 0x4 DUP1 CALLDATASIZE SUB DUP2 ADD SWAP1 PUSH2 0x2DC SWAP2 SWAP1 PUSH2 0x1838 JUMP JUMPDEST PUSH2 0xA8C JUMP JUMPDEST PUSH1 0x40 MLOAD PUSH2 0x2F9 SWAP13 SWAP12 SWAP11 SWAP10 SWAP9 SWAP8 SWAP7 SWAP6 SWAP5 SWAP4 SWAP3 SWAP2 SWAP1 PUSH2 0x1D13 JUMP JUMPDEST PUSH1 0x40 MLOAD DUP1 SWAP2 SUB SWAP1 RETURN JUMPDEST CALLVALUE DUP1 ISZERO PUSH2 0x30E JUMPI PUSH1 0x0 DUP1 REVERT JUMPDEST POP PUSH2 0x329 PUSH1 0x4 DUP1 CALLDATASIZE SUB DUP2 ADD SWAP1 PUSH2 0x324 SWAP2 SWAP1 PUSH2 0x1838 JUMP JUMPDEST PUSH2 0x10E1 JUMP JUMPDEST PUSH1 0x40 MLOAD PUSH2 0x33D SWAP9 SWAP8 SWAP7 SWAP6 SWAP5 SWAP4 SWAP3 SWAP2 SWAP1 PUSH2 0x1E1A JUMP JUMPDEST PUSH1 0x40 MLOAD DUP1 SWAP2 SUB SWAP1 RETURN JUMPDEST CALLVALUE DUP1 ISZERO PUSH2 0x352 JUMPI PUSH1 0x0 DUP1 REVERT JUMPDEST POP PUSH2 0x35B PUSH2 0x1386 JUMP JUMPDEST PUSH1 0x40 MLOAD PUSH2 0x368 SWAP2 SWAP1 PUSH2 0x1935 JUMP JUMPDEST PUSH1 0x40 MLOAD DUP1 SWAP2 SUB SWAP1 RETURN JUMPDEST CALLVALUE DUP1 ISZERO PUSH2 0x37D JUMPI PUSH1 0x0 DUP1 REVERT JUMPDEST POP PUSH2 0x386 PUSH2 0x138C JUMP JUMPDEST PUSH1 0x40 MLOAD PUSH2 0x393 SWAP2 SWAP1 PUSH2 0x1935 JUMP JUMPDEST PUSH1 0x40 MLOAD DUP1 SWAP2 SUB SWAP1 RETURN JUMPDEST CALLVALUE DUP1 ISZERO PUSH2 0x3A8 JUMPI PUSH1 0x0 DUP1 REVERT JUMPDEST POP PUSH2 0x3C3 PUSH1 0x4 DUP1 CALLDATASIZE SUB DUP2 ADD SWAP1 PUSH2 0x3BE SWAP2 SWAP1 PUSH2 0x1EB4 JUMP JUMPDEST PUSH2 0x1392 JUMP JUMPDEST STOP JUMPDEST CALLVALUE DUP1 ISZERO PUSH2 0x3D1 JUMPI PUSH1 0x0 DUP1 REVERT JUMPDEST POP PUSH2 0x3EC PUSH1 0x4 DUP1 CALLDATASIZE SUB DUP2 ADD SWAP1 PUSH2 0x3E7 SWAP2 SWAP1 PUSH2 0x1FBB JUMP JUMPDEST PUSH2 0x148E JUMP JUMPDEST STOP JUMPDEST PUSH2 0x3F6 PUSH2 0x1538 JUMP JUMPDEST STOP JUMPDEST CALLVALUE DUP1 ISZERO PUSH2 0x404 JUMPI PUSH1 0x0 DUP1 REVERT JUMPDEST POP PUSH2 0x41F PUSH1 0x4 DUP1 CALLDATASIZE SUB DUP2 ADD SWAP1 PUSH2 0x41A SWAP2 SWAP1 PUSH2 0x1838 JUMP JUMPDEST PUSH2 0x15B8 JUMP JUMPDEST STOP JUMPDEST CALLVALUE DUP1 ISZERO PUSH2 0x42D JUMPI PUSH1 0x0 DUP1 REVERT JUMPDEST POP PUSH2 0x448 PUSH1 0x4 DUP1 CALLDATASIZE SUB DUP2 ADD SWAP1 PUSH2 0x443 SWAP2 SWAP1 PUSH2 0x2046 JUMP JUMPDEST PUSH2 0x1705 JUMP JUMPDEST STOP JUMPDEST PUSH1 0x3 PUSH1 0x0 SWAP1 SLOAD SWAP1 PUSH2 0x100 EXP SWAP1 DIV PUSH20 0xFFFFFFFFFFFFFFFFFFFFFFFFFFFFFFFFFFFFFFFF AND PUSH20 0xFFFFFFFFFFFFFFFFFFFFFFFFFFFFFFFFFFFFFFFF AND CALLER PUSH20 0xFFFFFFFFFFFFFFFFFFFFFFFFFFFFFFFFFFFFFFFF AND EQ PUSH2 0x4A4 JUMPI PUSH1 0x0 DUP1 REVERT JUMPDEST PUSH1 0x0 PUSH1 0x2 DUP3 DUP2 SLOAD DUP2 LT PUSH2 0x4BA JUMPI PUSH2 0x4B9 PUSH2 0x211D JUMP JUMPDEST JUMPDEST SWAP1 PUSH1 0x0 MSTORE PUSH1 0x20 PUSH1 0x0 KECCAK256 SWAP1 PUSH1 0x8 MUL ADD SWAP1 POP PUSH1 0x2 PUSH1 0x6 SLOAD PUSH2 0x4D9 SWAP2 SWAP1 PUSH2 0x21AA JUMP JUMPDEST DUP2 PUSH1 0x6 ADD SLOAD GT PUSH2 0x4E8 JUMPI PUSH1 0x0 DUP1 REVERT JUMPDEST DUP1 PUSH1 0x5 ADD PUSH1 0x14 SWAP1 SLOAD SWAP1 PUSH2 0x100 EXP SWAP1 DIV PUSH1 0xFF AND ISZERO PUSH2 0x504 JUMPI PUSH1 0x0 DUP1 REVERT JUMPDEST DUP1 PUSH1 0x5 ADD PUSH1 0x0 SWAP1 SLOAD SWAP1 PUSH2 0x100 EXP SWAP1 DIV PUSH20 0xFFFFFFFFFFFFFFFFFFFFFFFFFFFFFFFFFFFFFFFF AND PUSH20 0xFFFFFFFFFFFFFFFFFFFFFFFFFFFFFFFFFFFFFFFF AND PUSH2 0x8FC DUP3 PUSH1 0x3 ADD SLOAD SWAP1 DUP2 ISZERO MUL SWAP1 PUSH1 0x40 MLOAD PUSH1 0x0 PUSH1 0x40 MLOAD DUP1 DUP4 SUB DUP2 DUP6 DUP9 DUP9 CALL SWAP4 POP POP POP POP ISZERO DUP1 ISZERO PUSH2 0x572 JUMPI RETURNDATASIZE PUSH1 0x0 DUP1 RETURNDATACOPY RETURNDATASIZE PUSH1 0x0 REVERT JUMPDEST POP PUSH1 0x1 DUP2 PUSH1 0x5 ADD PUSH1 0x14 PUSH2 0x100 EXP DUP2 SLOAD DUP2 PUSH1 0xFF MUL NOT AND SWAP1 DUP4 ISZERO ISZERO MUL OR SWAP1 SSTORE POP POP POP JUMP JUMPDEST PUSH1 0x5 PUSH1 0x20 MSTORE DUP1 PUSH1 0x0 MSTORE PUSH1 0x40 PUSH1 0x0 KECCAK256 PUSH1 0x0 SWAP2 POP SLOAD SWAP1 PUSH2 0x100 EXP SWAP1 DIV PUSH1 0xFF AND DUP2 JUMP JUMPDEST PUSH1 0x0 DUP1 DUP1 SLOAD SWAP1 POP SWAP1 POP SWAP1 JUMP JUMPDEST PUSH1 0x0 PUSH1 0x2 DUP1 SLOAD SWAP1 POP SWAP1 POP SWAP1 JUMP JUMPDEST PUSH1 0x0 DUP1 PUSH1 0x0 DUP1 PUSH1 0x0 PUSH1 0x4 SLOAD SELFBALANCE PUSH1 0x2 DUP1 SLOAD SWAP1 POP PUSH1 0x6 SLOAD PUSH1 0x3 PUSH1 0x0 SWAP1 SLOAD SWAP1 PUSH2 0x100 EXP SWAP1 DIV PUSH20 0xFFFFFFFFFFFFFFFFFFFFFFFFFFFFFFFFFFFFFFFF AND SWAP5 POP SWAP5 POP SWAP5 POP SWAP5 POP SWAP5 POP SWAP1 SWAP2 SWAP3 SWAP4 SWAP5 JUMP JUMPDEST PUSH1 0x3 PUSH1 0x0 SWAP1 SLOAD SWAP1 PUSH2 0x100 EXP SWAP1 DIV PUSH20 0xFFFFFFFFFFFFFFFFFFFFFFFFFFFFFFFFFFFFFFFF AND DUP2 JUMP JUMPDEST PUSH1 0x3 PUSH1 0x0 SWAP1 SLOAD SWAP1 PUSH2 0x100 EXP SWAP1 DIV PUSH20 0xFFFFFFFFFFFFFFFFFFFFFFFFFFFFFFFFFFFFFFFF AND PUSH20 0xFFFFFFFFFFFFFFFFFFFFFFFFFFFFFFFFFFFFFFFF AND CALLER PUSH20 0xFFFFFFFFFFFFFFFFFFFFFFFFFFFFFFFFFFFFFFFF AND EQ PUSH2 0x696 JUMPI PUSH1 0x0 DUP1 REVERT JUMPDEST PUSH1 0x0 PUSH1 0x2 PUSH1 0x1 DUP2 PUSH1 0x1 DUP2 SLOAD ADD DUP1 DUP3 SSTORE DUP1 SWAP2 POP POP SUB SWAP1 PUSH1 0x0 MSTORE PUSH1 0x20 PUSH1 0x0 KECCAK256 SWAP1 PUSH1 0x8 MUL ADD SWAP1 POP DUP7 DUP2 PUSH1 0x0 ADD SWAP1 DUP2 PUSH2 0x6CB SWAP2 SWAP1 PUSH2 0x23E7 JUMP JUMPDEST POP DUP6 DUP2 PUSH1 0x1 ADD SWAP1 DUP2 PUSH2 0x6DD SWAP2 SWAP1 PUSH2 0x23E7 JUMP JUMPDEST POP DUP5 DUP2 PUSH1 0x2 ADD SWAP1 DUP2 PUSH2 0x6EF SWAP2 SWAP1 PUSH2 0x23E7 JUMP JUMPDEST POP DUP4 DUP2 PUSH1 0x3 ADD DUP2 SWAP1 SSTORE POP DUP3 DUP2 PUSH1 0x4 ADD SWAP1 DUP2 PUSH2 0x70A SWAP2 SWAP1 PUSH2 0x23E7 JUMP JUMPDEST POP DUP2 DUP2 PUSH1 0x5 ADD PUSH1 0x0 PUSH2 0x100 EXP DUP2 SLOAD DUP2 PUSH20 0xFFFFFFFFFFFFFFFFFFFFFFFFFFFFFFFFFFFFFFFF MUL NOT AND SWAP1 DUP4 PUSH20 0xFFFFFFFFFFFFFFFFFFFFFFFFFFFFFFFFFFFFFFFF AND MUL OR SWAP1 SSTORE POP PUSH1 0x0 DUP2 PUSH1 0x5 ADD PUSH1 0x14 PUSH2 0x100 EXP DUP2 SLOAD DUP2 PUSH1 0xFF MUL NOT AND SWAP1 DUP4 ISZERO ISZERO MUL OR SWAP1 SSTORE POP PUSH1 0x0 DUP2 PUSH1 0x6 ADD DUP2 SWAP1 SSTORE POP POP POP POP POP POP POP POP JUMP JUMPDEST PUSH1 0x0 PUSH1 0x1 DUP1 SLOAD SWAP1 POP SWAP1 POP SWAP1 JUMP JUMPDEST PUSH1 0x0 DUP2 DUP2 SLOAD DUP2 LT PUSH2 0x79B JUMPI PUSH1 0x0 DUP1 REVERT JUMPDEST SWAP1 PUSH1 0x0 MSTORE PUSH1 0x20 PUSH1 0x0 KECCAK256 SWAP1 PUSH1 0x6 MUL ADD PUSH1 0x0 SWAP2 POP SWAP1 POP DUP1 PUSH1 0x0 ADD DUP1 SLOAD PUSH2 0x7BE SWAP1 PUSH2 0x220A JUMP JUMPDEST DUP1 PUSH1 0x1F ADD PUSH1 0x20 DUP1 SWAP2 DIV MUL PUSH1 0x20 ADD PUSH1 0x40 MLOAD SWAP1 DUP2 ADD PUSH1 0x40 MSTORE DUP1 SWAP3 SWAP2 SWAP1 DUP2 DUP2 MSTORE PUSH1 0x20 ADD DUP3 DUP1 SLOAD PUSH2 0x7EA SWAP1 PUSH2 0x220A JUMP JUMPDEST DUP1 ISZERO PUSH2 0x837 JUMPI DUP1 PUSH1 0x1F LT PUSH2 0x80C JUMPI PUSH2 0x100 DUP1 DUP4 SLOAD DIV MUL DUP4 MSTORE SWAP2 PUSH1 0x20 ADD SWAP2 PUSH2 0x837 JUMP JUMPDEST DUP3 ADD SWAP2 SWAP1 PUSH1 0x0 MSTORE PUSH1 0x20 PUSH1 0x0 KECCAK256 SWAP1 JUMPDEST DUP2 SLOAD DUP2 MSTORE SWAP1 PUSH1 0x1 ADD SWAP1 PUSH1 0x20 ADD DUP1 DUP4 GT PUSH2 0x81A JUMPI DUP3 SWAP1 SUB PUSH1 0x1F AND DUP3 ADD SWAP2 JUMPDEST POP POP POP POP POP SWAP1 DUP1 PUSH1 0x1 ADD DUP1 SLOAD PUSH2 0x84C SWAP1 PUSH2 0x220A JUMP JUMPDEST DUP1 PUSH1 0x1F ADD PUSH1 0x20 DUP1 SWAP2 DIV MUL PUSH1 0x20 ADD PUSH1 0x40 MLOAD SWAP1 DUP2 ADD PUSH1 0x40 MSTORE DUP1 SWAP3 SWAP2 SWAP1 DUP2 DUP2 MSTORE PUSH1 0x20 ADD DUP3 DUP1 SLOAD PUSH2 0x878 SWAP1 PUSH2 0x220A JUMP JUMPDEST DUP1 ISZERO PUSH2 0x8C5 JUMPI DUP1 PUSH1 0x1F LT PUSH2 0x89A JUMPI PUSH2 0x100 DUP1 DUP4 SLOAD DIV MUL DUP4 MSTORE SWAP2 PUSH1 0x20 ADD SWAP2 PUSH2 0x8C5 JUMP JUMPDEST DUP3 ADD SWAP2 SWAP1 PUSH1 0x0 MSTORE PUSH1 0x20 PUSH1 0x0 KECCAK256 SWAP1 JUMPDEST DUP2 SLOAD DUP2 MSTORE SWAP1 PUSH1 0x1 ADD SWAP1 PUSH1 0x20 ADD DUP1 DUP4 GT PUSH2 0x8A8 JUMPI DUP3 SWAP1 SUB PUSH1 0x1F AND DUP3 ADD SWAP2 JUMPDEST POP POP POP POP POP SWAP1 DUP1 PUSH1 0x2 ADD PUSH1 0x0 SWAP1 SLOAD SWAP1 PUSH2 0x100 EXP SWAP1 DIV PUSH1 0xFF AND SWAP1 DUP1 PUSH1 0x3 ADD DUP1 SLOAD PUSH2 0x8ED SWAP1 PUSH2 0x220A JUMP JUMPDEST DUP1 PUSH1 0x1F ADD PUSH1 0x20 DUP1 SWAP2 DIV MUL PUSH1 0x20 ADD PUSH1 0x40 MLOAD SWAP1 DUP2 ADD PUSH1 0x40 MSTORE DUP1 SWAP3 SWAP2 SWAP1 DUP2 DUP2 MSTORE PUSH1 0x20 ADD DUP3 DUP1 SLOAD PUSH2 0x919 SWAP1 PUSH2 0x220A JUMP JUMPDEST DUP1 ISZERO PUSH2 0x966 JUMPI DUP1 PUSH1 0x1F LT PUSH2 0x93B JUMPI PUSH2 0x100 DUP1 DUP4 SLOAD DIV MUL DUP4 MSTORE SWAP2 PUSH1 0x20 ADD SWAP2 PUSH2 0x966 JUMP JUMPDEST DUP3 ADD SWAP2 SWAP1 PUSH1 0x0 MSTORE PUSH1 0x20 PUSH1 0x0 KECCAK256 SWAP1 JUMPDEST DUP2 SLOAD DUP2 MSTORE SWAP1 PUSH1 0x1 ADD SWAP1 PUSH1 0x20 ADD DUP1 DUP4 GT PUSH2 0x949 JUMPI DUP3 SWAP1 SUB PUSH1 0x1F AND DUP3 ADD SWAP2 JUMPDEST POP POP POP POP POP SWAP1 DUP1 PUSH1 0x4 ADD DUP1 SLOAD PUSH2 0x97B SWAP1 PUSH2 0x220A JUMP JUMPDEST DUP1 PUSH1 0x1F ADD PUSH1 0x20 DUP1 SWAP2 DIV MUL PUSH1 0x20 ADD PUSH1 0x40 MLOAD SWAP1 DUP2 ADD PUSH1 0x40 MSTORE DUP1 SWAP3 SWAP2 SWAP1 DUP2 DUP2 MSTORE PUSH1 0x20 ADD DUP3 DUP1 SLOAD PUSH2 0x9A7 SWAP1 PUSH2 0x220A JUMP JUMPDEST DUP1 ISZERO PUSH2 0x9F4 JUMPI DUP1 PUSH1 0x1F LT PUSH2 0x9C9 JUMPI PUSH2 0x100 DUP1 DUP4 SLOAD DIV MUL DUP4 MSTORE SWAP2 PUSH1 0x20 ADD SWAP2 PUSH2 0x9F4 JUMP JUMPDEST DUP3 ADD SWAP2 SWAP1 PUSH1 0x0 MSTORE PUSH1 0x20 PUSH1 0x0 KECCAK256 SWAP1 JUMPDEST DUP2 SLOAD DUP2 MSTORE SWAP1 PUSH1 0x1 ADD SWAP1 PUSH1 0x20 ADD DUP1 DUP4 GT PUSH2 0x9D7 JUMPI DUP3 SWAP1 SUB PUSH1 0x1F AND DUP3 ADD SWAP2 JUMPDEST POP POP POP POP POP SWAP1 DUP1 PUSH1 0x5 ADD DUP1 SLOAD PUSH2 0xA09 SWAP1 PUSH2 0x220A JUMP JUMPDEST DUP1 PUSH1 0x1F ADD PUSH1 0x20 DUP1 SWAP2 DIV MUL PUSH1 0x20 ADD PUSH1 0x40 MLOAD SWAP1 DUP2 ADD PUSH1 0x40 MSTORE DUP1 SWAP3 SWAP2 SWAP1 DUP2 DUP2 MSTORE PUSH1 0x20 ADD DUP3 DUP1 SLOAD PUSH2 0xA35 SWAP1 PUSH2 0x220A JUMP JUMPDEST DUP1 ISZERO PUSH2 0xA82 JUMPI DUP1 PUSH1 0x1F LT PUSH2 0xA57 JUMPI PUSH2 0x100 DUP1 DUP4 SLOAD DIV MUL DUP4 MSTORE SWAP2 PUSH1 0x20 ADD SWAP2 PUSH2 0xA82 JUMP JUMPDEST DUP3 ADD SWAP2 SWAP1 PUSH1 0x0 MSTORE PUSH1 0x20 PUSH1 0x0 KECCAK256 SWAP1 JUMPDEST DUP2 SLOAD DUP2 MSTORE SWAP1 PUSH1 0x1 ADD SWAP1 PUSH1 0x20 ADD DUP1 DUP4 GT PUSH2 0xA65 JUMPI DUP3 SWAP1 SUB PUSH1 0x1F AND DUP3 ADD SWAP2 JUMPDEST POP POP POP POP POP SWAP1 POP DUP7 JUMP JUMPDEST PUSH1 0x1 DUP2 DUP2 SLOAD DUP2 LT PUSH2 0xA9C JUMPI PUSH1 0x0 DUP1 REVERT JUMPDEST SWAP1 PUSH1 0x0 MSTORE PUSH1 0x20 PUSH1 0x0 KECCAK256 SWAP1 PUSH1 0xC MUL ADD PUSH1 0x0 SWAP2 POP SWAP1 POP DUP1 PUSH1 0x0 ADD DUP1 SLOAD PUSH2 0xABF SWAP1 PUSH2 0x220A JUMP JUMPDEST DUP1 PUSH1 0x1F ADD PUSH1 0x20 DUP1 SWAP2 DIV MUL PUSH1 0x20 ADD PUSH1 0x40 MLOAD SWAP1 DUP2 ADD PUSH1 0x40 MSTORE DUP1 SWAP3 SWAP2 SWAP1 DUP2 DUP2 MSTORE PUSH1 0x20 ADD DUP3 DUP1 SLOAD PUSH2 0xAEB SWAP1 PUSH2 0x220A JUMP JUMPDEST DUP1 ISZERO PUSH2 0xB38 JUMPI DUP1 PUSH1 0x1F LT PUSH2 0xB0D JUMPI PUSH2 0x100 DUP1 DUP4 SLOAD DIV MUL DUP4 MSTORE SWAP2 PUSH1 0x20 ADD SWAP2 PUSH2 0xB38 JUMP JUMPDEST DUP3 ADD SWAP2 SWAP1 PUSH1 0x0 MSTORE PUSH1 0x20 PUSH1 0x0 KECCAK256 SWAP1 JUMPDEST DUP2 SLOAD DUP2 MSTORE SWAP1 PUSH1 0x1 ADD SWAP1 PUSH1 0x20 ADD DUP1 DUP4 GT PUSH2 0xB1B JUMPI DUP3 SWAP1 SUB PUSH1 0x1F AND DUP3 ADD SWAP2 JUMPDEST POP POP POP POP POP SWAP1 DUP1 PUSH1 0x1 ADD DUP1 SLOAD PUSH2 0xB4D SWAP1 PUSH2 0x220A JUMP JUMPDEST DUP1 PUSH1 0x1F ADD PUSH1 0x20 DUP1 SWAP2 DIV MUL PUSH1 0x20 ADD PUSH1 0x40 MLOAD SWAP1 DUP2 ADD PUSH1 0x40 MSTORE DUP1 SWAP3 SWAP2 SWAP1 DUP2 DUP2 MSTORE PUSH1 0x20 ADD DUP3 DUP1 SLOAD PUSH2 0xB79 SWAP1 PUSH2 0x220A JUMP JUMPDEST DUP1 ISZERO PUSH2 0xBC6 JUMPI DUP1 PUSH1 0x1F LT PUSH2 0xB9B JUMPI PUSH2 0x100 DUP1 DUP4 SLOAD DIV MUL DUP4 MSTORE SWAP2 PUSH1 0x20 ADD SWAP2 PUSH2 0xBC6 JUMP JUMPDEST DUP3 ADD SWAP2 SWAP1 PUSH1 0x0 MSTORE PUSH1 0x20 PUSH1 0x0 KECCAK256 SWAP1 JUMPDEST DUP2 SLOAD DUP2 MSTORE SWAP1 PUSH1 0x1 ADD SWAP1 PUSH1 0x20 ADD DUP1 DUP4 GT PUSH2 0xBA9 JUMPI DUP3 SWAP1 SUB PUSH1 0x1F AND DUP3 ADD SWAP2 JUMPDEST POP POP POP POP POP SWAP1 DUP1 PUSH1 0x2 ADD DUP1 SLOAD PUSH2 0xBDB SWAP1 PUSH2 0x220A JUMP JUMPDEST DUP1 PUSH1 0x1F ADD PUSH1 0x20 DUP1 SWAP2 DIV MUL PUSH1 0x20 ADD PUSH1 0x40 MLOAD SWAP1 DUP2 ADD PUSH1 0x40 MSTORE DUP1 SWAP3 SWAP2 SWAP1 DUP2 DUP2 MSTORE PUSH1 0x20 ADD DUP3 DUP1 SLOAD PUSH2 0xC07 SWAP1 PUSH2 0x220A JUMP JUMPDEST DUP1 ISZERO PUSH2 0xC54 JUMPI DUP1 PUSH1 0x1F LT PUSH2 0xC29 JUMPI PUSH2 0x100 DUP1 DUP4 SLOAD DIV MUL DUP4 MSTORE SWAP2 PUSH1 0x20 ADD SWAP2 PUSH2 0xC54 JUMP JUMPDEST DUP3 ADD SWAP2 SWAP1 PUSH1 0x0 MSTORE PUSH1 0x20 PUSH1 0x0 KECCAK256 SWAP1 JUMPDEST DUP2 SLOAD DUP2 MSTORE SWAP1 PUSH1 0x1 ADD SWAP1 PUSH1 0x20 ADD DUP1 DUP4 GT PUSH2 0xC37 JUMPI DUP3 SWAP1 SUB PUSH1 0x1F AND DUP3 ADD SWAP2 JUMPDEST POP POP POP POP POP SWAP1 DUP1 PUSH1 0x3 ADD DUP1 SLOAD PUSH2 0xC69 SWAP1 PUSH2 0x220A JUMP JUMPDEST DUP1 PUSH1 0x1F ADD PUSH1 0x20 DUP1 SWAP2 DIV MUL PUSH1 0x20 ADD PUSH1 0x40 MLOAD SWAP1 DUP2 ADD PUSH1 0x40 MSTORE DUP1 SWAP3 SWAP2 SWAP1 DUP2 DUP2 MSTORE PUSH1 0x20 ADD DUP3 DUP1 SLOAD PUSH2 0xC95 SWAP1 PUSH2 0x220A JUMP JUMPDEST DUP1 ISZERO PUSH2 0xCE2 JUMPI DUP1 PUSH1 0x1F LT PUSH2 0xCB7 JUMPI PUSH2 0x100 DUP1 DUP4 SLOAD DIV MUL DUP4 MSTORE SWAP2 PUSH1 0x20 ADD SWAP2 PUSH2 0xCE2 JUMP JUMPDEST DUP3 ADD SWAP2 SWAP1 PUSH1 0x0 MSTORE PUSH1 0x20 PUSH1 0x0 KECCAK256 SWAP1 JUMPDEST DUP2 SLOAD DUP2 MSTORE SWAP1 PUSH1 0x1 ADD SWAP1 PUSH1 0x20 ADD DUP1 DUP4 GT PUSH2 0xCC5 JUMPI DUP3 SWAP1 SUB PUSH1 0x1F AND DUP3 ADD SWAP2 JUMPDEST POP POP POP POP POP SWAP1 DUP1 PUSH1 0x4 ADD DUP1 SLOAD PUSH2 0xCF7 SWAP1 PUSH2 0x220A JUMP JUMPDEST DUP1 PUSH1 0x1F ADD PUSH1 0x20 DUP1 SWAP2 DIV MUL PUSH1 0x20 ADD PUSH1 0x40 MLOAD SWAP1 DUP2 ADD PUSH1 0x40 MSTORE DUP1 SWAP3 SWAP2 SWAP1 DUP2 DUP2 MSTORE PUSH1 0x20 ADD DUP3 DUP1 SLOAD PUSH2 0xD23 SWAP1 PUSH2 0x220A JUMP JUMPDEST DUP1 ISZERO PUSH2 0xD70 JUMPI DUP1 PUSH1 0x1F LT PUSH2 0xD45 JUMPI PUSH2 0x100 DUP1 DUP4 SLOAD DIV MUL DUP4 MSTORE SWAP2 PUSH1 0x20 ADD SWAP2 PUSH2 0xD70 JUMP JUMPDEST DUP3 ADD SWAP2 SWAP1 PUSH1 0x0 MSTORE PUSH1 0x20 PUSH1 0x0 KECCAK256 SWAP1 JUMPDEST DUP2 SLOAD DUP2 MSTORE SWAP1 PUSH1 0x1 ADD SWAP1 PUSH1 0x20 ADD DUP1 DUP4 GT PUSH2 0xD53 JUMPI DUP3 SWAP1 SUB PUSH1 0x1F AND DUP3 ADD SWAP2 JUMPDEST POP POP POP POP POP SWAP1 DUP1 PUSH1 0x5 ADD DUP1 SLOAD PUSH2 0xD85 SWAP1 PUSH2 0x220A JUMP JUMPDEST DUP1 PUSH1 0x1F ADD PUSH1 0x20 DUP1 SWAP2 DIV MUL PUSH1 0x20 ADD PUSH1 0x40 MLOAD SWAP1 DUP2 ADD PUSH1 0x40 MSTORE DUP1 SWAP3 SWAP2 SWAP1 DUP2 DUP2 MSTORE PUSH1 0x20 ADD DUP3 DUP1 SLOAD PUSH2 0xDB1 SWAP1 PUSH2 0x220A JUMP JUMPDEST DUP1 ISZERO PUSH2 0xDFE JUMPI DUP1 PUSH1 0x1F LT PUSH2 0xDD3 JUMPI PUSH2 0x100 DUP1 DUP4 SLOAD DIV MUL DUP4 MSTORE SWAP2 PUSH1 0x20 ADD SWAP2 PUSH2 0xDFE JUMP JUMPDEST DUP3 ADD SWAP2 SWAP1 PUSH1 0x0 MSTORE PUSH1 0x20 PUSH1 0x0 KECCAK256 SWAP1 JUMPDEST DUP2 SLOAD DUP2 MSTORE SWAP1 PUSH1 0x1 ADD SWAP1 PUSH1 0x20 ADD DUP1 DUP4 GT PUSH2 0xDE1 JUMPI DUP3 SWAP1 SUB PUSH1 0x1F AND DUP3 ADD SWAP2 JUMPDEST POP POP POP POP POP SWAP1 DUP1 PUSH1 0x6 ADD DUP1 SLOAD PUSH2 0xE13 SWAP1 PUSH2 0x220A JUMP JUMPDEST DUP1 PUSH1 0x1F ADD PUSH1 0x20 DUP1 SWAP2 DIV MUL PUSH1 0x20 ADD PUSH1 0x40 MLOAD SWAP1 DUP2 ADD PUSH1 0x40 MSTORE DUP1 SWAP3 SWAP2 SWAP1 DUP2 DUP2 MSTORE PUSH1 0x20 ADD DUP3 DUP1 SLOAD PUSH2 0xE3F SWAP1 PUSH2 0x220A JUMP JUMPDEST DUP1 ISZERO PUSH2 0xE8C JUMPI DUP1 PUSH1 0x1F LT PUSH2 0xE61 JUMPI PUSH2 0x100 DUP1 DUP4 SLOAD DIV MUL DUP4 MSTORE SWAP2 PUSH1 0x20 ADD SWAP2 PUSH2 0xE8C JUMP JUMPDEST DUP3 ADD SWAP2 SWAP1 PUSH1 0x0 MSTORE PUSH1 0x20 PUSH1 0x0 KECCAK256 SWAP1 JUMPDEST DUP2 SLOAD DUP2 MSTORE SWAP1 PUSH1 0x1 ADD SWAP1 PUSH1 0x20 ADD DUP1 DUP4 GT PUSH2 0xE6F JUMPI DUP3 SWAP1 SUB PUSH1 0x1F AND DUP3 ADD SWAP2 JUMPDEST POP POP POP POP POP SWAP1 DUP1 PUSH1 0x7 ADD DUP1 SLOAD PUSH2 0xEA1 SWAP1 PUSH2 0x220A JUMP JUMPDEST DUP1 PUSH1 0x1F ADD PUSH1 0x20 DUP1 SWAP2 DIV MUL PUSH1 0x20 ADD PUSH1 0x40 MLOAD SWAP1 DUP2 ADD PUSH1 0x40 MSTORE DUP1 SWAP3 SWAP2 SWAP1 DUP2 DUP2 MSTORE PUSH1 0x20 ADD DUP3 DUP1 SLOAD PUSH2 0xECD SWAP1 PUSH2 0x220A JUMP JUMPDEST DUP1 ISZERO PUSH2 0xF1A JUMPI DUP1 PUSH1 0x1F LT PUSH2 0xEEF JUMPI PUSH2 0x100 DUP1 DUP4 SLOAD DIV MUL DUP4 MSTORE SWAP2 PUSH1 0x20 ADD SWAP2 PUSH2 0xF1A JUMP JUMPDEST DUP3 ADD SWAP2 SWAP1 PUSH1 0x0 MSTORE PUSH1 0x20 PUSH1 0x0 KECCAK256 SWAP1 JUMPDEST DUP2 SLOAD DUP2 MSTORE SWAP1 PUSH1 0x1 ADD SWAP1 PUSH1 0x20 ADD DUP1 DUP4 GT PUSH2 0xEFD JUMPI DUP3 SWAP1 SUB PUSH1 0x1F AND DUP3 ADD SWAP2 JUMPDEST POP POP POP POP POP SWAP1 DUP1 PUSH1 0x8 ADD DUP1 SLOAD PUSH2 0xF2F SWAP1 PUSH2 0x220A JUMP JUMPDEST DUP1 PUSH1 0x1F ADD PUSH1 0x20 DUP1 SWAP2 DIV MUL PUSH1 0x20 ADD PUSH1 0x40 MLOAD SWAP1 DUP2 ADD PUSH1 0x40 MSTORE DUP1 SWAP3 SWAP2 SWAP1 DUP2 DUP2 MSTORE PUSH1 0x20 ADD DUP3 DUP1 SLOAD PUSH2 0xF5B SWAP1 PUSH2 0x220A JUMP JUMPDEST DUP1 ISZERO PUSH2 0xFA8 JUMPI DUP1 PUSH1 0x1F LT PUSH2 0xF7D JUMPI PUSH2 0x100 DUP1 DUP4 SLOAD DIV MUL DUP4 MSTORE SWAP2 PUSH1 0x20 ADD SWAP2 PUSH2 0xFA8 JUMP JUMPDEST DUP3 ADD SWAP2 SWAP1 PUSH1 0x0 MSTORE PUSH1 0x20 PUSH1 0x0 KECCAK256 SWAP1 JUMPDEST DUP2 SLOAD DUP2 MSTORE SWAP1 PUSH1 0x1 ADD SWAP1 PUSH1 0x20 ADD DUP1 DUP4 GT PUSH2 0xF8B JUMPI DUP3 SWAP1 SUB PUSH1 0x1F AND DUP3 ADD SWAP2 JUMPDEST POP POP POP POP POP SWAP1 DUP1 PUSH1 0x9 ADD DUP1 SLOAD PUSH2 0xFBD SWAP1 PUSH2 0x220A JUMP JUMPDEST DUP1 PUSH1 0x1F ADD PUSH1 0x20 DUP1 SWAP2 DIV MUL PUSH1 0x20 ADD PUSH1 0x40 MLOAD SWAP1 DUP2 ADD PUSH1 0x40 MSTORE DUP1 SWAP3 SWAP2 SWAP1 DUP2 DUP2 MSTORE PUSH1 0x20 ADD DUP3 DUP1 SLOAD PUSH2 0xFE9 SWAP1 PUSH2 0x220A JUMP JUMPDEST DUP1 ISZERO PUSH2 0x1036 JUMPI DUP1 PUSH1 0x1F LT PUSH2 0x100B JUMPI PUSH2 0x100 DUP1 DUP4 SLOAD DIV MUL DUP4 MSTORE SWAP2 PUSH1 0x20 ADD SWAP2 PUSH2 0x1036 JUMP JUMPDEST DUP3 ADD SWAP2 SWAP1 PUSH1 0x0 MSTORE PUSH1 0x20 PUSH1 0x0 KECCAK256 SWAP1 JUMPDEST DUP2 SLOAD DUP2 MSTORE SWAP1 PUSH1 0x1 ADD SWAP1 PUSH1 0x20 ADD DUP1 DUP4 GT PUSH2 0x1019 JUMPI DUP3 SWAP1 SUB PUSH1 0x1F AND DUP3 ADD SWAP2 JUMPDEST POP POP POP POP POP SWAP1 DUP1 PUSH1 0xA ADD DUP1 SLOAD PUSH2 0x104B SWAP1 PUSH2 0x220A JUMP JUMPDEST DUP1 PUSH1 0x1F ADD PUSH1 0x20 DUP1 SWAP2 DIV MUL PUSH1 0x20 ADD PUSH1 0x40 MLOAD SWAP1 DUP2 ADD PUSH1 0x40 MSTORE DUP1 SWAP3 SWAP2 SWAP1 DUP2 DUP2 MSTORE PUSH1 0x20 ADD DUP3 DUP1 SLOAD PUSH2 0x1077 SWAP1 PUSH2 0x220A JUMP JUMPDEST DUP1 ISZERO PUSH2 0x10C4 JUMPI DUP1 PUSH1 0x1F LT PUSH2 0x1099 JUMPI PUSH2 0x100 DUP1 DUP4 SLOAD DIV MUL DUP4 MSTORE SWAP2 PUSH1 0x20 ADD SWAP2 PUSH2 0x10C4 JUMP JUMPDEST DUP3 ADD SWAP2 SWAP1 PUSH1 0x0 MSTORE PUSH1 0x20 PUSH1 0x0 KECCAK256 SWAP1 JUMPDEST DUP2 SLOAD DUP2 MSTORE SWAP1 PUSH1 0x1 ADD SWAP1 PUSH1 0x20 ADD DUP1 DUP4 GT PUSH2 0x10A7 JUMPI DUP3 SWAP1 SUB PUSH1 0x1F AND DUP3 ADD SWAP2 JUMPDEST POP POP POP POP POP SWAP1 DUP1 PUSH1 0xB ADD PUSH1 0x0 SWAP1 SLOAD SWAP1 PUSH2 0x100 EXP SWAP1 DIV PUSH1 0xFF AND SWAP1 POP DUP13 JUMP JUMPDEST PUSH1 0x2 DUP2 DUP2 SLOAD DUP2 LT PUSH2 0x10F1 JUMPI PUSH1 0x0 DUP1 REVERT JUMPDEST SWAP1 PUSH1 0x0 MSTORE PUSH1 0x20 PUSH1 0x0 KECCAK256 SWAP1 PUSH1 0x8 MUL ADD PUSH1 0x0 SWAP2 POP SWAP1 POP DUP1 PUSH1 0x0 ADD DUP1 SLOAD PUSH2 0x1114 SWAP1 PUSH2 0x220A JUMP JUMPDEST DUP1 PUSH1 0x1F ADD PUSH1 0x20 DUP1 SWAP2 DIV MUL PUSH1 0x20 ADD PUSH1 0x40 MLOAD SWAP1 DUP2 ADD PUSH1 0x40 MSTORE DUP1 SWAP3 SWAP2 SWAP1 DUP2 DUP2 MSTORE PUSH1 0x20 ADD DUP3 DUP1 SLOAD PUSH2 0x1140 SWAP1 PUSH2 0x220A JUMP JUMPDEST DUP1 ISZERO PUSH2 0x118D JUMPI DUP1 PUSH1 0x1F LT PUSH2 0x1162 JUMPI PUSH2 0x100 DUP1 DUP4 SLOAD DIV MUL DUP4 MSTORE SWAP2 PUSH1 0x20 ADD SWAP2 PUSH2 0x118D JUMP JUMPDEST DUP3 ADD SWAP2 SWAP1 PUSH1 0x0 MSTORE PUSH1 0x20 PUSH1 0x0 KECCAK256 SWAP1 JUMPDEST DUP2 SLOAD DUP2 MSTORE SWAP1 PUSH1 0x1 ADD SWAP1 PUSH1 0x20 ADD DUP1 DUP4 GT PUSH2 0x1170 JUMPI DUP3 SWAP1 SUB PUSH1 0x1F AND DUP3 ADD SWAP2 JUMPDEST POP POP POP POP POP SWAP1 DUP1 PUSH1 0x1 ADD DUP1 SLOAD PUSH2 0x11A2 SWAP1 PUSH2 0x220A JUMP JUMPDEST DUP1 PUSH1 0x1F ADD PUSH1 0x20 DUP1 SWAP2 DIV MUL PUSH1 0x20 ADD PUSH1 0x40 MLOAD SWAP1 DUP2 ADD PUSH1 0x40 MSTORE DUP1 SWAP3 SWAP2 SWAP1 DUP2 DUP2 MSTORE PUSH1 0x20 ADD DUP3 DUP1 SLOAD PUSH2 0x11CE SWAP1 PUSH2 0x220A JUMP JUMPDEST DUP1 ISZERO PUSH2 0x121B JUMPI DUP1 PUSH1 0x1F LT PUSH2 0x11F0 JUMPI PUSH2 0x100 DUP1 DUP4 SLOAD DIV MUL DUP4 MSTORE SWAP2 PUSH1 0x20 ADD SWAP2 PUSH2 0x121B JUMP JUMPDEST DUP3 ADD SWAP2 SWAP1 PUSH1 0x0 MSTORE PUSH1 0x20 PUSH1 0x0 KECCAK256 SWAP1 JUMPDEST DUP2 SLOAD DUP2 MSTORE SWAP1 PUSH1 0x1 ADD SWAP1 PUSH1 0x20 ADD DUP1 DUP4 GT PUSH2 0x11FE JUMPI DUP3 SWAP1 SUB PUSH1 0x1F AND DUP3 ADD SWAP2 JUMPDEST POP POP POP POP POP SWAP1 DUP1 PUSH1 0x2 ADD DUP1 SLOAD PUSH2 0x1230 SWAP1 PUSH2 0x220A JUMP JUMPDEST DUP1 PUSH1 0x1F ADD PUSH1 0x20 DUP1 SWAP2 DIV MUL PUSH1 0x20 ADD PUSH1 0x40 MLOAD SWAP1 DUP2 ADD PUSH1 0x40 MSTORE DUP1 SWAP3 SWAP2 SWAP1 DUP2 DUP2 MSTORE PUSH1 0x20 ADD DUP3 DUP1 SLOAD PUSH2 0x125C SWAP1 PUSH2 0x220A JUMP JUMPDEST DUP1 ISZERO PUSH2 0x12A9 JUMPI DUP1 PUSH1 0x1F LT PUSH2 0x127E JUMPI PUSH2 0x100 DUP1 DUP4 SLOAD DIV MUL DUP4 MSTORE SWAP2 PUSH1 0x20 ADD SWAP2 PUSH2 0x12A9 JUMP JUMPDEST DUP3 ADD SWAP2 SWAP1 PUSH1 0x0 MSTORE PUSH1 0x20 PUSH1 0x0 KECCAK256 SWAP1 JUMPDEST DUP2 SLOAD DUP2 MSTORE SWAP1 PUSH1 0x1 ADD SWAP1 PUSH1 0x20 ADD DUP1 DUP4 GT PUSH2 0x128C JUMPI DUP3 SWAP1 SUB PUSH1 0x1F AND DUP3 ADD SWAP2 JUMPDEST POP POP POP POP POP SWAP1 DUP1 PUSH1 0x3 ADD SLOAD SWAP1 DUP1 PUSH1 0x4 ADD DUP1 SLOAD PUSH2 0x12C4 SWAP1 PUSH2 0x220A JUMP JUMPDEST DUP1 PUSH1 0x1F ADD PUSH1 0x20 DUP1 SWAP2 DIV MUL PUSH1 0x20 ADD PUSH1 0x40 MLOAD SWAP1 DUP2 ADD PUSH1 0x40 MSTORE DUP1 SWAP3 SWAP2 SWAP1 DUP2 DUP2 MSTORE PUSH1 0x20 ADD DUP3 DUP1 SLOAD PUSH2 0x12F0 SWAP1 PUSH2 0x220A JUMP JUMPDEST DUP1 ISZERO PUSH2 0x133D JUMPI DUP1 PUSH1 0x1F LT PUSH2 0x1312 JUMPI PUSH2 0x100 DUP1 DUP4 SLOAD DIV MUL DUP4 MSTORE SWAP2 PUSH1 0x20 ADD SWAP2 PUSH2 0x133D JUMP JUMPDEST DUP3 ADD SWAP2 SWAP1 PUSH1 0x0 MSTORE PUSH1 0x20 PUSH1 0x0 KECCAK256 SWAP1 JUMPDEST DUP2 SLOAD DUP2 MSTORE SWAP1 PUSH1 0x1 ADD SWAP1 PUSH1 0x20 ADD DUP1 DUP4 GT PUSH2 0x1320 JUMPI DUP3 SWAP1 SUB PUSH1 0x1F AND DUP3 ADD SWAP2 JUMPDEST POP POP POP POP POP SWAP1 DUP1 PUSH1 0x5 ADD PUSH1 0x0 SWAP1 SLOAD SWAP1 PUSH2 0x100 EXP SWAP1 DIV PUSH20 0xFFFFFFFFFFFFFFFFFFFFFFFFFFFFFFFFFFFFFFFF AND SWAP1 DUP1 PUSH1 0x5 ADD PUSH1 0x14 SWAP1 SLOAD SWAP1 PUSH2 0x100 EXP SWAP1 DIV PUSH1 0xFF AND SWAP1 DUP1 PUSH1 0x6 ADD SLOAD SWAP1 POP DUP9 JUMP JUMPDEST PUSH1 0x6 SLOAD DUP2 JUMP JUMPDEST PUSH1 0x4 SLOAD DUP2 JUMP JUMPDEST PUSH1 0x3 PUSH1 0x0 SWAP1 SLOAD SWAP1 PUSH2 0x100 EXP SWAP1 DIV PUSH20 0xFFFFFFFFFFFFFFFFFFFFFFFFFFFFFFFFFFFFFFFF AND PUSH20 0xFFFFFFFFFFFFFFFFFFFFFFFFFFFFFFFFFFFFFFFF AND CALLER PUSH20 0xFFFFFFFFFFFFFFFFFFFFFFFFFFFFFFFFFFFFFFFF AND EQ PUSH2 0x13EC JUMPI PUSH1 0x0 DUP1 REVERT JUMPDEST PUSH1 0x0 DUP1 PUSH1 0x1 DUP2 PUSH1 0x1 DUP2 SLOAD ADD DUP1 DUP3 SSTORE DUP1 SWAP2 POP POP SUB SWAP1 PUSH1 0x0 MSTORE PUSH1 0x20 PUSH1 0x0 KECCAK256 SWAP1 PUSH1 0x6 MUL ADD SWAP1 POP DUP6 DUP2 PUSH1 0x0 ADD SWAP1 DUP2 PUSH2 0x1420 SWAP2 SWAP1 PUSH2 0x23E7 JUMP JUMPDEST POP DUP5 DUP2 PUSH1 0x1 ADD SWAP1 DUP2 PUSH2 0x1432 SWAP2 SWAP1 PUSH2 0x23E7 JUMP JUMPDEST POP PUSH1 0x0 DUP2 PUSH1 0x2 ADD PUSH1 0x0 PUSH2 0x100 EXP DUP2 SLOAD DUP2 PUSH1 0xFF MUL NOT AND SWAP1 DUP4 ISZERO ISZERO MUL OR SWAP1 SSTORE POP DUP4 DUP2 PUSH1 0x3 ADD SWAP1 DUP2 PUSH2 0x1461 SWAP2 SWAP1 PUSH2 0x23E7 JUMP JUMPDEST POP DUP3 DUP2 PUSH1 0x4 ADD SWAP1 DUP2 PUSH2 0x1473 SWAP2 SWAP1 PUSH2 0x23E7 JUMP JUMPDEST POP DUP2 DUP2 PUSH1 0x5 ADD SWAP1 DUP2 PUSH2 0x1485 SWAP2 SWAP1 PUSH2 0x23E7 JUMP JUMPDEST POP POP POP POP POP POP POP JUMP JUMPDEST PUSH1 0x3 PUSH1 0x0 SWAP1 SLOAD SWAP1 PUSH2 0x100 EXP SWAP1 DIV PUSH20 0xFFFFFFFFFFFFFFFFFFFFFFFFFFFFFFFFFFFFFFFF AND PUSH20 0xFFFFFFFFFFFFFFFFFFFFFFFFFFFFFFFFFFFFFFFF AND CALLER PUSH20 0xFFFFFFFFFFFFFFFFFFFFFFFFFFFFFFFFFFFFFFFF AND EQ PUSH2 0x14E8 JUMPI PUSH1 0x0 DUP1 REVERT JUMPDEST PUSH1 0x0 PUSH1 0x1 DUP4 DUP2 SLOAD DUP2 LT PUSH2 0x14FE JUMPI PUSH2 0x14FD PUSH2 0x211D JUMP JUMPDEST JUMPDEST SWAP1 PUSH1 0x0 MSTORE PUSH1 0x20 PUSH1 0x0 KECCAK256 SWAP1 PUSH1 0xC MUL ADD SWAP1 POP DUP4 DUP2 PUSH1 0x4 ADD SWAP1 DUP2 PUSH2 0x151F SWAP2 SWAP1 PUSH2 0x23E7 JUMP JUMPDEST POP DUP2 DUP2 PUSH1 0x9 ADD SWAP1 DUP2 PUSH2 0x1531 SWAP2 SWAP1 PUSH2 0x23E7 JUMP JUMPDEST POP POP POP POP POP JUMP JUMPDEST PUSH1 0x4 SLOAD CALLVALUE GT PUSH2 0x1546 JUMPI PUSH1 0x0 DUP1 REVERT JUMPDEST PUSH1 0x1 PUSH1 0x5 PUSH1 0x0 CALLER PUSH20 0xFFFFFFFFFFFFFFFFFFFFFFFFFFFFFFFFFFFFFFFF AND PUSH20 0xFFFFFFFFFFFFFFFFFFFFFFFFFFFFFFFFFFFFFFFF AND DUP2 MSTORE PUSH1 0x20 ADD SWAP1 DUP2 MSTORE PUSH1 0x20 ADD PUSH1 0x0 KECCAK256 PUSH1 0x0 PUSH2 0x100 EXP DUP2 SLOAD DUP2 PUSH1 0xFF MUL NOT AND SWAP1 DUP4 ISZERO ISZERO MUL OR SWAP1 SSTORE POP PUSH1 0x6 PUSH1 0x0 DUP2 SLOAD DUP1 SWAP3 SWAP2 SWAP1 PUSH2 0x15B1 SWAP1 PUSH2 0x24B9 JUMP JUMPDEST SWAP2 SWAP1 POP SSTORE POP JUMP JUMPDEST PUSH1 0x0 PUSH1 0x2 DUP3 DUP2 SLOAD DUP2 LT PUSH2 0x15CE JUMPI PUSH2 0x15CD PUSH2 0x211D JUMP JUMPDEST JUMPDEST SWAP1 PUSH1 0x0 MSTORE PUSH1 0x20 PUSH1 0x0 KECCAK256 SWAP1 PUSH1 0x8 MUL ADD SWAP1 POP PUSH1 0x5 PUSH1 0x0 CALLER PUSH20 0xFFFFFFFFFFFFFFFFFFFFFFFFFFFFFFFFFFFFFFFF AND PUSH20 0xFFFFFFFFFFFFFFFFFFFFFFFFFFFFFFFFFFFFFFFF AND DUP2 MSTORE PUSH1 0x20 ADD SWAP1 DUP2 MSTORE PUSH1 0x20 ADD PUSH1 0x0 KECCAK256 PUSH1 0x0 SWAP1 SLOAD SWAP1 PUSH2 0x100 EXP SWAP1 DIV PUSH1 0xFF AND PUSH2 0x1634 JUMPI PUSH1 0x0 DUP1 REVERT JUMPDEST DUP1 PUSH1 0x7 ADD PUSH1 0x0 CALLER PUSH20 0xFFFFFFFFFFFFFFFFFFFFFFFFFFFFFFFFFFFFFFFF AND PUSH20 0xFFFFFFFFFFFFFFFFFFFFFFFFFFFFFFFFFFFFFFFF AND DUP2 MSTORE PUSH1 0x20 ADD SWAP1 DUP2 MSTORE PUSH1 0x20 ADD PUSH1 0x0 KECCAK256 PUSH1 0x0 SWAP1 SLOAD SWAP1 PUSH2 0x100 EXP SWAP1 DIV PUSH1 0xFF AND ISZERO PUSH2 0x168D JUMPI PUSH1 0x0 DUP1 REVERT JUMPDEST PUSH1 0x1 DUP2 PUSH1 0x7 ADD PUSH1 0x0 CALLER PUSH20 0xFFFFFFFFFFFFFFFFFFFFFFFFFFFFFFFFFFFFFFFF AND PUSH20 0xFFFFFFFFFFFFFFFFFFFFFFFFFFFFFFFFFFFFFFFF AND DUP2 MSTORE PUSH1 0x20 ADD SWAP1 DUP2 MSTORE PUSH1 0x20 ADD PUSH1 0x0 KECCAK256 PUSH1 0x0 PUSH2 0x100 EXP DUP2 SLOAD DUP2 PUSH1 0xFF MUL NOT AND SWAP1 DUP4 ISZERO ISZERO MUL OR SWAP1 SSTORE POP DUP1 PUSH1 0x6 ADD PUSH1 0x0 DUP2 SLOAD DUP1 SWAP3 SWAP2 SWAP1 PUSH2 0x16FC SWAP1 PUSH2 0x24B9 JUMP JUMPDEST SWAP2 SWAP1 POP SSTORE POP POP POP JUMP JUMPDEST PUSH1 0x3 PUSH1 0x0 SWAP1 SLOAD SWAP1 PUSH2 0x100 EXP SWAP1 DIV PUSH20 0xFFFFFFFFFFFFFFFFFFFFFFFFFFFFFFFFFFFFFFFF AND PUSH20 0xFFFFFFFFFFFFFFFFFFFFFFFFFFFFFFFFFFFFFFFF AND CALLER PUSH20 0xFFFFFFFFFFFFFFFFFFFFFFFFFFFFFFFFFFFFFFFF AND EQ PUSH2 0x175F JUMPI PUSH1 0x0 DUP1 REVERT JUMPDEST PUSH1 0x0 PUSH1 0x1 DUP1 DUP2 PUSH1 0x1 DUP2 SLOAD ADD DUP1 DUP3 SSTORE DUP1 SWAP2 POP POP SUB SWAP1 PUSH1 0x0 MSTORE PUSH1 0x20 PUSH1 0x0 KECCAK256 SWAP1 PUSH1 0xC MUL ADD SWAP1 POP DUP5 DUP2 PUSH1 0x0 ADD SWAP1 DUP2 PUSH2 0x1793 SWAP2 SWAP1 PUSH2 0x23E7 JUMP JUMPDEST POP DUP4 DUP2 PUSH1 0x1 ADD SWAP1 DUP2 PUSH2 0x17A5 SWAP2 SWAP1 PUSH2 0x23E7 JUMP JUMPDEST POP DUP3 DUP2 PUSH1 0x2 ADD SWAP1 DUP2 PUSH2 0x17B7 SWAP2 SWAP1 PUSH2 0x23E7 JUMP JUMPDEST POP DUP2 DUP2 PUSH1 0x3 ADD SWAP1 DUP2 PUSH2 0x17C9 SWAP2 SWAP1 PUSH2 0x23E7 JUMP JUMPDEST POP PUSH1 0x0 DUP2 PUSH1 0xB ADD PUSH1 0x0 PUSH2 0x100 EXP DUP2 SLOAD DUP2 PUSH1 0xFF MUL NOT AND SWAP1 DUP4 ISZERO ISZERO MUL OR SWAP1 SSTORE POP POP POP POP POP POP JUMP JUMPDEST PUSH1 0x0 PUSH1 0x40 MLOAD SWAP1 POP SWAP1 JUMP JUMPDEST PUSH1 0x0 DUP1 REVERT JUMPDEST PUSH1 0x0 DUP1 REVERT JUMPDEST PUSH1 0x0 DUP2 SWAP1 POP SWAP2 SWAP1 POP JUMP JUMPDEST PUSH2 0x1815 DUP2 PUSH2 0x1802 JUMP JUMPDEST DUP2 EQ PUSH2 0x1820 JUMPI PUSH1 0x0 DUP1 REVERT JUMPDEST POP JUMP JUMPDEST PUSH1 0x0 DUP2 CALLDATALOAD SWAP1 POP PUSH2 0x1832 DUP2 PUSH2 0x180C JUMP JUMPDEST SWAP3 SWAP2 POP POP JUMP JUMPDEST PUSH1 0x0 PUSH1 0x20 DUP3 DUP5 SUB SLT ISZERO PUSH2 0x184E JUMPI PUSH2 0x184D PUSH2 0x17F8 JUMP JUMPDEST JUMPDEST PUSH1 0x0 PUSH2 0x185C DUP5 DUP3 DUP6 ADD PUSH2 0x1823 JUMP JUMPDEST SWAP2 POP POP SWAP3 SWAP2 POP POP JUMP JUMPDEST PUSH1 0x0 PUSH20 0xFFFFFFFFFFFFFFFFFFFFFFFFFFFFFFFFFFFFFFFF DUP3 AND SWAP1 POP SWAP2 SWAP1 POP JUMP JUMPDEST PUSH1 0x0 PUSH2 0x1890 DUP3 PUSH2 0x1865 JUMP JUMPDEST SWAP1 POP SWAP2 SWAP1 POP JUMP JUMPDEST PUSH2 0x18A0 DUP2 PUSH2 0x1885 JUMP JUMPDEST DUP2 EQ PUSH2 0x18AB JUMPI PUSH1 0x0 DUP1 REVERT JUMPDEST POP JUMP JUMPDEST PUSH1 0x0 DUP2 CALLDATALOAD SWAP1 POP PUSH2 0x18BD DUP2 PUSH2 0x1897 JUMP JUMPDEST SWAP3 SWAP2 POP POP JUMP JUMPDEST PUSH1 0x0 PUSH1 0x20 DUP3 DUP5 SUB SLT ISZERO PUSH2 0x18D9 JUMPI PUSH2 0x18D8 PUSH2 0x17F8 JUMP JUMPDEST JUMPDEST PUSH1 0x0 PUSH2 0x18E7 DUP5 DUP3 DUP6 ADD PUSH2 0x18AE JUMP JUMPDEST SWAP2 POP POP SWAP3 SWAP2 POP POP JUMP JUMPDEST PUSH1 0x0 DUP2 ISZERO ISZERO SWAP1 POP SWAP2 SWAP1 POP JUMP JUMPDEST PUSH2 0x1905 DUP2 PUSH2 0x18F0 JUMP JUMPDEST DUP3 MSTORE POP POP JUMP JUMPDEST PUSH1 0x0 PUSH1 0x20 DUP3 ADD SWAP1 POP PUSH2 0x1920 PUSH1 0x0 DUP4 ADD DUP5 PUSH2 0x18FC JUMP JUMPDEST SWAP3 SWAP2 POP POP JUMP JUMPDEST PUSH2 0x192F DUP2 PUSH2 0x1802 JUMP JUMPDEST DUP3 MSTORE POP POP JUMP JUMPDEST PUSH1 0x0 PUSH1 0x20 DUP3 ADD SWAP1 POP PUSH2 0x194A PUSH1 0x0 DUP4 ADD DUP5 PUSH2 0x1926 JUMP JUMPDEST SWAP3 SWAP2 POP POP JUMP JUMPDEST PUSH2 0x1959 DUP2 PUSH2 0x1885 JUMP JUMPDEST DUP3 MSTORE POP POP JUMP JUMPDEST PUSH1 0x0 PUSH1 0xA0 DUP3 ADD SWAP1 POP PUSH2 0x1974 PUSH1 0x0 DUP4 ADD DUP9 PUSH2 0x1926 JUMP JUMPDEST PUSH2 0x1981 PUSH1 0x20 DUP4 ADD DUP8 PUSH2 0x1926 JUMP JUMPDEST PUSH2 0x198E PUSH1 0x40 DUP4 ADD DUP7 PUSH2 0x1926 JUMP JUMPDEST PUSH2 0x199B PUSH1 0x60 DUP4 ADD DUP6 PUSH2 0x1926 JUMP JUMPDEST PUSH2 0x19A8 PUSH1 0x80 DUP4 ADD DUP5 PUSH2 0x1950 JUMP JUMPDEST SWAP7 SWAP6 POP POP POP POP POP POP JUMP JUMPDEST PUSH1 0x0 PUSH1 0x20 DUP3 ADD SWAP1 POP PUSH2 0x19C7 PUSH1 0x0 DUP4 ADD DUP5 PUSH2 0x1950 JUMP JUMPDEST SWAP3 SWAP2 POP POP JUMP JUMPDEST PUSH1 0x0 DUP1 REVERT JUMPDEST PUSH1 0x0 DUP1 REVERT JUMPDEST PUSH1 0x0 PUSH1 0x1F NOT PUSH1 0x1F DUP4 ADD AND SWAP1 POP SWAP2 SWAP1 POP JUMP JUMPDEST PUSH32 0x4E487B7100000000000000000000000000000000000000000000000000000000 PUSH1 0x0 MSTORE PUSH1 0x41 PUSH1 0x4 MSTORE PUSH1 0x24 PUSH1 0x0 REVERT JUMPDEST PUSH2 0x1A20 DUP3 PUSH2 0x19D7 JUMP JUMPDEST DUP2 ADD DUP2 DUP2 LT PUSH8 0xFFFFFFFFFFFFFFFF DUP3 GT OR ISZERO PUSH2 0x1A3F JUMPI PUSH2 0x1A3E PUSH2 0x19E8 JUMP JUMPDEST JUMPDEST DUP1 PUSH1 0x40 MSTORE POP POP POP JUMP JUMPDEST PUSH1 0x0 PUSH2 0x1A52 PUSH2 0x17EE JUMP JUMPDEST SWAP1 POP PUSH2 0x1A5E DUP3 DUP3 PUSH2 0x1A17 JUMP JUMPDEST SWAP2 SWAP1 POP JUMP JUMPDEST PUSH1 0x0 PUSH8 0xFFFFFFFFFFFFFFFF DUP3 GT ISZERO PUSH2 0x1A7E JUMPI PUSH2 0x1A7D PUSH2 0x19E8 JUMP JUMPDEST JUMPDEST PUSH2 0x1A87 DUP3 PUSH2 0x19D7 JUMP JUMPDEST SWAP1 POP PUSH1 0x20 DUP2 ADD SWAP1 POP SWAP2 SWAP1 POP JUMP JUMPDEST DUP3 DUP2 DUP4 CALLDATACOPY PUSH1 0x0 DUP4 DUP4 ADD MSTORE POP POP POP JUMP JUMPDEST PUSH1 0x0 PUSH2 0x1AB6 PUSH2 0x1AB1 DUP5 PUSH2 0x1A63 JUMP JUMPDEST PUSH2 0x1A48 JUMP JUMPDEST SWAP1 POP DUP3 DUP2 MSTORE PUSH1 0x20 DUP2 ADD DUP5 DUP5 DUP5 ADD GT ISZERO PUSH2 0x1AD2 JUMPI PUSH2 0x1AD1 PUSH2 0x19D2 JUMP JUMPDEST JUMPDEST PUSH2 0x1ADD DUP5 DUP3 DUP6 PUSH2 0x1A94 JUMP JUMPDEST POP SWAP4 SWAP3 POP POP POP JUMP JUMPDEST PUSH1 0x0 DUP3 PUSH1 0x1F DUP4 ADD SLT PUSH2 0x1AFA JUMPI PUSH2 0x1AF9 PUSH2 0x19CD JUMP JUMPDEST JUMPDEST DUP2 CALLDATALOAD PUSH2 0x1B0A DUP5 DUP3 PUSH1 0x20 DUP7 ADD PUSH2 0x1AA3 JUMP JUMPDEST SWAP2 POP POP SWAP3 SWAP2 POP POP JUMP JUMPDEST PUSH1 0x0 DUP1 PUSH1 0x0 DUP1 PUSH1 0x0 DUP1 PUSH1 0xC0 DUP8 DUP10 SUB SLT ISZERO PUSH2 0x1B30 JUMPI PUSH2 0x1B2F PUSH2 0x17F8 JUMP JUMPDEST JUMPDEST PUSH1 0x0 DUP8 ADD CALLDATALOAD PUSH8 0xFFFFFFFFFFFFFFFF DUP2 GT ISZERO PUSH2 0x1B4E JUMPI PUSH2 0x1B4D PUSH2 0x17FD JUMP JUMPDEST JUMPDEST PUSH2 0x1B5A DUP10 DUP3 DUP11 ADD PUSH2 0x1AE5 JUMP JUMPDEST SWAP7 POP POP PUSH1 0x20 DUP8 ADD CALLDATALOAD PUSH8 0xFFFFFFFFFFFFFFFF DUP2 GT ISZERO PUSH2 0x1B7B JUMPI PUSH2 0x1B7A PUSH2 0x17FD JUMP JUMPDEST JUMPDEST PUSH2 0x1B87 DUP10 DUP3 DUP11 ADD PUSH2 0x1AE5 JUMP JUMPDEST SWAP6 POP POP PUSH1 0x40 DUP8 ADD CALLDATALOAD PUSH8 0xFFFFFFFFFFFFFFFF DUP2 GT ISZERO PUSH2 0x1BA8 JUMPI PUSH2 0x1BA7 PUSH2 0x17FD JUMP JUMPDEST JUMPDEST PUSH2 0x1BB4 DUP10 DUP3 DUP11 ADD PUSH2 0x1AE5 JUMP JUMPDEST SWAP5 POP POP PUSH1 0x60 PUSH2 0x1BC5 DUP10 DUP3 DUP11 ADD PUSH2 0x1823 JUMP JUMPDEST SWAP4 POP POP PUSH1 0x80 DUP8 ADD CALLDATALOAD PUSH8 0xFFFFFFFFFFFFFFFF DUP2 GT ISZERO PUSH2 0x1BE6 JUMPI PUSH2 0x1BE5 PUSH2 0x17FD JUMP JUMPDEST JUMPDEST PUSH2 0x1BF2 DUP10 DUP3 DUP11 ADD PUSH2 0x1AE5 JUMP JUMPDEST SWAP3 POP POP PUSH1 0xA0 PUSH2 0x1C03 DUP10 DUP3 DUP11 ADD PUSH2 0x18AE JUMP JUMPDEST SWAP2 POP POP SWAP3 SWAP6 POP SWAP3 SWAP6 POP SWAP3 SWAP6 JUMP JUMPDEST PUSH1 0x0 DUP2 MLOAD SWAP1 POP SWAP2 SWAP1 POP JUMP JUMPDEST PUSH1 0x0 DUP3 DUP3 MSTORE PUSH1 0x20 DUP3 ADD SWAP1 POP SWAP3 SWAP2 POP POP JUMP JUMPDEST PUSH1 0x0 JUMPDEST DUP4 DUP2 LT ISZERO PUSH2 0x1C4A JUMPI DUP1 DUP3 ADD MLOAD DUP2 DUP5 ADD MSTORE PUSH1 0x20 DUP2 ADD SWAP1 POP PUSH2 0x1C2F JUMP JUMPDEST PUSH1 0x0 DUP5 DUP5 ADD MSTORE POP POP POP POP JUMP JUMPDEST PUSH1 0x0 PUSH2 0x1C61 DUP3 PUSH2 0x1C10 JUMP JUMPDEST PUSH2 0x1C6B DUP2 DUP6 PUSH2 0x1C1B JUMP JUMPDEST SWAP4 POP PUSH2 0x1C7B DUP2 DUP6 PUSH1 0x20 DUP7 ADD PUSH2 0x1C2C JUMP JUMPDEST PUSH2 0x1C84 DUP2 PUSH2 0x19D7 JUMP JUMPDEST DUP5 ADD SWAP2 POP POP SWAP3 SWAP2 POP POP JUMP JUMPDEST PUSH1 0x0 PUSH1 0xC0 DUP3 ADD SWAP1 POP DUP2 DUP2 SUB PUSH1 0x0 DUP4 ADD MSTORE PUSH2 0x1CA9 DUP2 DUP10 PUSH2 0x1C56 JUMP JUMPDEST SWAP1 POP DUP2 DUP2 SUB PUSH1 0x20 DUP4 ADD MSTORE PUSH2 0x1CBD DUP2 DUP9 PUSH2 0x1C56 JUMP JUMPDEST SWAP1 POP PUSH2 0x1CCC PUSH1 0x40 DUP4 ADD DUP8 PUSH2 0x18FC JUMP JUMPDEST DUP2 DUP2 SUB PUSH1 0x60 DUP4 ADD MSTORE PUSH2 0x1CDE DUP2 DUP7 PUSH2 0x1C56 JUMP JUMPDEST SWAP1 POP DUP2 DUP2 SUB PUSH1 0x80 DUP4 ADD MSTORE PUSH2 0x1CF2 DUP2 DUP6 PUSH2 0x1C56 JUMP JUMPDEST SWAP1 POP DUP2 DUP2 SUB PUSH1 0xA0 DUP4 ADD MSTORE PUSH2 0x1D06 DUP2 DUP5 PUSH2 0x1C56 JUMP JUMPDEST SWAP1 POP SWAP8 SWAP7 POP POP POP POP POP POP POP JUMP JUMPDEST PUSH1 0x0 PUSH2 0x180 DUP3 ADD SWAP1 POP DUP2 DUP2 SUB PUSH1 0x0 DUP4 ADD MSTORE PUSH2 0x1D2E DUP2 DUP16 PUSH2 0x1C56 JUMP JUMPDEST SWAP1 POP DUP2 DUP2 SUB PUSH1 0x20 DUP4 ADD MSTORE PUSH2 0x1D42 DUP2 DUP15 PUSH2 0x1C56 JUMP JUMPDEST SWAP1 POP DUP2 DUP2 SUB PUSH1 0x40 DUP4 ADD MSTORE PUSH2 0x1D56 DUP2 DUP14 PUSH2 0x1C56 JUMP JUMPDEST SWAP1 POP DUP2 DUP2 SUB PUSH1 0x60 DUP4 ADD MSTORE PUSH2 0x1D6A DUP2 DUP13 PUSH2 0x1C56 JUMP JUMPDEST SWAP1 POP DUP2 DUP2 SUB PUSH1 0x80 DUP4 ADD MSTORE PUSH2 0x1D7E DUP2 DUP12 PUSH2 0x1C56 JUMP JUMPDEST SWAP1 POP DUP2 DUP2 SUB PUSH1 0xA0 DUP4 ADD MSTORE PUSH2 0x1D92 DUP2 DUP11 PUSH2 0x1C56 JUMP JUMPDEST SWAP1 POP DUP2 DUP2 SUB PUSH1 0xC0 DUP4 ADD MSTORE PUSH2 0x1DA6 DUP2 DUP10 PUSH2 0x1C56 JUMP JUMPDEST SWAP1 POP DUP2 DUP2 SUB PUSH1 0xE0 DUP4 ADD MSTORE PUSH2 0x1DBA DUP2 DUP9 PUSH2 0x1C56 JUMP JUMPDEST SWAP1 POP DUP2 DUP2 SUB PUSH2 0x100 DUP4 ADD MSTORE PUSH2 0x1DCF DUP2 DUP8 PUSH2 0x1C56 JUMP JUMPDEST SWAP1 POP DUP2 DUP2 SUB PUSH2 0x120 DUP4 ADD MSTORE PUSH2 0x1DE4 DUP2 DUP7 PUSH2 0x1C56 JUMP JUMPDEST SWAP1 POP DUP2 DUP2 SUB PUSH2 0x140 DUP4 ADD MSTORE PUSH2 0x1DF9 DUP2 DUP6 PUSH2 0x1C56 JUMP JUMPDEST SWAP1 POP PUSH2 0x1E09 PUSH2 0x160 DUP4 ADD DUP5 PUSH2 0x18FC JUMP JUMPDEST SWAP14 SWAP13 POP POP POP POP POP POP POP POP POP POP POP POP POP JUMP JUMPDEST PUSH1 0x0 PUSH2 0x100 DUP3 ADD SWAP1 POP DUP2 DUP2 SUB PUSH1 0x0 DUP4 ADD MSTORE PUSH2 0x1E35 DUP2 DUP12 PUSH2 0x1C56 JUMP JUMPDEST SWAP1 POP DUP2 DUP2 SUB PUSH1 0x20 DUP4 ADD MSTORE PUSH2 0x1E49 DUP2 DUP11 PUSH2 0x1C56 JUMP JUMPDEST SWAP1 POP DUP2 DUP2 SUB PUSH1 0x40 DUP4 ADD MSTORE PUSH2 0x1E5D DUP2 DUP10 PUSH2 0x1C56 JUMP JUMPDEST SWAP1 POP PUSH2 0x1E6C PUSH1 0x60 DUP4 ADD DUP9 PUSH2 0x1926 JUMP JUMPDEST DUP2 DUP2 SUB PUSH1 0x80 DUP4 ADD MSTORE PUSH2 0x1E7E DUP2 DUP8 PUSH2 0x1C56 JUMP JUMPDEST SWAP1 POP PUSH2 0x1E8D PUSH1 0xA0 DUP4 ADD DUP7 PUSH2 0x1950 JUMP JUMPDEST PUSH2 0x1E9A PUSH1 0xC0 DUP4 ADD DUP6 PUSH2 0x18FC JUMP JUMPDEST PUSH2 0x1EA7 PUSH1 0xE0 DUP4 ADD DUP5 PUSH2 0x1926 JUMP JUMPDEST SWAP10 SWAP9 POP POP POP POP POP POP POP POP POP JUMP JUMPDEST PUSH1 0x0 DUP1 PUSH1 0x0 DUP1 PUSH1 0x0 PUSH1 0xA0 DUP7 DUP9 SUB SLT ISZERO PUSH2 0x1ED0 JUMPI PUSH2 0x1ECF PUSH2 0x17F8 JUMP JUMPDEST JUMPDEST PUSH1 0x0 DUP7 ADD CALLDATALOAD PUSH8 0xFFFFFFFFFFFFFFFF DUP2 GT ISZERO PUSH2 0x1EEE JUMPI PUSH2 0x1EED PUSH2 0x17FD JUMP JUMPDEST JUMPDEST PUSH2 0x1EFA DUP9 DUP3 DUP10 ADD PUSH2 0x1AE5 JUMP JUMPDEST SWAP6 POP POP PUSH1 0x20 DUP7 ADD CALLDATALOAD PUSH8 0xFFFFFFFFFFFFFFFF DUP2 GT ISZERO PUSH2 0x1F1B JUMPI PUSH2 0x1F1A PUSH2 0x17FD JUMP JUMPDEST JUMPDEST PUSH2 0x1F27 DUP9 DUP3 DUP10 ADD PUSH2 0x1AE5 JUMP JUMPDEST SWAP5 POP POP PUSH1 0x40 DUP7 ADD CALLDATALOAD PUSH8 0xFFFFFFFFFFFFFFFF DUP2 GT ISZERO PUSH2 0x1F48 JUMPI PUSH2 0x1F47 PUSH2 0x17FD JUMP JUMPDEST JUMPDEST PUSH2 0x1F54 DUP9 DUP3 DUP10 ADD PUSH2 0x1AE5 JUMP JUMPDEST SWAP4 POP POP PUSH1 0x60 DUP7 ADD CALLDATALOAD PUSH8 0xFFFFFFFFFFFFFFFF DUP2 GT ISZERO PUSH2 0x1F75 JUMPI PUSH2 0x1F74 PUSH2 0x17FD JUMP JUMPDEST JUMPDEST PUSH2 0x1F81 DUP9 DUP3 DUP10 ADD PUSH2 0x1AE5 JUMP JUMPDEST SWAP3 POP POP PUSH1 0x80 DUP7 ADD CALLDATALOAD PUSH8 0xFFFFFFFFFFFFFFFF DUP2 GT ISZERO PUSH2 0x1FA2 JUMPI PUSH2 0x1FA1 PUSH2 0x17FD JUMP JUMPDEST JUMPDEST PUSH2 0x1FAE DUP9 DUP3 DUP10 ADD PUSH2 0x1AE5 JUMP JUMPDEST SWAP2 POP POP SWAP3 SWAP6 POP SWAP3 SWAP6 SWAP1 SWAP4 POP JUMP JUMPDEST PUSH1 0x0 DUP1 PUSH1 0x0 PUSH1 0x60 DUP5 DUP7 SUB SLT ISZERO PUSH2 0x1FD4 JUMPI PUSH2 0x1FD3 PUSH2 0x17F8 JUMP JUMPDEST JUMPDEST PUSH1 0x0 DUP5 ADD CALLDATALOAD PUSH8 0xFFFFFFFFFFFFFFFF DUP2 GT ISZERO PUSH2 0x1FF2 JUMPI PUSH2 0x1FF1 PUSH2 0x17FD JUMP JUMPDEST JUMPDEST PUSH2 0x1FFE DUP7 DUP3 DUP8 ADD PUSH2 0x1AE5 JUMP JUMPDEST SWAP4 POP POP PUSH1 0x20 PUSH2 0x200F DUP7 DUP3 DUP8 ADD PUSH2 0x1823 JUMP JUMPDEST SWAP3 POP POP PUSH1 0x40 DUP5 ADD CALLDATALOAD PUSH8 0xFFFFFFFFFFFFFFFF DUP2 GT ISZERO PUSH2 0x2030 JUMPI PUSH2 0x202F PUSH2 0x17FD JUMP JUMPDEST JUMPDEST PUSH2 0x203C DUP7 DUP3 DUP8 ADD PUSH2 0x1AE5 JUMP JUMPDEST SWAP2 POP POP SWAP3 POP SWAP3 POP SWAP3 JUMP JUMPDEST PUSH1 0x0 DUP1 PUSH1 0x0 DUP1 PUSH1 0x80 DUP6 DUP8 SUB SLT ISZERO PUSH2 0x2060 JUMPI PUSH2 0x205F PUSH2 0x17F8 JUMP JUMPDEST JUMPDEST PUSH1 0x0 DUP6 ADD CALLDATALOAD PUSH8 0xFFFFFFFFFFFFFFFF DUP2 GT ISZERO PUSH2 0x207E JUMPI PUSH2 0x207D PUSH2 0x17FD JUMP JUMPDEST JUMPDEST PUSH2 0x208A DUP8 DUP3 DUP9 ADD PUSH2 0x1AE5 JUMP JUMPDEST SWAP5 POP POP PUSH1 0x20 DUP6 ADD CALLDATALOAD PUSH8 0xFFFFFFFFFFFFFFFF DUP2 GT ISZERO PUSH2 0x20AB JUMPI PUSH2 0x20AA PUSH2 0x17FD JUMP JUMPDEST JUMPDEST PUSH2 0x20B7 DUP8 DUP3 DUP9 ADD PUSH2 0x1AE5 JUMP JUMPDEST SWAP4 POP POP PUSH1 0x40 DUP6 ADD CALLDATALOAD PUSH8 0xFFFFFFFFFFFFFFFF DUP2 GT ISZERO PUSH2 0x20D8 JUMPI PUSH2 0x20D7 PUSH2 0x17FD JUMP JUMPDEST JUMPDEST PUSH2 0x20E4 DUP8 DUP3 DUP9 ADD PUSH2 0x1AE5 JUMP JUMPDEST SWAP3 POP POP PUSH1 0x60 DUP6 ADD CALLDATALOAD PUSH8 0xFFFFFFFFFFFFFFFF DUP2 GT ISZERO PUSH2 0x2105 JUMPI PUSH2 0x2104 PUSH2 0x17FD JUMP JUMPDEST JUMPDEST PUSH2 0x2111 DUP8 DUP3 DUP9 ADD PUSH2 0x1AE5 JUMP JUMPDEST SWAP2 POP POP SWAP3 SWAP6 SWAP2 SWAP5 POP SWAP3 POP JUMP JUMPDEST PUSH32 0x4E487B7100000000000000000000000000000000000000000000000000000000 PUSH1 0x0 MSTORE PUSH1 0x32 PUSH1 0x4 MSTORE PUSH1 0x24 PUSH1 0x0 REVERT JUMPDEST PUSH32 0x4E487B7100000000000000000000000000000000000000000000000000000000 PUSH1 0x0 MSTORE PUSH1 0x12 PUSH1 0x4 MSTORE PUSH1 0x24 PUSH1 0x0 REVERT JUMPDEST PUSH32 0x4E487B7100000000000000000000000000000000000000000000000000000000 PUSH1 0x0 MSTORE PUSH1 0x11 PUSH1 0x4 MSTORE PUSH1 0x24 PUSH1 0x0 REVERT JUMPDEST PUSH1 0x0 PUSH2 0x21B5 DUP3 PUSH2 0x1802 JUMP JUMPDEST SWAP2 POP PUSH2 0x21C0 DUP4 PUSH2 0x1802 JUMP JUMPDEST SWAP3 POP DUP3 PUSH2 0x21D0 JUMPI PUSH2 0x21CF PUSH2 0x214C JUMP JUMPDEST JUMPDEST DUP3 DUP3 DIV SWAP1 POP SWAP3 SWAP2 POP POP JUMP JUMPDEST PUSH32 0x4E487B7100000000000000000000000000000000000000000000000000000000 PUSH1 0x0 MSTORE PUSH1 0x22 PUSH1 0x4 MSTORE PUSH1 0x24 PUSH1 0x0 REVERT JUMPDEST PUSH1 0x0 PUSH1 0x2 DUP3 DIV SWAP1 POP PUSH1 0x1 DUP3 AND DUP1 PUSH2 0x2222 JUMPI PUSH1 0x7F DUP3 AND SWAP2 POP JUMPDEST PUSH1 0x20 DUP3 LT DUP2 SUB PUSH2 0x2235 JUMPI PUSH2 0x2234 PUSH2 0x21DB JUMP JUMPDEST JUMPDEST POP SWAP2 SWAP1 POP JUMP JUMPDEST PUSH1 0x0 DUP2 SWAP1 POP DUP2 PUSH1 0x0 MSTORE PUSH1 0x20 PUSH1 0x0 KECCAK256 SWAP1 POP SWAP2 SWAP1 POP JUMP JUMPDEST PUSH1 0x0 PUSH1 0x20 PUSH1 0x1F DUP4 ADD DIV SWAP1 POP SWAP2 SWAP1 POP JUMP JUMPDEST PUSH1 0x0 DUP3 DUP3 SHL SWAP1 POP SWAP3 SWAP2 POP POP JUMP JUMPDEST PUSH1 0x0 PUSH1 0x8 DUP4 MUL PUSH2 0x229D PUSH32 0xFFFFFFFFFFFFFFFFFFFFFFFFFFFFFFFFFFFFFFFFFFFFFFFFFFFFFFFFFFFFFFFF DUP3 PUSH2 0x2260 JUMP JUMPDEST PUSH2 0x22A7 DUP7 DUP4 PUSH2 0x2260 JUMP JUMPDEST SWAP6 POP DUP1 NOT DUP5 AND SWAP4 POP DUP1 DUP7 AND DUP5 OR SWAP3 POP POP POP SWAP4 SWAP3 POP POP POP JUMP JUMPDEST PUSH1 0x0 DUP2 SWAP1 POP SWAP2 SWAP1 POP JUMP JUMPDEST PUSH1 0x0 PUSH2 0x22E4 PUSH2 0x22DF PUSH2 0x22DA DUP5 PUSH2 0x1802 JUMP JUMPDEST PUSH2 0x22BF JUMP JUMPDEST PUSH2 0x1802 JUMP JUMPDEST SWAP1 POP SWAP2 SWAP1 POP JUMP JUMPDEST PUSH1 0x0 DUP2 SWAP1 POP SWAP2 SWAP1 POP JUMP JUMPDEST PUSH2 0x22FE DUP4 PUSH2 0x22C9 JUMP JUMPDEST PUSH2 0x2312 PUSH2 0x230A DUP3 PUSH2 0x22EB JUMP JUMPDEST DUP5 DUP5 SLOAD PUSH2 0x226D JUMP JUMPDEST DUP3 SSTORE POP POP POP POP JUMP JUMPDEST PUSH1 0x0 SWAP1 JUMP JUMPDEST PUSH2 0x2327 PUSH2 0x231A JUMP JUMPDEST PUSH2 0x2332 DUP2 DUP5 DUP5 PUSH2 0x22F5 JUMP JUMPDEST POP POP POP JUMP JUMPDEST JUMPDEST DUP2 DUP2 LT ISZERO PUSH2 0x2356 JUMPI PUSH2 0x234B PUSH1 0x0 DUP3 PUSH2 0x231F JUMP JUMPDEST PUSH1 0x1 DUP2 ADD SWAP1 POP PUSH2 0x2338 JUMP JUMPDEST POP POP JUMP JUMPDEST PUSH1 0x1F DUP3 GT ISZERO PUSH2 0x239B JUMPI PUSH2 0x236C DUP2 PUSH2 0x223B JUMP JUMPDEST PUSH2 0x2375 DUP5 PUSH2 0x2250 JUMP JUMPDEST DUP2 ADD PUSH1 0x20 DUP6 LT ISZERO PUSH2 0x2384 JUMPI DUP2 SWAP1 POP JUMPDEST PUSH2 0x2398 PUSH2 0x2390 DUP6 PUSH2 0x2250 JUMP JUMPDEST DUP4 ADD DUP3 PUSH2 0x2337 JUMP JUMPDEST POP POP JUMPDEST POP POP POP JUMP JUMPDEST PUSH1 0x0 DUP3 DUP3 SHR SWAP1 POP SWAP3 SWAP2 POP POP JUMP JUMPDEST PUSH1 0x0 PUSH2 0x23BE PUSH1 0x0 NOT DUP5 PUSH1 0x8 MUL PUSH2 0x23A0 JUMP JUMPDEST NOT DUP1 DUP4 AND SWAP2 POP POP SWAP3 SWAP2 POP POP JUMP JUMPDEST PUSH1 0x0 PUSH2 0x23D7 DUP4 DUP4 PUSH2 0x23AD JUMP JUMPDEST SWAP2 POP DUP3 PUSH1 0x2 MUL DUP3 OR SWAP1 POP SWAP3 SWAP2 POP POP JUMP JUMPDEST PUSH2 0x23F0 DUP3 PUSH2 0x1C10 JUMP JUMPDEST PUSH8 0xFFFFFFFFFFFFFFFF DUP2 GT ISZERO PUSH2 0x2409 JUMPI PUSH2 0x2408 PUSH2 0x19E8 JUMP JUMPDEST JUMPDEST PUSH2 0x2413 DUP3 SLOAD PUSH2 0x220A JUMP JUMPDEST PUSH2 0x241E DUP3 DUP3 DUP6 PUSH2 0x235A JUMP JUMPDEST PUSH1 0x0 PUSH1 0x20 SWAP1 POP PUSH1 0x1F DUP4 GT PUSH1 0x1 DUP2 EQ PUSH2 0x2451 JUMPI PUSH1 0x0 DUP5 ISZERO PUSH2 0x243F JUMPI DUP3 DUP8 ADD MLOAD SWAP1 POP JUMPDEST PUSH2 0x2449 DUP6 DUP3 PUSH2 0x23CB JUMP JUMPDEST DUP7 SSTORE POP PUSH2 0x24B1 JUMP JUMPDEST PUSH1 0x1F NOT DUP5 AND PUSH2 0x245F DUP7 PUSH2 0x223B JUMP JUMPDEST PUSH1 0x0 JUMPDEST DUP3 DUP2 LT ISZERO PUSH2 0x2487 JUMPI DUP5 DUP10 ADD MLOAD DUP3 SSTORE PUSH1 0x1 DUP3 ADD SWAP2 POP PUSH1 0x20 DUP6 ADD SWAP5 POP PUSH1 0x20 DUP2 ADD SWAP1 POP PUSH2 0x2462 JUMP JUMPDEST DUP7 DUP4 LT ISZERO PUSH2 0x24A4 JUMPI DUP5 DUP10 ADD MLOAD PUSH2 0x24A0 PUSH1 0x1F DUP10 AND DUP3 PUSH2 0x23AD JUMP JUMPDEST DUP4 SSTORE POP JUMPDEST PUSH1 0x1 PUSH1 0x2 DUP9 MUL ADD DUP9 SSTORE POP POP POP JUMPDEST POP POP POP POP POP POP JUMP JUMPDEST PUSH1 0x0 PUSH2 0x24C4 DUP3 PUSH2 0x1802 JUMP JUMPDEST SWAP2 POP PUSH32 0xFFFFFFFFFFFFFFFFFFFFFFFFFFFFFFFFFFFFFFFFFFFFFFFFFFFFFFFFFFFFFFFF DUP3 SUB PUSH2 0x24F6 JUMPI PUSH2 0x24F5 PUSH2 0x217B JUMP JUMPDEST JUMPDEST PUSH1 0x1 DUP3 ADD SWAP1 POP SWAP2 SWAP1 POP JUMP INVALID LOG2 PUSH5 0x6970667358 0x22 SLT KECCAK256 BASEFEE DIV CALLDATACOPY PUSH21 0xEFAE35AEEF4DB754465CC2360A07F1C35806BE7FBF SLT 0xB3 PUSH27 0x7B256C8F64736F6C63430008130033000000000000000000000000 "},"gasEstimates":{"creation":{"codeDepositCost":"1905400","executionCost":"infinite","totalCost":"infinite"},"external":{"approveRequest(uint256)":"infinite","approvers(address)":"2891","approversCount()":"2496","contribute()":"51021","createManufacturerDelivery(string,uint256,string)":"infinite","createManufacturerInvoice(string,string,string,string)":"infinite","createRequest(string,string,string,uint256,string,address)":"infinite","createSupplierShipment(string,string,string,string,string)":"infinite","finalizeRequest(uint256)":"infinite","getRequestsCount()":"2535","getSummary()":"infinite","getSupplierShipmentCount()":"2513","getSupplyChainDataCount()":"2534","manager()":"2559","minimumContribution()":"2518","requests(uint256)":"infinite","supplierShipments(uint256)":"infinite","supplyChainDatas(uint256)":"infinite"}},"methodIdentifiers":{"approveRequest(uint256)":"d7d1bbdb","approvers(address)":"0a144391","approversCount()":"82fde093","contribute()":"d7bb99ba","createManufacturerDelivery(string,uint256,string)":"c7957f56","createManufacturerInvoice(string,string,string,string)":"ee532422","createRequest(string,string,string,uint256,string,address)":"5b1410b5","createSupplierShipment(string,string,string,string,string)":"a2fbd6b7","finalizeRequest(uint256)":"03441006","getRequestsCount()":"3410452a","getSummary()":"4051ddac","getSupplierShipmentCount()":"17a371eb","getSupplyChainDataCount()":"5ba2271e","manager()":"481c6a75","minimumContribution()":"937e09b1","requests(uint256)":"81d12c58","supplierShipments(uint256)":"7fcddd05","supplyChainDatas(uint256)":"8001bd7c"}},"storageLayout":{"storage":[{"astId":80,"contract":"Campaign.sol:Campaign","label":"supplierShipments","offset":0,"slot":"0","type":"t_array(t_struct(SupplierShipment)76_storage)dyn_storage"},{"astId":109,"contract":"Campaign.sol:Campaign","label":"supplyChainDatas","offset":0,"slot":"1","type":"t_array(t_struct(SupplyChainData)105_storage)dyn_storage"},{"astId":113,"contract":"Campaign.sol:Campaign","label":"requests","offset":0,"slot":"2","type":"t_array(t_struct(Request)63_storage)dyn_storage"},{"astId":115,"contract":"Campaign.sol:Campaign","label":"manager","offset":0,"slot":"3","type":"t_address"},{"astId":117,"contract":"Campaign.sol:Campaign","label":"minimumContribution","offset":0,"slot":"4","type":"t_uint256"},{"astId":121,"contract":"Campaign.sol:Campaign","label":"approvers","offset":0,"slot":"5","type":"t_mapping(t_address,t_bool)"},{"astId":123,"contract":"Campaign.sol:Campaign","label":"approversCount","offset":0,"slot":"6","type":"t_uint256"}],"types":{"t_address":{"encoding":"inplace","label":"address","numberOfBytes":"20"},"t_array(t_struct(Request)63_storage)dyn_storage":{"base":"t_struct(Request)63_storage","encoding":"dynamic_array","label":"struct Campaign.Request[]","numberOfBytes":"32"},"t_array(t_struct(SupplierShipment)76_storage)dyn_storage":{"base":"t_struct(SupplierShipment)76_storage","encoding":"dynamic_array","label":"struct Campaign.SupplierShipment[]","numberOfBytes":"32"},"t_array(t_struct(SupplyChainData)105_storage)dyn_storage":{"base":"t_struct(SupplyChainData)105_storage","encoding":"dynamic_array","label":"struct Campaign.SupplyChainData[]","numberOfBytes":"32"},"t_bool":{"encoding":"inplace","label":"bool","numberOfBytes":"1"},"t_mapping(t_address,t_bool)":{"encoding":"mapping","key":"t_address","label":"mapping(address => bool)","numberOfBytes":"32","value":"t_bool"},"t_string_storage":{"encoding":"bytes","label":"string","numberOfBytes":"32"},"t_struct(Request)63_storage":{"encoding":"inplace","label":"struct Campaign.Request","members":[{"astId":44,"contract":"Campaign.sol:Campaign","label":"orderId","offset":0,"slot":"0","type":"t_string_storage"},{"astId":46,"contract":"Campaign.sol:Campaign","label":"inspectedby","offset":0,"slot":"1","type":"t_string_storage"},{"astId":48,"contract":"Campaign.sol:Campaign","label":"approvedby","offset":0,"slot":"2","type":"t_string_storage"},{"astId":50,"contract":"Campaign.sol:Campaign","label":"value","offset":0,"slot":"3","type":"t_uint256"},{"astId":52,"contract":"Campaign.sol:Campaign","label":"selectedFile","offset":0,"slot":"4","type":"t_string_storage"},{"astId":54,"contract":"Campaign.sol:Campaign","label":"recipient","offset":0,"slot":"5","type":"t_address"},{"astId":56,"contract":"Campaign.sol:Campaign","label":"complete","offset":20,"slot":"5","type":"t_bool"},{"astId":58,"contract":"Campaign.sol:Campaign","label":"approvalCount","offset":0,"slot":"6","type":"t_uint256"},{"astId":62,"contract":"Campaign.sol:Campaign","label":"approvals","offset":0,"slot":"7","type":"t_mapping(t_address,t_bool)"}],"numberOfBytes":"256"},"t_struct(SupplierShipment)76_storage":{"encoding":"inplace","label":"struct Campaign.SupplierShipment","members":[{"astId":65,"contract":"Campaign.sol:Campaign","label":"orderID","offset":0,"slot":"0","type":"t_string_storage"},{"astId":67,"contract":"Campaign.sol:Campaign","label":"logisticsProviderName","offset":0,"slot":"1","type":"t_string_storage"},{"astId":69,"contract":"Campaign.sol:Campaign","label":"status","offset":0,"slot":"2","type":"t_bool"},{"astId":71,"contract":"Campaign.sol:Campaign","label":"shipmentDetails","offset":0,"slot":"3","type":"t_string_storage"},{"astId":73,"contract":"Campaign.sol:Campaign","label":"billOfLanding","offset":0,"slot":"4","type":"t_string_storage"},{"astId":75,"contract":"Campaign.sol:Campaign","label":"deliveryRecipt","offset":0,"slot":"5","type":"t_string_storage"}],"numberOfBytes":"192"},"t_struct(SupplyChainData)105_storage":{"encoding":"inplace","label":"struct Campaign.SupplyChainData","members":[{"astId":82,"contract":"Campaign.sol:Campaign","label":"orderID","offset":0,"slot":"0","type":"t_string_storage"},{"astId":84,"contract":"Campaign.sol:Campaign","label":"manufacturerName","offset":0,"slot":"1","type":"t_string_storage"},{"astId":86,"contract":"Campaign.sol:Campaign","label":"supplierName","offset":0,"slot":"2","type":"t_string_storage"},{"astId":88,"contract":"Campaign.sol:Campaign","label":"invoiceReport","offset":0,"slot":"3","type":"t_string_storage"},{"astId":90,"contract":"Campaign.sol:Campaign","label":"deliveryRecipt","offset":0,"slot":"4","type":"t_string_storage"},{"astId":92,"contract":"Campaign.sol:Campaign","label":"logisticsName","offset":0,"slot":"5","type":"t_string_storage"},{"astId":94,"contract":"Campaign.sol:Campaign","label":"rmReport","offset":0,"slot":"6","type":"t_string_storage"},{"astId":96,"contract":"Campaign.sol:Campaign","label":"qualityReport","offset":0,"slot":"7","type":"t_string_storage"},{"astId":98,"contract":"Campaign.sol:Campaign","label":"insuranceReport","offset":0,"slot":"8","type":"t_string_storage"},{"astId":100,"contract":"Campaign.sol:Campaign","label":"billNo","offset":0,"slot":"9","type":"t_string_storage"},{"astId":102,"contract":"Campaign.sol:Campaign","label":"billOfLanding","offset":0,"slot":"10","type":"t_string_storage"},{"astId":104,"contract":"Campaign.sol:Campaign","label":"status","offset":0,"slot":"11","type":"t_bool"}],"numberOfBytes":"384"},"t_uint256":{"encoding":"inplace","label":"uint256","numberOfBytes":"32"}}},"userdoc":{"kind":"user","methods":{},"version":1}}