{"abi":[{"inputs":[{"internalType":"uint256","name":"minimum","type":"uint256"},{"internalType":"address","name":"creator","type":"address"}],"stateMutability":"nonpayable","type":"constructor"},{"inputs":[{"internalType":"uint256","name":"index","type":"uint256"}],"name":"approveRequest","outputs":[],"stateMutability":"nonpayable","type":"function"},{"inputs":[{"internalType":"address","name":"","type":"address"}],"name":"approvers","outputs":[{"internalType":"bool","name":"","type":"bool"}],"stateMutability":"view","type":"function"},{"inputs":[],"name":"approversCount","outputs":[{"internalType":"uint256","name":"","type":"uint256"}],"stateMutability":"view","type":"function"},{"inputs":[],"name":"contribute","outputs":[],"stateMutability":"payable","type":"function"},{"inputs":[{"internalType":"string","name":"orderId","type":"string"},{"internalType":"string","name":"inspectedby","type":"string"},{"internalType":"string","name":"approvedby","type":"string"},{"internalType":"uint256","name":"value","type":"uint256"},{"internalType":"address","name":"recipient","type":"address"}],"name":"createRequest","outputs":[],"stateMutability":"nonpayable","type":"function"},{"inputs":[{"internalType":"uint256","name":"index","type":"uint256"}],"name":"finalizeRequest","outputs":[],"stateMutability":"nonpayable","type":"function"},{"inputs":[],"name":"getRequestsCount","outputs":[{"internalType":"uint256","name":"","type":"uint256"}],"stateMutability":"view","type":"function"},{"inputs":[],"name":"getSummary","outputs":[{"internalType":"uint256","name":"","type":"uint256"},{"internalType":"uint256","name":"","type":"uint256"},{"internalType":"uint256","name":"","type":"uint256"},{"internalType":"uint256","name":"","type":"uint256"},{"internalType":"address","name":"","type":"address"}],"stateMutability":"view","type":"function"},{"inputs":[],"name":"manager","outputs":[{"internalType":"address","name":"","type":"address"}],"stateMutability":"view","type":"function"},{"inputs":[],"name":"minimumContribution","outputs":[{"internalType":"uint256","name":"","type":"uint256"}],"stateMutability":"view","type":"function"},{"inputs":[{"internalType":"uint256","name":"","type":"uint256"}],"name":"requests","outputs":[{"internalType":"string","name":"orderId","type":"string"},{"internalType":"string","name":"inspectedby","type":"string"},{"internalType":"string","name":"approvedby","type":"string"},{"internalType":"uint256","name":"value","type":"uint256"},{"internalType":"address","name":"recipient","type":"address"},{"internalType":"bool","name":"complete","type":"bool"},{"internalType":"uint256","name":"approvalCount","type":"uint256"}],"stateMutability":"view","type":"function"}],"devdoc":{"kind":"dev","methods":{},"version":1},"evm":{"assembly":"    /* \"Campaign.sol\":465:2820  contract Campaign {... */\n  mstore(0x40, 0x80)\n    /* \"Campaign.sol\":1023:1143  constructor (uint minimum, address creator) {... */\n  callvalue\n  dup1\n  iszero\n  tag_1\n  jumpi\n  0x00\n  dup1\n  revert\ntag_1:\n  pop\n  mload(0x40)\n  sub(codesize, bytecodeSize)\n  dup1\n  bytecodeSize\n  dup4\n  codecopy\n  dup2\n  dup2\n  add\n  0x40\n  mstore\n  dup2\n  add\n  swap1\n  tag_2\n  swap2\n  swap1\n  tag_3\n  jump\t// in\ntag_2:\n    /* \"Campaign.sol\":1088:1095  creator */\n  dup1\n    /* \"Campaign.sol\":1078:1085  manager */\n  0x01\n  0x00\n    /* \"Campaign.sol\":1078:1095  manager = creator */\n  0x0100\n  exp\n  dup2\n  sload\n  dup2\n  0xffffffffffffffffffffffffffffffffffffffff\n  mul\n  not\n  and\n  swap1\n  dup4\n  0xffffffffffffffffffffffffffffffffffffffff\n  and\n  mul\n  or\n  swap1\n  sstore\n  pop\n    /* \"Campaign.sol\":1128:1135  minimum */\n  dup2\n    /* \"Campaign.sol\":1106:1125  minimumContribution */\n  0x02\n    /* \"Campaign.sol\":1106:1135  minimumContribution = minimum */\n  dup2\n  swap1\n  sstore\n  pop\n    /* \"Campaign.sol\":1023:1143  constructor (uint minimum, address creator) {... */\n  pop\n  pop\n    /* \"Campaign.sol\":465:2820  contract Campaign {... */\n  jump(tag_6)\n    /* \"#utility.yul\":88:205   */\ntag_8:\n    /* \"#utility.yul\":197:198   */\n  0x00\n    /* \"#utility.yul\":194:195   */\n  dup1\n    /* \"#utility.yul\":187:199   */\n  revert\n    /* \"#utility.yul\":334:411   */\ntag_10:\n    /* \"#utility.yul\":371:378   */\n  0x00\n    /* \"#utility.yul\":400:405   */\n  dup2\n    /* \"#utility.yul\":389:405   */\n  swap1\n  pop\n    /* \"#utility.yul\":334:411   */\n  swap2\n  swap1\n  pop\n  jump\t// out\n    /* \"#utility.yul\":417:539   */\ntag_11:\n    /* \"#utility.yul\":490:514   */\n  tag_23\n    /* \"#utility.yul\":508:513   */\n  dup2\n    /* \"#utility.yul\":490:514   */\n  tag_10\n  jump\t// in\ntag_23:\n    /* \"#utility.yul\":483:488   */\n  dup2\n    /* \"#utility.yul\":480:515   */\n  eq\n    /* \"#utility.yul\":470:533   */\n  tag_24\n  jumpi\n    /* \"#utility.yul\":529:530   */\n  0x00\n    /* \"#utility.yul\":526:527   */\n  dup1\n    /* \"#utility.yul\":519:531   */\n  revert\n    /* \"#utility.yul\":470:533   */\ntag_24:\n    /* \"#utility.yul\":417:539   */\n  pop\n  jump\t// out\n    /* \"#utility.yul\":545:688   */\ntag_12:\n    /* \"#utility.yul\":602:607   */\n  0x00\n    /* \"#utility.yul\":633:639   */\n  dup2\n    /* \"#utility.yul\":627:640   */\n  mload\n    /* \"#utility.yul\":618:640   */\n  swap1\n  pop\n    /* \"#utility.yul\":649:682   */\n  tag_26\n    /* \"#utility.yul\":676:681   */\n  dup2\n    /* \"#utility.yul\":649:682   */\n  tag_11\n  jump\t// in\ntag_26:\n    /* \"#utility.yul\":545:688   */\n  swap3\n  swap2\n  pop\n  pop\n  jump\t// out\n    /* \"#utility.yul\":694:820   */\ntag_13:\n    /* \"#utility.yul\":731:738   */\n  0x00\n    /* \"#utility.yul\":771:813   */\n  0xffffffffffffffffffffffffffffffffffffffff\n    /* \"#utility.yul\":764:769   */\n  dup3\n    /* \"#utility.yul\":760:814   */\n  and\n    /* \"#utility.yul\":749:814   */\n  swap1\n  pop\n    /* \"#utility.yul\":694:820   */\n  swap2\n  swap1\n  pop\n  jump\t// out\n    /* \"#utility.yul\":826:922   */\ntag_14:\n    /* \"#utility.yul\":863:870   */\n  0x00\n    /* \"#utility.yul\":892:916   */\n  tag_29\n    /* \"#utility.yul\":910:915   */\n  dup3\n    /* \"#utility.yul\":892:916   */\n  tag_13\n  jump\t// in\ntag_29:\n    /* \"#utility.yul\":881:916   */\n  swap1\n  pop\n    /* \"#utility.yul\":826:922   */\n  swap2\n  swap1\n  pop\n  jump\t// out\n    /* \"#utility.yul\":928:1050   */\ntag_15:\n    /* \"#utility.yul\":1001:1025   */\n  tag_31\n    /* \"#utility.yul\":1019:1024   */\n  dup2\n    /* \"#utility.yul\":1001:1025   */\n  tag_14\n  jump\t// in\ntag_31:\n    /* \"#utility.yul\":994:999   */\n  dup2\n    /* \"#utility.yul\":991:1026   */\n  eq\n    /* \"#utility.yul\":981:1044   */\n  tag_32\n  jumpi\n    /* \"#utility.yul\":1040:1041   */\n  0x00\n    /* \"#utility.yul\":1037:1038   */\n  dup1\n    /* \"#utility.yul\":1030:1042   */\n  revert\n    /* \"#utility.yul\":981:1044   */\ntag_32:\n    /* \"#utility.yul\":928:1050   */\n  pop\n  jump\t// out\n    /* \"#utility.yul\":1056:1199   */\ntag_16:\n    /* \"#utility.yul\":1113:1118   */\n  0x00\n    /* \"#utility.yul\":1144:1150   */\n  dup2\n    /* \"#utility.yul\":1138:1151   */\n  mload\n    /* \"#utility.yul\":1129:1151   */\n  swap1\n  pop\n    /* \"#utility.yul\":1160:1193   */\n  tag_34\n    /* \"#utility.yul\":1187:1192   */\n  dup2\n    /* \"#utility.yul\":1160:1193   */\n  tag_15\n  jump\t// in\ntag_34:\n    /* \"#utility.yul\":1056:1199   */\n  swap3\n  swap2\n  pop\n  pop\n  jump\t// out\n    /* \"#utility.yul\":1205:1712   */\ntag_3:\n    /* \"#utility.yul\":1284:1290   */\n  0x00\n    /* \"#utility.yul\":1292:1298   */\n  dup1\n    /* \"#utility.yul\":1341:1343   */\n  0x40\n    /* \"#utility.yul\":1329:1338   */\n  dup4\n    /* \"#utility.yul\":1320:1327   */\n  dup6\n    /* \"#utility.yul\":1316:1339   */\n  sub\n    /* \"#utility.yul\":1312:1344   */\n  slt\n    /* \"#utility.yul\":1309:1428   */\n  iszero\n  tag_36\n  jumpi\n    /* \"#utility.yul\":1347:1426   */\n  tag_37\n  tag_8\n  jump\t// in\ntag_37:\n    /* \"#utility.yul\":1309:1428   */\ntag_36:\n    /* \"#utility.yul\":1467:1468   */\n  0x00\n    /* \"#utility.yul\":1492:1556   */\n  tag_38\n    /* \"#utility.yul\":1548:1555   */\n  dup6\n    /* \"#utility.yul\":1539:1545   */\n  dup3\n    /* \"#utility.yul\":1528:1537   */\n  dup7\n    /* \"#utility.yul\":1524:1546   */\n  add\n    /* \"#utility.yul\":1492:1556   */\n  tag_12\n  jump\t// in\ntag_38:\n    /* \"#utility.yul\":1482:1556   */\n  swap3\n  pop\n    /* \"#utility.yul\":1438:1566   */\n  pop\n    /* \"#utility.yul\":1605:1607   */\n  0x20\n    /* \"#utility.yul\":1631:1695   */\n  tag_39\n    /* \"#utility.yul\":1687:1694   */\n  dup6\n    /* \"#utility.yul\":1678:1684   */\n  dup3\n    /* \"#utility.yul\":1667:1676   */\n  dup7\n    /* \"#utility.yul\":1663:1685   */\n  add\n    /* \"#utility.yul\":1631:1695   */\n  tag_16\n  jump\t// in\ntag_39:\n    /* \"#utility.yul\":1621:1695   */\n  swap2\n  pop\n    /* \"#utility.yul\":1576:1705   */\n  pop\n    /* \"#utility.yul\":1205:1712   */\n  swap3\n  pop\n  swap3\n  swap1\n  pop\n  jump\t// out\n    /* \"Campaign.sol\":465:2820  contract Campaign {... */\ntag_6:\n  dataSize(sub_0)\n  dup1\n  dataOffset(sub_0)\n  0x00\n  codecopy\n  0x00\n  return\nstop\n\nsub_0: assembly {\n        /* \"Campaign.sol\":465:2820  contract Campaign {... */\n      mstore(0x40, 0x80)\n      jumpi(tag_1, lt(calldatasize, 0x04))\n      shr(0xe0, calldataload(0x00))\n      dup1\n      0x81d12c58\n      gt\n      tag_13\n      jumpi\n      dup1\n      0x81d12c58\n      eq\n      tag_7\n      jumpi\n      dup1\n      0x82fde093\n      eq\n      tag_8\n      jumpi\n      dup1\n      0x937e09b1\n      eq\n      tag_9\n      jumpi\n      dup1\n      0xd7bb99ba\n      eq\n      tag_10\n      jumpi\n      dup1\n      0xd7d1bbdb\n      eq\n      tag_11\n      jumpi\n      dup1\n      0xf031ecb8\n      eq\n      tag_12\n      jumpi\n      jump(tag_1)\n    tag_13:\n      dup1\n      0x03441006\n      eq\n      tag_2\n      jumpi\n      dup1\n      0x0a144391\n      eq\n      tag_3\n      jumpi\n      dup1\n      0x3410452a\n      eq\n      tag_4\n      jumpi\n      dup1\n      0x4051ddac\n      eq\n      tag_5\n      jumpi\n      dup1\n      0x481c6a75\n      eq\n      tag_6\n      jumpi\n    tag_1:\n      0x00\n      dup1\n      revert\n        /* \"Campaign.sol\":2112:2427  function finalizeRequest(uint index) public restricted {... */\n    tag_2:\n      callvalue\n      dup1\n      iszero\n      tag_14\n      jumpi\n      0x00\n      dup1\n      revert\n    tag_14:\n      pop\n      tag_15\n      0x04\n      dup1\n      calldatasize\n      sub\n      dup2\n      add\n      swap1\n      tag_16\n      swap2\n      swap1\n      tag_17\n      jump\t// in\n    tag_16:\n      tag_18\n      jump\t// in\n    tag_15:\n      stop\n        /* \"Campaign.sol\":849:890  mapping(address => bool) public approvers */\n    tag_3:\n      callvalue\n      dup1\n      iszero\n      tag_19\n      jumpi\n      0x00\n      dup1\n      revert\n    tag_19:\n      pop\n      tag_20\n      0x04\n      dup1\n      calldatasize\n      sub\n      dup2\n      add\n      swap1\n      tag_21\n      swap2\n      swap1\n      tag_22\n      jump\t// in\n    tag_21:\n      tag_23\n      jump\t// in\n    tag_20:\n      mload(0x40)\n      tag_24\n      swap2\n      swap1\n      tag_25\n      jump\t// in\n    tag_24:\n      mload(0x40)\n      dup1\n      swap2\n      sub\n      swap1\n      return\n        /* \"Campaign.sol\":2721:2817  function getRequestsCount() public view returns (uint) {... */\n    tag_4:\n      callvalue\n      dup1\n      iszero\n      tag_26\n      jumpi\n      0x00\n      dup1\n      revert\n    tag_26:\n      pop\n      tag_27\n      tag_28\n      jump\t// in\n    tag_27:\n      mload(0x40)\n      tag_29\n      swap2\n      swap1\n      tag_30\n      jump\t// in\n    tag_29:\n      mload(0x40)\n      dup1\n      swap2\n      sub\n      swap1\n      return\n        /* \"Campaign.sol\":2439:2709  function getSummary() public view returns (... */\n    tag_5:\n      callvalue\n      dup1\n      iszero\n      tag_31\n      jumpi\n      0x00\n      dup1\n      revert\n    tag_31:\n      pop\n      tag_32\n      tag_33\n      jump\t// in\n    tag_32:\n      mload(0x40)\n      tag_34\n      swap6\n      swap5\n      swap4\n      swap3\n      swap2\n      swap1\n      tag_35\n      jump\t// in\n    tag_34:\n      mload(0x40)\n      dup1\n      swap2\n      sub\n      swap1\n      return\n        /* \"Campaign.sol\":782:804  address public manager */\n    tag_6:\n      callvalue\n      dup1\n      iszero\n      tag_36\n      jumpi\n      0x00\n      dup1\n      revert\n    tag_36:\n      pop\n      tag_37\n      tag_38\n      jump\t// in\n    tag_37:\n      mload(0x40)\n      tag_39\n      swap2\n      swap1\n      tag_40\n      jump\t// in\n    tag_39:\n      mload(0x40)\n      dup1\n      swap2\n      sub\n      swap1\n      return\n        /* \"Campaign.sol\":750:775  Request[] public requests */\n    tag_7:\n      callvalue\n      dup1\n      iszero\n      tag_41\n      jumpi\n      0x00\n      dup1\n      revert\n    tag_41:\n      pop\n      tag_42\n      0x04\n      dup1\n      calldatasize\n      sub\n      dup2\n      add\n      swap1\n      tag_43\n      swap2\n      swap1\n      tag_17\n      jump\t// in\n    tag_43:\n      tag_44\n      jump\t// in\n    tag_42:\n      mload(0x40)\n      tag_45\n      swap8\n      swap7\n      swap6\n      swap5\n      swap4\n      swap3\n      swap2\n      swap1\n      tag_46\n      jump\t// in\n    tag_45:\n      mload(0x40)\n      dup1\n      swap2\n      sub\n      swap1\n      return\n        /* \"Campaign.sol\":897:923  uint public approversCount */\n    tag_8:\n      callvalue\n      dup1\n      iszero\n      tag_47\n      jumpi\n      0x00\n      dup1\n      revert\n    tag_47:\n      pop\n      tag_48\n      tag_49\n      jump\t// in\n    tag_48:\n      mload(0x40)\n      tag_50\n      swap2\n      swap1\n      tag_30\n      jump\t// in\n    tag_50:\n      mload(0x40)\n      dup1\n      swap2\n      sub\n      swap1\n      return\n        /* \"Campaign.sol\":811:842  uint public minimumContribution */\n    tag_9:\n      callvalue\n      dup1\n      iszero\n      tag_51\n      jumpi\n      0x00\n      dup1\n      revert\n    tag_51:\n      pop\n      tag_52\n      tag_53\n      jump\t// in\n    tag_52:\n      mload(0x40)\n      tag_54\n      swap2\n      swap1\n      tag_30\n      jump\t// in\n    tag_54:\n      mload(0x40)\n      dup1\n      swap2\n      sub\n      swap1\n      return\n        /* \"Campaign.sol\":1151:1315  function contribute() public payable {... */\n    tag_10:\n      tag_55\n      tag_56\n      jump\t// in\n    tag_55:\n      stop\n        /* \"Campaign.sol\":1825:2104  function approveRequest(uint index) public {... */\n    tag_11:\n      callvalue\n      dup1\n      iszero\n      tag_57\n      jumpi\n      0x00\n      dup1\n      revert\n    tag_57:\n      pop\n      tag_58\n      0x04\n      dup1\n      calldatasize\n      sub\n      dup2\n      add\n      swap1\n      tag_59\n      swap2\n      swap1\n      tag_17\n      jump\t// in\n    tag_59:\n      tag_60\n      jump\t// in\n    tag_58:\n      stop\n        /* \"Campaign.sol\":1323:1817  function createRequest(string memory orderId, string memory inspectedby,string memory approvedby, uint value,address recipient) public restricted {... */\n    tag_12:\n      callvalue\n      dup1\n      iszero\n      tag_61\n      jumpi\n      0x00\n      dup1\n      revert\n    tag_61:\n      pop\n      tag_62\n      0x04\n      dup1\n      calldatasize\n      sub\n      dup2\n      add\n      swap1\n      tag_63\n      swap2\n      swap1\n      tag_64\n      jump\t// in\n    tag_63:\n      tag_65\n      jump\t// in\n    tag_62:\n      stop\n        /* \"Campaign.sol\":2112:2427  function finalizeRequest(uint index) public restricted {... */\n    tag_18:\n        /* \"Campaign.sol\":987:994  manager */\n      0x01\n      0x00\n      swap1\n      sload\n      swap1\n      0x0100\n      exp\n      swap1\n      div\n      0xffffffffffffffffffffffffffffffffffffffff\n      and\n        /* \"Campaign.sol\":973:994  msg.sender == manager */\n      0xffffffffffffffffffffffffffffffffffffffff\n      and\n        /* \"Campaign.sol\":973:983  msg.sender */\n      caller\n        /* \"Campaign.sol\":973:994  msg.sender == manager */\n      0xffffffffffffffffffffffffffffffffffffffff\n      and\n      eq\n        /* \"Campaign.sol\":965:995  require(msg.sender == manager) */\n      tag_67\n      jumpi\n      0x00\n      dup1\n      revert\n    tag_67:\n        /* \"Campaign.sol\":2178:2201  Request storage request */\n      0x00\n        /* \"Campaign.sol\":2204:2212  requests */\n      dup1\n        /* \"Campaign.sol\":2213:2218  index */\n      dup3\n        /* \"Campaign.sol\":2204:2219  requests[index] */\n      dup2\n      sload\n      dup2\n      lt\n      tag_69\n      jumpi\n      tag_70\n      tag_71\n      jump\t// in\n    tag_70:\n    tag_69:\n      swap1\n      0x00\n      mstore\n      keccak256(0x00, 0x20)\n      swap1\n      0x07\n      mul\n      add\n        /* \"Campaign.sol\":2178:2219  Request storage request = requests[index] */\n      swap1\n      pop\n        /* \"Campaign.sol\":2282:2283  2 */\n      0x02\n        /* \"Campaign.sol\":2265:2279  approversCount */\n      sload(0x04)\n        /* \"Campaign.sol\":2265:2283  approversCount / 2 */\n      tag_73\n      swap2\n      swap1\n      tag_74\n      jump\t// in\n    tag_73:\n        /* \"Campaign.sol\":2240:2247  request */\n      dup2\n        /* \"Campaign.sol\":2240:2261  request.approvalCount */\n      0x05\n      add\n      sload\n        /* \"Campaign.sol\":2240:2284  request.approvalCount > (approversCount / 2) */\n      gt\n        /* \"Campaign.sol\":2232:2285  require(request.approvalCount > (approversCount / 2)) */\n      tag_75\n      jumpi\n      0x00\n      dup1\n      revert\n    tag_75:\n        /* \"Campaign.sol\":2305:2312  request */\n      dup1\n        /* \"Campaign.sol\":2305:2321  request.complete */\n      0x04\n      add\n      0x14\n      swap1\n      sload\n      swap1\n      0x0100\n      exp\n      swap1\n      div\n      0xff\n      and\n        /* \"Campaign.sol\":2304:2321  !request.complete */\n      iszero\n        /* \"Campaign.sol\":2296:2322  require(!request.complete) */\n      tag_76\n      jumpi\n      0x00\n      dup1\n      revert\n    tag_76:\n        /* \"Campaign.sol\":2343:2350  request */\n      dup1\n        /* \"Campaign.sol\":2343:2360  request.recipient */\n      0x04\n      add\n      0x00\n      swap1\n      sload\n      swap1\n      0x0100\n      exp\n      swap1\n      div\n      0xffffffffffffffffffffffffffffffffffffffff\n      and\n        /* \"Campaign.sol\":2335:2370  payable(request.recipient).transfer */\n      0xffffffffffffffffffffffffffffffffffffffff\n      and\n        /* \"Campaign.sol\":2335:2385  payable(request.recipient).transfer(request.value) */\n      0x08fc\n        /* \"Campaign.sol\":2371:2378  request */\n      dup3\n        /* \"Campaign.sol\":2371:2384  request.value */\n      0x03\n      add\n      sload\n        /* \"Campaign.sol\":2335:2385  payable(request.recipient).transfer(request.value) */\n      swap1\n      dup2\n      iszero\n      mul\n      swap1\n      mload(0x40)\n      0x00\n      mload(0x40)\n      dup1\n      dup4\n      sub\n      dup2\n      dup6\n      dup9\n      dup9\n      call\n      swap4\n      pop\n      pop\n      pop\n      pop\n      iszero\n      dup1\n      iszero\n      tag_78\n      jumpi\n      returndatasize\n      0x00\n      dup1\n      returndatacopy\n      revert(0x00, returndatasize)\n    tag_78:\n      pop\n        /* \"Campaign.sol\":2415:2419  true */\n      0x01\n        /* \"Campaign.sol\":2396:2403  request */\n      dup2\n        /* \"Campaign.sol\":2396:2412  request.complete */\n      0x04\n      add\n      0x14\n        /* \"Campaign.sol\":2396:2419  request.complete = true */\n      0x0100\n      exp\n      dup2\n      sload\n      dup2\n      0xff\n      mul\n      not\n      and\n      swap1\n      dup4\n      iszero\n      iszero\n      mul\n      or\n      swap1\n      sstore\n      pop\n        /* \"Campaign.sol\":2167:2427  {... */\n      pop\n        /* \"Campaign.sol\":2112:2427  function finalizeRequest(uint index) public restricted {... */\n      pop\n      jump\t// out\n        /* \"Campaign.sol\":849:890  mapping(address => bool) public approvers */\n    tag_23:\n      mstore(0x20, 0x03)\n      dup1\n      0x00\n      mstore\n      keccak256(0x00, 0x40)\n      0x00\n      swap2\n      pop\n      sload\n      swap1\n      0x0100\n      exp\n      swap1\n      div\n      0xff\n      and\n      dup2\n      jump\t// out\n        /* \"Campaign.sol\":2721:2817  function getRequestsCount() public view returns (uint) {... */\n    tag_28:\n        /* \"Campaign.sol\":2770:2774  uint */\n      0x00\n        /* \"Campaign.sol\":2794:2802  requests */\n      dup1\n        /* \"Campaign.sol\":2794:2809  requests.length */\n      dup1\n      sload\n      swap1\n      pop\n        /* \"Campaign.sol\":2787:2809  return requests.length */\n      swap1\n      pop\n        /* \"Campaign.sol\":2721:2817  function getRequestsCount() public view returns (uint) {... */\n      swap1\n      jump\t// out\n        /* \"Campaign.sol\":2439:2709  function getSummary() public view returns (... */\n    tag_33:\n        /* \"Campaign.sol\":2490:2494  uint */\n      0x00\n        /* \"Campaign.sol\":2496:2500  uint */\n      dup1\n        /* \"Campaign.sol\":2502:2506  uint */\n      0x00\n        /* \"Campaign.sol\":2508:2512  uint */\n      dup1\n        /* \"Campaign.sol\":2514:2521  address */\n      0x00\n        /* \"Campaign.sol\":2562:2581  minimumContribution */\n      sload(0x02)\n        /* \"Campaign.sol\":2594:2615  address(this).balance */\n      selfbalance\n        /* \"Campaign.sol\":2628:2636  requests */\n      0x00\n        /* \"Campaign.sol\":2628:2643  requests.length */\n      dup1\n      sload\n      swap1\n      pop\n        /* \"Campaign.sol\":2656:2670  approversCount */\n      sload(0x04)\n        /* \"Campaign.sol\":2683:2690  manager */\n      0x01\n      0x00\n      swap1\n      sload\n      swap1\n      0x0100\n      exp\n      swap1\n      div\n      0xffffffffffffffffffffffffffffffffffffffff\n      and\n        /* \"Campaign.sol\":2542:2701  return (... */\n      swap5\n      pop\n      swap5\n      pop\n      swap5\n      pop\n      swap5\n      pop\n      swap5\n      pop\n        /* \"Campaign.sol\":2439:2709  function getSummary() public view returns (... */\n      swap1\n      swap2\n      swap3\n      swap4\n      swap5\n      jump\t// out\n        /* \"Campaign.sol\":782:804  address public manager */\n    tag_38:\n      0x01\n      0x00\n      swap1\n      sload\n      swap1\n      0x0100\n      exp\n      swap1\n      div\n      0xffffffffffffffffffffffffffffffffffffffff\n      and\n      dup2\n      jump\t// out\n        /* \"Campaign.sol\":750:775  Request[] public requests */\n    tag_44:\n      0x00\n      dup2\n      dup2\n      sload\n      dup2\n      lt\n      tag_81\n      jumpi\n      0x00\n      dup1\n      revert\n    tag_81:\n      swap1\n      0x00\n      mstore\n      keccak256(0x00, 0x20)\n      swap1\n      0x07\n      mul\n      add\n      0x00\n      swap2\n      pop\n      swap1\n      pop\n      dup1\n      0x00\n      add\n      dup1\n      sload\n      tag_83\n      swap1\n      tag_84\n      jump\t// in\n    tag_83:\n      dup1\n      0x1f\n      add\n      0x20\n      dup1\n      swap2\n      div\n      mul\n      0x20\n      add\n      mload(0x40)\n      swap1\n      dup2\n      add\n      0x40\n      mstore\n      dup1\n      swap3\n      swap2\n      swap1\n      dup2\n      dup2\n      mstore\n      0x20\n      add\n      dup3\n      dup1\n      sload\n      tag_85\n      swap1\n      tag_84\n      jump\t// in\n    tag_85:\n      dup1\n      iszero\n      tag_86\n      jumpi\n      dup1\n      0x1f\n      lt\n      tag_87\n      jumpi\n      0x0100\n      dup1\n      dup4\n      sload\n      div\n      mul\n      dup4\n      mstore\n      swap2\n      0x20\n      add\n      swap2\n      jump(tag_86)\n    tag_87:\n      dup3\n      add\n      swap2\n      swap1\n      0x00\n      mstore\n      keccak256(0x00, 0x20)\n      swap1\n    tag_88:\n      dup2\n      sload\n      dup2\n      mstore\n      swap1\n      0x01\n      add\n      swap1\n      0x20\n      add\n      dup1\n      dup4\n      gt\n      tag_88\n      jumpi\n      dup3\n      swap1\n      sub\n      0x1f\n      and\n      dup3\n      add\n      swap2\n    tag_86:\n      pop\n      pop\n      pop\n      pop\n      pop\n      swap1\n      dup1\n      0x01\n      add\n      dup1\n      sload\n      tag_89\n      swap1\n      tag_84\n      jump\t// in\n    tag_89:\n      dup1\n      0x1f\n      add\n      0x20\n      dup1\n      swap2\n      div\n      mul\n      0x20\n      add\n      mload(0x40)\n      swap1\n      dup2\n      add\n      0x40\n      mstore\n      dup1\n      swap3\n      swap2\n      swap1\n      dup2\n      dup2\n      mstore\n      0x20\n      add\n      dup3\n      dup1\n      sload\n      tag_90\n      swap1\n      tag_84\n      jump\t// in\n    tag_90:\n      dup1\n      iszero\n      tag_91\n      jumpi\n      dup1\n      0x1f\n      lt\n      tag_92\n      jumpi\n      0x0100\n      dup1\n      dup4\n      sload\n      div\n      mul\n      dup4\n      mstore\n      swap2\n      0x20\n      add\n      swap2\n      jump(tag_91)\n    tag_92:\n      dup3\n      add\n      swap2\n      swap1\n      0x00\n      mstore\n      keccak256(0x00, 0x20)\n      swap1\n    tag_93:\n      dup2\n      sload\n      dup2\n      mstore\n      swap1\n      0x01\n      add\n      swap1\n      0x20\n      add\n      dup1\n      dup4\n      gt\n      tag_93\n      jumpi\n      dup3\n      swap1\n      sub\n      0x1f\n      and\n      dup3\n      add\n      swap2\n    tag_91:\n      pop\n      pop\n      pop\n      pop\n      pop\n      swap1\n      dup1\n      0x02\n      add\n      dup1\n      sload\n      tag_94\n      swap1\n      tag_84\n      jump\t// in\n    tag_94:\n      dup1\n      0x1f\n      add\n      0x20\n      dup1\n      swap2\n      div\n      mul\n      0x20\n      add\n      mload(0x40)\n      swap1\n      dup2\n      add\n      0x40\n      mstore\n      dup1\n      swap3\n      swap2\n      swap1\n      dup2\n      dup2\n      mstore\n      0x20\n      add\n      dup3\n      dup1\n      sload\n      tag_95\n      swap1\n      tag_84\n      jump\t// in\n    tag_95:\n      dup1\n      iszero\n      tag_96\n      jumpi\n      dup1\n      0x1f\n      lt\n      tag_97\n      jumpi\n      0x0100\n      dup1\n      dup4\n      sload\n      div\n      mul\n      dup4\n      mstore\n      swap2\n      0x20\n      add\n      swap2\n      jump(tag_96)\n    tag_97:\n      dup3\n      add\n      swap2\n      swap1\n      0x00\n      mstore\n      keccak256(0x00, 0x20)\n      swap1\n    tag_98:\n      dup2\n      sload\n      dup2\n      mstore\n      swap1\n      0x01\n      add\n      swap1\n      0x20\n      add\n      dup1\n      dup4\n      gt\n      tag_98\n      jumpi\n      dup3\n      swap1\n      sub\n      0x1f\n      and\n      dup3\n      add\n      swap2\n    tag_96:\n      pop\n      pop\n      pop\n      pop\n      pop\n      swap1\n      dup1\n      0x03\n      add\n      sload\n      swap1\n      dup1\n      0x04\n      add\n      0x00\n      swap1\n      sload\n      swap1\n      0x0100\n      exp\n      swap1\n      div\n      0xffffffffffffffffffffffffffffffffffffffff\n      and\n      swap1\n      dup1\n      0x04\n      add\n      0x14\n      swap1\n      sload\n      swap1\n      0x0100\n      exp\n      swap1\n      div\n      0xff\n      and\n      swap1\n      dup1\n      0x05\n      add\n      sload\n      swap1\n      pop\n      dup8\n      jump\t// out\n        /* \"Campaign.sol\":897:923  uint public approversCount */\n    tag_49:\n      sload(0x04)\n      dup2\n      jump\t// out\n        /* \"Campaign.sol\":811:842  uint public minimumContribution */\n    tag_53:\n      sload(0x02)\n      dup2\n      jump\t// out\n        /* \"Campaign.sol\":1151:1315  function contribute() public payable {... */\n    tag_56:\n        /* \"Campaign.sol\":1219:1238  minimumContribution */\n      sload(0x02)\n        /* \"Campaign.sol\":1207:1216  msg.value */\n      callvalue\n        /* \"Campaign.sol\":1207:1238  msg.value > minimumContribution */\n      gt\n        /* \"Campaign.sol\":1199:1239  require(msg.value > minimumContribution) */\n      tag_100\n      jumpi\n      0x00\n      dup1\n      revert\n    tag_100:\n        /* \"Campaign.sol\":1276:1280  true */\n      0x01\n        /* \"Campaign.sol\":1252:1261  approvers */\n      0x03\n        /* \"Campaign.sol\":1252:1273  approvers[msg.sender] */\n      0x00\n        /* \"Campaign.sol\":1262:1272  msg.sender */\n      caller\n        /* \"Campaign.sol\":1252:1273  approvers[msg.sender] */\n      0xffffffffffffffffffffffffffffffffffffffff\n      and\n      0xffffffffffffffffffffffffffffffffffffffff\n      and\n      dup2\n      mstore\n      0x20\n      add\n      swap1\n      dup2\n      mstore\n      0x20\n      add\n      0x00\n      keccak256\n      0x00\n        /* \"Campaign.sol\":1252:1280  approvers[msg.sender] = true */\n      0x0100\n      exp\n      dup2\n      sload\n      dup2\n      0xff\n      mul\n      not\n      and\n      swap1\n      dup4\n      iszero\n      iszero\n      mul\n      or\n      swap1\n      sstore\n      pop\n        /* \"Campaign.sol\":1291:1305  approversCount */\n      0x04\n      0x00\n        /* \"Campaign.sol\":1291:1307  approversCount++ */\n      dup2\n      sload\n      dup1\n      swap3\n      swap2\n      swap1\n      tag_101\n      swap1\n      tag_102\n      jump\t// in\n    tag_101:\n      swap2\n      swap1\n      pop\n      sstore\n      pop\n        /* \"Campaign.sol\":1151:1315  function contribute() public payable {... */\n      jump\t// out\n        /* \"Campaign.sol\":1825:2104  function approveRequest(uint index) public {... */\n    tag_60:\n        /* \"Campaign.sol\":1879:1902  Request storage request */\n      0x00\n        /* \"Campaign.sol\":1905:1913  requests */\n      dup1\n        /* \"Campaign.sol\":1914:1919  index */\n      dup3\n        /* \"Campaign.sol\":1905:1920  requests[index] */\n      dup2\n      sload\n      dup2\n      lt\n      tag_104\n      jumpi\n      tag_105\n      tag_71\n      jump\t// in\n    tag_105:\n    tag_104:\n      swap1\n      0x00\n      mstore\n      keccak256(0x00, 0x20)\n      swap1\n      0x07\n      mul\n      add\n        /* \"Campaign.sol\":1879:1920  Request storage request = requests[index] */\n      swap1\n      pop\n        /* \"Campaign.sol\":1941:1950  approvers */\n      0x03\n        /* \"Campaign.sol\":1941:1962  approvers[msg.sender] */\n      0x00\n        /* \"Campaign.sol\":1951:1961  msg.sender */\n      caller\n        /* \"Campaign.sol\":1941:1962  approvers[msg.sender] */\n      0xffffffffffffffffffffffffffffffffffffffff\n      and\n      0xffffffffffffffffffffffffffffffffffffffff\n      and\n      dup2\n      mstore\n      0x20\n      add\n      swap1\n      dup2\n      mstore\n      0x20\n      add\n      0x00\n      keccak256\n      0x00\n      swap1\n      sload\n      swap1\n      0x0100\n      exp\n      swap1\n      div\n      0xff\n      and\n        /* \"Campaign.sol\":1933:1963  require(approvers[msg.sender]) */\n      tag_107\n      jumpi\n      0x00\n      dup1\n      revert\n    tag_107:\n        /* \"Campaign.sol\":1983:1990  request */\n      dup1\n        /* \"Campaign.sol\":1983:2000  request.approvals */\n      0x06\n      add\n        /* \"Campaign.sol\":1983:2012  request.approvals[msg.sender] */\n      0x00\n        /* \"Campaign.sol\":2001:2011  msg.sender */\n      caller\n        /* \"Campaign.sol\":1983:2012  request.approvals[msg.sender] */\n      0xffffffffffffffffffffffffffffffffffffffff\n      and\n      0xffffffffffffffffffffffffffffffffffffffff\n      and\n      dup2\n      mstore\n      0x20\n      add\n      swap1\n      dup2\n      mstore\n      0x20\n      add\n      0x00\n      keccak256\n      0x00\n      swap1\n      sload\n      swap1\n      0x0100\n      exp\n      swap1\n      div\n      0xff\n      and\n        /* \"Campaign.sol\":1982:2012  !request.approvals[msg.sender] */\n      iszero\n        /* \"Campaign.sol\":1974:2013  require(!request.approvals[msg.sender]) */\n      tag_108\n      jumpi\n      0x00\n      dup1\n      revert\n    tag_108:\n        /* \"Campaign.sol\":2058:2062  true */\n      0x01\n        /* \"Campaign.sol\":2026:2033  request */\n      dup2\n        /* \"Campaign.sol\":2026:2043  request.approvals */\n      0x06\n      add\n        /* \"Campaign.sol\":2026:2055  request.approvals[msg.sender] */\n      0x00\n        /* \"Campaign.sol\":2044:2054  msg.sender */\n      caller\n        /* \"Campaign.sol\":2026:2055  request.approvals[msg.sender] */\n      0xffffffffffffffffffffffffffffffffffffffff\n      and\n      0xffffffffffffffffffffffffffffffffffffffff\n      and\n      dup2\n      mstore\n      0x20\n      add\n      swap1\n      dup2\n      mstore\n      0x20\n      add\n      0x00\n      keccak256\n      0x00\n        /* \"Campaign.sol\":2026:2062  request.approvals[msg.sender] = true */\n      0x0100\n      exp\n      dup2\n      sload\n      dup2\n      0xff\n      mul\n      not\n      and\n      swap1\n      dup4\n      iszero\n      iszero\n      mul\n      or\n      swap1\n      sstore\n      pop\n        /* \"Campaign.sol\":2073:2080  request */\n      dup1\n        /* \"Campaign.sol\":2073:2094  request.approvalCount */\n      0x05\n      add\n      0x00\n        /* \"Campaign.sol\":2073:2096  request.approvalCount++ */\n      dup2\n      sload\n      dup1\n      swap3\n      swap2\n      swap1\n      tag_109\n      swap1\n      tag_102\n      jump\t// in\n    tag_109:\n      swap2\n      swap1\n      pop\n      sstore\n      pop\n        /* \"Campaign.sol\":1868:2104  {... */\n      pop\n        /* \"Campaign.sol\":1825:2104  function approveRequest(uint index) public {... */\n      pop\n      jump\t// out\n        /* \"Campaign.sol\":1323:1817  function createRequest(string memory orderId, string memory inspectedby,string memory approvedby, uint value,address recipient) public restricted {... */\n    tag_65:\n        /* \"Campaign.sol\":987:994  manager */\n      0x01\n      0x00\n      swap1\n      sload\n      swap1\n      0x0100\n      exp\n      swap1\n      div\n      0xffffffffffffffffffffffffffffffffffffffff\n      and\n        /* \"Campaign.sol\":973:994  msg.sender == manager */\n      0xffffffffffffffffffffffffffffffffffffffff\n      and\n        /* \"Campaign.sol\":973:983  msg.sender */\n      caller\n        /* \"Campaign.sol\":973:994  msg.sender == manager */\n      0xffffffffffffffffffffffffffffffffffffffff\n      and\n      eq\n        /* \"Campaign.sol\":965:995  require(msg.sender == manager) */\n      tag_111\n      jumpi\n      0x00\n      dup1\n      revert\n    tag_111:\n        /* \"Campaign.sol\":1480:1506  Request storage newRequest */\n      0x00\n        /* \"Campaign.sol\":1509:1517  requests */\n      dup1\n        /* \"Campaign.sol\":1509:1524  requests.push() */\n      0x01\n      dup2\n      0x01\n      dup2\n      sload\n      add\n      dup1\n      dup3\n      sstore\n      dup1\n      swap2\n      pop\n      pop\n      sub\n      swap1\n      0x00\n      mstore\n      keccak256(0x00, 0x20)\n      swap1\n      0x07\n      mul\n      add\n        /* \"Campaign.sol\":1480:1524  Request storage newRequest = requests.push() */\n      swap1\n      pop\n        /* \"Campaign.sol\":1557:1564  orderId */\n      dup6\n        /* \"Campaign.sol\":1536:1546  newRequest */\n      dup2\n        /* \"Campaign.sol\":1536:1554  newRequest.orderId */\n      0x00\n      add\n        /* \"Campaign.sol\":1536:1564  newRequest.orderId = orderId */\n      swap1\n      dup2\n      tag_114\n      swap2\n      swap1\n      tag_115\n      jump\t// in\n    tag_114:\n      pop\n        /* \"Campaign.sol\":1600:1611  inspectedby */\n      dup5\n        /* \"Campaign.sol\":1575:1585  newRequest */\n      dup2\n        /* \"Campaign.sol\":1575:1597  newRequest.inspectedby */\n      0x01\n      add\n        /* \"Campaign.sol\":1575:1611  newRequest.inspectedby = inspectedby */\n      swap1\n      dup2\n      tag_116\n      swap2\n      swap1\n      tag_115\n      jump\t// in\n    tag_116:\n      pop\n        /* \"Campaign.sol\":1646:1656  approvedby */\n      dup4\n        /* \"Campaign.sol\":1622:1632  newRequest */\n      dup2\n        /* \"Campaign.sol\":1622:1643  newRequest.approvedby */\n      0x02\n      add\n        /* \"Campaign.sol\":1622:1656  newRequest.approvedby = approvedby */\n      swap1\n      dup2\n      tag_117\n      swap2\n      swap1\n      tag_115\n      jump\t// in\n    tag_117:\n      pop\n        /* \"Campaign.sol\":1687:1692  value */\n      dup3\n        /* \"Campaign.sol\":1669:1679  newRequest */\n      dup2\n        /* \"Campaign.sol\":1669:1685  newRequest.value */\n      0x03\n      add\n        /* \"Campaign.sol\":1669:1692  newRequest.value= value */\n      dup2\n      swap1\n      sstore\n      pop\n        /* \"Campaign.sol\":1725:1734  recipient */\n      dup2\n        /* \"Campaign.sol\":1703:1713  newRequest */\n      dup2\n        /* \"Campaign.sol\":1703:1723  newRequest.recipient */\n      0x04\n      add\n      0x00\n        /* \"Campaign.sol\":1703:1734  newRequest.recipient= recipient */\n      0x0100\n      exp\n      dup2\n      sload\n      dup2\n      0xffffffffffffffffffffffffffffffffffffffff\n      mul\n      not\n      and\n      swap1\n      dup4\n      0xffffffffffffffffffffffffffffffffffffffff\n      and\n      mul\n      or\n      swap1\n      sstore\n      pop\n        /* \"Campaign.sol\":1766:1771  false */\n      0x00\n        /* \"Campaign.sol\":1745:1755  newRequest */\n      dup2\n        /* \"Campaign.sol\":1745:1764  newRequest.complete */\n      0x04\n      add\n      0x14\n        /* \"Campaign.sol\":1745:1771  newRequest.complete= false */\n      0x0100\n      exp\n      dup2\n      sload\n      dup2\n      0xff\n      mul\n      not\n      and\n      swap1\n      dup4\n      iszero\n      iszero\n      mul\n      or\n      swap1\n      sstore\n      pop\n        /* \"Campaign.sol\":1808:1809  0 */\n      0x00\n        /* \"Campaign.sol\":1782:1792  newRequest */\n      dup2\n        /* \"Campaign.sol\":1782:1806  newRequest.approvalCount */\n      0x05\n      add\n        /* \"Campaign.sol\":1782:1809  newRequest.approvalCount= 0 */\n      dup2\n      swap1\n      sstore\n      pop\n        /* \"Campaign.sol\":1469:1817  {... */\n      pop\n        /* \"Campaign.sol\":1323:1817  function createRequest(string memory orderId, string memory inspectedby,string memory approvedby, uint value,address recipient) public restricted {... */\n      pop\n      pop\n      pop\n      pop\n      pop\n      jump\t// out\n        /* \"#utility.yul\":7:82   */\n    tag_118:\n        /* \"#utility.yul\":40:46   */\n      0x00\n        /* \"#utility.yul\":73:75   */\n      0x40\n        /* \"#utility.yul\":67:76   */\n      mload\n        /* \"#utility.yul\":57:76   */\n      swap1\n      pop\n        /* \"#utility.yul\":7:82   */\n      swap1\n      jump\t// out\n        /* \"#utility.yul\":88:205   */\n    tag_119:\n        /* \"#utility.yul\":197:198   */\n      0x00\n        /* \"#utility.yul\":194:195   */\n      dup1\n        /* \"#utility.yul\":187:199   */\n      revert\n        /* \"#utility.yul\":211:328   */\n    tag_120:\n        /* \"#utility.yul\":320:321   */\n      0x00\n        /* \"#utility.yul\":317:318   */\n      dup1\n        /* \"#utility.yul\":310:322   */\n      revert\n        /* \"#utility.yul\":334:411   */\n    tag_121:\n        /* \"#utility.yul\":371:378   */\n      0x00\n        /* \"#utility.yul\":400:405   */\n      dup2\n        /* \"#utility.yul\":389:405   */\n      swap1\n      pop\n        /* \"#utility.yul\":334:411   */\n      swap2\n      swap1\n      pop\n      jump\t// out\n        /* \"#utility.yul\":417:539   */\n    tag_122:\n        /* \"#utility.yul\":490:514   */\n      tag_170\n        /* \"#utility.yul\":508:513   */\n      dup2\n        /* \"#utility.yul\":490:514   */\n      tag_121\n      jump\t// in\n    tag_170:\n        /* \"#utility.yul\":483:488   */\n      dup2\n        /* \"#utility.yul\":480:515   */\n      eq\n        /* \"#utility.yul\":470:533   */\n      tag_171\n      jumpi\n        /* \"#utility.yul\":529:530   */\n      0x00\n        /* \"#utility.yul\":526:527   */\n      dup1\n        /* \"#utility.yul\":519:531   */\n      revert\n        /* \"#utility.yul\":470:533   */\n    tag_171:\n        /* \"#utility.yul\":417:539   */\n      pop\n      jump\t// out\n        /* \"#utility.yul\":545:684   */\n    tag_123:\n        /* \"#utility.yul\":591:596   */\n      0x00\n        /* \"#utility.yul\":629:635   */\n      dup2\n        /* \"#utility.yul\":616:636   */\n      calldataload\n        /* \"#utility.yul\":607:636   */\n      swap1\n      pop\n        /* \"#utility.yul\":645:678   */\n      tag_173\n        /* \"#utility.yul\":672:677   */\n      dup2\n        /* \"#utility.yul\":645:678   */\n      tag_122\n      jump\t// in\n    tag_173:\n        /* \"#utility.yul\":545:684   */\n      swap3\n      swap2\n      pop\n      pop\n      jump\t// out\n        /* \"#utility.yul\":690:1019   */\n    tag_17:\n        /* \"#utility.yul\":749:755   */\n      0x00\n        /* \"#utility.yul\":798:800   */\n      0x20\n        /* \"#utility.yul\":786:795   */\n      dup3\n        /* \"#utility.yul\":777:784   */\n      dup5\n        /* \"#utility.yul\":773:796   */\n      sub\n        /* \"#utility.yul\":769:801   */\n      slt\n        /* \"#utility.yul\":766:885   */\n      iszero\n      tag_175\n      jumpi\n        /* \"#utility.yul\":804:883   */\n      tag_176\n      tag_119\n      jump\t// in\n    tag_176:\n        /* \"#utility.yul\":766:885   */\n    tag_175:\n        /* \"#utility.yul\":924:925   */\n      0x00\n        /* \"#utility.yul\":949:1002   */\n      tag_177\n        /* \"#utility.yul\":994:1001   */\n      dup5\n        /* \"#utility.yul\":985:991   */\n      dup3\n        /* \"#utility.yul\":974:983   */\n      dup6\n        /* \"#utility.yul\":970:992   */\n      add\n        /* \"#utility.yul\":949:1002   */\n      tag_123\n      jump\t// in\n    tag_177:\n        /* \"#utility.yul\":939:1002   */\n      swap2\n      pop\n        /* \"#utility.yul\":895:1012   */\n      pop\n        /* \"#utility.yul\":690:1019   */\n      swap3\n      swap2\n      pop\n      pop\n      jump\t// out\n        /* \"#utility.yul\":1025:1151   */\n    tag_124:\n        /* \"#utility.yul\":1062:1069   */\n      0x00\n        /* \"#utility.yul\":1102:1144   */\n      0xffffffffffffffffffffffffffffffffffffffff\n        /* \"#utility.yul\":1095:1100   */\n      dup3\n        /* \"#utility.yul\":1091:1145   */\n      and\n        /* \"#utility.yul\":1080:1145   */\n      swap1\n      pop\n        /* \"#utility.yul\":1025:1151   */\n      swap2\n      swap1\n      pop\n      jump\t// out\n        /* \"#utility.yul\":1157:1253   */\n    tag_125:\n        /* \"#utility.yul\":1194:1201   */\n      0x00\n        /* \"#utility.yul\":1223:1247   */\n      tag_180\n        /* \"#utility.yul\":1241:1246   */\n      dup3\n        /* \"#utility.yul\":1223:1247   */\n      tag_124\n      jump\t// in\n    tag_180:\n        /* \"#utility.yul\":1212:1247   */\n      swap1\n      pop\n        /* \"#utility.yul\":1157:1253   */\n      swap2\n      swap1\n      pop\n      jump\t// out\n        /* \"#utility.yul\":1259:1381   */\n    tag_126:\n        /* \"#utility.yul\":1332:1356   */\n      tag_182\n        /* \"#utility.yul\":1350:1355   */\n      dup2\n        /* \"#utility.yul\":1332:1356   */\n      tag_125\n      jump\t// in\n    tag_182:\n        /* \"#utility.yul\":1325:1330   */\n      dup2\n        /* \"#utility.yul\":1322:1357   */\n      eq\n        /* \"#utility.yul\":1312:1375   */\n      tag_183\n      jumpi\n        /* \"#utility.yul\":1371:1372   */\n      0x00\n        /* \"#utility.yul\":1368:1369   */\n      dup1\n        /* \"#utility.yul\":1361:1373   */\n      revert\n        /* \"#utility.yul\":1312:1375   */\n    tag_183:\n        /* \"#utility.yul\":1259:1381   */\n      pop\n      jump\t// out\n        /* \"#utility.yul\":1387:1526   */\n    tag_127:\n        /* \"#utility.yul\":1433:1438   */\n      0x00\n        /* \"#utility.yul\":1471:1477   */\n      dup2\n        /* \"#utility.yul\":1458:1478   */\n      calldataload\n        /* \"#utility.yul\":1449:1478   */\n      swap1\n      pop\n        /* \"#utility.yul\":1487:1520   */\n      tag_185\n        /* \"#utility.yul\":1514:1519   */\n      dup2\n        /* \"#utility.yul\":1487:1520   */\n      tag_126\n      jump\t// in\n    tag_185:\n        /* \"#utility.yul\":1387:1526   */\n      swap3\n      swap2\n      pop\n      pop\n      jump\t// out\n        /* \"#utility.yul\":1532:1861   */\n    tag_22:\n        /* \"#utility.yul\":1591:1597   */\n      0x00\n        /* \"#utility.yul\":1640:1642   */\n      0x20\n        /* \"#utility.yul\":1628:1637   */\n      dup3\n        /* \"#utility.yul\":1619:1626   */\n      dup5\n        /* \"#utility.yul\":1615:1638   */\n      sub\n        /* \"#utility.yul\":1611:1643   */\n      slt\n        /* \"#utility.yul\":1608:1727   */\n      iszero\n      tag_187\n      jumpi\n        /* \"#utility.yul\":1646:1725   */\n      tag_188\n      tag_119\n      jump\t// in\n    tag_188:\n        /* \"#utility.yul\":1608:1727   */\n    tag_187:\n        /* \"#utility.yul\":1766:1767   */\n      0x00\n        /* \"#utility.yul\":1791:1844   */\n      tag_189\n        /* \"#utility.yul\":1836:1843   */\n      dup5\n        /* \"#utility.yul\":1827:1833   */\n      dup3\n        /* \"#utility.yul\":1816:1825   */\n      dup6\n        /* \"#utility.yul\":1812:1834   */\n      add\n        /* \"#utility.yul\":1791:1844   */\n      tag_127\n      jump\t// in\n    tag_189:\n        /* \"#utility.yul\":1781:1844   */\n      swap2\n      pop\n        /* \"#utility.yul\":1737:1854   */\n      pop\n        /* \"#utility.yul\":1532:1861   */\n      swap3\n      swap2\n      pop\n      pop\n      jump\t// out\n        /* \"#utility.yul\":1867:1957   */\n    tag_128:\n        /* \"#utility.yul\":1901:1908   */\n      0x00\n        /* \"#utility.yul\":1944:1949   */\n      dup2\n        /* \"#utility.yul\":1937:1950   */\n      iszero\n        /* \"#utility.yul\":1930:1951   */\n      iszero\n        /* \"#utility.yul\":1919:1951   */\n      swap1\n      pop\n        /* \"#utility.yul\":1867:1957   */\n      swap2\n      swap1\n      pop\n      jump\t// out\n        /* \"#utility.yul\":1963:2072   */\n    tag_129:\n        /* \"#utility.yul\":2044:2065   */\n      tag_192\n        /* \"#utility.yul\":2059:2064   */\n      dup2\n        /* \"#utility.yul\":2044:2065   */\n      tag_128\n      jump\t// in\n    tag_192:\n        /* \"#utility.yul\":2039:2042   */\n      dup3\n        /* \"#utility.yul\":2032:2066   */\n      mstore\n        /* \"#utility.yul\":1963:2072   */\n      pop\n      pop\n      jump\t// out\n        /* \"#utility.yul\":2078:2288   */\n    tag_25:\n        /* \"#utility.yul\":2165:2169   */\n      0x00\n        /* \"#utility.yul\":2203:2205   */\n      0x20\n        /* \"#utility.yul\":2192:2201   */\n      dup3\n        /* \"#utility.yul\":2188:2206   */\n      add\n        /* \"#utility.yul\":2180:2206   */\n      swap1\n      pop\n        /* \"#utility.yul\":2216:2281   */\n      tag_194\n        /* \"#utility.yul\":2278:2279   */\n      0x00\n        /* \"#utility.yul\":2267:2276   */\n      dup4\n        /* \"#utility.yul\":2263:2280   */\n      add\n        /* \"#utility.yul\":2254:2260   */\n      dup5\n        /* \"#utility.yul\":2216:2281   */\n      tag_129\n      jump\t// in\n    tag_194:\n        /* \"#utility.yul\":2078:2288   */\n      swap3\n      swap2\n      pop\n      pop\n      jump\t// out\n        /* \"#utility.yul\":2294:2412   */\n    tag_130:\n        /* \"#utility.yul\":2381:2405   */\n      tag_196\n        /* \"#utility.yul\":2399:2404   */\n      dup2\n        /* \"#utility.yul\":2381:2405   */\n      tag_121\n      jump\t// in\n    tag_196:\n        /* \"#utility.yul\":2376:2379   */\n      dup3\n        /* \"#utility.yul\":2369:2406   */\n      mstore\n        /* \"#utility.yul\":2294:2412   */\n      pop\n      pop\n      jump\t// out\n        /* \"#utility.yul\":2418:2640   */\n    tag_30:\n        /* \"#utility.yul\":2511:2515   */\n      0x00\n        /* \"#utility.yul\":2549:2551   */\n      0x20\n        /* \"#utility.yul\":2538:2547   */\n      dup3\n        /* \"#utility.yul\":2534:2552   */\n      add\n        /* \"#utility.yul\":2526:2552   */\n      swap1\n      pop\n        /* \"#utility.yul\":2562:2633   */\n      tag_198\n        /* \"#utility.yul\":2630:2631   */\n      0x00\n        /* \"#utility.yul\":2619:2628   */\n      dup4\n        /* \"#utility.yul\":2615:2632   */\n      add\n        /* \"#utility.yul\":2606:2612   */\n      dup5\n        /* \"#utility.yul\":2562:2633   */\n      tag_130\n      jump\t// in\n    tag_198:\n        /* \"#utility.yul\":2418:2640   */\n      swap3\n      swap2\n      pop\n      pop\n      jump\t// out\n        /* \"#utility.yul\":2646:2764   */\n    tag_131:\n        /* \"#utility.yul\":2733:2757   */\n      tag_200\n        /* \"#utility.yul\":2751:2756   */\n      dup2\n        /* \"#utility.yul\":2733:2757   */\n      tag_125\n      jump\t// in\n    tag_200:\n        /* \"#utility.yul\":2728:2731   */\n      dup3\n        /* \"#utility.yul\":2721:2758   */\n      mstore\n        /* \"#utility.yul\":2646:2764   */\n      pop\n      pop\n      jump\t// out\n        /* \"#utility.yul\":2770:3434   */\n    tag_35:\n        /* \"#utility.yul\":2975:2979   */\n      0x00\n        /* \"#utility.yul\":3013:3016   */\n      0xa0\n        /* \"#utility.yul\":3002:3011   */\n      dup3\n        /* \"#utility.yul\":2998:3017   */\n      add\n        /* \"#utility.yul\":2990:3017   */\n      swap1\n      pop\n        /* \"#utility.yul\":3027:3098   */\n      tag_202\n        /* \"#utility.yul\":3095:3096   */\n      0x00\n        /* \"#utility.yul\":3084:3093   */\n      dup4\n        /* \"#utility.yul\":3080:3097   */\n      add\n        /* \"#utility.yul\":3071:3077   */\n      dup9\n        /* \"#utility.yul\":3027:3098   */\n      tag_130\n      jump\t// in\n    tag_202:\n        /* \"#utility.yul\":3108:3180   */\n      tag_203\n        /* \"#utility.yul\":3176:3178   */\n      0x20\n        /* \"#utility.yul\":3165:3174   */\n      dup4\n        /* \"#utility.yul\":3161:3179   */\n      add\n        /* \"#utility.yul\":3152:3158   */\n      dup8\n        /* \"#utility.yul\":3108:3180   */\n      tag_130\n      jump\t// in\n    tag_203:\n        /* \"#utility.yul\":3190:3262   */\n      tag_204\n        /* \"#utility.yul\":3258:3260   */\n      0x40\n        /* \"#utility.yul\":3247:3256   */\n      dup4\n        /* \"#utility.yul\":3243:3261   */\n      add\n        /* \"#utility.yul\":3234:3240   */\n      dup7\n        /* \"#utility.yul\":3190:3262   */\n      tag_130\n      jump\t// in\n    tag_204:\n        /* \"#utility.yul\":3272:3344   */\n      tag_205\n        /* \"#utility.yul\":3340:3342   */\n      0x60\n        /* \"#utility.yul\":3329:3338   */\n      dup4\n        /* \"#utility.yul\":3325:3343   */\n      add\n        /* \"#utility.yul\":3316:3322   */\n      dup6\n        /* \"#utility.yul\":3272:3344   */\n      tag_130\n      jump\t// in\n    tag_205:\n        /* \"#utility.yul\":3354:3427   */\n      tag_206\n        /* \"#utility.yul\":3422:3425   */\n      0x80\n        /* \"#utility.yul\":3411:3420   */\n      dup4\n        /* \"#utility.yul\":3407:3426   */\n      add\n        /* \"#utility.yul\":3398:3404   */\n      dup5\n        /* \"#utility.yul\":3354:3427   */\n      tag_131\n      jump\t// in\n    tag_206:\n        /* \"#utility.yul\":2770:3434   */\n      swap7\n      swap6\n      pop\n      pop\n      pop\n      pop\n      pop\n      pop\n      jump\t// out\n        /* \"#utility.yul\":3440:3662   */\n    tag_40:\n        /* \"#utility.yul\":3533:3537   */\n      0x00\n        /* \"#utility.yul\":3571:3573   */\n      0x20\n        /* \"#utility.yul\":3560:3569   */\n      dup3\n        /* \"#utility.yul\":3556:3574   */\n      add\n        /* \"#utility.yul\":3548:3574   */\n      swap1\n      pop\n        /* \"#utility.yul\":3584:3655   */\n      tag_208\n        /* \"#utility.yul\":3652:3653   */\n      0x00\n        /* \"#utility.yul\":3641:3650   */\n      dup4\n        /* \"#utility.yul\":3637:3654   */\n      add\n        /* \"#utility.yul\":3628:3634   */\n      dup5\n        /* \"#utility.yul\":3584:3655   */\n      tag_131\n      jump\t// in\n    tag_208:\n        /* \"#utility.yul\":3440:3662   */\n      swap3\n      swap2\n      pop\n      pop\n      jump\t// out\n        /* \"#utility.yul\":3668:3767   */\n    tag_132:\n        /* \"#utility.yul\":3720:3726   */\n      0x00\n        /* \"#utility.yul\":3754:3759   */\n      dup2\n        /* \"#utility.yul\":3748:3760   */\n      mload\n        /* \"#utility.yul\":3738:3760   */\n      swap1\n      pop\n        /* \"#utility.yul\":3668:3767   */\n      swap2\n      swap1\n      pop\n      jump\t// out\n        /* \"#utility.yul\":3773:3942   */\n    tag_133:\n        /* \"#utility.yul\":3857:3868   */\n      0x00\n        /* \"#utility.yul\":3891:3897   */\n      dup3\n        /* \"#utility.yul\":3886:3889   */\n      dup3\n        /* \"#utility.yul\":3879:3898   */\n      mstore\n        /* \"#utility.yul\":3931:3935   */\n      0x20\n        /* \"#utility.yul\":3926:3929   */\n      dup3\n        /* \"#utility.yul\":3922:3936   */\n      add\n        /* \"#utility.yul\":3907:3936   */\n      swap1\n      pop\n        /* \"#utility.yul\":3773:3942   */\n      swap3\n      swap2\n      pop\n      pop\n      jump\t// out\n        /* \"#utility.yul\":3948:4194   */\n    tag_134:\n        /* \"#utility.yul\":4029:4030   */\n      0x00\n        /* \"#utility.yul\":4039:4152   */\n    tag_212:\n        /* \"#utility.yul\":4053:4059   */\n      dup4\n        /* \"#utility.yul\":4050:4051   */\n      dup2\n        /* \"#utility.yul\":4047:4060   */\n      lt\n        /* \"#utility.yul\":4039:4152   */\n      iszero\n      tag_214\n      jumpi\n        /* \"#utility.yul\":4138:4139   */\n      dup1\n        /* \"#utility.yul\":4133:4136   */\n      dup3\n        /* \"#utility.yul\":4129:4140   */\n      add\n        /* \"#utility.yul\":4123:4141   */\n      mload\n        /* \"#utility.yul\":4119:4120   */\n      dup2\n        /* \"#utility.yul\":4114:4117   */\n      dup5\n        /* \"#utility.yul\":4110:4121   */\n      add\n        /* \"#utility.yul\":4103:4142   */\n      mstore\n        /* \"#utility.yul\":4075:4077   */\n      0x20\n        /* \"#utility.yul\":4072:4073   */\n      dup2\n        /* \"#utility.yul\":4068:4078   */\n      add\n        /* \"#utility.yul\":4063:4078   */\n      swap1\n      pop\n        /* \"#utility.yul\":4039:4152   */\n      jump(tag_212)\n    tag_214:\n        /* \"#utility.yul\":4186:4187   */\n      0x00\n        /* \"#utility.yul\":4177:4183   */\n      dup5\n        /* \"#utility.yul\":4172:4175   */\n      dup5\n        /* \"#utility.yul\":4168:4184   */\n      add\n        /* \"#utility.yul\":4161:4188   */\n      mstore\n        /* \"#utility.yul\":4010:4194   */\n      pop\n        /* \"#utility.yul\":3948:4194   */\n      pop\n      pop\n      pop\n      jump\t// out\n        /* \"#utility.yul\":4200:4302   */\n    tag_135:\n        /* \"#utility.yul\":4241:4247   */\n      0x00\n        /* \"#utility.yul\":4292:4294   */\n      0x1f\n        /* \"#utility.yul\":4288:4295   */\n      not\n        /* \"#utility.yul\":4283:4285   */\n      0x1f\n        /* \"#utility.yul\":4276:4281   */\n      dup4\n        /* \"#utility.yul\":4272:4286   */\n      add\n        /* \"#utility.yul\":4268:4296   */\n      and\n        /* \"#utility.yul\":4258:4296   */\n      swap1\n      pop\n        /* \"#utility.yul\":4200:4302   */\n      swap2\n      swap1\n      pop\n      jump\t// out\n        /* \"#utility.yul\":4308:4685   */\n    tag_136:\n        /* \"#utility.yul\":4396:4399   */\n      0x00\n        /* \"#utility.yul\":4424:4463   */\n      tag_217\n        /* \"#utility.yul\":4457:4462   */\n      dup3\n        /* \"#utility.yul\":4424:4463   */\n      tag_132\n      jump\t// in\n    tag_217:\n        /* \"#utility.yul\":4479:4550   */\n      tag_218\n        /* \"#utility.yul\":4543:4549   */\n      dup2\n        /* \"#utility.yul\":4538:4541   */\n      dup6\n        /* \"#utility.yul\":4479:4550   */\n      tag_133\n      jump\t// in\n    tag_218:\n        /* \"#utility.yul\":4472:4550   */\n      swap4\n      pop\n        /* \"#utility.yul\":4559:4624   */\n      tag_219\n        /* \"#utility.yul\":4617:4623   */\n      dup2\n        /* \"#utility.yul\":4612:4615   */\n      dup6\n        /* \"#utility.yul\":4605:4609   */\n      0x20\n        /* \"#utility.yul\":4598:4603   */\n      dup7\n        /* \"#utility.yul\":4594:4610   */\n      add\n        /* \"#utility.yul\":4559:4624   */\n      tag_134\n      jump\t// in\n    tag_219:\n        /* \"#utility.yul\":4649:4678   */\n      tag_220\n        /* \"#utility.yul\":4671:4677   */\n      dup2\n        /* \"#utility.yul\":4649:4678   */\n      tag_135\n      jump\t// in\n    tag_220:\n        /* \"#utility.yul\":4644:4647   */\n      dup5\n        /* \"#utility.yul\":4640:4679   */\n      add\n        /* \"#utility.yul\":4633:4679   */\n      swap2\n      pop\n        /* \"#utility.yul\":4400:4685   */\n      pop\n        /* \"#utility.yul\":4308:4685   */\n      swap3\n      swap2\n      pop\n      pop\n      jump\t// out\n        /* \"#utility.yul\":4691:5838   */\n    tag_46:\n        /* \"#utility.yul\":5006:5010   */\n      0x00\n        /* \"#utility.yul\":5044:5047   */\n      0xe0\n        /* \"#utility.yul\":5033:5042   */\n      dup3\n        /* \"#utility.yul\":5029:5048   */\n      add\n        /* \"#utility.yul\":5021:5048   */\n      swap1\n      pop\n        /* \"#utility.yul\":5094:5103   */\n      dup2\n        /* \"#utility.yul\":5088:5092   */\n      dup2\n        /* \"#utility.yul\":5084:5104   */\n      sub\n        /* \"#utility.yul\":5080:5081   */\n      0x00\n        /* \"#utility.yul\":5069:5078   */\n      dup4\n        /* \"#utility.yul\":5065:5082   */\n      add\n        /* \"#utility.yul\":5058:5105   */\n      mstore\n        /* \"#utility.yul\":5122:5200   */\n      tag_222\n        /* \"#utility.yul\":5195:5199   */\n      dup2\n        /* \"#utility.yul\":5186:5192   */\n      dup11\n        /* \"#utility.yul\":5122:5200   */\n      tag_136\n      jump\t// in\n    tag_222:\n        /* \"#utility.yul\":5114:5200   */\n      swap1\n      pop\n        /* \"#utility.yul\":5247:5256   */\n      dup2\n        /* \"#utility.yul\":5241:5245   */\n      dup2\n        /* \"#utility.yul\":5237:5257   */\n      sub\n        /* \"#utility.yul\":5232:5234   */\n      0x20\n        /* \"#utility.yul\":5221:5230   */\n      dup4\n        /* \"#utility.yul\":5217:5235   */\n      add\n        /* \"#utility.yul\":5210:5258   */\n      mstore\n        /* \"#utility.yul\":5275:5353   */\n      tag_223\n        /* \"#utility.yul\":5348:5352   */\n      dup2\n        /* \"#utility.yul\":5339:5345   */\n      dup10\n        /* \"#utility.yul\":5275:5353   */\n      tag_136\n      jump\t// in\n    tag_223:\n        /* \"#utility.yul\":5267:5353   */\n      swap1\n      pop\n        /* \"#utility.yul\":5400:5409   */\n      dup2\n        /* \"#utility.yul\":5394:5398   */\n      dup2\n        /* \"#utility.yul\":5390:5410   */\n      sub\n        /* \"#utility.yul\":5385:5387   */\n      0x40\n        /* \"#utility.yul\":5374:5383   */\n      dup4\n        /* \"#utility.yul\":5370:5388   */\n      add\n        /* \"#utility.yul\":5363:5411   */\n      mstore\n        /* \"#utility.yul\":5428:5506   */\n      tag_224\n        /* \"#utility.yul\":5501:5505   */\n      dup2\n        /* \"#utility.yul\":5492:5498   */\n      dup9\n        /* \"#utility.yul\":5428:5506   */\n      tag_136\n      jump\t// in\n    tag_224:\n        /* \"#utility.yul\":5420:5506   */\n      swap1\n      pop\n        /* \"#utility.yul\":5516:5588   */\n      tag_225\n        /* \"#utility.yul\":5584:5586   */\n      0x60\n        /* \"#utility.yul\":5573:5582   */\n      dup4\n        /* \"#utility.yul\":5569:5587   */\n      add\n        /* \"#utility.yul\":5560:5566   */\n      dup8\n        /* \"#utility.yul\":5516:5588   */\n      tag_130\n      jump\t// in\n    tag_225:\n        /* \"#utility.yul\":5598:5671   */\n      tag_226\n        /* \"#utility.yul\":5666:5669   */\n      0x80\n        /* \"#utility.yul\":5655:5664   */\n      dup4\n        /* \"#utility.yul\":5651:5670   */\n      add\n        /* \"#utility.yul\":5642:5648   */\n      dup7\n        /* \"#utility.yul\":5598:5671   */\n      tag_131\n      jump\t// in\n    tag_226:\n        /* \"#utility.yul\":5681:5748   */\n      tag_227\n        /* \"#utility.yul\":5743:5746   */\n      0xa0\n        /* \"#utility.yul\":5732:5741   */\n      dup4\n        /* \"#utility.yul\":5728:5747   */\n      add\n        /* \"#utility.yul\":5719:5725   */\n      dup6\n        /* \"#utility.yul\":5681:5748   */\n      tag_129\n      jump\t// in\n    tag_227:\n        /* \"#utility.yul\":5758:5831   */\n      tag_228\n        /* \"#utility.yul\":5826:5829   */\n      0xc0\n        /* \"#utility.yul\":5815:5824   */\n      dup4\n        /* \"#utility.yul\":5811:5830   */\n      add\n        /* \"#utility.yul\":5802:5808   */\n      dup5\n        /* \"#utility.yul\":5758:5831   */\n      tag_130\n      jump\t// in\n    tag_228:\n        /* \"#utility.yul\":4691:5838   */\n      swap9\n      swap8\n      pop\n      pop\n      pop\n      pop\n      pop\n      pop\n      pop\n      pop\n      jump\t// out\n        /* \"#utility.yul\":5844:5961   */\n    tag_137:\n        /* \"#utility.yul\":5953:5954   */\n      0x00\n        /* \"#utility.yul\":5950:5951   */\n      dup1\n        /* \"#utility.yul\":5943:5955   */\n      revert\n        /* \"#utility.yul\":5967:6084   */\n    tag_138:\n        /* \"#utility.yul\":6076:6077   */\n      0x00\n        /* \"#utility.yul\":6073:6074   */\n      dup1\n        /* \"#utility.yul\":6066:6078   */\n      revert\n        /* \"#utility.yul\":6090:6270   */\n    tag_139:\n        /* \"#utility.yul\":6138:6215   */\n      0x4e487b7100000000000000000000000000000000000000000000000000000000\n        /* \"#utility.yul\":6135:6136   */\n      0x00\n        /* \"#utility.yul\":6128:6216   */\n      mstore\n        /* \"#utility.yul\":6235:6239   */\n      0x41\n        /* \"#utility.yul\":6232:6233   */\n      0x04\n        /* \"#utility.yul\":6225:6240   */\n      mstore\n        /* \"#utility.yul\":6259:6263   */\n      0x24\n        /* \"#utility.yul\":6256:6257   */\n      0x00\n        /* \"#utility.yul\":6249:6264   */\n      revert\n        /* \"#utility.yul\":6276:6557   */\n    tag_140:\n        /* \"#utility.yul\":6359:6386   */\n      tag_233\n        /* \"#utility.yul\":6381:6385   */\n      dup3\n        /* \"#utility.yul\":6359:6386   */\n      tag_135\n      jump\t// in\n    tag_233:\n        /* \"#utility.yul\":6351:6357   */\n      dup2\n        /* \"#utility.yul\":6347:6387   */\n      add\n        /* \"#utility.yul\":6489:6495   */\n      dup2\n        /* \"#utility.yul\":6477:6487   */\n      dup2\n        /* \"#utility.yul\":6474:6496   */\n      lt\n        /* \"#utility.yul\":6453:6471   */\n      0xffffffffffffffff\n        /* \"#utility.yul\":6441:6451   */\n      dup3\n        /* \"#utility.yul\":6438:6472   */\n      gt\n        /* \"#utility.yul\":6435:6497   */\n      or\n        /* \"#utility.yul\":6432:6520   */\n      iszero\n      tag_234\n      jumpi\n        /* \"#utility.yul\":6500:6518   */\n      tag_235\n      tag_139\n      jump\t// in\n    tag_235:\n        /* \"#utility.yul\":6432:6520   */\n    tag_234:\n        /* \"#utility.yul\":6540:6550   */\n      dup1\n        /* \"#utility.yul\":6536:6538   */\n      0x40\n        /* \"#utility.yul\":6529:6551   */\n      mstore\n        /* \"#utility.yul\":6319:6557   */\n      pop\n        /* \"#utility.yul\":6276:6557   */\n      pop\n      pop\n      jump\t// out\n        /* \"#utility.yul\":6563:6692   */\n    tag_141:\n        /* \"#utility.yul\":6597:6603   */\n      0x00\n        /* \"#utility.yul\":6624:6644   */\n      tag_237\n      tag_118\n      jump\t// in\n    tag_237:\n        /* \"#utility.yul\":6614:6644   */\n      swap1\n      pop\n        /* \"#utility.yul\":6653:6686   */\n      tag_238\n        /* \"#utility.yul\":6681:6685   */\n      dup3\n        /* \"#utility.yul\":6673:6679   */\n      dup3\n        /* \"#utility.yul\":6653:6686   */\n      tag_140\n      jump\t// in\n    tag_238:\n        /* \"#utility.yul\":6563:6692   */\n      swap2\n      swap1\n      pop\n      jump\t// out\n        /* \"#utility.yul\":6698:7006   */\n    tag_142:\n        /* \"#utility.yul\":6760:6764   */\n      0x00\n        /* \"#utility.yul\":6850:6868   */\n      0xffffffffffffffff\n        /* \"#utility.yul\":6842:6848   */\n      dup3\n        /* \"#utility.yul\":6839:6869   */\n      gt\n        /* \"#utility.yul\":6836:6892   */\n      iszero\n      tag_240\n      jumpi\n        /* \"#utility.yul\":6872:6890   */\n      tag_241\n      tag_139\n      jump\t// in\n    tag_241:\n        /* \"#utility.yul\":6836:6892   */\n    tag_240:\n        /* \"#utility.yul\":6910:6939   */\n      tag_242\n        /* \"#utility.yul\":6932:6938   */\n      dup3\n        /* \"#utility.yul\":6910:6939   */\n      tag_135\n      jump\t// in\n    tag_242:\n        /* \"#utility.yul\":6902:6939   */\n      swap1\n      pop\n        /* \"#utility.yul\":6994:6998   */\n      0x20\n        /* \"#utility.yul\":6988:6992   */\n      dup2\n        /* \"#utility.yul\":6984:6999   */\n      add\n        /* \"#utility.yul\":6976:6999   */\n      swap1\n      pop\n        /* \"#utility.yul\":6698:7006   */\n      swap2\n      swap1\n      pop\n      jump\t// out\n        /* \"#utility.yul\":7012:7158   */\n    tag_143:\n        /* \"#utility.yul\":7109:7115   */\n      dup3\n        /* \"#utility.yul\":7104:7107   */\n      dup2\n        /* \"#utility.yul\":7099:7102   */\n      dup4\n        /* \"#utility.yul\":7086:7116   */\n      calldatacopy\n        /* \"#utility.yul\":7150:7151   */\n      0x00\n        /* \"#utility.yul\":7141:7147   */\n      dup4\n        /* \"#utility.yul\":7136:7139   */\n      dup4\n        /* \"#utility.yul\":7132:7148   */\n      add\n        /* \"#utility.yul\":7125:7152   */\n      mstore\n        /* \"#utility.yul\":7012:7158   */\n      pop\n      pop\n      pop\n      jump\t// out\n        /* \"#utility.yul\":7164:7589   */\n    tag_144:\n        /* \"#utility.yul\":7242:7247   */\n      0x00\n        /* \"#utility.yul\":7267:7333   */\n      tag_245\n        /* \"#utility.yul\":7283:7332   */\n      tag_246\n        /* \"#utility.yul\":7325:7331   */\n      dup5\n        /* \"#utility.yul\":7283:7332   */\n      tag_142\n      jump\t// in\n    tag_246:\n        /* \"#utility.yul\":7267:7333   */\n      tag_141\n      jump\t// in\n    tag_245:\n        /* \"#utility.yul\":7258:7333   */\n      swap1\n      pop\n        /* \"#utility.yul\":7356:7362   */\n      dup3\n        /* \"#utility.yul\":7349:7354   */\n      dup2\n        /* \"#utility.yul\":7342:7363   */\n      mstore\n        /* \"#utility.yul\":7394:7398   */\n      0x20\n        /* \"#utility.yul\":7387:7392   */\n      dup2\n        /* \"#utility.yul\":7383:7399   */\n      add\n        /* \"#utility.yul\":7432:7435   */\n      dup5\n        /* \"#utility.yul\":7423:7429   */\n      dup5\n        /* \"#utility.yul\":7418:7421   */\n      dup5\n        /* \"#utility.yul\":7414:7430   */\n      add\n        /* \"#utility.yul\":7411:7436   */\n      gt\n        /* \"#utility.yul\":7408:7520   */\n      iszero\n      tag_247\n      jumpi\n        /* \"#utility.yul\":7439:7518   */\n      tag_248\n      tag_138\n      jump\t// in\n    tag_248:\n        /* \"#utility.yul\":7408:7520   */\n    tag_247:\n        /* \"#utility.yul\":7529:7583   */\n      tag_249\n        /* \"#utility.yul\":7576:7582   */\n      dup5\n        /* \"#utility.yul\":7571:7574   */\n      dup3\n        /* \"#utility.yul\":7566:7569   */\n      dup6\n        /* \"#utility.yul\":7529:7583   */\n      tag_143\n      jump\t// in\n    tag_249:\n        /* \"#utility.yul\":7248:7589   */\n      pop\n        /* \"#utility.yul\":7164:7589   */\n      swap4\n      swap3\n      pop\n      pop\n      pop\n      jump\t// out\n        /* \"#utility.yul\":7609:7949   */\n    tag_145:\n        /* \"#utility.yul\":7665:7670   */\n      0x00\n        /* \"#utility.yul\":7714:7717   */\n      dup3\n        /* \"#utility.yul\":7707:7711   */\n      0x1f\n        /* \"#utility.yul\":7699:7705   */\n      dup4\n        /* \"#utility.yul\":7695:7712   */\n      add\n        /* \"#utility.yul\":7691:7718   */\n      slt\n        /* \"#utility.yul\":7681:7803   */\n      tag_251\n      jumpi\n        /* \"#utility.yul\":7722:7801   */\n      tag_252\n      tag_137\n      jump\t// in\n    tag_252:\n        /* \"#utility.yul\":7681:7803   */\n    tag_251:\n        /* \"#utility.yul\":7839:7845   */\n      dup2\n        /* \"#utility.yul\":7826:7846   */\n      calldataload\n        /* \"#utility.yul\":7864:7943   */\n      tag_253\n        /* \"#utility.yul\":7939:7942   */\n      dup5\n        /* \"#utility.yul\":7931:7937   */\n      dup3\n        /* \"#utility.yul\":7924:7928   */\n      0x20\n        /* \"#utility.yul\":7916:7922   */\n      dup7\n        /* \"#utility.yul\":7912:7929   */\n      add\n        /* \"#utility.yul\":7864:7943   */\n      tag_144\n      jump\t// in\n    tag_253:\n        /* \"#utility.yul\":7855:7943   */\n      swap2\n      pop\n        /* \"#utility.yul\":7671:7949   */\n      pop\n        /* \"#utility.yul\":7609:7949   */\n      swap3\n      swap2\n      pop\n      pop\n      jump\t// out\n        /* \"#utility.yul\":7955:9406   */\n    tag_64:\n        /* \"#utility.yul\":8080:8086   */\n      0x00\n        /* \"#utility.yul\":8088:8094   */\n      dup1\n        /* \"#utility.yul\":8096:8102   */\n      0x00\n        /* \"#utility.yul\":8104:8110   */\n      dup1\n        /* \"#utility.yul\":8112:8118   */\n      0x00\n        /* \"#utility.yul\":8161:8164   */\n      0xa0\n        /* \"#utility.yul\":8149:8158   */\n      dup7\n        /* \"#utility.yul\":8140:8147   */\n      dup9\n        /* \"#utility.yul\":8136:8159   */\n      sub\n        /* \"#utility.yul\":8132:8165   */\n      slt\n        /* \"#utility.yul\":8129:8249   */\n      iszero\n      tag_255\n      jumpi\n        /* \"#utility.yul\":8168:8247   */\n      tag_256\n      tag_119\n      jump\t// in\n    tag_256:\n        /* \"#utility.yul\":8129:8249   */\n    tag_255:\n        /* \"#utility.yul\":8316:8317   */\n      0x00\n        /* \"#utility.yul\":8305:8314   */\n      dup7\n        /* \"#utility.yul\":8301:8318   */\n      add\n        /* \"#utility.yul\":8288:8319   */\n      calldataload\n        /* \"#utility.yul\":8346:8364   */\n      0xffffffffffffffff\n        /* \"#utility.yul\":8338:8344   */\n      dup2\n        /* \"#utility.yul\":8335:8365   */\n      gt\n        /* \"#utility.yul\":8332:8449   */\n      iszero\n      tag_257\n      jumpi\n        /* \"#utility.yul\":8368:8447   */\n      tag_258\n      tag_120\n      jump\t// in\n    tag_258:\n        /* \"#utility.yul\":8332:8449   */\n    tag_257:\n        /* \"#utility.yul\":8473:8536   */\n      tag_259\n        /* \"#utility.yul\":8528:8535   */\n      dup9\n        /* \"#utility.yul\":8519:8525   */\n      dup3\n        /* \"#utility.yul\":8508:8517   */\n      dup10\n        /* \"#utility.yul\":8504:8526   */\n      add\n        /* \"#utility.yul\":8473:8536   */\n      tag_145\n      jump\t// in\n    tag_259:\n        /* \"#utility.yul\":8463:8536   */\n      swap6\n      pop\n        /* \"#utility.yul\":8259:8546   */\n      pop\n        /* \"#utility.yul\":8613:8615   */\n      0x20\n        /* \"#utility.yul\":8602:8611   */\n      dup7\n        /* \"#utility.yul\":8598:8616   */\n      add\n        /* \"#utility.yul\":8585:8617   */\n      calldataload\n        /* \"#utility.yul\":8644:8662   */\n      0xffffffffffffffff\n        /* \"#utility.yul\":8636:8642   */\n      dup2\n        /* \"#utility.yul\":8633:8663   */\n      gt\n        /* \"#utility.yul\":8630:8747   */\n      iszero\n      tag_260\n      jumpi\n        /* \"#utility.yul\":8666:8745   */\n      tag_261\n      tag_120\n      jump\t// in\n    tag_261:\n        /* \"#utility.yul\":8630:8747   */\n    tag_260:\n        /* \"#utility.yul\":8771:8834   */\n      tag_262\n        /* \"#utility.yul\":8826:8833   */\n      dup9\n        /* \"#utility.yul\":8817:8823   */\n      dup3\n        /* \"#utility.yul\":8806:8815   */\n      dup10\n        /* \"#utility.yul\":8802:8824   */\n      add\n        /* \"#utility.yul\":8771:8834   */\n      tag_145\n      jump\t// in\n    tag_262:\n        /* \"#utility.yul\":8761:8834   */\n      swap5\n      pop\n        /* \"#utility.yul\":8556:8844   */\n      pop\n        /* \"#utility.yul\":8911:8913   */\n      0x40\n        /* \"#utility.yul\":8900:8909   */\n      dup7\n        /* \"#utility.yul\":8896:8914   */\n      add\n        /* \"#utility.yul\":8883:8915   */\n      calldataload\n        /* \"#utility.yul\":8942:8960   */\n      0xffffffffffffffff\n        /* \"#utility.yul\":8934:8940   */\n      dup2\n        /* \"#utility.yul\":8931:8961   */\n      gt\n        /* \"#utility.yul\":8928:9045   */\n      iszero\n      tag_263\n      jumpi\n        /* \"#utility.yul\":8964:9043   */\n      tag_264\n      tag_120\n      jump\t// in\n    tag_264:\n        /* \"#utility.yul\":8928:9045   */\n    tag_263:\n        /* \"#utility.yul\":9069:9132   */\n      tag_265\n        /* \"#utility.yul\":9124:9131   */\n      dup9\n        /* \"#utility.yul\":9115:9121   */\n      dup3\n        /* \"#utility.yul\":9104:9113   */\n      dup10\n        /* \"#utility.yul\":9100:9122   */\n      add\n        /* \"#utility.yul\":9069:9132   */\n      tag_145\n      jump\t// in\n    tag_265:\n        /* \"#utility.yul\":9059:9132   */\n      swap4\n      pop\n        /* \"#utility.yul\":8854:9142   */\n      pop\n        /* \"#utility.yul\":9181:9183   */\n      0x60\n        /* \"#utility.yul\":9207:9260   */\n      tag_266\n        /* \"#utility.yul\":9252:9259   */\n      dup9\n        /* \"#utility.yul\":9243:9249   */\n      dup3\n        /* \"#utility.yul\":9232:9241   */\n      dup10\n        /* \"#utility.yul\":9228:9250   */\n      add\n        /* \"#utility.yul\":9207:9260   */\n      tag_123\n      jump\t// in\n    tag_266:\n        /* \"#utility.yul\":9197:9260   */\n      swap3\n      pop\n        /* \"#utility.yul\":9152:9270   */\n      pop\n        /* \"#utility.yul\":9309:9312   */\n      0x80\n        /* \"#utility.yul\":9336:9389   */\n      tag_267\n        /* \"#utility.yul\":9381:9388   */\n      dup9\n        /* \"#utility.yul\":9372:9378   */\n      dup3\n        /* \"#utility.yul\":9361:9370   */\n      dup10\n        /* \"#utility.yul\":9357:9379   */\n      add\n        /* \"#utility.yul\":9336:9389   */\n      tag_127\n      jump\t// in\n    tag_267:\n        /* \"#utility.yul\":9326:9389   */\n      swap2\n      pop\n        /* \"#utility.yul\":9280:9399   */\n      pop\n        /* \"#utility.yul\":7955:9406   */\n      swap3\n      swap6\n      pop\n      swap3\n      swap6\n      swap1\n      swap4\n      pop\n      jump\t// out\n        /* \"#utility.yul\":9412:9592   */\n    tag_71:\n        /* \"#utility.yul\":9460:9537   */\n      0x4e487b7100000000000000000000000000000000000000000000000000000000\n        /* \"#utility.yul\":9457:9458   */\n      0x00\n        /* \"#utility.yul\":9450:9538   */\n      mstore\n        /* \"#utility.yul\":9557:9561   */\n      0x32\n        /* \"#utility.yul\":9554:9555   */\n      0x04\n        /* \"#utility.yul\":9547:9562   */\n      mstore\n        /* \"#utility.yul\":9581:9585   */\n      0x24\n        /* \"#utility.yul\":9578:9579   */\n      0x00\n        /* \"#utility.yul\":9571:9586   */\n      revert\n        /* \"#utility.yul\":9598:9778   */\n    tag_146:\n        /* \"#utility.yul\":9646:9723   */\n      0x4e487b7100000000000000000000000000000000000000000000000000000000\n        /* \"#utility.yul\":9643:9644   */\n      0x00\n        /* \"#utility.yul\":9636:9724   */\n      mstore\n        /* \"#utility.yul\":9743:9747   */\n      0x12\n        /* \"#utility.yul\":9740:9741   */\n      0x04\n        /* \"#utility.yul\":9733:9748   */\n      mstore\n        /* \"#utility.yul\":9767:9771   */\n      0x24\n        /* \"#utility.yul\":9764:9765   */\n      0x00\n        /* \"#utility.yul\":9757:9772   */\n      revert\n        /* \"#utility.yul\":9784:9964   */\n    tag_147:\n        /* \"#utility.yul\":9832:9909   */\n      0x4e487b7100000000000000000000000000000000000000000000000000000000\n        /* \"#utility.yul\":9829:9830   */\n      0x00\n        /* \"#utility.yul\":9822:9910   */\n      mstore\n        /* \"#utility.yul\":9929:9933   */\n      0x11\n        /* \"#utility.yul\":9926:9927   */\n      0x04\n        /* \"#utility.yul\":9919:9934   */\n      mstore\n        /* \"#utility.yul\":9953:9957   */\n      0x24\n        /* \"#utility.yul\":9950:9951   */\n      0x00\n        /* \"#utility.yul\":9943:9958   */\n      revert\n        /* \"#utility.yul\":9970:10155   */\n    tag_74:\n        /* \"#utility.yul\":10010:10011   */\n      0x00\n        /* \"#utility.yul\":10027:10047   */\n      tag_272\n        /* \"#utility.yul\":10045:10046   */\n      dup3\n        /* \"#utility.yul\":10027:10047   */\n      tag_121\n      jump\t// in\n    tag_272:\n        /* \"#utility.yul\":10022:10047   */\n      swap2\n      pop\n        /* \"#utility.yul\":10061:10081   */\n      tag_273\n        /* \"#utility.yul\":10079:10080   */\n      dup4\n        /* \"#utility.yul\":10061:10081   */\n      tag_121\n      jump\t// in\n    tag_273:\n        /* \"#utility.yul\":10056:10081   */\n      swap3\n      pop\n        /* \"#utility.yul\":10100:10101   */\n      dup3\n        /* \"#utility.yul\":10090:10125   */\n      tag_274\n      jumpi\n        /* \"#utility.yul\":10105:10123   */\n      tag_275\n      tag_146\n      jump\t// in\n    tag_275:\n        /* \"#utility.yul\":10090:10125   */\n    tag_274:\n        /* \"#utility.yul\":10147:10148   */\n      dup3\n        /* \"#utility.yul\":10144:10145   */\n      dup3\n        /* \"#utility.yul\":10140:10149   */\n      div\n        /* \"#utility.yul\":10135:10149   */\n      swap1\n      pop\n        /* \"#utility.yul\":9970:10155   */\n      swap3\n      swap2\n      pop\n      pop\n      jump\t// out\n        /* \"#utility.yul\":10161:10341   */\n    tag_148:\n        /* \"#utility.yul\":10209:10286   */\n      0x4e487b7100000000000000000000000000000000000000000000000000000000\n        /* \"#utility.yul\":10206:10207   */\n      0x00\n        /* \"#utility.yul\":10199:10287   */\n      mstore\n        /* \"#utility.yul\":10306:10310   */\n      0x22\n        /* \"#utility.yul\":10303:10304   */\n      0x04\n        /* \"#utility.yul\":10296:10311   */\n      mstore\n        /* \"#utility.yul\":10330:10334   */\n      0x24\n        /* \"#utility.yul\":10327:10328   */\n      0x00\n        /* \"#utility.yul\":10320:10335   */\n      revert\n        /* \"#utility.yul\":10347:10667   */\n    tag_84:\n        /* \"#utility.yul\":10391:10397   */\n      0x00\n        /* \"#utility.yul\":10428:10429   */\n      0x02\n        /* \"#utility.yul\":10422:10426   */\n      dup3\n        /* \"#utility.yul\":10418:10430   */\n      div\n        /* \"#utility.yul\":10408:10430   */\n      swap1\n      pop\n        /* \"#utility.yul\":10475:10476   */\n      0x01\n        /* \"#utility.yul\":10469:10473   */\n      dup3\n        /* \"#utility.yul\":10465:10477   */\n      and\n        /* \"#utility.yul\":10496:10514   */\n      dup1\n        /* \"#utility.yul\":10486:10567   */\n      tag_278\n      jumpi\n        /* \"#utility.yul\":10552:10556   */\n      0x7f\n        /* \"#utility.yul\":10544:10550   */\n      dup3\n        /* \"#utility.yul\":10540:10557   */\n      and\n        /* \"#utility.yul\":10530:10557   */\n      swap2\n      pop\n        /* \"#utility.yul\":10486:10567   */\n    tag_278:\n        /* \"#utility.yul\":10614:10616   */\n      0x20\n        /* \"#utility.yul\":10606:10612   */\n      dup3\n        /* \"#utility.yul\":10603:10617   */\n      lt\n        /* \"#utility.yul\":10583:10601   */\n      dup2\n        /* \"#utility.yul\":10580:10618   */\n      sub\n        /* \"#utility.yul\":10577:10661   */\n      tag_279\n      jumpi\n        /* \"#utility.yul\":10633:10651   */\n      tag_280\n      tag_148\n      jump\t// in\n    tag_280:\n        /* \"#utility.yul\":10577:10661   */\n    tag_279:\n        /* \"#utility.yul\":10398:10667   */\n      pop\n        /* \"#utility.yul\":10347:10667   */\n      swap2\n      swap1\n      pop\n      jump\t// out\n        /* \"#utility.yul\":10673:10906   */\n    tag_102:\n        /* \"#utility.yul\":10712:10715   */\n      0x00\n        /* \"#utility.yul\":10735:10759   */\n      tag_282\n        /* \"#utility.yul\":10753:10758   */\n      dup3\n        /* \"#utility.yul\":10735:10759   */\n      tag_121\n      jump\t// in\n    tag_282:\n        /* \"#utility.yul\":10726:10759   */\n      swap2\n      pop\n        /* \"#utility.yul\":10781:10847   */\n      0xffffffffffffffffffffffffffffffffffffffffffffffffffffffffffffffff\n        /* \"#utility.yul\":10774:10779   */\n      dup3\n        /* \"#utility.yul\":10771:10848   */\n      sub\n        /* \"#utility.yul\":10768:10871   */\n      tag_283\n      jumpi\n        /* \"#utility.yul\":10851:10869   */\n      tag_284\n      tag_147\n      jump\t// in\n    tag_284:\n        /* \"#utility.yul\":10768:10871   */\n    tag_283:\n        /* \"#utility.yul\":10898:10899   */\n      0x01\n        /* \"#utility.yul\":10891:10896   */\n      dup3\n        /* \"#utility.yul\":10887:10900   */\n      add\n        /* \"#utility.yul\":10880:10900   */\n      swap1\n      pop\n        /* \"#utility.yul\":10673:10906   */\n      swap2\n      swap1\n      pop\n      jump\t// out\n        /* \"#utility.yul\":10912:11053   */\n    tag_149:\n        /* \"#utility.yul\":10961:10965   */\n      0x00\n        /* \"#utility.yul\":10984:10987   */\n      dup2\n        /* \"#utility.yul\":10976:10987   */\n      swap1\n      pop\n        /* \"#utility.yul\":11007:11010   */\n      dup2\n        /* \"#utility.yul\":11004:11005   */\n      0x00\n        /* \"#utility.yul\":10997:11011   */\n      mstore\n        /* \"#utility.yul\":11041:11045   */\n      0x20\n        /* \"#utility.yul\":11038:11039   */\n      0x00\n        /* \"#utility.yul\":11028:11046   */\n      keccak256\n        /* \"#utility.yul\":11020:11046   */\n      swap1\n      pop\n        /* \"#utility.yul\":10912:11053   */\n      swap2\n      swap1\n      pop\n      jump\t// out\n        /* \"#utility.yul\":11059:11152   */\n    tag_150:\n        /* \"#utility.yul\":11096:11102   */\n      0x00\n        /* \"#utility.yul\":11143:11145   */\n      0x20\n        /* \"#utility.yul\":11138:11140   */\n      0x1f\n        /* \"#utility.yul\":11131:11136   */\n      dup4\n        /* \"#utility.yul\":11127:11141   */\n      add\n        /* \"#utility.yul\":11123:11146   */\n      div\n        /* \"#utility.yul\":11113:11146   */\n      swap1\n      pop\n        /* \"#utility.yul\":11059:11152   */\n      swap2\n      swap1\n      pop\n      jump\t// out\n        /* \"#utility.yul\":11158:11265   */\n    tag_151:\n        /* \"#utility.yul\":11202:11210   */\n      0x00\n        /* \"#utility.yul\":11252:11257   */\n      dup3\n        /* \"#utility.yul\":11246:11250   */\n      dup3\n        /* \"#utility.yul\":11242:11258   */\n      shl\n        /* \"#utility.yul\":11221:11258   */\n      swap1\n      pop\n        /* \"#utility.yul\":11158:11265   */\n      swap3\n      swap2\n      pop\n      pop\n      jump\t// out\n        /* \"#utility.yul\":11271:11664   */\n    tag_152:\n        /* \"#utility.yul\":11340:11346   */\n      0x00\n        /* \"#utility.yul\":11390:11391   */\n      0x08\n        /* \"#utility.yul\":11378:11388   */\n      dup4\n        /* \"#utility.yul\":11374:11392   */\n      mul\n        /* \"#utility.yul\":11413:11510   */\n      tag_289\n        /* \"#utility.yul\":11443:11509   */\n      0xffffffffffffffffffffffffffffffffffffffffffffffffffffffffffffffff\n        /* \"#utility.yul\":11432:11441   */\n      dup3\n        /* \"#utility.yul\":11413:11510   */\n      tag_151\n      jump\t// in\n    tag_289:\n        /* \"#utility.yul\":11531:11570   */\n      tag_290\n        /* \"#utility.yul\":11561:11569   */\n      dup7\n        /* \"#utility.yul\":11550:11559   */\n      dup4\n        /* \"#utility.yul\":11531:11570   */\n      tag_151\n      jump\t// in\n    tag_290:\n        /* \"#utility.yul\":11519:11570   */\n      swap6\n      pop\n        /* \"#utility.yul\":11603:11607   */\n      dup1\n        /* \"#utility.yul\":11599:11608   */\n      not\n        /* \"#utility.yul\":11592:11597   */\n      dup5\n        /* \"#utility.yul\":11588:11609   */\n      and\n        /* \"#utility.yul\":11579:11609   */\n      swap4\n      pop\n        /* \"#utility.yul\":11652:11656   */\n      dup1\n        /* \"#utility.yul\":11642:11650   */\n      dup7\n        /* \"#utility.yul\":11638:11657   */\n      and\n        /* \"#utility.yul\":11631:11636   */\n      dup5\n        /* \"#utility.yul\":11628:11658   */\n      or\n        /* \"#utility.yul\":11618:11658   */\n      swap3\n      pop\n        /* \"#utility.yul\":11347:11664   */\n      pop\n      pop\n        /* \"#utility.yul\":11271:11664   */\n      swap4\n      swap3\n      pop\n      pop\n      pop\n      jump\t// out\n        /* \"#utility.yul\":11670:11730   */\n    tag_153:\n        /* \"#utility.yul\":11698:11701   */\n      0x00\n        /* \"#utility.yul\":11719:11724   */\n      dup2\n        /* \"#utility.yul\":11712:11724   */\n      swap1\n      pop\n        /* \"#utility.yul\":11670:11730   */\n      swap2\n      swap1\n      pop\n      jump\t// out\n        /* \"#utility.yul\":11736:11878   */\n    tag_154:\n        /* \"#utility.yul\":11786:11795   */\n      0x00\n        /* \"#utility.yul\":11819:11872   */\n      tag_293\n        /* \"#utility.yul\":11837:11871   */\n      tag_294\n        /* \"#utility.yul\":11846:11870   */\n      tag_295\n        /* \"#utility.yul\":11864:11869   */\n      dup5\n        /* \"#utility.yul\":11846:11870   */\n      tag_121\n      jump\t// in\n    tag_295:\n        /* \"#utility.yul\":11837:11871   */\n      tag_153\n      jump\t// in\n    tag_294:\n        /* \"#utility.yul\":11819:11872   */\n      tag_121\n      jump\t// in\n    tag_293:\n        /* \"#utility.yul\":11806:11872   */\n      swap1\n      pop\n        /* \"#utility.yul\":11736:11878   */\n      swap2\n      swap1\n      pop\n      jump\t// out\n        /* \"#utility.yul\":11884:11959   */\n    tag_155:\n        /* \"#utility.yul\":11927:11930   */\n      0x00\n        /* \"#utility.yul\":11948:11953   */\n      dup2\n        /* \"#utility.yul\":11941:11953   */\n      swap1\n      pop\n        /* \"#utility.yul\":11884:11959   */\n      swap2\n      swap1\n      pop\n      jump\t// out\n        /* \"#utility.yul\":11965:12234   */\n    tag_156:\n        /* \"#utility.yul\":12075:12114   */\n      tag_298\n        /* \"#utility.yul\":12106:12113   */\n      dup4\n        /* \"#utility.yul\":12075:12114   */\n      tag_154\n      jump\t// in\n    tag_298:\n        /* \"#utility.yul\":12136:12227   */\n      tag_299\n        /* \"#utility.yul\":12185:12226   */\n      tag_300\n        /* \"#utility.yul\":12209:12225   */\n      dup3\n        /* \"#utility.yul\":12185:12226   */\n      tag_155\n      jump\t// in\n    tag_300:\n        /* \"#utility.yul\":12177:12183   */\n      dup5\n        /* \"#utility.yul\":12170:12174   */\n      dup5\n        /* \"#utility.yul\":12164:12175   */\n      sload\n        /* \"#utility.yul\":12136:12227   */\n      tag_152\n      jump\t// in\n    tag_299:\n        /* \"#utility.yul\":12130:12134   */\n      dup3\n        /* \"#utility.yul\":12123:12228   */\n      sstore\n        /* \"#utility.yul\":12041:12234   */\n      pop\n        /* \"#utility.yul\":11965:12234   */\n      pop\n      pop\n      pop\n      jump\t// out\n        /* \"#utility.yul\":12240:12313   */\n    tag_157:\n        /* \"#utility.yul\":12285:12288   */\n      0x00\n        /* \"#utility.yul\":12240:12313   */\n      swap1\n      jump\t// out\n        /* \"#utility.yul\":12319:12508   */\n    tag_158:\n        /* \"#utility.yul\":12396:12428   */\n      tag_303\n      tag_157\n      jump\t// in\n    tag_303:\n        /* \"#utility.yul\":12437:12502   */\n      tag_304\n        /* \"#utility.yul\":12495:12501   */\n      dup2\n        /* \"#utility.yul\":12487:12493   */\n      dup5\n        /* \"#utility.yul\":12481:12485   */\n      dup5\n        /* \"#utility.yul\":12437:12502   */\n      tag_156\n      jump\t// in\n    tag_304:\n        /* \"#utility.yul\":12372:12508   */\n      pop\n        /* \"#utility.yul\":12319:12508   */\n      pop\n      pop\n      jump\t// out\n        /* \"#utility.yul\":12514:12700   */\n    tag_159:\n        /* \"#utility.yul\":12574:12694   */\n    tag_306:\n        /* \"#utility.yul\":12591:12594   */\n      dup2\n        /* \"#utility.yul\":12584:12589   */\n      dup2\n        /* \"#utility.yul\":12581:12595   */\n      lt\n        /* \"#utility.yul\":12574:12694   */\n      iszero\n      tag_308\n      jumpi\n        /* \"#utility.yul\":12645:12684   */\n      tag_309\n        /* \"#utility.yul\":12682:12683   */\n      0x00\n        /* \"#utility.yul\":12675:12680   */\n      dup3\n        /* \"#utility.yul\":12645:12684   */\n      tag_158\n      jump\t// in\n    tag_309:\n        /* \"#utility.yul\":12618:12619   */\n      0x01\n        /* \"#utility.yul\":12611:12616   */\n      dup2\n        /* \"#utility.yul\":12607:12620   */\n      add\n        /* \"#utility.yul\":12598:12620   */\n      swap1\n      pop\n        /* \"#utility.yul\":12574:12694   */\n      jump(tag_306)\n    tag_308:\n        /* \"#utility.yul\":12514:12700   */\n      pop\n      pop\n      jump\t// out\n        /* \"#utility.yul\":12706:13249   */\n    tag_160:\n        /* \"#utility.yul\":12807:12809   */\n      0x1f\n        /* \"#utility.yul\":12802:12805   */\n      dup3\n        /* \"#utility.yul\":12799:12810   */\n      gt\n        /* \"#utility.yul\":12796:13242   */\n      iszero\n      tag_311\n      jumpi\n        /* \"#utility.yul\":12841:12879   */\n      tag_312\n        /* \"#utility.yul\":12873:12878   */\n      dup2\n        /* \"#utility.yul\":12841:12879   */\n      tag_149\n      jump\t// in\n    tag_312:\n        /* \"#utility.yul\":12925:12954   */\n      tag_313\n        /* \"#utility.yul\":12943:12953   */\n      dup5\n        /* \"#utility.yul\":12925:12954   */\n      tag_150\n      jump\t// in\n    tag_313:\n        /* \"#utility.yul\":12915:12923   */\n      dup2\n        /* \"#utility.yul\":12911:12955   */\n      add\n        /* \"#utility.yul\":13108:13110   */\n      0x20\n        /* \"#utility.yul\":13096:13106   */\n      dup6\n        /* \"#utility.yul\":13093:13111   */\n      lt\n        /* \"#utility.yul\":13090:13139   */\n      iszero\n      tag_314\n      jumpi\n        /* \"#utility.yul\":13129:13137   */\n      dup2\n        /* \"#utility.yul\":13114:13137   */\n      swap1\n      pop\n        /* \"#utility.yul\":13090:13139   */\n    tag_314:\n        /* \"#utility.yul\":13152:13232   */\n      tag_315\n        /* \"#utility.yul\":13208:13230   */\n      tag_316\n        /* \"#utility.yul\":13226:13229   */\n      dup6\n        /* \"#utility.yul\":13208:13230   */\n      tag_150\n      jump\t// in\n    tag_316:\n        /* \"#utility.yul\":13198:13206   */\n      dup4\n        /* \"#utility.yul\":13194:13231   */\n      add\n        /* \"#utility.yul\":13181:13192   */\n      dup3\n        /* \"#utility.yul\":13152:13232   */\n      tag_159\n      jump\t// in\n    tag_315:\n        /* \"#utility.yul\":12811:13242   */\n      pop\n      pop\n        /* \"#utility.yul\":12796:13242   */\n    tag_311:\n        /* \"#utility.yul\":12706:13249   */\n      pop\n      pop\n      pop\n      jump\t// out\n        /* \"#utility.yul\":13255:13372   */\n    tag_161:\n        /* \"#utility.yul\":13309:13317   */\n      0x00\n        /* \"#utility.yul\":13359:13364   */\n      dup3\n        /* \"#utility.yul\":13353:13357   */\n      dup3\n        /* \"#utility.yul\":13349:13365   */\n      shr\n        /* \"#utility.yul\":13328:13365   */\n      swap1\n      pop\n        /* \"#utility.yul\":13255:13372   */\n      swap3\n      swap2\n      pop\n      pop\n      jump\t// out\n        /* \"#utility.yul\":13378:13547   */\n    tag_162:\n        /* \"#utility.yul\":13422:13428   */\n      0x00\n        /* \"#utility.yul\":13455:13506   */\n      tag_319\n        /* \"#utility.yul\":13503:13504   */\n      0x00\n        /* \"#utility.yul\":13499:13505   */\n      not\n        /* \"#utility.yul\":13491:13496   */\n      dup5\n        /* \"#utility.yul\":13488:13489   */\n      0x08\n        /* \"#utility.yul\":13484:13497   */\n      mul\n        /* \"#utility.yul\":13455:13506   */\n      tag_161\n      jump\t// in\n    tag_319:\n        /* \"#utility.yul\":13451:13507   */\n      not\n        /* \"#utility.yul\":13536:13540   */\n      dup1\n        /* \"#utility.yul\":13530:13534   */\n      dup4\n        /* \"#utility.yul\":13526:13541   */\n      and\n        /* \"#utility.yul\":13516:13541   */\n      swap2\n      pop\n        /* \"#utility.yul\":13429:13547   */\n      pop\n        /* \"#utility.yul\":13378:13547   */\n      swap3\n      swap2\n      pop\n      pop\n      jump\t// out\n        /* \"#utility.yul\":13552:13847   */\n    tag_163:\n        /* \"#utility.yul\":13628:13632   */\n      0x00\n        /* \"#utility.yul\":13774:13803   */\n      tag_321\n        /* \"#utility.yul\":13799:13802   */\n      dup4\n        /* \"#utility.yul\":13793:13797   */\n      dup4\n        /* \"#utility.yul\":13774:13803   */\n      tag_162\n      jump\t// in\n    tag_321:\n        /* \"#utility.yul\":13766:13803   */\n      swap2\n      pop\n        /* \"#utility.yul\":13836:13839   */\n      dup3\n        /* \"#utility.yul\":13833:13834   */\n      0x02\n        /* \"#utility.yul\":13829:13840   */\n      mul\n        /* \"#utility.yul\":13823:13827   */\n      dup3\n        /* \"#utility.yul\":13820:13841   */\n      or\n        /* \"#utility.yul\":13812:13841   */\n      swap1\n      pop\n        /* \"#utility.yul\":13552:13847   */\n      swap3\n      swap2\n      pop\n      pop\n      jump\t// out\n        /* \"#utility.yul\":13852:15247   */\n    tag_115:\n        /* \"#utility.yul\":13969:14006   */\n      tag_323\n        /* \"#utility.yul\":14002:14005   */\n      dup3\n        /* \"#utility.yul\":13969:14006   */\n      tag_132\n      jump\t// in\n    tag_323:\n        /* \"#utility.yul\":14071:14089   */\n      0xffffffffffffffff\n        /* \"#utility.yul\":14063:14069   */\n      dup2\n        /* \"#utility.yul\":14060:14090   */\n      gt\n        /* \"#utility.yul\":14057:14113   */\n      iszero\n      tag_324\n      jumpi\n        /* \"#utility.yul\":14093:14111   */\n      tag_325\n      tag_139\n      jump\t// in\n    tag_325:\n        /* \"#utility.yul\":14057:14113   */\n    tag_324:\n        /* \"#utility.yul\":14137:14175   */\n      tag_326\n        /* \"#utility.yul\":14169:14173   */\n      dup3\n        /* \"#utility.yul\":14163:14174   */\n      sload\n        /* \"#utility.yul\":14137:14175   */\n      tag_84\n      jump\t// in\n    tag_326:\n        /* \"#utility.yul\":14222:14289   */\n      tag_327\n        /* \"#utility.yul\":14282:14288   */\n      dup3\n        /* \"#utility.yul\":14274:14280   */\n      dup3\n        /* \"#utility.yul\":14268:14272   */\n      dup6\n        /* \"#utility.yul\":14222:14289   */\n      tag_160\n      jump\t// in\n    tag_327:\n        /* \"#utility.yul\":14316:14317   */\n      0x00\n        /* \"#utility.yul\":14340:14344   */\n      0x20\n        /* \"#utility.yul\":14327:14344   */\n      swap1\n      pop\n        /* \"#utility.yul\":14372:14374   */\n      0x1f\n        /* \"#utility.yul\":14364:14370   */\n      dup4\n        /* \"#utility.yul\":14361:14375   */\n      gt\n        /* \"#utility.yul\":14389:14390   */\n      0x01\n        /* \"#utility.yul\":14384:15002   */\n      dup2\n      eq\n      tag_329\n      jumpi\n        /* \"#utility.yul\":15046:15047   */\n      0x00\n        /* \"#utility.yul\":15063:15069   */\n      dup5\n        /* \"#utility.yul\":15060:15137   */\n      iszero\n      tag_330\n      jumpi\n        /* \"#utility.yul\":15112:15121   */\n      dup3\n        /* \"#utility.yul\":15107:15110   */\n      dup8\n        /* \"#utility.yul\":15103:15122   */\n      add\n        /* \"#utility.yul\":15097:15123   */\n      mload\n        /* \"#utility.yul\":15088:15123   */\n      swap1\n      pop\n        /* \"#utility.yul\":15060:15137   */\n    tag_330:\n        /* \"#utility.yul\":15163:15230   */\n      tag_331\n        /* \"#utility.yul\":15223:15229   */\n      dup6\n        /* \"#utility.yul\":15216:15221   */\n      dup3\n        /* \"#utility.yul\":15163:15230   */\n      tag_163\n      jump\t// in\n    tag_331:\n        /* \"#utility.yul\":15157:15161   */\n      dup7\n        /* \"#utility.yul\":15150:15231   */\n      sstore\n        /* \"#utility.yul\":15019:15241   */\n      pop\n        /* \"#utility.yul\":14354:15241   */\n      jump(tag_328)\n        /* \"#utility.yul\":14384:15002   */\n    tag_329:\n        /* \"#utility.yul\":14436:14440   */\n      0x1f\n        /* \"#utility.yul\":14432:14441   */\n      not\n        /* \"#utility.yul\":14424:14430   */\n      dup5\n        /* \"#utility.yul\":14420:14442   */\n      and\n        /* \"#utility.yul\":14470:14507   */\n      tag_332\n        /* \"#utility.yul\":14502:14506   */\n      dup7\n        /* \"#utility.yul\":14470:14507   */\n      tag_149\n      jump\t// in\n    tag_332:\n        /* \"#utility.yul\":14529:14530   */\n      0x00\n        /* \"#utility.yul\":14543:14751   */\n    tag_333:\n        /* \"#utility.yul\":14557:14564   */\n      dup3\n        /* \"#utility.yul\":14554:14555   */\n      dup2\n        /* \"#utility.yul\":14551:14565   */\n      lt\n        /* \"#utility.yul\":14543:14751   */\n      iszero\n      tag_335\n      jumpi\n        /* \"#utility.yul\":14636:14645   */\n      dup5\n        /* \"#utility.yul\":14631:14634   */\n      dup10\n        /* \"#utility.yul\":14627:14646   */\n      add\n        /* \"#utility.yul\":14621:14647   */\n      mload\n        /* \"#utility.yul\":14613:14619   */\n      dup3\n        /* \"#utility.yul\":14606:14648   */\n      sstore\n        /* \"#utility.yul\":14687:14688   */\n      0x01\n        /* \"#utility.yul\":14679:14685   */\n      dup3\n        /* \"#utility.yul\":14675:14689   */\n      add\n        /* \"#utility.yul\":14665:14689   */\n      swap2\n      pop\n        /* \"#utility.yul\":14734:14736   */\n      0x20\n        /* \"#utility.yul\":14723:14732   */\n      dup6\n        /* \"#utility.yul\":14719:14737   */\n      add\n        /* \"#utility.yul\":14706:14737   */\n      swap5\n      pop\n        /* \"#utility.yul\":14580:14584   */\n      0x20\n        /* \"#utility.yul\":14577:14578   */\n      dup2\n        /* \"#utility.yul\":14573:14585   */\n      add\n        /* \"#utility.yul\":14568:14585   */\n      swap1\n      pop\n        /* \"#utility.yul\":14543:14751   */\n      jump(tag_333)\n    tag_335:\n        /* \"#utility.yul\":14779:14785   */\n      dup7\n        /* \"#utility.yul\":14770:14777   */\n      dup4\n        /* \"#utility.yul\":14767:14786   */\n      lt\n        /* \"#utility.yul\":14764:14943   */\n      iszero\n      tag_336\n      jumpi\n        /* \"#utility.yul\":14837:14846   */\n      dup5\n        /* \"#utility.yul\":14832:14835   */\n      dup10\n        /* \"#utility.yul\":14828:14847   */\n      add\n        /* \"#utility.yul\":14822:14848   */\n      mload\n        /* \"#utility.yul\":14880:14928   */\n      tag_337\n        /* \"#utility.yul\":14922:14926   */\n      0x1f\n        /* \"#utility.yul\":14914:14920   */\n      dup10\n        /* \"#utility.yul\":14910:14927   */\n      and\n        /* \"#utility.yul\":14899:14908   */\n      dup3\n        /* \"#utility.yul\":14880:14928   */\n      tag_162\n      jump\t// in\n    tag_337:\n        /* \"#utility.yul\":14872:14878   */\n      dup4\n        /* \"#utility.yul\":14865:14929   */\n      sstore\n        /* \"#utility.yul\":14787:14943   */\n      pop\n        /* \"#utility.yul\":14764:14943   */\n    tag_336:\n        /* \"#utility.yul\":14989:14990   */\n      0x01\n        /* \"#utility.yul\":14985:14986   */\n      0x02\n        /* \"#utility.yul\":14977:14983   */\n      dup9\n        /* \"#utility.yul\":14973:14987   */\n      mul\n        /* \"#utility.yul\":14969:14991   */\n      add\n        /* \"#utility.yul\":14963:14967   */\n      dup9\n        /* \"#utility.yul\":14956:14992   */\n      sstore\n        /* \"#utility.yul\":14391:15002   */\n      pop\n      pop\n      pop\n        /* \"#utility.yul\":14354:15241   */\n    tag_328:\n      pop\n        /* \"#utility.yul\":13944:15247   */\n      pop\n      pop\n      pop\n        /* \"#utility.yul\":13852:15247   */\n      pop\n      pop\n      jump\t// out\n\n    auxdata: 0xa264697066735822122048022b9e27fdde81260eb46e7c05c42536d7ac0e1c95b54b5e42dcfc46ce636564736f6c63430008130033\n}\n","bytecode":{"linkReferences":{},"object":"60806040523480156200001157600080fd5b50604051620014163803806200141683398181016040528101906200003791906200012c565b80600160006101000a81548173ffffffffffffffffffffffffffffffffffffffff021916908373ffffffffffffffffffffffffffffffffffffffff16021790555081600281905550505062000173565b600080fd5b6000819050919050565b620000a1816200008c565b8114620000ad57600080fd5b50565b600081519050620000c18162000096565b92915050565b600073ffffffffffffffffffffffffffffffffffffffff82169050919050565b6000620000f482620000c7565b9050919050565b6200010681620000e7565b81146200011257600080fd5b50565b6000815190506200012681620000fb565b92915050565b6000806040838503121562000146576200014562000087565b5b60006200015685828601620000b0565b9250506020620001698582860162000115565b9150509250929050565b61129380620001836000396000f3fe60806040526004361061009c5760003560e01c806381d12c581161006457806381d12c581461018c57806382fde093146101cf578063937e09b1146101fa578063d7bb99ba14610225578063d7d1bbdb1461022f578063f031ecb8146102585761009c565b806303441006146100a15780630a144391146100ca5780633410452a146101075780634051ddac14610132578063481c6a7514610161575b600080fd5b3480156100ad57600080fd5b506100c860048036038101906100c391906109cc565b610281565b005b3480156100d657600080fd5b506100f160048036038101906100ec9190610a57565b6103ca565b6040516100fe9190610a9f565b60405180910390f35b34801561011357600080fd5b5061011c6103ea565b6040516101299190610ac9565b60405180910390f35b34801561013e57600080fd5b506101476103f6565b604051610158959493929190610af3565b60405180910390f35b34801561016d57600080fd5b5061017661043f565b6040516101839190610b46565b60405180910390f35b34801561019857600080fd5b506101b360048036038101906101ae91906109cc565b610465565b6040516101c69796959493929190610bf1565b60405180910390f35b3480156101db57600080fd5b506101e461067c565b6040516101f19190610ac9565b60405180910390f35b34801561020657600080fd5b5061020f610682565b60405161021c9190610ac9565b60405180910390f35b61022d610688565b005b34801561023b57600080fd5b50610256600480360381019061025191906109cc565b610708565b005b34801561026457600080fd5b5061027f600480360381019061027a9190610daa565b610854565b005b600160009054906101000a900473ffffffffffffffffffffffffffffffffffffffff1673ffffffffffffffffffffffffffffffffffffffff163373ffffffffffffffffffffffffffffffffffffffff16146102db57600080fd5b60008082815481106102f0576102ef610e79565b5b90600052602060002090600702019050600260045461030f9190610f06565b81600501541161031e57600080fd5b8060040160149054906101000a900460ff161561033a57600080fd5b8060040160009054906101000a900473ffffffffffffffffffffffffffffffffffffffff1673ffffffffffffffffffffffffffffffffffffffff166108fc82600301549081150290604051600060405180830381858888f193505050501580156103a8573d6000803e3d6000fd5b5060018160040160146101000a81548160ff0219169083151502179055505050565b60036020528060005260406000206000915054906101000a900460ff1681565b60008080549050905090565b600080600080600060025447600080549050600454600160009054906101000a900473ffffffffffffffffffffffffffffffffffffffff16945094509450945094509091929394565b600160009054906101000a900473ffffffffffffffffffffffffffffffffffffffff1681565b6000818154811061047557600080fd5b906000526020600020906007020160009150905080600001805461049890610f66565b80601f01602080910402602001604051908101604052809291908181526020018280546104c490610f66565b80156105115780601f106104e657610100808354040283529160200191610511565b820191906000526020600020905b8154815290600101906020018083116104f457829003601f168201915b50505050509080600101805461052690610f66565b80601f016020809104026020016040519081016040528092919081815260200182805461055290610f66565b801561059f5780601f106105745761010080835404028352916020019161059f565b820191906000526020600020905b81548152906001019060200180831161058257829003601f168201915b5050505050908060020180546105b490610f66565b80601f01602080910402602001604051908101604052809291908181526020018280546105e090610f66565b801561062d5780601f106106025761010080835404028352916020019161062d565b820191906000526020600020905b81548152906001019060200180831161061057829003601f168201915b5050505050908060030154908060040160009054906101000a900473ffffffffffffffffffffffffffffffffffffffff16908060040160149054906101000a900460ff16908060050154905087565b60045481565b60025481565b600254341161069657600080fd5b6001600360003373ffffffffffffffffffffffffffffffffffffffff1673ffffffffffffffffffffffffffffffffffffffff16815260200190815260200160002060006101000a81548160ff0219169083151502179055506004600081548092919061070190610f97565b9190505550565b600080828154811061071d5761071c610e79565b5b90600052602060002090600702019050600360003373ffffffffffffffffffffffffffffffffffffffff1673ffffffffffffffffffffffffffffffffffffffff16815260200190815260200160002060009054906101000a900460ff1661078357600080fd5b8060060160003373ffffffffffffffffffffffffffffffffffffffff1673ffffffffffffffffffffffffffffffffffffffff16815260200190815260200160002060009054906101000a900460ff16156107dc57600080fd5b60018160060160003373ffffffffffffffffffffffffffffffffffffffff1673ffffffffffffffffffffffffffffffffffffffff16815260200190815260200160002060006101000a81548160ff02191690831515021790555080600501600081548092919061084b90610f97565b91905055505050565b600160009054906101000a900473ffffffffffffffffffffffffffffffffffffffff1673ffffffffffffffffffffffffffffffffffffffff163373ffffffffffffffffffffffffffffffffffffffff16146108ae57600080fd5b6000806001816001815401808255809150500390600052602060002090600702019050858160000190816108e2919061118b565b50848160010190816108f4919061118b565b5083816002019081610906919061118b565b50828160030181905550818160040160006101000a81548173ffffffffffffffffffffffffffffffffffffffff021916908373ffffffffffffffffffffffffffffffffffffffff16021790555060008160040160146101000a81548160ff02191690831515021790555060008160050181905550505050505050565b6000604051905090565b600080fd5b600080fd5b6000819050919050565b6109a981610996565b81146109b457600080fd5b50565b6000813590506109c6816109a0565b92915050565b6000602082840312156109e2576109e161098c565b5b60006109f0848285016109b7565b91505092915050565b600073ffffffffffffffffffffffffffffffffffffffff82169050919050565b6000610a24826109f9565b9050919050565b610a3481610a19565b8114610a3f57600080fd5b50565b600081359050610a5181610a2b565b92915050565b600060208284031215610a6d57610a6c61098c565b5b6000610a7b84828501610a42565b91505092915050565b60008115159050919050565b610a9981610a84565b82525050565b6000602082019050610ab46000830184610a90565b92915050565b610ac381610996565b82525050565b6000602082019050610ade6000830184610aba565b92915050565b610aed81610a19565b82525050565b600060a082019050610b086000830188610aba565b610b156020830187610aba565b610b226040830186610aba565b610b2f6060830185610aba565b610b3c6080830184610ae4565b9695505050505050565b6000602082019050610b5b6000830184610ae4565b92915050565b600081519050919050565b600082825260208201905092915050565b60005b83811015610b9b578082015181840152602081019050610b80565b60008484015250505050565b6000601f19601f8301169050919050565b6000610bc382610b61565b610bcd8185610b6c565b9350610bdd818560208601610b7d565b610be681610ba7565b840191505092915050565b600060e0820190508181036000830152610c0b818a610bb8565b90508181036020830152610c1f8189610bb8565b90508181036040830152610c338188610bb8565b9050610c426060830187610aba565b610c4f6080830186610ae4565b610c5c60a0830185610a90565b610c6960c0830184610aba565b98975050505050505050565b600080fd5b600080fd5b7f4e487b7100000000000000000000000000000000000000000000000000000000600052604160045260246000fd5b610cb782610ba7565b810181811067ffffffffffffffff82111715610cd657610cd5610c7f565b5b80604052505050565b6000610ce9610982565b9050610cf58282610cae565b919050565b600067ffffffffffffffff821115610d1557610d14610c7f565b5b610d1e82610ba7565b9050602081019050919050565b82818337600083830152505050565b6000610d4d610d4884610cfa565b610cdf565b905082815260208101848484011115610d6957610d68610c7a565b5b610d74848285610d2b565b509392505050565b600082601f830112610d9157610d90610c75565b5b8135610da1848260208601610d3a565b91505092915050565b600080600080600060a08688031215610dc657610dc561098c565b5b600086013567ffffffffffffffff811115610de457610de3610991565b5b610df088828901610d7c565b955050602086013567ffffffffffffffff811115610e1157610e10610991565b5b610e1d88828901610d7c565b945050604086013567ffffffffffffffff811115610e3e57610e3d610991565b5b610e4a88828901610d7c565b9350506060610e5b888289016109b7565b9250506080610e6c88828901610a42565b9150509295509295909350565b7f4e487b7100000000000000000000000000000000000000000000000000000000600052603260045260246000fd5b7f4e487b7100000000000000000000000000000000000000000000000000000000600052601260045260246000fd5b7f4e487b7100000000000000000000000000000000000000000000000000000000600052601160045260246000fd5b6000610f1182610996565b9150610f1c83610996565b925082610f2c57610f2b610ea8565b5b828204905092915050565b7f4e487b7100000000000000000000000000000000000000000000000000000000600052602260045260246000fd5b60006002820490506001821680610f7e57607f821691505b602082108103610f9157610f90610f37565b5b50919050565b6000610fa282610996565b91507fffffffffffffffffffffffffffffffffffffffffffffffffffffffffffffffff8203610fd457610fd3610ed7565b5b600182019050919050565b60008190508160005260206000209050919050565b60006020601f8301049050919050565b600082821b905092915050565b6000600883026110417fffffffffffffffffffffffffffffffffffffffffffffffffffffffffffffffff82611004565b61104b8683611004565b95508019841693508086168417925050509392505050565b6000819050919050565b600061108861108361107e84610996565b611063565b610996565b9050919050565b6000819050919050565b6110a28361106d565b6110b66110ae8261108f565b848454611011565b825550505050565b600090565b6110cb6110be565b6110d6818484611099565b505050565b5b818110156110fa576110ef6000826110c3565b6001810190506110dc565b5050565b601f82111561113f5761111081610fdf565b61111984610ff4565b81016020851015611128578190505b61113c61113485610ff4565b8301826110db565b50505b505050565b600082821c905092915050565b600061116260001984600802611144565b1980831691505092915050565b600061117b8383611151565b9150826002028217905092915050565b61119482610b61565b67ffffffffffffffff8111156111ad576111ac610c7f565b5b6111b78254610f66565b6111c28282856110fe565b600060209050601f8311600181146111f557600084156111e3578287015190505b6111ed858261116f565b865550611255565b601f19841661120386610fdf565b60005b8281101561122b57848901518255600182019150602085019450602081019050611206565b868310156112485784890151611244601f891682611151565b8355505b6001600288020188555050505b50505050505056fea264697066735822122048022b9e27fdde81260eb46e7c05c42536d7ac0e1c95b54b5e42dcfc46ce636564736f6c63430008130033","opcodes":"PUSH1 0x80 PUSH1 0x40 MSTORE CALLVALUE DUP1 ISZERO PUSH3 0x11 JUMPI PUSH1 0x0 DUP1 REVERT JUMPDEST POP PUSH1 0x40 MLOAD PUSH3 0x1416 CODESIZE SUB DUP1 PUSH3 0x1416 DUP4 CODECOPY DUP2 DUP2 ADD PUSH1 0x40 MSTORE DUP2 ADD SWAP1 PUSH3 0x37 SWAP2 SWAP1 PUSH3 0x12C JUMP JUMPDEST DUP1 PUSH1 0x1 PUSH1 0x0 PUSH2 0x100 EXP DUP2 SLOAD DUP2 PUSH20 0xFFFFFFFFFFFFFFFFFFFFFFFFFFFFFFFFFFFFFFFF MUL NOT AND SWAP1 DUP4 PUSH20 0xFFFFFFFFFFFFFFFFFFFFFFFFFFFFFFFFFFFFFFFF AND MUL OR SWAP1 SSTORE POP DUP2 PUSH1 0x2 DUP2 SWAP1 SSTORE POP POP POP PUSH3 0x173 JUMP JUMPDEST PUSH1 0x0 DUP1 REVERT JUMPDEST PUSH1 0x0 DUP2 SWAP1 POP SWAP2 SWAP1 POP JUMP JUMPDEST PUSH3 0xA1 DUP2 PUSH3 0x8C JUMP JUMPDEST DUP2 EQ PUSH3 0xAD JUMPI PUSH1 0x0 DUP1 REVERT JUMPDEST POP JUMP JUMPDEST PUSH1 0x0 DUP2 MLOAD SWAP1 POP PUSH3 0xC1 DUP2 PUSH3 0x96 JUMP JUMPDEST SWAP3 SWAP2 POP POP JUMP JUMPDEST PUSH1 0x0 PUSH20 0xFFFFFFFFFFFFFFFFFFFFFFFFFFFFFFFFFFFFFFFF DUP3 AND SWAP1 POP SWAP2 SWAP1 POP JUMP JUMPDEST PUSH1 0x0 PUSH3 0xF4 DUP3 PUSH3 0xC7 JUMP JUMPDEST SWAP1 POP SWAP2 SWAP1 POP JUMP JUMPDEST PUSH3 0x106 DUP2 PUSH3 0xE7 JUMP JUMPDEST DUP2 EQ PUSH3 0x112 JUMPI PUSH1 0x0 DUP1 REVERT JUMPDEST POP JUMP JUMPDEST PUSH1 0x0 DUP2 MLOAD SWAP1 POP PUSH3 0x126 DUP2 PUSH3 0xFB JUMP JUMPDEST SWAP3 SWAP2 POP POP JUMP JUMPDEST PUSH1 0x0 DUP1 PUSH1 0x40 DUP4 DUP6 SUB SLT ISZERO PUSH3 0x146 JUMPI PUSH3 0x145 PUSH3 0x87 JUMP JUMPDEST JUMPDEST PUSH1 0x0 PUSH3 0x156 DUP6 DUP3 DUP7 ADD PUSH3 0xB0 JUMP JUMPDEST SWAP3 POP POP PUSH1 0x20 PUSH3 0x169 DUP6 DUP3 DUP7 ADD PUSH3 0x115 JUMP JUMPDEST SWAP2 POP POP SWAP3 POP SWAP3 SWAP1 POP JUMP JUMPDEST PUSH2 0x1293 DUP1 PUSH3 0x183 PUSH1 0x0 CODECOPY PUSH1 0x0 RETURN INVALID PUSH1 0x80 PUSH1 0x40 MSTORE PUSH1 0x4 CALLDATASIZE LT PUSH2 0x9C JUMPI PUSH1 0x0 CALLDATALOAD PUSH1 0xE0 SHR DUP1 PUSH4 0x81D12C58 GT PUSH2 0x64 JUMPI DUP1 PUSH4 0x81D12C58 EQ PUSH2 0x18C JUMPI DUP1 PUSH4 0x82FDE093 EQ PUSH2 0x1CF JUMPI DUP1 PUSH4 0x937E09B1 EQ PUSH2 0x1FA JUMPI DUP1 PUSH4 0xD7BB99BA EQ PUSH2 0x225 JUMPI DUP1 PUSH4 0xD7D1BBDB EQ PUSH2 0x22F JUMPI DUP1 PUSH4 0xF031ECB8 EQ PUSH2 0x258 JUMPI PUSH2 0x9C JUMP JUMPDEST DUP1 PUSH4 0x3441006 EQ PUSH2 0xA1 JUMPI DUP1 PUSH4 0xA144391 EQ PUSH2 0xCA JUMPI DUP1 PUSH4 0x3410452A EQ PUSH2 0x107 JUMPI DUP1 PUSH4 0x4051DDAC EQ PUSH2 0x132 JUMPI DUP1 PUSH4 0x481C6A75 EQ PUSH2 0x161 JUMPI JUMPDEST PUSH1 0x0 DUP1 REVERT JUMPDEST CALLVALUE DUP1 ISZERO PUSH2 0xAD JUMPI PUSH1 0x0 DUP1 REVERT JUMPDEST POP PUSH2 0xC8 PUSH1 0x4 DUP1 CALLDATASIZE SUB DUP2 ADD SWAP1 PUSH2 0xC3 SWAP2 SWAP1 PUSH2 0x9CC JUMP JUMPDEST PUSH2 0x281 JUMP JUMPDEST STOP JUMPDEST CALLVALUE DUP1 ISZERO PUSH2 0xD6 JUMPI PUSH1 0x0 DUP1 REVERT JUMPDEST POP PUSH2 0xF1 PUSH1 0x4 DUP1 CALLDATASIZE SUB DUP2 ADD SWAP1 PUSH2 0xEC SWAP2 SWAP1 PUSH2 0xA57 JUMP JUMPDEST PUSH2 0x3CA JUMP JUMPDEST PUSH1 0x40 MLOAD PUSH2 0xFE SWAP2 SWAP1 PUSH2 0xA9F JUMP JUMPDEST PUSH1 0x40 MLOAD DUP1 SWAP2 SUB SWAP1 RETURN JUMPDEST CALLVALUE DUP1 ISZERO PUSH2 0x113 JUMPI PUSH1 0x0 DUP1 REVERT JUMPDEST POP PUSH2 0x11C PUSH2 0x3EA JUMP JUMPDEST PUSH1 0x40 MLOAD PUSH2 0x129 SWAP2 SWAP1 PUSH2 0xAC9 JUMP JUMPDEST PUSH1 0x40 MLOAD DUP1 SWAP2 SUB SWAP1 RETURN JUMPDEST CALLVALUE DUP1 ISZERO PUSH2 0x13E JUMPI PUSH1 0x0 DUP1 REVERT JUMPDEST POP PUSH2 0x147 PUSH2 0x3F6 JUMP JUMPDEST PUSH1 0x40 MLOAD PUSH2 0x158 SWAP6 SWAP5 SWAP4 SWAP3 SWAP2 SWAP1 PUSH2 0xAF3 JUMP JUMPDEST PUSH1 0x40 MLOAD DUP1 SWAP2 SUB SWAP1 RETURN JUMPDEST CALLVALUE DUP1 ISZERO PUSH2 0x16D JUMPI PUSH1 0x0 DUP1 REVERT JUMPDEST POP PUSH2 0x176 PUSH2 0x43F JUMP JUMPDEST PUSH1 0x40 MLOAD PUSH2 0x183 SWAP2 SWAP1 PUSH2 0xB46 JUMP JUMPDEST PUSH1 0x40 MLOAD DUP1 SWAP2 SUB SWAP1 RETURN JUMPDEST CALLVALUE DUP1 ISZERO PUSH2 0x198 JUMPI PUSH1 0x0 DUP1 REVERT JUMPDEST POP PUSH2 0x1B3 PUSH1 0x4 DUP1 CALLDATASIZE SUB DUP2 ADD SWAP1 PUSH2 0x1AE SWAP2 SWAP1 PUSH2 0x9CC JUMP JUMPDEST PUSH2 0x465 JUMP JUMPDEST PUSH1 0x40 MLOAD PUSH2 0x1C6 SWAP8 SWAP7 SWAP6 SWAP5 SWAP4 SWAP3 SWAP2 SWAP1 PUSH2 0xBF1 JUMP JUMPDEST PUSH1 0x40 MLOAD DUP1 SWAP2 SUB SWAP1 RETURN JUMPDEST CALLVALUE DUP1 ISZERO PUSH2 0x1DB JUMPI PUSH1 0x0 DUP1 REVERT JUMPDEST POP PUSH2 0x1E4 PUSH2 0x67C JUMP JUMPDEST PUSH1 0x40 MLOAD PUSH2 0x1F1 SWAP2 SWAP1 PUSH2 0xAC9 JUMP JUMPDEST PUSH1 0x40 MLOAD DUP1 SWAP2 SUB SWAP1 RETURN JUMPDEST CALLVALUE DUP1 ISZERO PUSH2 0x206 JUMPI PUSH1 0x0 DUP1 REVERT JUMPDEST POP PUSH2 0x20F PUSH2 0x682 JUMP JUMPDEST PUSH1 0x40 MLOAD PUSH2 0x21C SWAP2 SWAP1 PUSH2 0xAC9 JUMP JUMPDEST PUSH1 0x40 MLOAD DUP1 SWAP2 SUB SWAP1 RETURN JUMPDEST PUSH2 0x22D PUSH2 0x688 JUMP JUMPDEST STOP JUMPDEST CALLVALUE DUP1 ISZERO PUSH2 0x23B JUMPI PUSH1 0x0 DUP1 REVERT JUMPDEST POP PUSH2 0x256 PUSH1 0x4 DUP1 CALLDATASIZE SUB DUP2 ADD SWAP1 PUSH2 0x251 SWAP2 SWAP1 PUSH2 0x9CC JUMP JUMPDEST PUSH2 0x708 JUMP JUMPDEST STOP JUMPDEST CALLVALUE DUP1 ISZERO PUSH2 0x264 JUMPI PUSH1 0x0 DUP1 REVERT JUMPDEST POP PUSH2 0x27F PUSH1 0x4 DUP1 CALLDATASIZE SUB DUP2 ADD SWAP1 PUSH2 0x27A SWAP2 SWAP1 PUSH2 0xDAA JUMP JUMPDEST PUSH2 0x854 JUMP JUMPDEST STOP JUMPDEST PUSH1 0x1 PUSH1 0x0 SWAP1 SLOAD SWAP1 PUSH2 0x100 EXP SWAP1 DIV PUSH20 0xFFFFFFFFFFFFFFFFFFFFFFFFFFFFFFFFFFFFFFFF AND PUSH20 0xFFFFFFFFFFFFFFFFFFFFFFFFFFFFFFFFFFFFFFFF AND CALLER PUSH20 0xFFFFFFFFFFFFFFFFFFFFFFFFFFFFFFFFFFFFFFFF AND EQ PUSH2 0x2DB JUMPI PUSH1 0x0 DUP1 REVERT JUMPDEST PUSH1 0x0 DUP1 DUP3 DUP2 SLOAD DUP2 LT PUSH2 0x2F0 JUMPI PUSH2 0x2EF PUSH2 0xE79 JUMP JUMPDEST JUMPDEST SWAP1 PUSH1 0x0 MSTORE PUSH1 0x20 PUSH1 0x0 KECCAK256 SWAP1 PUSH1 0x7 MUL ADD SWAP1 POP PUSH1 0x2 PUSH1 0x4 SLOAD PUSH2 0x30F SWAP2 SWAP1 PUSH2 0xF06 JUMP JUMPDEST DUP2 PUSH1 0x5 ADD SLOAD GT PUSH2 0x31E JUMPI PUSH1 0x0 DUP1 REVERT JUMPDEST DUP1 PUSH1 0x4 ADD PUSH1 0x14 SWAP1 SLOAD SWAP1 PUSH2 0x100 EXP SWAP1 DIV PUSH1 0xFF AND ISZERO PUSH2 0x33A JUMPI PUSH1 0x0 DUP1 REVERT JUMPDEST DUP1 PUSH1 0x4 ADD PUSH1 0x0 SWAP1 SLOAD SWAP1 PUSH2 0x100 EXP SWAP1 DIV PUSH20 0xFFFFFFFFFFFFFFFFFFFFFFFFFFFFFFFFFFFFFFFF AND PUSH20 0xFFFFFFFFFFFFFFFFFFFFFFFFFFFFFFFFFFFFFFFF AND PUSH2 0x8FC DUP3 PUSH1 0x3 ADD SLOAD SWAP1 DUP2 ISZERO MUL SWAP1 PUSH1 0x40 MLOAD PUSH1 0x0 PUSH1 0x40 MLOAD DUP1 DUP4 SUB DUP2 DUP6 DUP9 DUP9 CALL SWAP4 POP POP POP POP ISZERO DUP1 ISZERO PUSH2 0x3A8 JUMPI RETURNDATASIZE PUSH1 0x0 DUP1 RETURNDATACOPY RETURNDATASIZE PUSH1 0x0 REVERT JUMPDEST POP PUSH1 0x1 DUP2 PUSH1 0x4 ADD PUSH1 0x14 PUSH2 0x100 EXP DUP2 SLOAD DUP2 PUSH1 0xFF MUL NOT AND SWAP1 DUP4 ISZERO ISZERO MUL OR SWAP1 SSTORE POP POP POP JUMP JUMPDEST PUSH1 0x3 PUSH1 0x20 MSTORE DUP1 PUSH1 0x0 MSTORE PUSH1 0x40 PUSH1 0x0 KECCAK256 PUSH1 0x0 SWAP2 POP SLOAD SWAP1 PUSH2 0x100 EXP SWAP1 DIV PUSH1 0xFF AND DUP2 JUMP JUMPDEST PUSH1 0x0 DUP1 DUP1 SLOAD SWAP1 POP SWAP1 POP SWAP1 JUMP JUMPDEST PUSH1 0x0 DUP1 PUSH1 0x0 DUP1 PUSH1 0x0 PUSH1 0x2 SLOAD SELFBALANCE PUSH1 0x0 DUP1 SLOAD SWAP1 POP PUSH1 0x4 SLOAD PUSH1 0x1 PUSH1 0x0 SWAP1 SLOAD SWAP1 PUSH2 0x100 EXP SWAP1 DIV PUSH20 0xFFFFFFFFFFFFFFFFFFFFFFFFFFFFFFFFFFFFFFFF AND SWAP5 POP SWAP5 POP SWAP5 POP SWAP5 POP SWAP5 POP SWAP1 SWAP2 SWAP3 SWAP4 SWAP5 JUMP JUMPDEST PUSH1 0x1 PUSH1 0x0 SWAP1 SLOAD SWAP1 PUSH2 0x100 EXP SWAP1 DIV PUSH20 0xFFFFFFFFFFFFFFFFFFFFFFFFFFFFFFFFFFFFFFFF AND DUP2 JUMP JUMPDEST PUSH1 0x0 DUP2 DUP2 SLOAD DUP2 LT PUSH2 0x475 JUMPI PUSH1 0x0 DUP1 REVERT JUMPDEST SWAP1 PUSH1 0x0 MSTORE PUSH1 0x20 PUSH1 0x0 KECCAK256 SWAP1 PUSH1 0x7 MUL ADD PUSH1 0x0 SWAP2 POP SWAP1 POP DUP1 PUSH1 0x0 ADD DUP1 SLOAD PUSH2 0x498 SWAP1 PUSH2 0xF66 JUMP JUMPDEST DUP1 PUSH1 0x1F ADD PUSH1 0x20 DUP1 SWAP2 DIV MUL PUSH1 0x20 ADD PUSH1 0x40 MLOAD SWAP1 DUP2 ADD PUSH1 0x40 MSTORE DUP1 SWAP3 SWAP2 SWAP1 DUP2 DUP2 MSTORE PUSH1 0x20 ADD DUP3 DUP1 SLOAD PUSH2 0x4C4 SWAP1 PUSH2 0xF66 JUMP JUMPDEST DUP1 ISZERO PUSH2 0x511 JUMPI DUP1 PUSH1 0x1F LT PUSH2 0x4E6 JUMPI PUSH2 0x100 DUP1 DUP4 SLOAD DIV MUL DUP4 MSTORE SWAP2 PUSH1 0x20 ADD SWAP2 PUSH2 0x511 JUMP JUMPDEST DUP3 ADD SWAP2 SWAP1 PUSH1 0x0 MSTORE PUSH1 0x20 PUSH1 0x0 KECCAK256 SWAP1 JUMPDEST DUP2 SLOAD DUP2 MSTORE SWAP1 PUSH1 0x1 ADD SWAP1 PUSH1 0x20 ADD DUP1 DUP4 GT PUSH2 0x4F4 JUMPI DUP3 SWAP1 SUB PUSH1 0x1F AND DUP3 ADD SWAP2 JUMPDEST POP POP POP POP POP SWAP1 DUP1 PUSH1 0x1 ADD DUP1 SLOAD PUSH2 0x526 SWAP1 PUSH2 0xF66 JUMP JUMPDEST DUP1 PUSH1 0x1F ADD PUSH1 0x20 DUP1 SWAP2 DIV MUL PUSH1 0x20 ADD PUSH1 0x40 MLOAD SWAP1 DUP2 ADD PUSH1 0x40 MSTORE DUP1 SWAP3 SWAP2 SWAP1 DUP2 DUP2 MSTORE PUSH1 0x20 ADD DUP3 DUP1 SLOAD PUSH2 0x552 SWAP1 PUSH2 0xF66 JUMP JUMPDEST DUP1 ISZERO PUSH2 0x59F JUMPI DUP1 PUSH1 0x1F LT PUSH2 0x574 JUMPI PUSH2 0x100 DUP1 DUP4 SLOAD DIV MUL DUP4 MSTORE SWAP2 PUSH1 0x20 ADD SWAP2 PUSH2 0x59F JUMP JUMPDEST DUP3 ADD SWAP2 SWAP1 PUSH1 0x0 MSTORE PUSH1 0x20 PUSH1 0x0 KECCAK256 SWAP1 JUMPDEST DUP2 SLOAD DUP2 MSTORE SWAP1 PUSH1 0x1 ADD SWAP1 PUSH1 0x20 ADD DUP1 DUP4 GT PUSH2 0x582 JUMPI DUP3 SWAP1 SUB PUSH1 0x1F AND DUP3 ADD SWAP2 JUMPDEST POP POP POP POP POP SWAP1 DUP1 PUSH1 0x2 ADD DUP1 SLOAD PUSH2 0x5B4 SWAP1 PUSH2 0xF66 JUMP JUMPDEST DUP1 PUSH1 0x1F ADD PUSH1 0x20 DUP1 SWAP2 DIV MUL PUSH1 0x20 ADD PUSH1 0x40 MLOAD SWAP1 DUP2 ADD PUSH1 0x40 MSTORE DUP1 SWAP3 SWAP2 SWAP1 DUP2 DUP2 MSTORE PUSH1 0x20 ADD DUP3 DUP1 SLOAD PUSH2 0x5E0 SWAP1 PUSH2 0xF66 JUMP JUMPDEST DUP1 ISZERO PUSH2 0x62D JUMPI DUP1 PUSH1 0x1F LT PUSH2 0x602 JUMPI PUSH2 0x100 DUP1 DUP4 SLOAD DIV MUL DUP4 MSTORE SWAP2 PUSH1 0x20 ADD SWAP2 PUSH2 0x62D JUMP JUMPDEST DUP3 ADD SWAP2 SWAP1 PUSH1 0x0 MSTORE PUSH1 0x20 PUSH1 0x0 KECCAK256 SWAP1 JUMPDEST DUP2 SLOAD DUP2 MSTORE SWAP1 PUSH1 0x1 ADD SWAP1 PUSH1 0x20 ADD DUP1 DUP4 GT PUSH2 0x610 JUMPI DUP3 SWAP1 SUB PUSH1 0x1F AND DUP3 ADD SWAP2 JUMPDEST POP POP POP POP POP SWAP1 DUP1 PUSH1 0x3 ADD SLOAD SWAP1 DUP1 PUSH1 0x4 ADD PUSH1 0x0 SWAP1 SLOAD SWAP1 PUSH2 0x100 EXP SWAP1 DIV PUSH20 0xFFFFFFFFFFFFFFFFFFFFFFFFFFFFFFFFFFFFFFFF AND SWAP1 DUP1 PUSH1 0x4 ADD PUSH1 0x14 SWAP1 SLOAD SWAP1 PUSH2 0x100 EXP SWAP1 DIV PUSH1 0xFF AND SWAP1 DUP1 PUSH1 0x5 ADD SLOAD SWAP1 POP DUP8 JUMP JUMPDEST PUSH1 0x4 SLOAD DUP2 JUMP JUMPDEST PUSH1 0x2 SLOAD DUP2 JUMP JUMPDEST PUSH1 0x2 SLOAD CALLVALUE GT PUSH2 0x696 JUMPI PUSH1 0x0 DUP1 REVERT JUMPDEST PUSH1 0x1 PUSH1 0x3 PUSH1 0x0 CALLER PUSH20 0xFFFFFFFFFFFFFFFFFFFFFFFFFFFFFFFFFFFFFFFF AND PUSH20 0xFFFFFFFFFFFFFFFFFFFFFFFFFFFFFFFFFFFFFFFF AND DUP2 MSTORE PUSH1 0x20 ADD SWAP1 DUP2 MSTORE PUSH1 0x20 ADD PUSH1 0x0 KECCAK256 PUSH1 0x0 PUSH2 0x100 EXP DUP2 SLOAD DUP2 PUSH1 0xFF MUL NOT AND SWAP1 DUP4 ISZERO ISZERO MUL OR SWAP1 SSTORE POP PUSH1 0x4 PUSH1 0x0 DUP2 SLOAD DUP1 SWAP3 SWAP2 SWAP1 PUSH2 0x701 SWAP1 PUSH2 0xF97 JUMP JUMPDEST SWAP2 SWAP1 POP SSTORE POP JUMP JUMPDEST PUSH1 0x0 DUP1 DUP3 DUP2 SLOAD DUP2 LT PUSH2 0x71D JUMPI PUSH2 0x71C PUSH2 0xE79 JUMP JUMPDEST JUMPDEST SWAP1 PUSH1 0x0 MSTORE PUSH1 0x20 PUSH1 0x0 KECCAK256 SWAP1 PUSH1 0x7 MUL ADD SWAP1 POP PUSH1 0x3 PUSH1 0x0 CALLER PUSH20 0xFFFFFFFFFFFFFFFFFFFFFFFFFFFFFFFFFFFFFFFF AND PUSH20 0xFFFFFFFFFFFFFFFFFFFFFFFFFFFFFFFFFFFFFFFF AND DUP2 MSTORE PUSH1 0x20 ADD SWAP1 DUP2 MSTORE PUSH1 0x20 ADD PUSH1 0x0 KECCAK256 PUSH1 0x0 SWAP1 SLOAD SWAP1 PUSH2 0x100 EXP SWAP1 DIV PUSH1 0xFF AND PUSH2 0x783 JUMPI PUSH1 0x0 DUP1 REVERT JUMPDEST DUP1 PUSH1 0x6 ADD PUSH1 0x0 CALLER PUSH20 0xFFFFFFFFFFFFFFFFFFFFFFFFFFFFFFFFFFFFFFFF AND PUSH20 0xFFFFFFFFFFFFFFFFFFFFFFFFFFFFFFFFFFFFFFFF AND DUP2 MSTORE PUSH1 0x20 ADD SWAP1 DUP2 MSTORE PUSH1 0x20 ADD PUSH1 0x0 KECCAK256 PUSH1 0x0 SWAP1 SLOAD SWAP1 PUSH2 0x100 EXP SWAP1 DIV PUSH1 0xFF AND ISZERO PUSH2 0x7DC JUMPI PUSH1 0x0 DUP1 REVERT JUMPDEST PUSH1 0x1 DUP2 PUSH1 0x6 ADD PUSH1 0x0 CALLER PUSH20 0xFFFFFFFFFFFFFFFFFFFFFFFFFFFFFFFFFFFFFFFF AND PUSH20 0xFFFFFFFFFFFFFFFFFFFFFFFFFFFFFFFFFFFFFFFF AND DUP2 MSTORE PUSH1 0x20 ADD SWAP1 DUP2 MSTORE PUSH1 0x20 ADD PUSH1 0x0 KECCAK256 PUSH1 0x0 PUSH2 0x100 EXP DUP2 SLOAD DUP2 PUSH1 0xFF MUL NOT AND SWAP1 DUP4 ISZERO ISZERO MUL OR SWAP1 SSTORE POP DUP1 PUSH1 0x5 ADD PUSH1 0x0 DUP2 SLOAD DUP1 SWAP3 SWAP2 SWAP1 PUSH2 0x84B SWAP1 PUSH2 0xF97 JUMP JUMPDEST SWAP2 SWAP1 POP SSTORE POP POP POP JUMP JUMPDEST PUSH1 0x1 PUSH1 0x0 SWAP1 SLOAD SWAP1 PUSH2 0x100 EXP SWAP1 DIV PUSH20 0xFFFFFFFFFFFFFFFFFFFFFFFFFFFFFFFFFFFFFFFF AND PUSH20 0xFFFFFFFFFFFFFFFFFFFFFFFFFFFFFFFFFFFFFFFF AND CALLER PUSH20 0xFFFFFFFFFFFFFFFFFFFFFFFFFFFFFFFFFFFFFFFF AND EQ PUSH2 0x8AE JUMPI PUSH1 0x0 DUP1 REVERT JUMPDEST PUSH1 0x0 DUP1 PUSH1 0x1 DUP2 PUSH1 0x1 DUP2 SLOAD ADD DUP1 DUP3 SSTORE DUP1 SWAP2 POP POP SUB SWAP1 PUSH1 0x0 MSTORE PUSH1 0x20 PUSH1 0x0 KECCAK256 SWAP1 PUSH1 0x7 MUL ADD SWAP1 POP DUP6 DUP2 PUSH1 0x0 ADD SWAP1 DUP2 PUSH2 0x8E2 SWAP2 SWAP1 PUSH2 0x118B JUMP JUMPDEST POP DUP5 DUP2 PUSH1 0x1 ADD SWAP1 DUP2 PUSH2 0x8F4 SWAP2 SWAP1 PUSH2 0x118B JUMP JUMPDEST POP DUP4 DUP2 PUSH1 0x2 ADD SWAP1 DUP2 PUSH2 0x906 SWAP2 SWAP1 PUSH2 0x118B JUMP JUMPDEST POP DUP3 DUP2 PUSH1 0x3 ADD DUP2 SWAP1 SSTORE POP DUP2 DUP2 PUSH1 0x4 ADD PUSH1 0x0 PUSH2 0x100 EXP DUP2 SLOAD DUP2 PUSH20 0xFFFFFFFFFFFFFFFFFFFFFFFFFFFFFFFFFFFFFFFF MUL NOT AND SWAP1 DUP4 PUSH20 0xFFFFFFFFFFFFFFFFFFFFFFFFFFFFFFFFFFFFFFFF AND MUL OR SWAP1 SSTORE POP PUSH1 0x0 DUP2 PUSH1 0x4 ADD PUSH1 0x14 PUSH2 0x100 EXP DUP2 SLOAD DUP2 PUSH1 0xFF MUL NOT AND SWAP1 DUP4 ISZERO ISZERO MUL OR SWAP1 SSTORE POP PUSH1 0x0 DUP2 PUSH1 0x5 ADD DUP2 SWAP1 SSTORE POP POP POP POP POP POP POP JUMP JUMPDEST PUSH1 0x0 PUSH1 0x40 MLOAD SWAP1 POP SWAP1 JUMP JUMPDEST PUSH1 0x0 DUP1 REVERT JUMPDEST PUSH1 0x0 DUP1 REVERT JUMPDEST PUSH1 0x0 DUP2 SWAP1 POP SWAP2 SWAP1 POP JUMP JUMPDEST PUSH2 0x9A9 DUP2 PUSH2 0x996 JUMP JUMPDEST DUP2 EQ PUSH2 0x9B4 JUMPI PUSH1 0x0 DUP1 REVERT JUMPDEST POP JUMP JUMPDEST PUSH1 0x0 DUP2 CALLDATALOAD SWAP1 POP PUSH2 0x9C6 DUP2 PUSH2 0x9A0 JUMP JUMPDEST SWAP3 SWAP2 POP POP JUMP JUMPDEST PUSH1 0x0 PUSH1 0x20 DUP3 DUP5 SUB SLT ISZERO PUSH2 0x9E2 JUMPI PUSH2 0x9E1 PUSH2 0x98C JUMP JUMPDEST JUMPDEST PUSH1 0x0 PUSH2 0x9F0 DUP5 DUP3 DUP6 ADD PUSH2 0x9B7 JUMP JUMPDEST SWAP2 POP POP SWAP3 SWAP2 POP POP JUMP JUMPDEST PUSH1 0x0 PUSH20 0xFFFFFFFFFFFFFFFFFFFFFFFFFFFFFFFFFFFFFFFF DUP3 AND SWAP1 POP SWAP2 SWAP1 POP JUMP JUMPDEST PUSH1 0x0 PUSH2 0xA24 DUP3 PUSH2 0x9F9 JUMP JUMPDEST SWAP1 POP SWAP2 SWAP1 POP JUMP JUMPDEST PUSH2 0xA34 DUP2 PUSH2 0xA19 JUMP JUMPDEST DUP2 EQ PUSH2 0xA3F JUMPI PUSH1 0x0 DUP1 REVERT JUMPDEST POP JUMP JUMPDEST PUSH1 0x0 DUP2 CALLDATALOAD SWAP1 POP PUSH2 0xA51 DUP2 PUSH2 0xA2B JUMP JUMPDEST SWAP3 SWAP2 POP POP JUMP JUMPDEST PUSH1 0x0 PUSH1 0x20 DUP3 DUP5 SUB SLT ISZERO PUSH2 0xA6D JUMPI PUSH2 0xA6C PUSH2 0x98C JUMP JUMPDEST JUMPDEST PUSH1 0x0 PUSH2 0xA7B DUP5 DUP3 DUP6 ADD PUSH2 0xA42 JUMP JUMPDEST SWAP2 POP POP SWAP3 SWAP2 POP POP JUMP JUMPDEST PUSH1 0x0 DUP2 ISZERO ISZERO SWAP1 POP SWAP2 SWAP1 POP JUMP JUMPDEST PUSH2 0xA99 DUP2 PUSH2 0xA84 JUMP JUMPDEST DUP3 MSTORE POP POP JUMP JUMPDEST PUSH1 0x0 PUSH1 0x20 DUP3 ADD SWAP1 POP PUSH2 0xAB4 PUSH1 0x0 DUP4 ADD DUP5 PUSH2 0xA90 JUMP JUMPDEST SWAP3 SWAP2 POP POP JUMP JUMPDEST PUSH2 0xAC3 DUP2 PUSH2 0x996 JUMP JUMPDEST DUP3 MSTORE POP POP JUMP JUMPDEST PUSH1 0x0 PUSH1 0x20 DUP3 ADD SWAP1 POP PUSH2 0xADE PUSH1 0x0 DUP4 ADD DUP5 PUSH2 0xABA JUMP JUMPDEST SWAP3 SWAP2 POP POP JUMP JUMPDEST PUSH2 0xAED DUP2 PUSH2 0xA19 JUMP JUMPDEST DUP3 MSTORE POP POP JUMP JUMPDEST PUSH1 0x0 PUSH1 0xA0 DUP3 ADD SWAP1 POP PUSH2 0xB08 PUSH1 0x0 DUP4 ADD DUP9 PUSH2 0xABA JUMP JUMPDEST PUSH2 0xB15 PUSH1 0x20 DUP4 ADD DUP8 PUSH2 0xABA JUMP JUMPDEST PUSH2 0xB22 PUSH1 0x40 DUP4 ADD DUP7 PUSH2 0xABA JUMP JUMPDEST PUSH2 0xB2F PUSH1 0x60 DUP4 ADD DUP6 PUSH2 0xABA JUMP JUMPDEST PUSH2 0xB3C PUSH1 0x80 DUP4 ADD DUP5 PUSH2 0xAE4 JUMP JUMPDEST SWAP7 SWAP6 POP POP POP POP POP POP JUMP JUMPDEST PUSH1 0x0 PUSH1 0x20 DUP3 ADD SWAP1 POP PUSH2 0xB5B PUSH1 0x0 DUP4 ADD DUP5 PUSH2 0xAE4 JUMP JUMPDEST SWAP3 SWAP2 POP POP JUMP JUMPDEST PUSH1 0x0 DUP2 MLOAD SWAP1 POP SWAP2 SWAP1 POP JUMP JUMPDEST PUSH1 0x0 DUP3 DUP3 MSTORE PUSH1 0x20 DUP3 ADD SWAP1 POP SWAP3 SWAP2 POP POP JUMP JUMPDEST PUSH1 0x0 JUMPDEST DUP4 DUP2 LT ISZERO PUSH2 0xB9B JUMPI DUP1 DUP3 ADD MLOAD DUP2 DUP5 ADD MSTORE PUSH1 0x20 DUP2 ADD SWAP1 POP PUSH2 0xB80 JUMP JUMPDEST PUSH1 0x0 DUP5 DUP5 ADD MSTORE POP POP POP POP JUMP JUMPDEST PUSH1 0x0 PUSH1 0x1F NOT PUSH1 0x1F DUP4 ADD AND SWAP1 POP SWAP2 SWAP1 POP JUMP JUMPDEST PUSH1 0x0 PUSH2 0xBC3 DUP3 PUSH2 0xB61 JUMP JUMPDEST PUSH2 0xBCD DUP2 DUP6 PUSH2 0xB6C JUMP JUMPDEST SWAP4 POP PUSH2 0xBDD DUP2 DUP6 PUSH1 0x20 DUP7 ADD PUSH2 0xB7D JUMP JUMPDEST PUSH2 0xBE6 DUP2 PUSH2 0xBA7 JUMP JUMPDEST DUP5 ADD SWAP2 POP POP SWAP3 SWAP2 POP POP JUMP JUMPDEST PUSH1 0x0 PUSH1 0xE0 DUP3 ADD SWAP1 POP DUP2 DUP2 SUB PUSH1 0x0 DUP4 ADD MSTORE PUSH2 0xC0B DUP2 DUP11 PUSH2 0xBB8 JUMP JUMPDEST SWAP1 POP DUP2 DUP2 SUB PUSH1 0x20 DUP4 ADD MSTORE PUSH2 0xC1F DUP2 DUP10 PUSH2 0xBB8 JUMP JUMPDEST SWAP1 POP DUP2 DUP2 SUB PUSH1 0x40 DUP4 ADD MSTORE PUSH2 0xC33 DUP2 DUP9 PUSH2 0xBB8 JUMP JUMPDEST SWAP1 POP PUSH2 0xC42 PUSH1 0x60 DUP4 ADD DUP8 PUSH2 0xABA JUMP JUMPDEST PUSH2 0xC4F PUSH1 0x80 DUP4 ADD DUP7 PUSH2 0xAE4 JUMP JUMPDEST PUSH2 0xC5C PUSH1 0xA0 DUP4 ADD DUP6 PUSH2 0xA90 JUMP JUMPDEST PUSH2 0xC69 PUSH1 0xC0 DUP4 ADD DUP5 PUSH2 0xABA JUMP JUMPDEST SWAP9 SWAP8 POP POP POP POP POP POP POP POP JUMP JUMPDEST PUSH1 0x0 DUP1 REVERT JUMPDEST PUSH1 0x0 DUP1 REVERT JUMPDEST PUSH32 0x4E487B7100000000000000000000000000000000000000000000000000000000 PUSH1 0x0 MSTORE PUSH1 0x41 PUSH1 0x4 MSTORE PUSH1 0x24 PUSH1 0x0 REVERT JUMPDEST PUSH2 0xCB7 DUP3 PUSH2 0xBA7 JUMP JUMPDEST DUP2 ADD DUP2 DUP2 LT PUSH8 0xFFFFFFFFFFFFFFFF DUP3 GT OR ISZERO PUSH2 0xCD6 JUMPI PUSH2 0xCD5 PUSH2 0xC7F JUMP JUMPDEST JUMPDEST DUP1 PUSH1 0x40 MSTORE POP POP POP JUMP JUMPDEST PUSH1 0x0 PUSH2 0xCE9 PUSH2 0x982 JUMP JUMPDEST SWAP1 POP PUSH2 0xCF5 DUP3 DUP3 PUSH2 0xCAE JUMP JUMPDEST SWAP2 SWAP1 POP JUMP JUMPDEST PUSH1 0x0 PUSH8 0xFFFFFFFFFFFFFFFF DUP3 GT ISZERO PUSH2 0xD15 JUMPI PUSH2 0xD14 PUSH2 0xC7F JUMP JUMPDEST JUMPDEST PUSH2 0xD1E DUP3 PUSH2 0xBA7 JUMP JUMPDEST SWAP1 POP PUSH1 0x20 DUP2 ADD SWAP1 POP SWAP2 SWAP1 POP JUMP JUMPDEST DUP3 DUP2 DUP4 CALLDATACOPY PUSH1 0x0 DUP4 DUP4 ADD MSTORE POP POP POP JUMP JUMPDEST PUSH1 0x0 PUSH2 0xD4D PUSH2 0xD48 DUP5 PUSH2 0xCFA JUMP JUMPDEST PUSH2 0xCDF JUMP JUMPDEST SWAP1 POP DUP3 DUP2 MSTORE PUSH1 0x20 DUP2 ADD DUP5 DUP5 DUP5 ADD GT ISZERO PUSH2 0xD69 JUMPI PUSH2 0xD68 PUSH2 0xC7A JUMP JUMPDEST JUMPDEST PUSH2 0xD74 DUP5 DUP3 DUP6 PUSH2 0xD2B JUMP JUMPDEST POP SWAP4 SWAP3 POP POP POP JUMP JUMPDEST PUSH1 0x0 DUP3 PUSH1 0x1F DUP4 ADD SLT PUSH2 0xD91 JUMPI PUSH2 0xD90 PUSH2 0xC75 JUMP JUMPDEST JUMPDEST DUP2 CALLDATALOAD PUSH2 0xDA1 DUP5 DUP3 PUSH1 0x20 DUP7 ADD PUSH2 0xD3A JUMP JUMPDEST SWAP2 POP POP SWAP3 SWAP2 POP POP JUMP JUMPDEST PUSH1 0x0 DUP1 PUSH1 0x0 DUP1 PUSH1 0x0 PUSH1 0xA0 DUP7 DUP9 SUB SLT ISZERO PUSH2 0xDC6 JUMPI PUSH2 0xDC5 PUSH2 0x98C JUMP JUMPDEST JUMPDEST PUSH1 0x0 DUP7 ADD CALLDATALOAD PUSH8 0xFFFFFFFFFFFFFFFF DUP2 GT ISZERO PUSH2 0xDE4 JUMPI PUSH2 0xDE3 PUSH2 0x991 JUMP JUMPDEST JUMPDEST PUSH2 0xDF0 DUP9 DUP3 DUP10 ADD PUSH2 0xD7C JUMP JUMPDEST SWAP6 POP POP PUSH1 0x20 DUP7 ADD CALLDATALOAD PUSH8 0xFFFFFFFFFFFFFFFF DUP2 GT ISZERO PUSH2 0xE11 JUMPI PUSH2 0xE10 PUSH2 0x991 JUMP JUMPDEST JUMPDEST PUSH2 0xE1D DUP9 DUP3 DUP10 ADD PUSH2 0xD7C JUMP JUMPDEST SWAP5 POP POP PUSH1 0x40 DUP7 ADD CALLDATALOAD PUSH8 0xFFFFFFFFFFFFFFFF DUP2 GT ISZERO PUSH2 0xE3E JUMPI PUSH2 0xE3D PUSH2 0x991 JUMP JUMPDEST JUMPDEST PUSH2 0xE4A DUP9 DUP3 DUP10 ADD PUSH2 0xD7C JUMP JUMPDEST SWAP4 POP POP PUSH1 0x60 PUSH2 0xE5B DUP9 DUP3 DUP10 ADD PUSH2 0x9B7 JUMP JUMPDEST SWAP3 POP POP PUSH1 0x80 PUSH2 0xE6C DUP9 DUP3 DUP10 ADD PUSH2 0xA42 JUMP JUMPDEST SWAP2 POP POP SWAP3 SWAP6 POP SWAP3 SWAP6 SWAP1 SWAP4 POP JUMP JUMPDEST PUSH32 0x4E487B7100000000000000000000000000000000000000000000000000000000 PUSH1 0x0 MSTORE PUSH1 0x32 PUSH1 0x4 MSTORE PUSH1 0x24 PUSH1 0x0 REVERT JUMPDEST PUSH32 0x4E487B7100000000000000000000000000000000000000000000000000000000 PUSH1 0x0 MSTORE PUSH1 0x12 PUSH1 0x4 MSTORE PUSH1 0x24 PUSH1 0x0 REVERT JUMPDEST PUSH32 0x4E487B7100000000000000000000000000000000000000000000000000000000 PUSH1 0x0 MSTORE PUSH1 0x11 PUSH1 0x4 MSTORE PUSH1 0x24 PUSH1 0x0 REVERT JUMPDEST PUSH1 0x0 PUSH2 0xF11 DUP3 PUSH2 0x996 JUMP JUMPDEST SWAP2 POP PUSH2 0xF1C DUP4 PUSH2 0x996 JUMP JUMPDEST SWAP3 POP DUP3 PUSH2 0xF2C JUMPI PUSH2 0xF2B PUSH2 0xEA8 JUMP JUMPDEST JUMPDEST DUP3 DUP3 DIV SWAP1 POP SWAP3 SWAP2 POP POP JUMP JUMPDEST PUSH32 0x4E487B7100000000000000000000000000000000000000000000000000000000 PUSH1 0x0 MSTORE PUSH1 0x22 PUSH1 0x4 MSTORE PUSH1 0x24 PUSH1 0x0 REVERT JUMPDEST PUSH1 0x0 PUSH1 0x2 DUP3 DIV SWAP1 POP PUSH1 0x1 DUP3 AND DUP1 PUSH2 0xF7E JUMPI PUSH1 0x7F DUP3 AND SWAP2 POP JUMPDEST PUSH1 0x20 DUP3 LT DUP2 SUB PUSH2 0xF91 JUMPI PUSH2 0xF90 PUSH2 0xF37 JUMP JUMPDEST JUMPDEST POP SWAP2 SWAP1 POP JUMP JUMPDEST PUSH1 0x0 PUSH2 0xFA2 DUP3 PUSH2 0x996 JUMP JUMPDEST SWAP2 POP PUSH32 0xFFFFFFFFFFFFFFFFFFFFFFFFFFFFFFFFFFFFFFFFFFFFFFFFFFFFFFFFFFFFFFFF DUP3 SUB PUSH2 0xFD4 JUMPI PUSH2 0xFD3 PUSH2 0xED7 JUMP JUMPDEST JUMPDEST PUSH1 0x1 DUP3 ADD SWAP1 POP SWAP2 SWAP1 POP JUMP JUMPDEST PUSH1 0x0 DUP2 SWAP1 POP DUP2 PUSH1 0x0 MSTORE PUSH1 0x20 PUSH1 0x0 KECCAK256 SWAP1 POP SWAP2 SWAP1 POP JUMP JUMPDEST PUSH1 0x0 PUSH1 0x20 PUSH1 0x1F DUP4 ADD DIV SWAP1 POP SWAP2 SWAP1 POP JUMP JUMPDEST PUSH1 0x0 DUP3 DUP3 SHL SWAP1 POP SWAP3 SWAP2 POP POP JUMP JUMPDEST PUSH1 0x0 PUSH1 0x8 DUP4 MUL PUSH2 0x1041 PUSH32 0xFFFFFFFFFFFFFFFFFFFFFFFFFFFFFFFFFFFFFFFFFFFFFFFFFFFFFFFFFFFFFFFF DUP3 PUSH2 0x1004 JUMP JUMPDEST PUSH2 0x104B DUP7 DUP4 PUSH2 0x1004 JUMP JUMPDEST SWAP6 POP DUP1 NOT DUP5 AND SWAP4 POP DUP1 DUP7 AND DUP5 OR SWAP3 POP POP POP SWAP4 SWAP3 POP POP POP JUMP JUMPDEST PUSH1 0x0 DUP2 SWAP1 POP SWAP2 SWAP1 POP JUMP JUMPDEST PUSH1 0x0 PUSH2 0x1088 PUSH2 0x1083 PUSH2 0x107E DUP5 PUSH2 0x996 JUMP JUMPDEST PUSH2 0x1063 JUMP JUMPDEST PUSH2 0x996 JUMP JUMPDEST SWAP1 POP SWAP2 SWAP1 POP JUMP JUMPDEST PUSH1 0x0 DUP2 SWAP1 POP SWAP2 SWAP1 POP JUMP JUMPDEST PUSH2 0x10A2 DUP4 PUSH2 0x106D JUMP JUMPDEST PUSH2 0x10B6 PUSH2 0x10AE DUP3 PUSH2 0x108F JUMP JUMPDEST DUP5 DUP5 SLOAD PUSH2 0x1011 JUMP JUMPDEST DUP3 SSTORE POP POP POP POP JUMP JUMPDEST PUSH1 0x0 SWAP1 JUMP JUMPDEST PUSH2 0x10CB PUSH2 0x10BE JUMP JUMPDEST PUSH2 0x10D6 DUP2 DUP5 DUP5 PUSH2 0x1099 JUMP JUMPDEST POP POP POP JUMP JUMPDEST JUMPDEST DUP2 DUP2 LT ISZERO PUSH2 0x10FA JUMPI PUSH2 0x10EF PUSH1 0x0 DUP3 PUSH2 0x10C3 JUMP JUMPDEST PUSH1 0x1 DUP2 ADD SWAP1 POP PUSH2 0x10DC JUMP JUMPDEST POP POP JUMP JUMPDEST PUSH1 0x1F DUP3 GT ISZERO PUSH2 0x113F JUMPI PUSH2 0x1110 DUP2 PUSH2 0xFDF JUMP JUMPDEST PUSH2 0x1119 DUP5 PUSH2 0xFF4 JUMP JUMPDEST DUP2 ADD PUSH1 0x20 DUP6 LT ISZERO PUSH2 0x1128 JUMPI DUP2 SWAP1 POP JUMPDEST PUSH2 0x113C PUSH2 0x1134 DUP6 PUSH2 0xFF4 JUMP JUMPDEST DUP4 ADD DUP3 PUSH2 0x10DB JUMP JUMPDEST POP POP JUMPDEST POP POP POP JUMP JUMPDEST PUSH1 0x0 DUP3 DUP3 SHR SWAP1 POP SWAP3 SWAP2 POP POP JUMP JUMPDEST PUSH1 0x0 PUSH2 0x1162 PUSH1 0x0 NOT DUP5 PUSH1 0x8 MUL PUSH2 0x1144 JUMP JUMPDEST NOT DUP1 DUP4 AND SWAP2 POP POP SWAP3 SWAP2 POP POP JUMP JUMPDEST PUSH1 0x0 PUSH2 0x117B DUP4 DUP4 PUSH2 0x1151 JUMP JUMPDEST SWAP2 POP DUP3 PUSH1 0x2 MUL DUP3 OR SWAP1 POP SWAP3 SWAP2 POP POP JUMP JUMPDEST PUSH2 0x1194 DUP3 PUSH2 0xB61 JUMP JUMPDEST PUSH8 0xFFFFFFFFFFFFFFFF DUP2 GT ISZERO PUSH2 0x11AD JUMPI PUSH2 0x11AC PUSH2 0xC7F JUMP JUMPDEST JUMPDEST PUSH2 0x11B7 DUP3 SLOAD PUSH2 0xF66 JUMP JUMPDEST PUSH2 0x11C2 DUP3 DUP3 DUP6 PUSH2 0x10FE JUMP JUMPDEST PUSH1 0x0 PUSH1 0x20 SWAP1 POP PUSH1 0x1F DUP4 GT PUSH1 0x1 DUP2 EQ PUSH2 0x11F5 JUMPI PUSH1 0x0 DUP5 ISZERO PUSH2 0x11E3 JUMPI DUP3 DUP8 ADD MLOAD SWAP1 POP JUMPDEST PUSH2 0x11ED DUP6 DUP3 PUSH2 0x116F JUMP JUMPDEST DUP7 SSTORE POP PUSH2 0x1255 JUMP JUMPDEST PUSH1 0x1F NOT DUP5 AND PUSH2 0x1203 DUP7 PUSH2 0xFDF JUMP JUMPDEST PUSH1 0x0 JUMPDEST DUP3 DUP2 LT ISZERO PUSH2 0x122B JUMPI DUP5 DUP10 ADD MLOAD DUP3 SSTORE PUSH1 0x1 DUP3 ADD SWAP2 POP PUSH1 0x20 DUP6 ADD SWAP5 POP PUSH1 0x20 DUP2 ADD SWAP1 POP PUSH2 0x1206 JUMP JUMPDEST DUP7 DUP4 LT ISZERO PUSH2 0x1248 JUMPI DUP5 DUP10 ADD MLOAD PUSH2 0x1244 PUSH1 0x1F DUP10 AND DUP3 PUSH2 0x1151 JUMP JUMPDEST DUP4 SSTORE POP JUMPDEST PUSH1 0x1 PUSH1 0x2 DUP9 MUL ADD DUP9 SSTORE POP POP POP JUMPDEST POP POP POP POP POP POP JUMP INVALID LOG2 PUSH5 0x6970667358 0x22 SLT KECCAK256 BASEFEE MUL 0x2B SWAP15 0x27 REVERT 0xDE DUP2 0x26 0xE 0xB4 PUSH15 0x7C05C42536D7AC0E1C95B54B5E42DC 0xFC CHAINID 0xCE PUSH4 0x6564736F PUSH13 0x63430008130033000000000000 "},"gasEstimates":{"creation":{"codeDepositCost":"951000","executionCost":"infinite","totalCost":"infinite"},"external":{"approveRequest(uint256)":"infinite","approvers(address)":"2868","approversCount()":"2451","contribute()":"51021","createRequest(string,string,string,uint256,address)":"infinite","finalizeRequest(uint256)":"infinite","getRequestsCount()":"2490","getSummary()":"infinite","manager()":"2603","minimumContribution()":"2473","requests(uint256)":"infinite"}},"methodIdentifiers":{"approveRequest(uint256)":"d7d1bbdb","approvers(address)":"0a144391","approversCount()":"82fde093","contribute()":"d7bb99ba","createRequest(string,string,string,uint256,address)":"f031ecb8","finalizeRequest(uint256)":"03441006","getRequestsCount()":"3410452a","getSummary()":"4051ddac","manager()":"481c6a75","minimumContribution()":"937e09b1","requests(uint256)":"81d12c58"}},"storageLayout":{"storage":[{"astId":65,"contract":"Campaign.sol:Campaign","label":"requests","offset":0,"slot":"0","type":"t_array(t_struct(Request)61_storage)dyn_storage"},{"astId":67,"contract":"Campaign.sol:Campaign","label":"manager","offset":0,"slot":"1","type":"t_address"},{"astId":69,"contract":"Campaign.sol:Campaign","label":"minimumContribution","offset":0,"slot":"2","type":"t_uint256"},{"astId":73,"contract":"Campaign.sol:Campaign","label":"approvers","offset":0,"slot":"3","type":"t_mapping(t_address,t_bool)"},{"astId":75,"contract":"Campaign.sol:Campaign","label":"approversCount","offset":0,"slot":"4","type":"t_uint256"}],"types":{"t_address":{"encoding":"inplace","label":"address","numberOfBytes":"20"},"t_array(t_struct(Request)61_storage)dyn_storage":{"base":"t_struct(Request)61_storage","encoding":"dynamic_array","label":"struct Campaign.Request[]","numberOfBytes":"32"},"t_bool":{"encoding":"inplace","label":"bool","numberOfBytes":"1"},"t_mapping(t_address,t_bool)":{"encoding":"mapping","key":"t_address","label":"mapping(address => bool)","numberOfBytes":"32","value":"t_bool"},"t_string_storage":{"encoding":"bytes","label":"string","numberOfBytes":"32"},"t_struct(Request)61_storage":{"encoding":"inplace","label":"struct Campaign.Request","members":[{"astId":44,"contract":"Campaign.sol:Campaign","label":"orderId","offset":0,"slot":"0","type":"t_string_storage"},{"astId":46,"contract":"Campaign.sol:Campaign","label":"inspectedby","offset":0,"slot":"1","type":"t_string_storage"},{"astId":48,"contract":"Campaign.sol:Campaign","label":"approvedby","offset":0,"slot":"2","type":"t_string_storage"},{"astId":50,"contract":"Campaign.sol:Campaign","label":"value","offset":0,"slot":"3","type":"t_uint256"},{"astId":52,"contract":"Campaign.sol:Campaign","label":"recipient","offset":0,"slot":"4","type":"t_address"},{"astId":54,"contract":"Campaign.sol:Campaign","label":"complete","offset":20,"slot":"4","type":"t_bool"},{"astId":56,"contract":"Campaign.sol:Campaign","label":"approvalCount","offset":0,"slot":"5","type":"t_uint256"},{"astId":60,"contract":"Campaign.sol:Campaign","label":"approvals","offset":0,"slot":"6","type":"t_mapping(t_address,t_bool)"}],"numberOfBytes":"224"},"t_uint256":{"encoding":"inplace","label":"uint256","numberOfBytes":"32"}}},"userdoc":{"kind":"user","methods":{},"version":1}}